:020000040000FA
:1000000042EF04F01200120064EF04F01200FFFF50
:100010000000FFFFFFFFFFFF6CEF04F01200020083
:100020001000000080000000020000000E00000030
:100030007E000000020000000001776B1E0E716E52
:100040000401400E096F200E0A6F040E0B6F880E1C
:10005000086F0401200E0E6F040E0F6F400E0C6F20
:100060001200550EA76EAA0EA76EA68212000401FA
:10007000140E226F010E236F12000001756B5CD904
:100080000AE267D90800F5CF76F000014ED976C0B4
:10009000EFFF752BF4D7F86A1200F00E0401221757
:1000A000840EA66E0001756B47D90AE24AD90F0E7D
:1000B000000175150F0801E1D4DF0001752BF4D79D
:1000C0001200940EA66E0001756B36D911E27551BF
:1000D000006E016A060ED89000360136E804FBE196
:1000E000026A01BE026812D9BCDF0001752BEDD790
:1000F000F86A1200A66A0001756B1ED90BE20401B2
:10010000225100017525A96EA6800FD9A8CFEFFF57
:10011000752BF3D712000001756B0ED910E20401A4
:10012000225100017525A96E00D9EF50A86E040E6A
:10013000A66E97DFA6B2FED70001752BEED7120090
:10014000C40EA66E0001756BF7D805E2FAD889DFF8
:100150000001752BF9D7F86A120097D8060E000136
:100160007A5D03E36D50020B01E08ED0000177054C
:1001700011E104010CBF0DD00401400E096F400EC7
:10018000040108170401087D880E0401081300010A
:10019000776B7AD0040108BF77D00001756B04013A
:1001A0002051320A45E0CD0A34E0F80A2DE0020A77
:1001B00026E0010A1FE0070A18E0010A11E0030A1D
:1001C0000AE0070A08E0060A01E04DD050DF00010E
:1001D000040E756F49D051DF050E0001752744D01C
:1001E0005CDF0001010E756F3FD06BDF0001010E77
:1001F000756F3AD07FDF050E0001752735D08BDF94
:100200000001010E756F30D09BDF0001010E756F8C
:100210002BD06D960001786B796B00017807000E8A
:10022000795B00017851791101E0F7D7FF001CD00C
:10023000030E0401215D09E104012251E8B08C8420
:10024000E8A08C940001010E756F040E0401215D7D
:1002500009E104012251E8B08C86E8A08C960001E7
:10026000010E756F01D000D00001010E776F000103
:1002700075510AE075C00DF4400E04010C1704011D
:100280000C7D880E04010C131200000180518111B5
:1002900004E1200E806F4E0E816F8007000E815B9F
:1002A0006DA208D08051811130E18C708C50010B0F
:1002B00013E128D000017A5102E18C9023D07A0515
:1002C00002E18C8009D0020E7A5D02E18C801AD0A6
:1002D000030E7A5D03E18C908C821200050E7A5D2C
:1002E00006E100018051811110E18C700BD0060EE7
:1002F0007A5D0BE100018051811107E18C708C5017
:10030000010B02E08C9212008C8212000401225137
:100310000024F36E23510120F46E24510220F86E64
:10032000F4CFF7FFF3CFF6FF12007551EA6A250FFD
:10033000E96E040EEA221200040121510001755DEC
:100340001200F3DFEFCF03F004D803C0F5FF0C0079
:10035000120075C000F0016A026A86EF01F06C506D
:100360000BE1040100513C0BE842E8420D0802E1B8
:10037000C1EF01F0CAEF01F0040E6C5C01E119D885
:1003800012000001606B616B666B676B95EC02F0AD
:100390004CEF02F0020E0001605D09E15CD804013F
:1003A00000BD02D0C80E01D0880E006F120085EF8C
:1003B00002F0040E00017A5D09E112C46EFF6E5076
:1003C000000802E2050E01D0030E7A6F00016005FD
:1003D00009E10AD8040104BD02D0C80E01D0880E7C
:1003E000046F120085EF02F00001080E665D000E3A
:1003F000675903E266C069F002D0080E696F69C0F0
:1004000005F46951006E016A0050665F0150675B38
:10041000180E646F040E656F69511CE000017BA328
:1004200007D062C0F6FF63C0F7FF0800F55005D0A3
:1004300062C0E9FF63C0EAFFEF5064C0E9FF65C036
:10044000EAFFEF6E0001622B000E6323642B65232D
:100450006907E2D7120001C46AF000016A516625FB
:10046000666F000E6721676F180E626F040E636F70
:100470006A5111E062C0E9FF63C0EAFFEF5064C057
:10048000E9FF65C0EAFFEF6E642B000E6523622B67
:1004900063236A07EDD712006D980001615105E1F1
:1004A0003CD8840E006F04011DD0040110AF1CD095
:1004B000000166510401165D0001675104011759DE
:1004C00004E216C466F017C467F08EDF0001010E67
:1004D000606F23D8800E006F0401180E066F040EA3
:1004E000076FC80E046F12000001020E606F040156
:1004F000056BC80E046F0401080E016F180E026F21
:10050000040E036FC80E006F12000001606B05D867
:100510008C0E006F0401046B12000401080E016FC1
:10052000100E026F040E036F120004011051600BD5
:10053000E842E842E842E842E842000901E01200ED
:100540001151080A39E0010A35E00F0A0AE0030AEE
:1005500001E012000001010E616F0001040E7A6FCC
:1005600012000001010E616F0401130507E1000193
:10057000180E626F080E636F120E13D0020E135D19
:1005800007E100012A0E626F080E636F200E09D08A
:10059000030E135D0AE100014A0E626F080E636FDD
:1005A000040E0001666F676B02D00001616B0001F1
:1005B0007B831200EAEF02F00001010E616F00017F
:1005C0007C0E626F000E636F00017B930001010ED1
:1005D000666F12000001010E616F12C47CF004010D
:1005E000125104E10001050E7A6F12000001060E9F
:1005F0007A6F1CEF00F0080E6D6E6DBAFED7686A58
:10060000110E696E0001020E7A6F12006850040B21
:1006100009E06950040B06E06D92699468A402D069
:100620006894FCD76850010B04E06950010B01E0AD
:1006300025D86850100B0AE06950100B07E0698458
:1006400068986D82A19AA08A0300A19A6850200B35
:1006500006E06950200B03E070B07090689A030EBA
:1006600000017A5D01E209D06850080B06E069508C
:10067000080B03E0AFEC01F068961200686A7B0E8D
:10068000696E6E6A160E706E68A608D068960000D5
:1006900000000000000000000000F6D76D9885EC17
:1006A00002F000017C6B0001030E7A6F12001E0E37
:1006B000F66E000EF76E000EF86E00010900F550A0
:1006C000706F0900F550716F03E1706701D03DD084
:1006D0000900F5506B6F0900F5506C6F0900F5507B
:1006E0006D6F09000900F550E96E0900F550EA6EDA
:1006F000090009000900F5506E6F0900F5506F6F91
:1007000009000900F6CF72F0F7CF73F0F8CF74F05C
:100710006BC0F6FF6CC0F7FF6DC0F8FF00016E53B1
:1007200002E16F5307E00900F550EE6E6E07F8E244
:100730006F07F9D772C0F6FF73C0F7FF74C0F8FFF8
:1007400000017007000E715BBFD71200C1CF82F0AD
:100750000F0EC112100E936E8A80090EE66EE66AC5
:1007600027EC04F0E552E55200017E6F110E000106
:100770007E5D16E1A650020B06E000017F517F0767
:10078000000801E2F7D7E668090EE66EE66AE7ECD4
:1007900003F0E552E552E5520001010E7E6F02D0F2
:1007A00000017E6B00017E5108E18150100B05E0D5
:1007B0008A9082C0C1FF60EF04F0140E6F6EFBECF4
:1007C00002F006EC03F0ADEC00F0FBD71200D9CF3D
:1007D000E6FFDACFE6FFE1CFD9FFE2CFDAFFFF0E87
:1007E000E76EFC0EDBCF00F0E75000160050A96E5C
:1007F000FB0EDB50A86EA69EA69CA684F29E550E0C
:10080000A76EAA0EA76EA682F28EA694E552E5CF39
:10081000DAFFE7CFD9FF1200120100020000000842
:10082000D8040B00010000000001090220000101B2
:1008300000803209040000020000000007050102E8
:100840004000000705810240000004030904D9CFDD
:10085000E6FFDACFE6FFE1CFD9FFE2CFDAFFFF0E06
:10086000E76EFC0EDBCF00F0E75000160050A96EDB
:10087000A69CA69EA680A850E552E5CFDAFFE7CF5A
:10088000D9FF120013EE00F023EE00F0F86A059C89
:1008900057EC03F003EC00F0A6EC03F0FBD71200DA
:1008A00000EE00F00F0EEE6AEA62FDD71200FFFFC5
:1008C00086EF18F01200FFFF02EF10F01200FFFF9A
:1008D000FFFFFFFFFFFFFFFF1200FFFFFFFFFFFF14
:1008E000FFFFFFFFFFFFFFFFFFFF03FF1E0E716E05
:1008F0000401400E096F300E0A6F040E0B6F880E54
:10090000086F700E0E6F040E0F6F400E0C6F1E0EF0
:10091000726E400E116FB00E126F040E136F880EC0
:10092000106FF00E166F040E176F400E146F1E0E30
:10093000736E400E196F300E1A6F050E1B6F800E0E
:10094000186F700E1E6F050E1F6F400E1C6F120089
:100AE000FFFFFFFFFFFFFFFFFFFF120100020000FB
:100AF0000008D8040C0000000102030109023C00B8
:100B000001010080FA09040000060000000007054A
:100B100001024000FF070581024000FF07050202B5
:100B20004000FF070582024000FF07050301400067
:100B3000060705830140000604030904320341004F
:100B400067007500690072007200650020004600B1
:100B5000650072006E0061006E00640065007A003E
:100B60002000470072006F007300730079002A03B1
:100B7000550053004200340061006C006C002000FE
:100B800028004300290032003000300037002000E8
:100B9000460049004E00470012033000300030008C
:100BA00030003000300030003200FFFFFFFFFFFF59
:100CE000FFFFFFFFFFFFFFFFFFFFFC0AFC0AFFFF04
:100D2000FFFFFFFFFFFFFFFFFFFF380B3C0B6E0BCA
:100D3000980BFFFFFFFFFFFFFFFFFFFFFFFFFFFF1E
:100DA000FFFFFFFFFFFFFFFFFFFF04006E310000AA
:100DB000D6010000020000006C310000D4010000E8
:100DC0000200000030310000000100003C00000083
:100DD0002A310000B801000006000000D9CFE6FF6C
:100DE000E1CFD9FFE652DF6A050EDF5C0DE2EA6A69
:100DF000DF34FE0BEA36E96EE50EE926000EEA2244
:100E0000EE6AED6ADF2AF0D70001EF6BE552E5529A
:100E1000E7CFD9FF1200D9CFE6FFE1CFD9FF020E0D
:100E2000E126DF6A010EDB6A050EDF5C23E2010EBC
:100E3000DB5020E1EA6ADF34FE0BEA36E96EE50EAC
:100E4000E926000EEA22EE50ED1012E1DE52010E0C
:100E5000DD6EEA6ADF34FE0BEA36E96EE50EE9265E
:100E6000000EEA22FD0EDBCFEEFFFE0EDBCFEDFF24
:100E7000DF2ADAD7010EDB5002E1000E16D00001A6
:100E8000EF51EF2B00090FE18C0EE66E0F0EE66EB0
:100E90006FEC0FF0E552E552F294F28AF1C0D6FF02
:100EA000F0C0D7FFD58E010E00D0106E020EE15CAF
:100EB00002E2E16AE552E16E1050E552E7CFD9FF58
:100EC0001200D9CFE6FFE1CFD9FF020EE126DF6A9B
:100ED000010EDB6A050EDF5C28E2010EDB5025E126
:100EE000EA6ADF34FE0BEA36E96EE50EE926000E0B
:100EF000EA22EECF10F0EFCF11F0FD0EDB5010180C
:100F000003E1FE0EDB5011180EE1DE52010EDD6E24
:100F1000EA6ADF34FE0BEA36E96EE50EE926000EDA
:100F2000EA22EE6AED6ADF2AD5D7010EDB5002E134
:100F3000000E10D00001EF070BE1D59EF294F29A5B
:100F40008C0EE66E0F0EE66EB7EC0FF0E552E55232
:100F5000010E00D0106E020EE15C02E2E16AE55281
:100F6000E16E1050E552E7CFD9FF1200D9CFE6FF6E
:100F7000E1CFD9FF020ED56EFE0EDBCFF1F0FD0EF4
:100F8000DBCFF0F0E552E7CFD9FF1200D9CFE6FF73
:100F9000E1CFD9FFE652DF6AF2A429D0F294F1C082
:100FA000D6FFF0C0D7FF050EDF5C21E2EA6ADF342E
:100FB000FE0BEA36E96EE50EE926000EEA22EE5057
:100FC000ED1013E0EA6ADF34FE0BEA36E96EE50E57
:100FD000E926000EEA22EECF10F0EFCF11F004D098
:100FE00011C0FAFF1050F96EFBDFDF2ADCD7E552A3
:100FF000E552E7CFD9FF1200D9CFE6FFE1CFD9FF05
:10100000FE0EDB2ADB500A0802E1FE0EDB6AFE0E52
:10101000DB5000D0E552E7CFD9FF1200D9CFE6FF71
:10102000E1CFD9FFFE0EDB5005E10A0EF36EFE0E96
:10103000F3CFDBFFFE0EDB06DB5000D0E552E7CF3F
:10104000D9FF12000101D751D65D02E0000E01D098
:10105000010E00D01200F6DF000904E0F36AF46A22
:1010600011D010D00101D651040DF3CF10F0F4CF00
:1010700011F03C0E1026010E112210C0F3FF11C01A
:10108000F4FF00D01200D6C1E6FFB6DFE552010141
:10109000D66F1200D9CFE6FFE1CFD9FF030EE126CC
:1010A000D7C1E6FFA9DFE552DF6E0101D751040D7C
:1010B000F3CF10F0F4CF11F03C0E1026010E1122E8
:1010C000010E10C0DBFF020E11C0DBFFD651DF5C4A
:1010D00003E1F36AF46A0DD0DFCFD7F1010EDBCF65
:1010E00010F0020EDBCF11F010C0F3FF11C0F4FFBF
:1010F00000D0030EE15C02E2E16AE552E16EE552E6
:10110000E7CFD9FF1200D9CFE6FFE1CFD9FFE652F2
:10111000DF6A0A0EDF5C1EE2DF50040DF3CFE9FF49
:10112000F4CFEAFF3C0EE926010EEA22EE6AED6AF0
:10113000DF50040DF3CFE9FFF4CFEAFF3C0EE926C0
:10114000010EEA22020EE926000EEA22EE6AED6A9C
:10115000DF2ADFD7070ED56E460EE66E170EE66E57
:101160006FEC0FF0E552E552E552E552E7CFD9FFBB
:101170001200D9CFE6FFE1CFD9FF0C0EE126D59EB4
:1011800061DF000906E0FD0EDBCFDEFFDBCFDDFF18
:1011900072D0D750146E14C015F0146AD6500001E6
:1011A0001410126E15C013F0FF0ED880125613568D
:1011B0000101D651040DF3CFE9FFF4CFEAFF3C0E55
:1011C000E926010EEA221250EE5C106E1350EE5822
:1011D000116E020E10C0DBFF030E11C0DBFFFD0E0F
:1011E000DBCF12F0FE0EDBCF13F0020EDB50122429
:1011F000106E030EDB501320116E10C0DEFF11C005
:10120000DDFFDECF10F0DDCF11F0020EDBCF12F0EC
:10121000030EDBCF13F01250105C135011582BE269
:10122000040ED6C1DBFFDB500101D75D1FE0020ECB
:10123000DBCF10F0030EDBCF11F0040EDB50040DFA
:10124000F3CFE9FFF4CFEAFF3C0EE926010EEA22D4
:101250001050EE5E1150ED5A040EDBCFE6FFCCDEEF
:10126000E552E76E040EE7CFDBFFDDD7FD0EDBCFE7
:10127000DEFFDBCFDDFF040ED7C1DBFFDBCFE6FFF8
:10128000CDDEE552E76E050EE7CFDBFF03DF060E8E
:10129000F3CFDBFF070EF4CFDBFFD950060FE96E6B
:1012A000DACFEAFFEE50ED1002E1000EC6D0060ED6
:1012B000DBCFE9FF070EDBCFEAFFDECFEEFFDDCFAE
:1012C000EDFF060EDBCFE9FF070EDBCFEAFF020ED4
:1012D000E926000EEA22FB0EDBCFEEFFFC0EDBCF91
:1012E000EDFF040EDB500101D65D01E186D0040E56
:1012F000DB50040DF3CFE9FFF4CFEAFF3C0EE92603
:10130000010EEA22EECF10F0EFCF11F0050EDB5008
:10131000040DF3CFE9FFF4CFEAFF3C0EE926010EFE
:10132000EA22EECF12F0EFCF13F01250105C135000
:10133000115863E2050EDB50040DF3CFE9FFF4CF43
:10134000EAFF3C0EE926010EEA22080EEECFDBFF93
:10135000090EEECFDBFF0A0EEECFDBFF0B0EEECF5A
:10136000DBFF040EDB50040DF3CFE9FFF4CFEAFFFF
:101370003C0EE926010EEA22EECF10F0EECF11F07E
:10138000EECF12F0EFCF13F0050EDB50040DF3CFCC
:10139000E9FFF4CFEAFF3C0EE926010EEA2210C075
:1013A000EEFF11C0EEFF12C0EEFF13C0EEFF040E01
:1013B000DB50040DF3CFE9FFF4CFEAFF3C0EE92642
:1013C000010EEA22080EDBCFEEFF090EDBCFEEFFA7
:1013D0000A0EDBCFEEFF0B0EDBCFEEFF050EDB5070
:1013E000E76E040EE7CFDBFFDBCFE6FF17DEE5524B
:1013F000E76E050EE7CFDBFF74D7040EDB50D65D3A
:1014000019E1F294F28ADECF10F0DDCF11F0FF0E79
:10141000D8801056115610C0DEFF11C0DDFFDECFA0
:1014200010F0DDCF11F011C010F0116A1050D76E1E
:10143000DF50D66ED58E010E00D0106E0C0EE15C22
:1014400002E2E16AE552E16E1050E552E7CFD9FFC2
:101450001200D9CFE6FFE1CFD9FF0C0EE126010142
:10146000D651040DF3CFE9FFF4CFEAFF3C0EE92695
:10147000010EEA22020EEECFDBFF030EEDCFDBFF03
:10148000FD0EDBCF12F0FE0EDBCF13F0020EDB50B1
:101490001224106E030EDB501320116E10C0DEFFFD
:1014A00011C0DDFFDECF10F0DDCF11F0020EDBCF7B
:1014B00012F0030EDBCF13F01250105C13501158D2
:1014C0002BE2040ED6C1DBFFDB500101D75D1FE02C
:1014D000020EDBCF10F0030EDBCF11F0040EDB5059
:1014E000040DF3CFE9FFF4CFEAFF3C0EE926010E2D
:1014F000EA221050EE5E1150ED5A040EDBCFE6FFEB
:101500007BDDE552E76E040EE7CFDBFFDDD7FD0E96
:10151000DBCFDEFFDBCFDDFF040ED7C1DBFFDBCF90
:10152000E6FF7CDDE552E76E050EE7CFDBFFB2DDBF
:10153000060EF3CFDBFF070EF4CFDBFFD950060F0B
:10154000E96EDACFEAFFEE50ED1002E1000EADD009
:10155000060EDBCFE9FF070EDBCFEAFFDECFEEFFA3
:10156000DDCFEDFF060EDBCFE9FF070EDBCFEAFF95
:10157000020EE926000EEA22FB0EDBCFEEFFFC0E88
:10158000DBCFEDFF050EDB500101D65D01E18BD015
:10159000040EDB50D65D01E186D0040EDB50040D55
:1015A000F3CFE9FFF4CFEAFF3C0EE926010EEA2271
:1015B000EECF10F0EFCF11F0050EDB50040DF3CF9E
:1015C000E9FFF4CFEAFF3C0EE926010EEA22EECF56
:1015D00012F0EFCF13F01250105C1350115863E269
:1015E000050EDB50040DF3CFE9FFF4CFEAFF3C0E0C
:1015F000E926010EEA22080EEECFDBFF090EEECF40
:10160000DBFF0A0EEECFDBFF0B0EEECFDBFF040E8F
:10161000DB50040DF3CFE9FFF4CFEAFF3C0EE926DF
:10162000010EEA22EECF10F0EECF11F0EECF12F065
:10163000EFCF13F0050EDB50040DF3CFE9FFF4CF2D
:10164000EAFF3C0EE926010EEA2210C0EEFF11C0AF
:10165000EEFF12C0EEFF13C0EEFF040EDB50040DD0
:10166000F3CFE9FFF4CFEAFF3C0EE926010EEA22B0
:10167000080EDBCFEEFF090EDBCFEEFF0A0EDBCF4D
:10168000EEFF0B0EDBCFEEFF050EDB50E76E040E18
:10169000E7CFDBFFDBCFE6FFC1DCE552E76E050EEF
:1016A000E7CFDBFF6FD7010E00D0106E0C0EE15CB0
:1016B00002E2E16AE552E16E1050E552E7CFD9FF50
:1016C0001200D9CFE6FFE1CFD9FFE652D6C1DFFF46
:1016D0000101D751DF5C30E0DF50040DF3CFE9FFAB
:1016E000F4CFEAFF3C0EE926010EEA22020EE926BB
:1016F000000EEA22EECF10F0EFCF11F0FD0EDB501E
:10170000101803E1FE0EDB50111810E1DF50040D3C
:10171000F3CFE9FFF4CFEAFF3C0EE926010EEA22FF
:10172000020EE926000EEA22EE6AED6ADFCFE6FF3E
:1017300063DCE552DF6ECCD7010E00D0E552E552F6
:10174000E7CFD9FF1200D9CFE6FFE1CFD9FF080ECE
:10175000E126F2A46AD0D59EF2947DDCF3CFDEFFC1
:10176000F4CFDDFFDECFE9FFDDCFEAFF020EE92691
:10177000000EEA22060EEECFDBFF070EEDCFDBFFF9
:10178000D950060FE96EDACFEAFFEE50ED100CE00B
:10179000060EDBCF10F0070EDBCF11F004D011C026
:1017A000FAFF1050F96EFBDFDECFE9FFDDCFEAFF75
:1017B000020EEECFDBFF030EEDCFDBFF64DC4BDC74
:1017C000F3CFDEFFF4CFDDFFD9CFE9FFDACFEAFFB9
:1017D000EE50ED102AE0DECFE9FFDDCFEAFFEECFDD
:1017E00012F0EFCF13F0020EDB50125C106E030EFE
:1017F000DB501358116EFF0ED88010561156040E90
:1018000010C0DBFF050E11C0DBFF040EDBCF10F0B4
:10181000050EDBCF11F011C010F0116A1050D76E19
:10182000040EDB50D66EF294D58E080EE15C02E217
:10183000E16AE552E16EE552E7CFD9FF1200D9CF58
:10184000E6FFE1CFD9FFE652DF68A650020B05E0C4
:10185000DF50DF06000801E2F8D7E552E552E7CF96
:10186000D9FF1200ECDF110EE66E090EE66EE66A95
:10187000DEEC17F0E552E552E5521200D9CFE6FF53
:10188000E1CFD9FFFE0EDBCFB4F1EE0EE66E180EFF
:10189000E66EB4C1E6FF1EEC25F0E552E552E552D6
:1018A000B4C1E6FF7BEC2AF0E552F3CFB2F1F4CFFE
:1018B000B3F1E552E7CFD9FF1200D9CFE6FFE1CF70
:1018C000D9FF00D0E552E7CFD9FF120000D01200B7
:1018D0006D960101B56BB66B0101B507000EB65BE5
:1018E0000101B551B61101E0F7D7FF001200D9CFC1
:1018F000E6FFE1CFD9FF170EE126DE52110EDD6EB5
:10190000F36E020EF3CFDBFF030EDB6A040EDB6A1D
:10191000DF6AFD0EDBCFE9FFFE0EDBCFEAFFEF5003
:10192000FF0A01E1BED1F40A01E16ED1010A01E131
:101930005BD1030A01E153D1010A01E12DD10E0A65
:1019400001E1DAD0030A01E1C0D0010A01E1BAD015
:10195000070A01E1B4D0010A01E1AED0050A01E1B4
:10196000A2D0060A01E17CD0010A01E09ED1FD0E61
:10197000DBCFE9FFFE0EDBCFEAFF030EE926000E08
:10198000EA22E9CF10F0EACF11F010C0E6FF11C053
:10199000E6FFB8EC11F0E552E5520D0EF3CFDBFF98
:1019A0000E0EF4CFDBFFD9500D0FE96EDACFEAFF50
:1019B000FF0EEE1801E1ED5045E0FD0EDBCFE9FF33
:1019C000FE0EDBCFEAFFEE52010EEFCFDBFF0D0E76
:1019D000DBCFE6FF0E0EDBCFE6FF010EDBCFE6FF2F
:1019E000D6EC27F0E552E552E552E76E130EE7CF4D
:1019F000DBFF0D0EDBCFE6FF0E0EDBCFE6FF1BECB1
:101A000013F0E552E552110EF3CFDBFF120EF4CFC7
:101A1000DBFF110EDBCF10F0120EDBCF11F0130E37
:101A2000DBCFE6FF04D011C0FAFF1050F96EFBDFE8
:101A3000E552B2C1E9FFB3C1EAFFEE52130EDBCFAC
:101A4000EFFF06D0B2C1E9FFB3C1EAFFEE52EF6883
:101A5000B2C1E9FFB3C1EAFFEF6A020EDF6E25D122
:101A6000FD0EDBCFE9FFFE0EDBCFEAFFEE52130ED9
:101A7000EFCFDBFFDBCFE6FF3AEC29F0E552E76E74
:101A8000140EE7CFDBFFB2C1E9FFB3C1EAFFEE52AC
:101A9000DBCFEFFFB2C1E9FFB3C1EAFF010EEF6E8A
:101AA000020EDF6E02D1B2C1E9FFB3C1EAFF070E39
:101AB000EF6E010EDF6EF9D0020EDF6EF6D0010E72
:101AC000DF6EF3D0030EDF6EF0D049EC12F0E76E5C
:101AD000030EE7CFDBFFB2C1E9FFB3C1EAFF050E9A
:101AE000EF6EB2C1E9FFB3C1EAFFEE52030EDBCFE6
:101AF000EFFF020EDF6ED9D0B2C1E9FFB3C1EAFF3A
:101B0000060EEF6EFD0EDBCFE9FFFE0EDBCFEAFF28
:101B1000EE52040EEFCFDBFFD950050FE66E000E3C
:101B2000DA20E66E040EDBCFE6FFB3EC12F0E552EE
:101B3000E552E552160EDB6A080EF36E160EDBCF89
:101B4000F4FFF350F45C25E2D950050F126EDACFA2
:101B500013F0160EDB500F011224E96E000E132055
:101B6000EA6EEF50E66EB2C1E9FFB3C1EAFFEE5292
:101B7000E9CF10F0EACF11F0160EDB501024E96E19
:101B8000000E1120EA6EE552E750EF6E160EDB2ACA
:101B9000D3D7090EDF6E89D0FD0EDBCFE9FFFE0E35
:101BA000DBCFEAFFEE52130EEFCFDBFFDBCFE6FF1A
:101BB000ADEC29F0E552E76E140EE7CFDBFFB2C1C2
:101BC000E9FFB3C1EAFFEE52DBCFEFFFB2C1E9FF9D
:101BD000B3C1EAFF080EEF6E020EDF6E66D042DE82
:101BE00077DE010EDF6E61D0B2C1E9FFB3C1EAFF5B
:101BF0000A0EEF6EB2C1E9FFB3C1EAFFEE52100E5A
:101C0000EF6E020EDF6E51D0B2C1E9FFB3C1EAFF41
:101C10000B0EEF6EFD0EDBCFE9FFFE0EDBCFEAFF12
:101C2000EE52130EEFCFDBFFDB500F0BE76E130E00
:101C3000E7CFDBFFDB50040DF3CFE9FFF4CFEAFF82
:101C4000610EE926000EEA22EF50200B21E1130E6F
:101C5000DB50040DF3CFE9FFF4CFEAFF610EE92674
:101C6000000EEA22020EE926000EEA22EECFE6FF7F
:101C7000EFCFE6FF82EC12F0E552E552E66EB2C11C
:101C8000E9FFB3C1EAFFEE52E552E750EF6E06D02E
:101C9000B2C1E9FFB3C1EAFFEE52EF68020EDF6E98
:101CA00004D016DE010EDF6E00D0DF5018E0160EF5
:101CB000DB6804010C51800B08E0160EDBCFF3FF4C
:101CC000DB06F350000801E2F4D70CBF08D0DFCFE9
:101CD000E6FFB4C1E6FF98EC26F0E552E552170E98
:101CE000E15C02E2E16AE552E16EE552E7CFD9FF3D
:101CF0001200D9CFE6FFE1CFD9FF020EE126B2C133
:101D0000E9FFB3C1EAFFEF6E010EDB6AFC0EDB50A8
:101D1000F36E010EDBCFF4FFF350F45C26E2010E0C
:101D2000DB50E76EFD0EDBCFE9FFFE0EDBCFEAFFF7
:101D3000E750E926000EEA22EF50E66EB2C1E9FF55
:101D4000B3C1EAFFEE52E9CF10F0EACF11F0010E75
:101D5000DB500F011024E96E000E1120EA6EE552EF
:101D6000E750EF6E010EDB2AD1D7FC0EDB28DF6EC9
:101D700004010CBF08D0DFCFE6FFB4C1E6FF98EC4A
:101D800026F0E552E552020EE15C02E2E16AE5521C
:101D9000E16EE552E7CFD9FF12000101010ED56FC8
:101DA0008A8C12008A9C0101D55102E0D56B01D0CA
:101DB0008FDDA40EE66E1D0EE66EDC0EE66EE668A6
:101DC00029EC0AF0E552E552E552E5521200010114
:101DD000010ED56FA40EE66E1D0EE66EB80EE66E11
:101DE000E668B9EC08F0E552E552E552E55212001A
:101DF000D9CFE6FFE1CFD9FF020EE126DF80DF92E7
:101E0000DF94DF96DF98DF9ADECF10F0DDCF11F0A0
:101E100010C0F3FF11C0F4FFE15C03E200D0E16AFF
:101E2000E552E16EE552E7CFD9FF1200D9CFE6FFC8
:101E3000E1CFD9FF020EE126DF80DF92DF94DF964B
:101E4000DF98DF9ADECF10F0DDCF11F010C0F3FF86
:101E500011C0F4FFE15C03E200D0E16AE552E16EFB
:101E6000E552E7CFD9FF1200D9CFE6FFE1CFD9FF86
:101E7000020EE126DF80DF92DF94DF96DF98DF9AA3
:101E8000DECF10F0DDCF11F010C0F3FF11C0F4FF72
:101E9000E15C03E200D0E16AE552E16EE552E7CF92
:101EA000D9FF1200D9CFE6FFE1CFD9FFE652DF6AB2
:101EB000050EDF5C0DE2EA6ADF34FE0BEA36E96EFE
:101EC0008B0EE926010EEA22EE6AED6ADF2AF0D7D0
:101ED0000101956BE552E552E7CFD9FF1200D9CF4A
:101EE000E6FFE1CFD9FF020EE126DF6A010EDB6AD1
:101EF000050EDF5C23E2010EDB5020E1EA6ADF34ED
:101F0000FE0BEA36E96E8B0EE926010EEA22EE5050
:101F1000ED1012E1DE52010EDD6EEA6ADF34FE0BD7
:101F2000EA36E96E8B0EE926010EEA22FD0EDBCFC2
:101F3000EEFFFE0EDBCFEDFFDF2ADAD7010EDB501E
:101F400002E1000E08D001019551952B000901E135
:101F5000F28E010E00D0106E020EE15C02E2E16A28
:101F6000E552E16E1050E552E7CFD9FF1200D9CF0C
:101F7000E6FFE1CFD9FF020EE126DF6A010EDB6A40
:101F8000050EDF5C28E2010EDB5025E1EA6ADF3452
:101F9000FE0BEA36E96E8B0EE926010EEA22EECF41
:101FA00010F0EFCF11F0FD0EDB50101803E1FE0E24
:101FB000DB5011180EE1DE52010EDD6EEA6ADF34ED
:101FC000FE0BEA36E96E8B0EE926010EEA22EE6A76
:101FD000ED6ADF2AD5D7010EDB5002E1000E06D0F4
:101FE0000101950701E1F29E010E00D0106E020E74
:101FF000E15C02E2E16AE552E16E1050E552E7CFA2
:10200000D9FF1200DACFE4FFE2CFDAFFE9CFE4FF35
:10201000EACFE4FFF6CFE4FFF7CFE4FFF5CFE4FF2C
:10202000F3CFE4FFF4CFE4FFFACFE4FF00EE00F0DB
:10203000100EE80403E3EECFE4FFFBD700EE10F050
:102040000E0EE80403E3EECFE4FFFBD7E652D9CF50
:10205000E6FFE1CFD9FFE652DF6A050EDF5C21E241
:10206000EA6ADF34FE0BEA36E96E8B0EE926010ED2
:10207000EA22EE50ED1013E0EA6ADF34FE0BEA3696
:10208000E96E8B0EE926010EEA22EECF1EF0EFCFAD
:102090001FF004D01FC0FAFF1E50F96EFBDFDF2ACD
:1020A000DCD7E552E552E7CFD9FFE55200EE1DF04F
:1020B0000E0EE80403E3E5CFEDFFFBD700EE0FF0D3
:1020C000100EE80403E3E5CFEDFFFBD7E5CFFAFF01
:1020D000E5CFF4FFE5CFF3FFE5CFF5FFE5CFF7FF61
:1020E000E5CFF6FFE5CFEAFFE5CFE9FFE5CFDAFF81
:1020F0001100D9CFE6FFE1CFD9FFE652DF6A050E26
:10210000DF5C0DE2EA6ADF34FE0BEA36E96E960E1A
:10211000E926010EEA22EE6AED6ADF2AF0D7E552DF
:10212000E552E7CFD9FF1200D9CFE6FFE1CFD9FFC3
:10213000020EE126DF6A010EDB6A050EDF5C23E298
:10214000010EDB5020E1EA6ADF34FE0BEA36E96E6D
:10215000960EE926010EEA22EE50ED1012E1DE5253
:10216000010EDD6EEA6ADF34FE0BEA36E96E960E8A
:10217000E926010EEA22FD0EDBCFEEFFFE0EDBCFDD
:10218000EDFFDF2ADAD7010EDB5002E1000E02D0AC
:10219000010E00D0106E020EE15C02E2E16AE5522F
:1021A000E16E1050E552E7CFD9FF1200D9CFE6FF1C
:1021B000E1CFD9FF020EE126DF6A010EDB6A050ED0
:1021C000DF5C28E2010EDB5025E1EA6ADF34FE0B1A
:1021D000EA36E96E960EE926010EEA22EECF10F0FD
:1021E000EFCF11F0FD0EDB50101803E1FE0EDB50B7
:1021F00011180EE1DE52010EDD6EEA6ADF34FE0BCD
:10220000EA36E96E960EE926010EEA22EE6AED6ADA
:10221000DF2AD5D7010EDB5002E1000E02D0010EFD
:1022200000D0106E020EE15C02E2E16AE552E16E5E
:102230001050E552E7CFD9FF1200D9CFE6FFE1CF2A
:10224000D9FFE652DF6A050EDF5C21E2EA6ADF347D
:10225000FE0BEA36E96E960EE926010EEA22EE50F2
:10226000ED1013E0EA6ADF34FE0BEA36E96E960EF3
:10227000E926010EEA22EECF10F0EFCF11F004D0E4
:1022800011C0FAFF1050F96EFBDFDF2ADCD7E552F0
:10229000E552E7CFD9FF1200D9CFE6FFE1CFD9FF52
:1022A000E552E7CFD9FF1200D9CFE6FFE1CFD9FF42
:1022B000030EE126DF6ADE52010EDD6E020EDB6ADE
:1022C000DF6A080EDF5C45E2020EDB5042E1DF50C0
:1022D000E76EFD0EDBCFE9FFFE0EDBCFEAFFE75036
:1022E000E926000EEA22EF500EE0DF50E76EFB0E0B
:1022F000DBCFE9FFFC0EDBCFEAFFE750E926000E5B
:10230000EA22EF5005E1010EF36E020EF3CFDBFF80
:10231000DF50E76EFD0EDBCFE9FFFE0EDBCFEAFFFD
:10232000E750E926000EEA22EFCF10F0DF50E76E0B
:10233000FB0EDBCFE9FFFC0EDBCFEAFFE750E9261F
:10234000000EEA22EF50105C02E0010EDB6ADF2A89
:10235000B8D7010EDB50106E030EE15C03E200D033
:10236000E16AE552E16E1050E552E7CFD9FF120065
:10237000D9CFE6FFE1CFD9FF0D0EE126AB0EDE6E21
:10238000330EDD6E0C0EDB6ADECFF6FFDDCFF7FF1E
:102390000800F5CF10F0116A10BE11680001101C82
:1023A00001E1111C69E0D9CFE9FFDACFEAFF020EA3
:1023B000EECFDBFF030EEDCFDBFF0C0EDB6A080E6A
:1023C000F36E0C0EDBCFF4FFF350F45C2CE2020E44
:1023D000DBCFF6FF030EDBCFF7FF060EF626000E6F
:1023E000F722F6CF12F0F7CF13F00C0EDB500F01EF
:1023F0001224F66E000E1320F76E0800F550E66EFC
:10240000D950040F106EDACF11F00C0EDB500F0113
:102410001024E96E000E1120EA6EE552E750EF6ECF
:102420000C0EDB2ACCD7FD0EDBCFE6FFFE0EDBCF9A
:10243000E6FFD950040FE66E000EDA20E66E34DFB8
:10244000E552E552E552E552000909E0DECF10F011
:10245000DDCF11F010C0F3FF11C0F4FF10D0DECFBC
:1024600010F0DDCF11F00E0E1026000E112210C05C
:10247000DEFF11C0DDFF88D7F368F46A00D00D0ECF
:10248000E15C02E2E16AE552E16EE552E7CFD9FF95
:102490001200D9CFE6FFE1CFD9FF030EE126AB0E44
:1024A000DE6E330EDD6E020EDB6ADECFF6FFDDCFB1
:1024B000F7FF0800F5CF10F0116A10BE1168000197
:1024C000101C01E1111C0FE0DECF10F0DDCF11F088
:1024D0000E0E1026000E112210C0DEFF11C0DDFF0F
:1024E000020EDB2AE2D7020EDB50106E030EE15C17
:1024F00003E200D0E16AE552E16E1050E552E7CF09
:10250000D9FF1200D9CFE6FFE1CFD9FF020EE126B5
:10251000AB0EDE6E330EDD6EFD0EDBCF12F0FE0E67
:10252000DBCF13F0DE50125C106EDD501358116ECD
:102530000E0E0D6E0E6A10C008F011C009F005EC09
:1025400018F008C010F009C011F01050106E020E03
:10255000E15C03E200D0E16AE552E16E1050E55221
:10256000E7CFD9FF1200D9CFE6FFE1CFD9FF050EA3
:10257000E126AB0EF36E010EF3CFDBFF330EF36EED
:10258000020EF3CFDBFFFE0EDB500E0DF350E76EB5
:10259000010EDBCF10F0020EDBCF11F0E75010265A
:1025A000000E1122010E10C0DBFF020E11C0DBFF76
:1025B000010EDBCF08F0020EDBCF09F0030E08C0DE
:1025C000DBFF040E09C0DBFFDF6A080EDF5C29E2D7
:1025D000030EDBCFF6FF040EDBCFF7FF060EF62669
:1025E000000EF722F6CF10F0F7CF11F0DF500F01F9
:1025F0001024F66E000E1120F76E0800F550E66EFE
:10260000DF50E76EFC0EDBCFE9FFFD0EDBCFEAFF0C
:10261000E750E926000EEA22E552E750EF6EDF2A86
:10262000D4D7050EE15C02E2E16AE552E16EE552C3
:10263000E7CFD9FF1200D9CFE6FFE1CFD9FF020ED5
:10264000E126FD0EDBCFDEFFDBCFDDFFDECFF6FFC9
:10265000DDCFF7FF0900F5CF10F00800F5CF11F03E
:1026600010C0F3FF11C0F4FF020EE15C03E200D0E2
:10267000E16AE552E16EE552E7CFD9FF1200D9CF0A
:10268000E6FFE1CFD9FF020EE126FD0EDBCFDEFF34
:10269000DBCFDDFFDECFF6FFDDCFF7FF020EF62644
:1026A000000EF7220900F5CF10F00800F5CF11F069
:1026B00010C0F3FF11C0F4FF020EE15C03E200D092
:1026C000E16AE552E16EE552E7CFD9FF1200D9CFBA
:1026D000E6FFE1CFD9FF020EE126FD0EDBCFDEFFE4
:1026E000DBCFDDFFDECFF6FFDDCFF7FF040EF626F2
:1026F000000EF7220900F5CF10F00800F5CF11F019
:1027000010C0F3FF11C0F4FF020EE15C03E200D041
:10271000E16AE552E16EE552E7CFD9FF1200D9CF69
:10272000E6FFE1CFD9FF020EE126DE6ADD6ADECFE9
:1027300010F0DDCF11F0FD0EDBCF12F0FE0EDBCF7F
:1027400013F011501318E8AE02D0133404D0125015
:10275000105C135011580AE2FA0EE66E49EC18F0BC
:10276000E552DF2A010E01E3DB2AE1D7020EE15C2C
:1027700002E2E16AE552E16EE552E7CFD9FF1200CD
:10278000D9CFE6FFE1CFD9FF120EE126100EDB6AAA
:10279000110EDB6A14D82ED81DEC11F04BEC25F08D
:1027A000FAD7120EE15C02E2E16AE552E16EE5520F
:1027B000E7CFD9FF1200ABEC20F0C7EF39F00F0ED6
:1027C000C112140E6F6E0101BE6B0101BF6B0101DE
:1027D000C06B92689368CF0E9410946E956896685B
:1027E00052EC0FF083EC08F079EC10F0CEEC28F00E
:1027F000DBEF13F0D5EC16F06FBE02D0F4EC16F060
:10280000120004012051600BE842E842E842E8422D
:10281000E842000901E055D02151070A51E00B0AB6
:102820004FE0070A40E0010A2CE00B0A28E0020A08
:1028300026E0030A22E0080A12E0010A0EE00F0A6D
:102840000AE0030A01E03CD00101010EAB6F010177
:10285000040EBE6F36D036D834D090D832D00101B5
:10286000010EAB6F0101C00EAC6F010EAD6F010127
:10287000BF930101010EB06F24D0A8D822D0F4D8A4
:1028800020D00101010EAB6F040124510101AC6F96
:10289000AD6BC10EAC27010EAD230101BF93010149
:1028A000010EB06F0ED00101010EAB6F0401245177
:1028B000EA6AC10FE96E010EEA2222C4EFFF01D0DD
:1028C00000D01200800E0401205D57E12351030A5D
:1028D00034E0010A10E0030A01E04DD00101010ECD
:1028E000AB6F0101EA0EAC6F0A0EAD6F120E010163
:1028F000B06FB16B40D00101010EAB6F04012251EA
:10290000F66EF76AD890F636F736EA0EF6260C0E13
:10291000F7220900F5CFACF10A00F5CFADF1020EB8
:102920000101F76AAC25F66EAD51F7220900F5CF2B
:10293000B0F10A00F5CFB1F11ED00101010EAB6F6D
:1029400004012251F66EF76AD890F636F7362A0E51
:10295000F6260D0EF7220900F5CFACF10A00F5CFEF
:10296000ADF1ACC1F6FFADC1F7FF0800F5500101B4
:10297000B06FB16B00D00101BF8312000101010EE5
:10298000AB6F0F0EE66E710EE66E0F0EE66E7AEC12
:1029900017F0E552E552E552010EE66EC10EE66E05
:1029A000010EE66E7AEC17F0E552E552E55222C4CC
:1029B000C0F10401225104E10101050EBE6F05D0F2
:1029C0000101060EBE6F76EC04F012000401286BC4
:1029D000296B040120511F0B020A14E0030A0EE0C8
:1029E000010A01E033D00101010EAB6F040128811F
:1029F0000101BFA102D00401288328D00101010EEA
:102A0000AB6F24D00101010EAB6F040124510F0BF9
:102A1000080DF350116A000F106E040E112224519C
:102A2000800B01E0010E040DF35001011024AE6F84
:102A3000000E1120AF6FAEC1E9FFAFC1EAFFEF504A
:102A4000040B03E00401010E286F00D00101AB0567
:102A50000AE10101280EAC6F040EAD6F0101BF93B6
:102A60000101020EB06F12000401220510E1205195
:102A70001F0B00090CE10101010EAB6F030E0401F5
:102A8000215D03E10101BF8102D00101BF91040179
:102A900022513AE120511F0B020836E124510F0B5D
:102AA000000932E00101010EAB6F040124510F0B4C
:102AB000080DF350116A000F106E040E11222451FC
:102AC000800B01E0010E040DF35001011024AE6FE4
:102AD000000E1120AF6F030E0401215D07E1840E8B
:102AE000AEC1E9FFAFC1EAFFEF6E0ED024AF06D052
:102AF000AEC1E9FFAFC1EAFFEF6A06D0880EAEC1F2
:102B0000E9FFAFC1EAFFEF6E12006C500BE1040168
:102B100000513C0BE842E8420D0802E108D801D020
:102B200018D804D0040E6C5C01E123D81200D9CF70
:102B3000E6FFE1CFD9FFE6520101AA6BAB6BB06BA8
:102B4000B16B01EC14F0DDD8E552E552E7CFD9FFC7
:102B50001200020E0101AA5D0AE196D8040100BD2F
:102B600003D0C80E006F02D0880E006F01D00FD9BD
:102B70001200040E0101BE5D0AE122C46EFF6E5018
:102B8000000803E2050EBE6F02D0030EBE6F010106
:102B9000AA050AE10BD8040104BD03D0C80E046FD6
:102BA00002D0880E046F01D0F2D81200D9CFE6FF10
:102BB000E1CFD9FF020EE1260101080EB05D000E43
:102BC000B15905E2B0C1DEFFB1C1DDFF03D0080E8F
:102BD000DE6EDD6A040104930491010EDB500413E0
:102BE000DFCF05F4000EDB500101B05F010EDB50BA
:102BF000B15B280EAE6F040EAF6F0101BFA31ED0F4
:102C0000D9CFE9FFDACFEAFFEE50ED1016E0ACC104
:102C1000F6FFADC1F7FF0800F550AEC1E9FFAFC147
:102C2000EAFFEF6E0101AE2B000EAF23AC2BAD23FC
:102C3000DF06010E01E2DB06E3D71CD0D9CFE9FFA6
:102C4000DACFEAFFEE50ED1015E0ACC1E9FFADC1FF
:102C5000EAFFEF50AEC1E9FFAFC1EAFFEF6E01013D
:102C6000AE2B000EAF23AC2BAD23DF06010E01E22D
:102C7000DB06E4D7020EE15C02E2E16AE552E16EB6
:102C8000E552E7CFD9FF1200D9CFE6FFE1CFD9FF58
:102C9000020EE126030E04010015E76E010EE7CFD8
:102CA000DBFF01C4DFFFDE500101B027DD50B1239F
:102CB000280EAC6F040EAD6FD9CFE9FFDACFEAFF73
:102CC000EE50ED1014E0ACC1E9FFADC1EAFFEF50EA
:102CD000AEC1E9FFAFC1EAFFEF6EAE2B000EAF232E
:102CE000AC2BAD23DF06010E01E2DB06E5D7020EB9
:102CF000E15C02E2E16AE552E16EE552E7CFD9FF1D
:102D000012000101AB510CE10401080E016F200E0D
:102D1000026F040E036F840E006F0401046F35D040
:102D2000040120AF22D00101B0510401265D010150
:102D3000B1510401275904E226C4B0F127C4B1F10E
:102D400035DF0101010EAA6F0401080E016F200E8C
:102D5000026F040E036F800E006F0401280E066FD1
:102D6000040E076FC80E046F10D00101020EAA6F87
:102D70000401056BC80E046F0401080E016F280ED4
:102D8000026F040E036FC80E006F6D9812000101F0
:102D9000AA6B0401080E016F200E026F040E036F70
:102DA000880E006F0401046B12006DA60FD802D0CC
:102DB0006DB613D80101BE0508E16DBA06D0686A88
:102DC000696A69806988020EBE6F12006D6A696A5D
:102DD0006D860101010EBE6F12006D6A696A010104
:102DE000BE6B1200EDEF16F00101BE5101E13AD0C9
:102DF0006850040B04E06950040B01E038D86DB250
:102E000031D06850010B04E06950010B01E050D84B
:102E10006850100B04E06950100B01E024D8685092
:102E2000400B04E06950400B01E037D86850200B9C
:102E300004E06950200B01E032D86850020B04E036
:102E40006950020B01E032D8030E0101BE5D01E2C0
:102E500009D06850080B06E06950080B03E085ECC8
:102E600015F068961200698468986D8212006D9260
:102E70006994689412000101BFA10ED0F8DF6D843F
:102E80000101080ECE6F070ECF6FCE07000ECF5B8D
:102E9000CE51CF11FAE16D941200689C120070A01F
:102EA00003D0C7EC16F07090689A12006892120076
:102EB0006A6A686A9F0E6B6E7B0E696E6E6A0F0E91
:102EC000E66E710EE66E0F0EE66E14D8E552E55210
:102ED000E552160E706E68A602D06896FCD76D9803
:102EE000C7EC16F00101BF910101C06B0101030E97
:102EF000BE6F1200D9CFE6FFE1CFD9FFFD0EDBCFC9
:102F0000E9FFFE0EDBCFEAFFFC0EDB5004E0EE6AC9
:102F1000FC0EDB06F9D7E552E7CFD9FF1200AA0E67
:102F2000F66E0D0EF76E000EF86E01010900F550F9
:102F3000A56F0900F550A66F03E1A56701D03DD04C
:102F40000900F550A06F0900F550A16F0900F55078
:102F5000A26F09000900F550E96E0900F550EA6E0C
:102F6000090009000900F550A36F0900F550A46F8E
:102F700009000900F6CFA7F1F7CFA8F1F8CFA9F122
:102F8000A0C1F6FFA1C1F7FFA2C1F8FF0101A35341
:102F900002E1A45307E00900F550EE6EA307F8E242
:102FA000A407F9D7A7C1F6FFA8C1F7FFA9C1F8FF89
:102FB0000101A507000EA65BBFD71200D9CFE6FF1F
:102FC000DACFE6FFE1CFD9FFE2CFDAFFFF0EE76EFF
:102FD000FC0EDBCF10F0E75010161050A96EFB0E60
:102FE000DB50A86EA69EA69CA684F29E550EA76EE8
:102FF000AA0EA76EA682A6B2FED7F28EA694E552BE
:10300000E5CFDAFFE7CFD9FF1200006A0EAE0EEF70
:1030100018F00D6C0E1EE86A0E22001E09AE16EFA7
:1030200018F0086C091EE86A0922001E60EC18F00E
:1030300009BE26EF18F000AE000C086C091EE86A05
:103040000922046C051EE86A0522000C00BE1DEF73
:1030500018F00188FF0C706F72740000000000000F
:10306000FF00627574746F6E0000E779BC8667724A
:10307000657900000000A1E6DCEA64697374000071
:1030800000007392CE9E6770696F0000000000FF21
:10309000FFFFFF0EE350216EEF0E01D0F30EE76E3F
:1030A000E72E50EF18F00C0E206EE76AE72E56EF71
:1030B00018F0202E55EF18F0212E4EEF18F01200C8
:1030C000056A046A100EE76ED89008360936043691
:1030D00005360D50045C0E50055805E30D50045E96
:1030E0000E50055A082AE72EF0D71200000EF36E94
:1030F00000EE00F0080E01D81200EA6002D0EE6A7D
:10310000FCD7F350E9601200EE6AFCD713EE00F032
:1031100023EE00F0F86A019C8FEC17F094EC18F0A5
:10312000C0EC13F0FBD7120012004040404040407A
:10313000FA5B405CA45CC05CDE5B405D865DEA5D82
:10314000065E245D865ECC5E305F4C5F6A5ECC5F5F
:10315000126076609260B05F12615861BC61D861A4
:10316000F66058629E6202631E633C623201000098
:10318000F66E0D0EF76E000EF86E01010900F55097
:10319000866F0900F550876F03E1866701D03DD047
:1031A0000900F550816F0900F550826F0900F55054
:1031B000836F09000900F550E96E0900F550EA6EC9
:1031C000090009000900F550846F0900F550856F6A
:1031D00009000900F6CF88F1F7CF89F1F8CF8AF11D
:1031E00081C1F6FF82C1F7FF83C1F8FF010184535B
:1031F00002E1855307E00900F550EE6E8407F8E21E
:103200008507F9D788C1F6FF89C1F7FF8AC1F8FFA2
:1032100001018607000E875BBFD71200D9CFE6FFFA
:10322000DACFE6FFE1CFD9FFE2CFDAFFFF0EE76E9C
:10323000FC0EDBCF00F0E75000160050A96EFB0E2D
:10324000DB50A86EA69EA69CA684F29E550EA76E85
:10325000AA0EA76EA682A6B2FED7F28EA694E5525B
:10326000E5CFDAFFE7CFD9FF1200FF0EE3505D6E26
:10327000EF0E01D0F30EE76EE72E3CEF19F00C0EC7
:103280005C6EE76AE72E42EF19F05C2E41EF19F011
:103290005D2E3AEF19F012004B6A4A6A100EE76E83
:1032A000D8904E364F364A364B3653504A5C5450BF
:1032B0004B5805E353504A5E54504B5A4E2AE72E62
:1032C000F0D71200000EF36E00EE00F0080E01D8E9
:1032D0001200EA6002D0EE6AFCD7F350E9601200F7
:1032E000EE6AFCD713EE00F023EE00F0F86A479C7C
:1032F000BFEC18F080EC19F0DFEC12F0FBD71200F5
:10330000120040404040404032010000FFFFFFFFFC
:1033A000FFFFFFFFFFFFFFFFFFFFFF7C18BA18CCF6
:1033B0001861646D696E000000025624575C5770F6
:1033C0006E7000000000002A6492648E647465735D
:1033D00074726573004266BA66B666706F72740086
:1033E0000000005A689A6896686770696F0000006C
:1033F000003A6AA26A8E6A627574696100000060B0
:103400006CE66CD26C627574746F6E00003C6EC2B8
:103410006EAE6E64697374000000004870CE70BABE
:10342000706772657900000000CA734E743A746D5B
:103430006F746F72730000FFFFFFFFFFFFFFFFFF5E
:1040A000FFFFFFFFFFFFFFFFFFFFFFFFD9CFE6FF8F
:1040B000E1CFD9FFFD0EDBCF10F0FE0EDBCF11F00C
:1040C000113404E210500008000E115402E3000EF7
:1040D00001D0010E00D0E552E7CFD9FF1200D9CFB1
:1040E000E6FFE1CFD9FFFE0EDB50000803E2010E30
:1040F00003D002D0FF0E00D0E552E7CFD9FF120067
:10410000D9CFE6FFE1CFD9FFFE0EDBCFE6FFFD0EF4
:10411000DB50000EF350E552E710106E116A10C02C
:10412000F3FF11C0F4FF00D0E552E7CFD9FF120032
:10413000D9CFE6FFE1CFD9FFFD0EDBCF10F0FE0EA9
:10414000DBCF11F011C010F0116A105000D0E55211
:10415000E7CFD9FF1200AC6AAC9CAC9AAC98AC9695
:10416000AC84AB6AAB8EAB9CAB98B86AB886040ED5
:10417000AF6EF28EF28C948E1200AB98949CAC8A47
:104180001200948CAC9AAB8801018A6B12009D9A44
:10419000AB98AC9A1200D9CFE6FFE1CFD9FFACA221
:1041A000FED7FE0EDB50AD6EFE0EDB5000D0E552AA
:1041B000E7CFD9FF1200D9CFE6FFE1CFD9FF020E3A
:1041C000E126010EDB6AD9DFE668E5DFE552E66845
:1041D000E2DFE552FE0EDBCFE6FFDDDFE552106EDB
:1041E000010EDBCFE7FF1050E726010EE7CFDBFF24
:1041F000FD0EDB50020FE66ECEDFE552106E010EB3
:10420000DBCFE7FF1050E726010EE7CFDBFFFC0E08
:10421000DBCFE6FFC0DFE552106E010EDBCFE7FF1C
:104220001050E726010EE7CFDBFFDF6AFD0EDB5003
:10423000DF5C1BE2DF50E76EFA0EDBCFE9FFFB0E1F
:10424000DBCFEAFFE750E926000EEA22EF50E66EE8
:10425000A2DFE552106E010EDBCFE7FF1050E7261C
:10426000010EE7CFDBFFDF2AE1D7010EDB1CE66E94
:1042700092DFE552ACA2FED784DF020EE15C02E2DF
:10428000E16AE552E16EE552E7CFD9FF12009EAA3E
:10429000FED79E9AAE5000D01200D9CFE6FFE1CFF4
:1042A000D9FF050EE126010EF36E040EF3CFDBFFFE
:1042B000030EDB6ADF6A01018A6B030EDB5065E1E6
:1042C000DF5063E1040EDB50050A45E0010A31E0EE
:1042D000070A0DE0020A03E0030A01E053D0D7DF2A
:1042E000FF0803E1040EDB2A01D0DF2A4DD0CFDF27
:1042F000E66EFD0EDBCFE9FFFE0EDBCFEAFFE552F7
:10430000E750EE6EED6AFD0EDBCFE9FFFE0EDBCF70
:10431000EAFFEECF10F0EFCF11F0113404E21050AD
:10432000FE08000E115403E3040EDB2A01D0DF2A3D
:104330002BD0ADDFE76E010EE7CFDBFF200EF36E73
:10434000010EDBCFF4FFF350F45C03E2040EDB2A32
:1043500001D0DF2A19D09BDFE66E01018A51EA6A9B
:104360006A0FE96E010EEA22E552E750EF6E8A2BE2
:10437000010EDB508A5D05E3010EF36E030EF3CFF1
:10438000DBFF02D0010EDF6E98D701DFDF5019E0AE
:10439000FD0EDBCFE9FFFE0EDBCFEAFFEE68ED6836
:1043A000FB0EDBCFE9FFFC0EDBCFEAFFEE68ED682A
:1043B000F90EDBCFE9FFFA0EDBCFEAFFEE68ED681E
:1043C0003FD001016A51E66EFB0EDBCFE9FFFC0E28
:1043D000DBCFEAFFE552E750EE6EED6A010EDB50EF
:1043E000040A10E0070A01E023D06B51E66EF90ED3
:1043F000DBCFE9FFFA0EDBCFEAFFE552E750EE6EC6
:10440000ED6A1ED06CC1E6FF6BC1E6FF79DEE552B6
:10441000E552F3CF10F0F4CF11F0F90EDBCFE9FF46
:10442000FA0EDBCFEAFF10C0EEFF11C0EDFF08D09F
:10443000F90EDBCFE9FFFA0EDBCFEAFFEE68ED689D
:10444000010ED880DF5400D0106E050EE15C02E250
:10445000E16AE552E16E1050E552E7CFD9FF120054
:10446000D9CFE6FFE1CFD9FF110EE126FD0EDB50DB
:10447000E76E010EE7CFDBFFDF6AFC0EDB50DF5C8F
:104480001FE2DF50E76EFA0EDBCFE9FFFB0EDBCF5A
:10449000EAFFE750E926000EEA22EF50E66ED95017
:1044A000010F106EDACF11F0DF280F011024E96E32
:1044B000000E1120EA6EE552E750EF6EDF2ADDD7DD
:1044C000D950010FE66E000EDA20E66E030EE66E9E
:1044D000FC0EDB28E66EFE0EDBCFE6FF6CDE106E18
:1044E000050EE15E1050680EE66E010EE66E660E79
:1044F000E66E010EE66E640EE66E010EE66ECDDE31
:10450000106E060EE15E1050106E110EE15C03E2BB
:1045100000D0E16AE552E16E1050E552E7CFD9FFD5
:104520001200D9CFE6FFE1CFD9FF020EE126FD0E42
:10453000DB50DF6EFC0EDB50E76E010EE7CFDBFFDA
:10454000D9CFE6FFDACFE6FF020EE66EE66EFE0E8C
:10455000DBCFE6FF30DE106E050EE15E1050680E18
:10456000E66E010EE66E660EE66E010EE66E640EF7
:10457000E66E010EE66E91DE106E060EE15E1050E4
:10458000106E020EE15C03E200D0E16AE552E16EDA
:104590001050E552E7CFD9FF1200D9CFE6FFE1CFA7
:1045A000D9FF000EE66EE66A060EE66EFE0EDBCF63
:1045B000E6FF09D8E552E552E552E55200D0E55252
:1045C000E7CFD9FF1200D9CFE6FFE1CFD9FF110E17
:1045D000E126DF6AFD0EDB50060A34E00E0A32E007
:1045E000060A30E0100A2EE03E0A2CE0020A2AE019
:1045F000120A28E0330A23E0070A21E0010A1FE03B
:104600000E0A1DE0070A1BE0010A19E01D0A17E067
:10461000010A15E0030A13E0010A11E00B0A0FE09A
:10462000010A0DE0030A0BE0010A09E0070A07E0AE
:10463000010A05E0310A03E0030A01E006D0010E99
:10464000DF6E03D0020EDF6E00D0FD0EDB50E76E92
:10465000010EE7CFDBFFFF0EE76EFB0EDBCF10F0A6
:10466000FC0EDBCF11F0E7501016116A020E10C0DD
:10467000DBFFDF50010810E2FB0EDBCF10F0FC0E79
:10468000DBCF11F0000E1016FF0E111611C010F046
:10469000116A030E10C0DBFFD950010FE66E000E49
:1046A000DA20E66E030EE66EDF28E66EFE0EDBCF46
:1046B000E6FF81DD106E050EE15E1050680EE66EBD
:1046C000010EE66E660EE66E010EE66E640EE66E96
:1046D000010EE66EE2DD106E060EE15E1050106E09
:1046E000110EE15C03E200D0E16AE552E16E105088
:1046F000E552E7CFD9FF1200D9CFE6FFE1CFD9FFCE
:10470000000EE66EE66A060EE66EFE0EDBCFE6FFF4
:104710005ADFE552E552E552E552FD0EDB500EE060
:10472000000EE66EE66A080EE66EFE0EDBCFE6FFD2
:104730004ADFE552E552E552E5520DD0E668030E38
:10474000E66E080EE66EFE0EDBCFE6FF3CDFE552BE
:10475000E552E552E552E552E7CFD9FF1200D9CF35
:10476000E6FFE1CFD9FFFC0EDBCF10F0FD0EDBCF73
:1047700011F00001800E111402E0FB0EDB70FC0E44
:10478000DBCF12F0FD0EDBCF13F0800E13140BE025
:10479000FC0EDBCF10F0FD0EDBCF11F0106C111E04
:1047A000000E112206D0FC0EDBCF10F0FD0EDBCF89
:1047B00011F0FC0E10C0DBFFFD0E11C0DBFFFB0E85
:1047C000DB50106E116A0A0ED89010361136E806CA
:1047D000FBE1D950FC0FE96EFF0EDA20EA6E1050B3
:1047E000EE121150ED12FC0EDBCFE6FFFD0EDBCF1B
:1047F000E6FF200EE66EFE0EDBCFE6FFE4DEE552BE
:10480000E552E552E552E552E7CFD9FF1200D9CF84
:10481000E6FFE1CFD9FF020EE126060EE66E240E7A
:10482000E66EFD0EDBCFE6FF7CDEE552E552E5529B
:10483000E76E010EE7CFDBFFDF6A030EDF5C01E30B
:10484000A6D0010E0101156A6825146E6951152262
:10485000DF50E8240F011424E96E000E1520EA6EE3
:104860006A0EE926010EEA22EF50E66EDF50E824D8
:104870000101EA6A6825E96E6951EA226A0EE926B1
:10488000010EEA22EF50E66E3BDCE552E552F3CF33
:1048900012F0F4CF13F0116ADF34FE0B1136106EF4
:1048A000FB0EDB501024E96EFC0EDB501120EA6E8B
:1048B00012C0EEFF13C0EDFFDF50000866E2176A7A
:1048C000DF34FE0B1736166EFB0EDB501624E96E36
:1048D000FC0EDB501720EA6EEECF14F0EFCF15F090
:1048E000FF0E1416030E151614C0E6FF15C0E6FFE2
:1048F000FE0EDBCFE6FF1D6ADF34FE0B1D361C6E9D
:10490000FB0EDB501C24E96EFC0EDB501D20EA6E12
:10491000EECF1AF0EFCF1BF01B3404E21A50FF0861
:10492000030E1B5402E3000E01D0010EE552E718FE
:10493000E66E6FEC20F0E552E552E7CF15F0E55258
:10494000E7CF14F0186E196A18BE196800011850E4
:104950001402F3CF12F0F4CF13F01502F350132624
:1049600019501402F3501326116ADF34FE0B11366E
:10497000106EFB0EDB501024E96EFC0EDB50112094
:10498000EA6E12C0EEFF13C0EDFFDF2A56D7FE0E0F
:10499000DB5019E0FB0EDBCFE9FFFC0EDBCFEAFFBB
:1049A000EECF10F0EFCF11F0FF0ED8801056030EAF
:1049B0001156FB0EDBCFE9FFFC0EDBCFEAFF10C088
:1049C000EEFF11C0EDFF010EDB50106E020EE15C38
:1049D00003E200D0E16AE552E16E1050E552E7CF04
:1049E000D9FF1200D9CFE6FFE1CFD9FFFE0EEA6A68
:1049F000DB34FE0BEA36E96EA40EE926000EEA224D
:104A0000FC0EDBCFEEFFFD0EDBCFEDFFE552E7CF77
:104A1000D9FF1200D9CFE6FFE1CFD9FFFE0EEA6A37
:104A2000DB34FE0BEA36E96EA40EE926000EEA221C
:104A3000EE6AED6AE552E7CFD9FF1200D9CFE6FF63
:104A4000E1CFD9FFFE0EEA6ADB34FE0BEA36E96EEF
:104A5000C40EE926000EEA22FC0EDBCFEEFFFD0EAF
:104A6000DBCFEDFFE552E7CFD9FF1200D9CFE6FF4C
:104A7000E1CFD9FFFE0EEA6ADB34FE0BEA36E96EBF
:104A8000C40EE926000EEA22EE6AED6AE552E7CF8F
:104A9000D9FF12001200D9CFE6FFE1CFD9FF090EEE
:104AA000E126DF6A060E0101BE5D03E36D50020BD5
:104AB00001E034D1010EDB68F36E060EF3CFDBFFAD
:104AC000DBCF10F000016051D880105401E226D1F4
:104AD000060EDB50E824040DF3CFE9FFF4CFEAFF24
:104AE000000EE926040EEA22EF50800B01E013D1FC
:104AF000010EDBCF10F0060EDB50E824040DF3CFDF
:104B0000E9FFF4CFEAFF000EE926040EEA22EE5296
:104B1000EF50D880105410E2060EDB50E824040D4C
:104B2000F3CFE9FFF4CFEAFF000EE926040EEA22F4
:104B3000EE52010EEFCFDBFF060EDB50E824040D32
:104B4000F3CFE9FFF4CFEAFF000EE926040EEA22D4
:104B5000020EE926000EEA22070EEECFDBFF080E5A
:104B6000EDCFDBFF070EDBCFE9FF080EDBCFEAFF5F
:104B7000EF50F80BE842E842E842E96EEA6AD89062
:104B8000E936EA36C40EE926000EEA22EECF10F02E
:104B9000EFCF11F0070EDBCFE9FF080EDBCFEAFF06
:104BA000EF50F80BE842E842E842E66E010EDB50B7
:104BB000FD0FE66E060EDB50E824040DF3CFE9FF8F
:104BC000F4CFEAFF000EE926040EEA22020EE926DF
:104BD000000EEA22EECF12F0EFCF13F0030E1226F2
:104BE000000E132212C0E6FF13C0E6FF04D011C06E
:104BF000FAFF1050F96EFBDFE552E552E552E5523F
:104C0000060EDBCFE6FFD6EC2AF0E552E66E060E86
:104C1000DB50E824040DF3CFE9FFF4CFEAFF000EE8
:104C2000E926040EEA22EE52E552E750EF6E030E3B
:104C3000F36E060EDBCFF4FFF350F45C4CE2400E53
:104C4000106E060EDB50E824040DF3CFE9FFF4CF1D
:104C5000EAFF000EE926040EEA221050EF16060EB7
:104C6000DB50E824040DF3CFE9FFF4CFEAFF000E98
:104C7000E926040EEA22EF50400B400A01E0010E43
:104C8000106E060EDB50E824040DF3CFE9FFF4CFDD
:104C9000EAFF000EE926040EEA221050010BF36E23
:104CA000F346F346F346F346F346F346BF0EEF14DE
:104CB000F310EF6E880E106E060EDB50E824040D24
:104CC000F3CFE9FFF4CFEAFF000EE926040EEA2253
:104CD0001050EF1220D0400E106E060EDB50E8246C
:104CE000040DF3CFE9FFF4CFEAFF000EE926040E2E
:104CF000EA221050EF16880E106E060EDB50E824E4
:104D0000040DF3CFE9FFF4CFEAFF000EE926040E0D
:104D1000EA221050EF12060EDB2AD2D6090EE15C11
:104D200002E2E16AE552E16EE552E7CFD9FF1200F7
:104D3000D9CFE6FFE1CFD9FF060EE126FE0EDB500C
:104D4000040DF3CFE9FFF4CFEAFF610EE926000E70
:104D5000EA22010EEECFDBFF020EEECFDBFF030EE9
:104D6000EECFDBFF040EEECFDBFFD950010FE96E73
:104D7000DACFEAFFEF500F0BE76E050EE7CFDBFF50
:104D8000FD0EDBCF10F010C0E6FF050EDBCFE6FF17
:104D9000E0EC2AF0E552E552E7CF10F0FD0FD880A5
:104DA00010540BE2050EDBCFE6FFE0EC2AF0E552F3
:104DB000FD0FE76EFD0EE7CFDBFFFE0EDB500001BF
:104DC0001F0BF36EF346F346F346070EE415F3109C
:104DD000E46FE491E493E495050EDB50E824010FC1
:104DE000040DF3CFE9FFF4CFEAFF000EE926040E2D
:104DF000EA22020EE926000EEA22EE50EFCFEAFF89
:104E0000E96EE4C0EFFFFD0EDB50030FE66E050E0A
:104E1000DB50E824010F040DF3CFE9FFF4CFEAFFE4
:104E2000000EE926040EEA22020EE926000EEA220E
:104E3000EE50EFCFEAFFE96E010EE926000EEA22FE
:104E4000E552E750EF6E050EDB50E824010F040D2C
:104E5000F3CFE9FFF4CFEAFF000EE926040EEA22C1
:104E6000020EE926000EEA22EE50EFCFEAFFE96ECD
:104E7000020EE926000EEA22EF6AFD0EDB50030F58
:104E8000E66E050EDB50E824010F040DF3CFE9FFB9
:104E9000F4CFEAFF000EE926040EEA22EE52E552B4
:104EA000E750EF6E030EF36E050EDBCFF4FFF35009
:104EB000F45C50E2400E106E050EDB50E824010F4A
:104EC000040DF3CFE9FFF4CFEAFF000EE926040E4C
:104ED000EA221050EF16050EDB50E824010F040DF6
:104EE000F3CFE9FFF4CFEAFF000EE926040EEA2231
:104EF000EF50400B400A01E0010E106E050EDB5032
:104F0000E824010F040DF3CFE9FFF4CFEAFF000E10
:104F1000E926040EEA221050010BF36EF346F34625
:104F2000F346F346F346F346BF0EEF14F310EF6E6D
:104F3000880E106E050EDB50E824010F040DF3CF30
:104F4000E9FFF4CFEAFF000EE926040EEA22105032
:104F5000EF1222D0400E106E050EDB50E824010F38
:104F6000040DF3CFE9FFF4CFEAFF000EE926040EAB
:104F7000EA221050EF16880E106E050EDB50E82462
:104F8000010F040DF3CFE9FFF4CFEAFF000EE9268D
:104F9000040EEA221050EF12060EE15C02E2E16A12
:104FA000E552E16EE552E7CFD9FF1200D9CFE6FF17
:104FB000E1CFD9FFE652DF6A100EDF5C3DE2DF5041
:104FC000040DF3CFE9FFF4CFEAFF610EE926000EEE
:104FD000EA22EF50200B2EE0DF50040DF3CFE9FF63
:104FE000F4CFEAFF610EE926000EEA22FE0EDBCFC7
:104FF000EFFFDF50040DF3CFE9FFF4CFEAFF610EBE
:10500000E926000EEA22EF9ADF50040DF3CFE9FF04
:10501000F4CFEAFF610EE926000EEA22020EE9262D
:10502000000EEA22FC0EDBCFEEFFFD0EDBCFEDFF24
:10503000DF5004D0DF2AC0D7FF0E00D0E552E55282
:10504000E7CFD9FF1200D9CFE6FFE1CFD9FFFB0EA2
:10505000DB50040DF3CFE9FFF4CFEAFF610EE92640
:10506000000EEA22EF50200B33E0FB0EDB50040D64
:10507000F3CFE9FFF4CFEAFF610EE926000EEA2242
:10508000FE0EDBCFEFFFFB0EDB50040DF3CFE9FF8D
:10509000F4CFEAFF610EE926000EEA22EF9AFB0E3A
:1050A000DB50040DF3CFE9FFF4CFEAFF610EE926F0
:1050B000000EEA22020EE926000EEA22FC0EDBCFE9
:1050C000EEFFFD0EDBCFEDFFFB0EDB5003D002D079
:1050D000FF0E00D0E552E7CFD9FF1200D9CFE6FF8F
:1050E000E1CFD9FFE652DF6A100EDF5C1EE2DF502F
:1050F000040DF3CFE9FFF4CFEAFF610EE926000EBD
:10510000EA22020EE926000EEA22EECF10F0EFCFDF
:1051100011F0FD0EDB50101803E1FE0EDB501118EC
:1051200002E1010E04D0DF2ADFD7000E00D0E552E5
:10513000E552E7CFD9FF1200D9CFE6FFE1CFD9FF83
:10514000E652DF6A100EDF5C1DE2DF50040DF3CF84
:10515000E9FFF4CFEAFF610EE926000EEA22EF8AAA
:10516000DF50040DF3CFE9FFF4CFEAFF610EE9262B
:10517000000EEA22020EE926000EEA22EE6AED6A2D
:10518000DF2AE0D7EA0EF66E080EF76E0800F5CFBC
:1051900060F0E552E552E7CFD9FF1200D9CFE6FF24
:1051A000E1CFD9FF080EE126C7DF610EDF6EDE52C8
:1051B000640EDD6E6D0EF36E020EF3CFDBFF690E33
:1051C000F36E030EF3CFDBFF6E0EF36E040EF3CF20
:1051D000DBFF050EDB6A060EDB6A070EDB6A16ECE8
:1051E0000FF0F3CF61F0F4CF62F0D9CFE6FFDACF62
:1051F000E6FFB8EC11F0E552E552F3CF63F0F4CFDF
:1052000064F0E66A3EEC0CF0E552700EDF6EDE52A2
:105210006E0EDD6E700EF36E020EF3CFDBFF030E2B
:10522000DB6A040EDB6A050EDB6A060EDB6A070E1C
:10523000DB6A34EC0FF0F3CF7DF0F4CF7EF0D9CF02
:10524000E6FFDACFE6FFB8EC11F0E552E552F3CF16
:105250007FF0F4CF80F0070EE66E01EC2BF0E55204
:10526000080EE15C02E2E16AE552E16EE552E7CF49
:10527000D9FF1200D9CFE6FFE1CFD9FF020EE12618
:10528000100EF36EFE0EDBCFF4FFF350F45C57E22A
:10529000FE0EDB50040DF3CFE9FFF4CFEAFF610E01
:1052A000E926000EEA22EF50200B49E1FE0EDB500A
:1052B000040DF3CFE9FFF4CFEAFF610EE926000EFB
:1052C000EA22EF8AFE0EDB50040DF3CFE9FFF4CFA4
:1052D000EAFF610EE926000EEA22020EE926000E20
:1052E000EA22EECFE6FFEFCFE6FF3FEC13F0E55208
:1052F000E552F3CFDEFFF4CFDDFFDECF10F0DDCFE0
:1053000011F0FE0EDBCFE6FF04D011C0FAFF105003
:10531000F96EFBDFE552FE0EDB50040DF3CFE9FF23
:10532000F4CFEAFF610EE926000EEA22020EE9261A
:10533000000EEA22EE6AED6A010E03D002D0000EE2
:1053400000D0106E020EE15C02E2E16AE552E16E0D
:105350001050E552E7CFD9FF1200D9CFE6FFE1CFD9
:10536000D9FF020EE126100EF36EFE0EDBCFF4FF26
:10537000F350F45C3AE2FE0EDB50040DF3CFE9FF8C
:10538000F4CFEAFF610EE926000EEA22EF50200B6F
:105390002CE1FE0EDB50040DF3CFE9FFF4CFEAFF62
:1053A000610EE926000EEA22020EE926000EEA222C
:1053B000EECFE6FFEFCFE6FF67EC13F0E552E552E4
:1053C000F3CFDEFFF4CFDDFFDECF10F0DDCF11F045
:1053D000FE0EDBCFE6FF04D011C0FAFF1050F96ECD
:1053E000FBDFE552010E03D002D0000E00D0106E9C
:1053F000020EE15C02E2E16AE552E16E1050E55214
:10540000E7CFD9FF1200D9CFE6FFE1CFD9FF030ED6
:10541000E126010EF36E020EF3CFDBFF100EF36EEA
:10542000020EDBCFF4FFF350F45C57E2020EDB50C8
:10543000040DF3CFE9FFF4CFEAFF610EE926000E79
:10544000EA22EF50200B46E1020EDB50040DF3CFB1
:10545000E9FFF4CFEAFF610EE926000EEA22EF8AA7
:10546000020EDB50040DF3CFE9FFF4CFEAFF610E2B
:10547000E926000EEA22020EE926000EEA22EECF0D
:10548000E6FFEFCFE6FF3FEC13F0E552E552F3CF36
:10549000DEFFF4CFDDFFDECF10F0DDCF11F0020E26
:1054A000DBCFE6FF04D011C0FAFF1050F96EFBDF2E
:1054B000E552020EDB50040DF3CFE9FFF4CFEAFF13
:1054C000610EE926000EEA22020EE926000EEA220B
:1054D000EE6AED6A020EDB2AA1D7010E106E030EF2
:1054E000E15C03E200D0E16AE552E16E1050E55262
:1054F000E7CFD9FF1200D9CFE6FFE1CFD9FF050EE4
:10550000E126FE0EDB50040DF3CFE9FFF4CFEAFFF6
:10551000610EE926000EEA22EECFDFFF010EEECF8C
:10552000DBFF020EEECFDBFF030EEECFDBFFD9CFAA
:10553000E9FFDACFEAFFEF500F0BE76E040EE7CF7B
:10554000DBFFFE0EDB500AE1730E106E040E116ECF
:1055500010C0F3FF11C0F4FF1FD01ED0040EDB50AB
:10556000E824010F040DF3CFE9FFF4CFEAFF000EAA
:10557000E926040EEA22020EE926000EEA22EECF08
:1055800010F0EFCF11F0030E1026000E112210C004
:10559000F3FF11C0F4FF00D0050EE15C02E2E16A06
:1055A000E552E16EE552E7CFD9FF1200D9CFE6FF11
:1055B000E1CFD9FF400E00D0E552E7CFD9FF12006E
:1055C000D9CFE6FFE1CFD9FF400E00D0E552E7CFBB
:1055D000D9FF1200D9CFE6FFE1CFD9FFE652DF6A4B
:1055E000060EDF5C09E2DF50EA6AF50FE96E000E95
:1055F000EA22EF6ADF2AF4D7E552E552E7CFD9FF76
:105600001200D9CFE6FFE1CFD9FF090EE126FE0E49
:10561000DBCFF2F0120EE66E5B0EE66EF2C0E6FF36
:105620001EEC25F0E552E552E552F2C0E6FF7BECB8
:105630002AF0E552F3CFF3F0F4CFF4F034EC0FF0AE
:10564000F3CFFBF0F4CFFCF0C1EC31F0C3DF700E10
:10565000DF6EDE526F0EDD6E720EF36E020EF3CF52
:10566000DBFF740EF36E030EF3CFDBFF040EDB6A79
:10567000050EDB6A060EDB6A070EDB6A010EE66EBC
:10568000D9CFE6FFDACFE6FFD5D8E552E552E552AD
:10569000020EE66ED9CFE6FFDACFE6FFCBD8E552B1
:1056A000E552E552030EE66ED9CFE6FFDACFE6FF0C
:1056B000C1D8E552E552E552040EE66ED9CFE6FFB9
:1056C000DACFE6FFB7D8E552E552E552050EE66EB1
:1056D000D9CFE6FFDACFE6FFADD8E552E552E55285
:1056E000060EE66ED9CFE6FFDACFE6FFA3D8E55285
:1056F000E552E552060EE66E590EE66E100EE66EA7
:10570000270EE66EB9EC08F0E552E552E552E55297
:10571000090EE15C02E2E16AE552E16EE552E7CF93
:10572000D9FF1200D9CFE6FFE1CFD9FFFE0EDBCFC4
:10573000E6FF0AEC25F0E552FE0EDBCFE6FF36EC85
:1057400025F0E552060EE66E590EE66E61EC0BF0A2
:10575000E552E552E552E7CFD9FF12001200D9CF4A
:10576000E6FFE1CFD9FF050EE126DF6ADF6A050E0D
:10577000DF5C52E2DF500C0DF3CFF6FFF4CFF7FF02
:10578000560EF626300EF7220A0EF626000EF722E7
:105790000900010EF5CFDBFF0A00020EF5CFDBFF9B
:1057A000DF500C0DF3CFF6FFF4CFF7FF560EF626C1
:1057B000300EF722080EF626000EF7220900030E1F
:1057C000F5CFDBFF0A00040EF5CFDBFFFD0EDBCFCC
:1057D00010F0FE0EDBCF11F0010EDBCF12F0020E47
:1057E000DBCF13F01050125C1150135813E3030E6B
:1057F000DBCF14F0040EDBCF15F0FD0EDBCF16F07F
:10580000FE0EDBCF17F01450165C1550175802E34C
:10581000DF5004D0DF2AABD7000E00D0106E050E8B
:10582000E15C02E2E16AE552E16E1050E552E7CF39
:10583000D9FF1200D9CFE6FFE1CFD9FF040EE12650
:10584000FD0EDBCFE6FFFE0EDBCFE6FFB8EC11F07E
:10585000E552E552020EF3CFDBFF030EF4CFDBFF80
:10586000D950020FE96EDACFEAFFFF0EEE1801E120
:10587000ED5031E0FC0EDBCFE6FF020EDBCFE6FFA2
:10588000030EDBCFE6FFFBC0E6FF23EC28F0E5527A
:10589000E552E552E552E76EFC0EE7CFDBFF020E64
:1058A000DBCFE6FF030EDBCFE6FF1BEC13F0E55288
:1058B000E552F3CFDEFFF4CFDDFFDECF10F0DDCF1A
:1058C00011F0FC0EDBCFE6FF04D011C0FAFF105040
:1058D000F96EFBDFE552040EE15C02E2E16AE5529B
:1058E000E16EE552E7CFD9FF1200D9CFE6FFE1CF55
:1058F000D9FFFE0EDBCFE6FF3AEC29F0E552E55288
:10590000E7CFD9FF1200D9CFE6FFE1CFD9FF0A0ECA
:10591000E126DF6A060EDF5C01E3E3D0DF500A0D0B
:10592000F3CFE9FFF4CFEAFF000EE926010EEA22E9
:10593000060EE926000EEA22EECF12F0EFCF13F0AA
:1059400004D013C0FAFF1250F96EFBDFF3CF10F052
:10595000F4CF11F010C0E6FF11C0E6FF00DFE55202
:10596000E552E76E010EE7CFDBFFDF50EA6AF50F85
:10597000E96E000EEA22EF50F36E010EDB50F35C8D
:1059800001E1ADD0DF28E66EB0DFE552010EDB505D
:105990000C0DF3CFF6FFF4CFF7FF560EF626300EC0
:1059A000F7220800020EF5CFDBFF010EDB500C0DD5
:1059B000F3CFF6FFF4CFF7FF560EF626300EF722A0
:1059C000010EF626000EF7220800030EF5CFDBFFCE
:1059D000010EDB500C0DF3CFF6FFF4CFF7FF560EA0
:1059E000F626300EF722020EF626000EF7220800E9
:1059F000040EF5CFDBFF010EDB500C0DF3CFF6FFED
:105A0000F4CFF7FF560EF626300EF722030EF626D9
:105A1000000EF7220800050EF5CFDBFF010EDB506C
:105A20000C0DF3CFF6FFF4CFF7FF560EF626300E2F
:105A3000F722040EF626000EF7220800060EF5CF18
:105A4000DBFF010EDB500C0DF3CFF6FFF4CFF7FFB9
:105A5000560EF626300EF722050EF626000EF72219
:105A60000800070EF5CFDBFF010EDB500C0DF3CF66
:105A7000F6FFF4CFF7FF560EF626300EF722060E8D
:105A8000F626000EF7220800080EF5CFDBFF010E08
:105A9000DB500C0DF3CFF6FFF4CFF7FF560EF626D2
:105AA000300EF722070EF626000EF7220800090E28
:105AB000F5CFDBFFDF28E66ED950020FE66E000E51
:105AC000DA20E66EB7DEE552E552E552DF50EA6ACB
:105AD000F50FE96E000EEA22010EDBCFEFFFDF2AA1
:105AE00019D7060EE66E590EE66E100EE66E270EFC
:105AF000E66E29EC0AF0E552E552E552E5520A0E4F
:105B0000E15C02E2E16AE552E16EE552E7CFD9FFDE
:105B10001200D9CFE6FFE1CFD9FF020EE126010E38
:105B2000DB6AFD0EDBCFE9FFFE0EDBCFEAFFEF50B5
:105B300001E03CD0FD0EDBCFE9FFFE0EDBCFEAFF3C
:105B4000EF50E66EF3C0E9FFF4C0EAFFE552E7501C
:105B5000EF6EFD0EDBCFE9FFFE0EDBCFEAFF010E9D
:105B6000E926000EEA22EF50E66EF3C0E9FFF4C02A
:105B7000EAFF010EE926000EEA22E552E750EF6E39
:105B8000F3C0E9FFF4C0EAFF020EE926000EEA22A4
:105B9000EF68F3C0E9FFF4C0EAFF030EE926000E48
:105BA000EA22EF68DE52040EDD6E00D0010EDB50FB
:105BB0000CE004010CBF09D0010EDBCFE6FFF2C000
:105BC000E6FF98EC26F0E552E552020EE15C02E2B7
:105BD000E16AE552E16EE552E7CFD9FF1200D9CF75
:105BE000E6FFE1CFD9FFFE0EDB50E8B09282E8A0DD
:105BF0009292E552E7CFD9FF1200D9CFE6FFE1CF6D
:105C0000D9FF020EE1261CD8F3CFDEFFF4CFDDFF73
:105C1000D950010FE96EDACFEAFFEF50800B02E0B6
:105C2000010E02D0000E00D0106E020EE15C02E206
:105C3000E16AE552E16E1050E552E7CFD9FF12005C
:105C4000D9CFE6FFE1CFD9FF030EE126020EDB68D4
:105C5000C29AC298C296C284C280C282C250020B4B
:105C600008E0020EDBCFF3FFDB06F350000801E291
:105C7000F5D7C350DF6E010EC4CFDBFFC290DECF7D
:105C800010F0DDCF11F010C0F3FF11C0F4FF030ED0
:105C9000E15C03E200D0E16AE552E16EE552E7CF54
:105CA000D9FF1200D9CFE6FFE1CFD9FFFE0EDB50BE
:105CB000E8B08082E8A08092E552E7CFD9FF1200D9
:105CC000D9CFE6FFE1CFD9FF030EE126020EDB6854
:105CD000C29AC298C296C294C280C282C250020BBB
:105CE00008E0020EDBCFF3FFDB06F350000801E211
:105CF000F5D7C350DF6E010EC4CFDBFFC290DECFFD
:105D000010F0DDCF11F010C0F3FF11C0F4FF030E4F
:105D1000E15C03E200D0E16AE552E16EE552E7CFD3
:105D2000D9FF1200D9CFE6FFE1CFD9FFFE0EDB503D
:105D3000E8B09286E8A09296E552E7CFD9FF12002C
:105D4000D9CFE6FFE1CFD9FF020EE1261CD8F3CF71
:105D5000DEFFF4CFDDFFD950010FE96EDACFEAFFA5
:105D6000EF50800B02E0010E02D0000E00D0106E4A
:105D7000020EE15C02E2E16AE552E16E1050E5528A
:105D8000E7CFD9FF1200D9CFE6FFE1CFD9FF030E4D
:105D9000E126020EDB68C29AC298C286C284C28023
:105DA000C282C250020B08E0020EDBCFF3FFDB061B
:105DB000F350000801E2F5D7C350DF6E010EC4CFE7
:105DC000DBFFC290DECF10F0DDCF11F010C0F3FF8B
:105DD00011C0F4FF030EE15C03E200D0E16AE5527A
:105DE000E16EE552E7CFD9FF1200D9CFE6FFE1CF50
:105DF000D9FFFE0EDB50E8B08086E8A08096E55221
:105E0000E7CFD9FF1200D9CFE6FFE1CFD9FF030ECC
:105E1000E126020EDB68C29AC298C286C294C28092
:105E2000C282C250020B08E0020EDBCFF3FFDB069A
:105E3000F350000801E2F5D7C350DF6E010EC4CF66
:105E4000DBFFC290DECF10F0DDCF11F010C0F3FF0A
:105E500011C0F4FF030EE15C03E200D0E16AE552F9
:105E6000E16EE552E7CFD9FF1200D9CFE6FFE1CFCF
:105E7000D9FFFE0EDB50E8B09682E8A09692E5527C
:105E8000E7CFD9FF1200D9CFE6FFE1CFD9FF020E4D
:105E9000E1261CD8F3CFDEFFF4CFDDFFD950010F90
:105EA000E96EDACFEAFFEF50800B02E0010E02D07C
:105EB000000E00D0106E020EE15C02E2E16AE552D3
:105EC000E16E1050E552E7CFD9FF1200D9CFE6FFBF
:105ED000E1CFD9FF030EE126020EDB68C29AC28829
:105EE000C286C294C280C282C250020B08E0020E77
:105EF000DBCFF3FFDB06F350000801E2F5D7C35018
:105F0000DF6E010EC4CFDBFFC290DECF10F0DDCF1D
:105F100011F010C0F3FF11C0F4FF030EE15C03E2C7
:105F200000D0E16AE552E16EE552E7CFD9FF1200F9
:105F3000D9CFE6FFE1CFD9FFFE0EDB50E8B0848277
:105F4000E8A08492E552E7CFD9FF1200D9CFE6FF4F
:105F5000E1CFD9FF030EE126020EDB68C29AC288A8
:105F6000C286C284C280C282C250020B08E0020E06
:105F7000DBCFF3FFDB06F350000801E2F5D7C35097
:105F8000DF6E010EC4CFDBFFC290DECF10F0DDCF9D
:105F900011F010C0F3FF11C0F4FF030EE15C03E247
:105FA00000D0E16AE552E16EE552E7CFD9FF120079
:105FB000D9CFE6FFE1CFD9FFFE0EDB50E8B0928AE1
:105FC000E8A0929AE552E7CFD9FF1200D9CFE6FFB9
:105FD000E1CFD9FF020EE1261CD8F3CFDEFFF4CFCC
:105FE000DDFFD950010FE96EDACFEAFFEF50800BE9
:105FF00002E0010E02D0000E00D0106E020EE15C35
:1060000002E2E16AE552E16E1050E552E7CFD9FFB6
:106010001200D9CFE6FFE1CFD9FF030EE126020E31
:10602000DB68C29AC288C296C294C280C282C25041
:10603000020B08E0020EDBCFF3FFDB06F350000893
:1060400001E2F5D7C350DF6E010EC4CFDBFFC29073
:10605000DECF10F0DDCF11F010C0F3FF11C0F4FF60
:10606000030EE15C03E200D0E16AE552E16EE55225
:10607000E7CFD9FF1200D9CFE6FFE1CFD9FFFE0E5F
:10608000DB50E8B0808AE8A0809AE552E7CFD9FFDC
:106090001200D9CFE6FFE1CFD9FF030EE126020EB1
:1060A000DB68C29AC288C296C284C280C282C250D1
:1060B000020B08E0020EDBCFF3FFDB06F350000813
:1060C00001E2F5D7C350DF6E010EC4CFDBFFC290F3
:1060D000DECF10F0DDCF11F010C0F3FF11C0F4FFE0
:1060E000030EE15C03E200D0E16AE552E16EE552A5
:1060F000E7CFD9FF1200D9CFE6FFE1CFD9FFFE0EDF
:10610000DB50E8B09382E8A09392E552E7CFD9FF45
:106110001200D9CFE6FFE1CFD9FF020EE1261CD84D
:10612000F3CFDEFFF4CFDDFFD950010FE96EDACFF8
:10613000EAFFEF50800B02E0010E02D0000E00D00B
:10614000106E020EE15C02E2E16AE552E16E10506F
:10615000E552E7CFD9FF1200D9CFE6FFE1CFD9FF53
:10616000030EE126020EDB68C28AC298C286C29480
:10617000C280C282C250020B08E0020EDBCFF3FFE6
:10618000DB06F350000801E2F5D7C350DF6E010EC5
:10619000C4CFDBFFC290DECF10F0DDCF11F010C016
:1061A000F3FF11C0F4FF030EE15C03E200D0E16AEB
:1061B000E552E16EE552E7CFD9FF1200D9CFE6FFF5
:1061C000E1CFD9FFFE0EDB50E8B08182E8A08192DA
:1061D000E552E7CFD9FF1200D9CFE6FFE1CFD9FFD3
:1061E000030EE126020EDB68C28AC288C296C29400
:1061F000C280C282C250020B08E0020EDBCFF3FF66
:10620000DB06F350000801E2F5D7C350DF6E010E44
:10621000C4CFDBFFC290DECF10F0DDCF11F010C095
:10622000F3FF11C0F4FF030EE15C03E200D0E16A6A
:10623000E552E16EE552E7CFD9FF1200D9CFE6FF74
:10624000E1CFD9FFFE0EDB50E8B09386E8A093962D
:10625000E552E7CFD9FF1200D9CFE6FFE1CFD9FF52
:10626000020EE1261CD8F3CFDEFFF4CFDDFFD950BC
:10627000010FE96EDACFEAFFEF50800B02E0010E6A
:1062800002D0000E00D0106E020EE15C02E2E16A64
:10629000E552E16E1050E552E7CFD9FF1200D9CF99
:1062A000E6FFE1CFD9FF030EE126020EDB68C28ACA
:1062B000C298C296C284C280C282C250020B08E059
:1062C000020EDBCFF3FFDB06F350000801E2F5D747
:1062D000C350DF6E010EC4CFDBFFC290DECF10F0E3
:1062E000DDCF11F010C0F3FF11C0F4FF030EE15C2D
:1062F00003E200D0E16AE552E16EE552E7CFD9FF53
:106300001200D9CFE6FFE1CFD9FFFE0EDB50E8B097
:106310008186E8A08196E552E7CFD9FF1200D9CF58
:10632000E6FFE1CFD9FF030EE126020EDB68C28A49
:10633000C298C296C294C280C282C250020B08E0C8
:10634000020EDBCFF3FFDB06F350000801E2F5D7C6
:10635000C350DF6E010EC4CFDBFFC290DECF10F062
:10636000DDCF11F010C0F3FF11C0F4FF030EE15CAC
:1063700003E200D0E16AE552E16EE552E7CFD9FFD2
:106380001200D9CFE6FFE1CFD9FFE652CF0EC114FC
:106390000009C16EF00EC1140009C16EC09EC70E87
:1063A000C0143809C06EF80EC0140409C06EDF6A4C
:1063B000060EDF5C1DE2DF500A0DF3CFE9FFF4CFDC
:1063C000EAFF000EE926010EEA22080EE926000E79
:1063D000EA22EECF10F0EFCF11F0010EE66E04D0FE
:1063E00011C0FAFF1050F96EFBDFE552DF2AE0D74B
:1063F000E552E552E7CFD9FF1200D9CFE6FFE1CF52
:10640000D9FFFE0EDB040A0DF3CF10F0F4CF11F02C
:10641000000E1026010E112210C0F3FF11C0F4FF70
:1064200000D0E552E7CFD9FF1200D9CFE6FFE1CF88
:10643000D9FFE652FE0EDBCFC5F1CA0EE66E640E42
:10644000E66EC5C1E6FF1EEC25F0E552E552E552C9
:10645000C5C1E6FF7BEC2AF0E552F3CFC6F1F4CFDD
:10646000C7F1CF0EC1140009C16EF00EC1140009AE
:10647000C16EC08EC70EC0143809C06EF80EC014AD
:106480000409C06EE552E552E7CFD9FF12001200B1
:106490001200D9CFE6FFE1CFD9FFFE0EDBCFE6FF3A
:1064A0000AEC25F0E552FE0EDBCFE6FF36EC25F0D8
:1064B000E552900EE66E640EE66ED6EC10F0E552F4
:1064C000E552E552E7CFD9FF1200D9CFE6FFE1CF81
:1064D000D9FF100EE126020EDB6A060E00C1DBFFBB
:1064E000070E01C1DBFF080E02C1DBFF090E03C16D
:1064F000DBFF0A0E04C1DBFF0B0E05C1DBFF0C0E38
:1065000006C1DBFF0D0E07C1DBFF0E0E08C1DBFF6E
:106510000F0E09C1DBFFFD0EDBCFE9FFFE0EDBCF67
:10652000EAFFEF50010A2AE0010A01E064D0FD0E03
:10653000DBCFE9FFFE0EDBCFEAFFEF50E66EC6C110
:10654000E9FFC7C1EAFFE552E750EF6EC6C1E9FFB8
:10655000C7C1EAFF010EE926000EEA22020EEF6E25
:10656000C6C1E9FFC7C1EAFFE926000EEA22EF6AC9
:10657000030EF36E020EF3CFDBFF3DD0FD0EDBCF3B
:10658000E9FFFE0EDBCFEAFFEF50E66EC6C1E9FF82
:10659000C7C1EAFFE552E750EF6E0C0EDBCF10F0FB
:1065A0000D0EDBCF11F004D011C0FAFF1050F96EC0
:1065B000FBDF040EF3CFDBFF050EF4CFDBFFC6C11C
:1065C000E9FFC7C1EAFF010EE926000EEA22040E28
:1065D000DBCFEFFFC6C1E9FFC7C1EAFF020EE92624
:1065E000000EEA22050EDBCFEFFF030EF36E020E64
:1065F000F3CFDBFF00D0020EDB5019E0010EDB68A9
:1066000004010C51800B08E0010EDBCFF3FFDB0629
:10661000F350000801E2F4D70CBF09D0020EDBCF23
:10662000E6FFC5C1E6FF98EC26F0E552E552100EF4
:10663000E15C02E2E16AE552E16EE552E7CFD9FFA3
:106640001200D9CFE6FFE1CFD9FFF20EE66E660E5B
:10665000E66EFE0EDBCFE6FF1EEC25F0E552E552BE
:10666000E552FE0EDBCFE6FF7BEC2AF0E552F3CFDE
:10667000D0F1F4CFD1F1FE0EDB040A0DF3CFE9FF28
:10668000F4CFEAFF000EE926010EEA22080EE92601
:10669000000EEA22EECF10F0EFCF11F0010EE66E01
:1066A00004D011C0FAFF1050F96EFBDFE552E5523D
:1066B000E7CFD9FF120012001200D9CFE6FFE1CFD9
:1066C000D9FFFE0EDBCFE6FF0AEC25F0E552FE0E09
:1066D000DBCFE6FF36EC25F0E552B80EE66E660E2F
:1066E000E66ED6EC10F0E552E552E552E7CFD9FF61
:1066F0001200D9CFE6FFE1CFD9FF0E0EE126010E41
:10670000DB6A040E00C1DBFF050E01C1DBFF060ED4
:1067100002C1DBFF070E03C1DBFF080E04C1DBFF74
:10672000090E05C1DBFF0A0E06C1DBFF0B0E07C118
:10673000DBFF0C0E08C1DBFF0D0E09C1DBFFFD0EF8
:10674000DBCFE9FFFE0EDBCFEAFFEF50010A29E0C5
:10675000010A01E05FD0FD0EDBCFE9FFFE0EDBCFCB
:10676000EAFFEF50E66ED0C1E9FFD1C1EAFFE55282
:10677000E750EF6ED0C1E9FFD1C1EAFF010EE92673
:10678000000EEA22010EEF6ED0C1E9FFD1C1EAFF8F
:10679000020EE926000EEA22EF6ADE52030EDD6EDB
:1067A00039D0FD0EDBCFE9FFFE0EDBCFEAFFEF5065
:1067B000E66ED0C1E9FFD1C1EAFFE552E750EF6EC6
:1067C0000A0EDBCF10F00B0EDBCF11F004D011C09E
:1067D000FAFF1050F96EFBDF020EF3CFDBFF030E62
:1067E000F4CFDBFFD0C1E9FFD1C1EAFF010EE926FA
:1067F000000EEA22020EDBCFEFFFD0C1E9FFD1C1CC
:10680000EAFFE926000EEA22030EDBCFEFFFDE529D
:10681000DD6E00D0010EDB5016E0DF6804010C5184
:10682000800B05E0DF50DF06000801E2F7D70CBF60
:106830000AD0010EDBCFE6FFFB0EDBCFE6FF98ECC4
:1068400026F0E552E5520E0EE15C02E2E16AE55205
:10685000E16EE552E7CFD9FF1200D9CFE6FFE1CFD5
:10686000D9FFD20EE66E680EE66EFE0EDBCFE6FFB7
:106870001EEC25F0E552E552E552FE0EDBCFE6FFB9
:106880007BEC2AF0E552F3CFD2F1F4CFD3F1E5520D
:10689000E7CFD9FF120012001200D9CFE6FFE1CFF7
:1068A000D9FFFE0EDBCFE6FF0AEC25F0E552FE0E27
:1068B000DBCFE6FF36EC25F0E552980EE66E680E6B
:1068C000E66ED6EC10F0E552E552E552E7CFD9FF7F
:1068D0001200D9CFE6FFE1CFD9FF0E0EE126010E5F
:1068E000DB6A040E00C1DBFF050E01C1DBFF060EF3
:1068F00002C1DBFF070E03C1DBFF080E04C1DBFF93
:10690000090E05C1DBFF0A0E06C1DBFF0B0E07C136
:10691000DBFF0C0E08C1DBFF0D0E09C1DBFFFD0E16
:10692000DBCFE9FFFE0EDBCFEAFFEF50010A29E0E3
:10693000010A01E05FD0FD0EDBCFE9FFFE0EDBCFE9
:10694000EAFFEF50E66ED2C1E9FFD3C1EAFFE5529C
:10695000E750EF6ED2C1E9FFD3C1EAFF010EE9268D
:10696000000EEA22010EEF6ED2C1E9FFD3C1EAFFA9
:10697000020EE926000EEA22EF6ADE52030EDD6EF9
:1069800039D0FD0EDBCFE9FFFE0EDBCFEAFFEF5083
:10699000E66ED2C1E9FFD3C1EAFFE552E750EF6EE0
:1069A0000A0EDBCF10F00B0EDBCF11F004D011C0BC
:1069B000FAFF1050F96EFBDF020EF3CFDBFF030E80
:1069C000F4CFDBFFD2C1E9FFD3C1EAFF010EE92614
:1069D000000EEA22020EDBCFEFFFD2C1E9FFD3C1E6
:1069E000EAFFE926000EEA22030EDBCFEFFFDE52BC
:1069F000DD6E00D0010EDB5016E0DF6804010C51A3
:106A0000800B05E0DF50DF06000801E2F7D70CBF7E
:106A10000AD0010EDBCFE6FFFB0EDBCFE6FF98ECE2
:106A200026F0E552E5520E0EE15C02E2E16AE55223
:106A3000E16EE552E7CFD9FF1200D9CFE6FFE1CFF3
:106A4000D9FFE652FE0EDBCFC2F1DA0EE66E6A0E19
:106A5000E66EC2C1E6FF1EEC25F0E552E552E552B6
:106A6000900EE66E6A0EE66E94EC10F0E552E5527A
:106A7000DF6EC2C1E6FF7BEC2AF0E552F3CFC3F133
:106A8000F4CFC4F1E552E552E7CFD9FF120012006E
:106A9000060E0101BE5D03E36D50020B01E000D064
:106AA0001200D9CFE6FFE1CFD9FFFE0EDBCFE6FF24
:106AB0000AEC25F0E552FE0EDBCFE6FF36EC25F0C2
:106AC000E552900EE66E6A0EE66ED6EC10F0E552D8
:106AD000E552E552E7CFD9FF1200D9CFE6FFE1CF6B
:106AE000D9FF0B0EE126020EDB6A090EDB6A0A0EE5
:106AF000DB6AFD0EDBCFE9FFFE0EDBCFEAFFEF50D6
:106B0000FF0A01E182D0FE0A2BE0010A01E07FD0FA
:106B1000FD0EDBCFE9FFFE0EDBCFEAFFEF50E66EA6
:106B2000C3C1E9FFC4C1EAFFE552E750EF6EC3C13C
:106B3000E9FFC4C1EAFF010EE926000EEA22010EB8
