:020000040000FA
:0600000031EF19F01200BF
:0608C00031EF19F01200F7
:0608C8002EEF10F01200FB
:0208D80012000C
:0108EA00030A
:0408EC001E0E716EFD
:1008F0000401400E096F0401300E0A6F040E0B6FE5
:100900000401880E086F0401700E0E6F040E0F6F45
:100910000401400E0C6F1E0E726E0401400E116F2A
:100920000401B00E126F040E136F0401880E106FD5
:100930000401F00E166F040E176F0401400E146FC1
:100940001E0E736E0401400E196F0401300E1A6FF3
:10095000050E1B6F0401800E186F0401700E1E6FD0
:0C096000050E1F6F0401400E1C6F1200FA
:060AEA00120100020000F1
:100AF0000008D8040C0000000102030109023C00B8
:100B000001010080FA09040000060000000007054A
:100B100001024000FF070581024000FF07050202B5
:100B20004000FF070582024000FF07050301400067
:100B30000607058301400006040309044A03770001
:100B4000770077002E00660069006E0067002E00B7
:100B50006500640075002E00750079002F006900A3
:100B60006E0063006F002F00700072006F0079004C
:100B70006500630074006F0073002F006200750051
:100B800074006900610036035500530042003400D0
:100B900042007500740069006100200032003000DE
:100BA000310031002000460049004E00470020007F
:100BB0005500640065006C006100520012033000B3
:0E0BC0003000300030003000300030003200D5
:040CEA00FC0AFC0AFA
:060D2A00380B3C0B860BA8
:020D3000BC0BFA
:060DAA000600E332000028
:100DB000D001000002000000E1320000CE0100007E
:100DC00002000000E0320000FF000000010000000F
:100DD000A4320000000100003C0000009E32000030
:100DE000AE010000060000009C320000CC010000B3
:040DF00002000000FD
:0C0DF400D9CFE6FFE1CFD9FFE652DF6A5D
:100E0000050EDF5C0DE2EA6ADF34FE0BEA36E96EBE
:100E1000620EE926010EEA22EE6AED6ADF2AF0D7B9
:100E200001016C6BE552E552E7CFD9FF1200D9CF33
:100E3000E6FFE1CFD9FF020EE126DF6A010EDB6A91
:100E4000050EDF5C23E2010EDB5020E1EA6ADF34AD
:100E5000FE0BEA36E96E620EE926010EEA22EE503A
:100E6000ED1012E1DE52010EDD6EEA6ADF34FE0B98
:100E7000EA36E96E620EE926010EEA22FD0EDBCFAC
:100E8000EEFFFE0EDBCFEDFFDF2ADAD7010EDB50DF
:100E900002E1000E16D001016C516C2B00090FE12C
:100EA000A40EE66E0F0EE66EB0EC0FF0E552E552C2
:100EB000F294F28A6EC1D6FF6DC1D7FFD58E010EB6
:100EC00000D0106E020EE15C02E2E16AE552E16ED2
:100ED0001050E552E7CFD9FF1200D9CFE6FFE1CF9E
:100EE000D9FF020EE126DF6A010EDB6A050EDF5C28
:100EF00028E2010EDB5025E1EA6ADF34FE0BEA3618
:100F0000E96E620EE926010EEA22EECF10F0EFCF75
:100F100011F0FD0EDB50101803E1FE0EDB5011182E
:100F20000EE1DE52010EDD6EEA6ADF34FE0BEA36B8
:100F3000E96E620EE926010EEA22EE6AED6ADF2A08
:100F4000D5D7010EDB5002E1000E10D001016C0775
:100F50000BE1D59EF294F29AA40EE66E0F0EE66EA9
:100F6000D7EC0FF0E552E552010E00D0106E020EE4
:100F7000E15C02E2E16AE552E16E1050E552E7CF32
:100F8000D9FF1200D9CFE6FFE1CFD9FF020ED56E0F
:100F9000FE0EDBCF6EF1FD0EDBCF6DF1E552E7CF3C
:100FA000D9FF1200D9CFE6FFE1CFD9FFE652DF6AC1
:100FB000F2A429D0F2946EC1D6FF6DC1D7FF050E01
:100FC000DF5C21E2EA6ADF34FE0BEA36E96E620E8C
:100FD000E926010EEA22EE50ED1013E0EA6ADF3452
:100FE000FE0BEA36E96E620EE926010EEA22EECF2A
:100FF00010F0EFCF11F004D011C0FAFF1050F96ECD
:10100000FBDFDF2ADCD7E552E552E7CFD9FF12003C
:10101000D9CFE6FFE1CFD9FFFE0EDB2AFE0EDB5073
:101020000A0802E1FE0EDB6AFE0EDB5000D0E5523C
:10103000E7CFD9FF1200D9CFE6FFE1CFD9FFFE0EEF
:10104000DB5005E10A0EF36EFE0EF3CFDBFFFE0E62
:10105000DB06FE0EDB5000D0E552E7CFD9FF1200D1
:101060000101D1510101D05D02E0000E01D0010E5D
:1010700000D01200F5DF000904E0F36AF46A11D031
:1010800010D00101D051040DF3CF10F0F4CF11F0C6
:10109000D50E1026000E112210C0F3FF11C0F4FF70
:1010A00000D01200D0C1E6FFB3DFE5520101D06FDE
:1010B0001200D9CFE6FFE1CFD9FF030EE126D1C15F
:1010C000E6FFA6DFE552DF6E0101D151040DF3CF3B
:1010D00010F0F4CF11F0D50E1026000E1122010EE3
:1010E00010C0DBFF020E11C0DBFF0101D051DF5C3D
:1010F00003E1F36AF46A0DD0DFCFD1F1010EDBCF4B
:1011000010F0020EDBCF11F010C0F3FF11C0F4FF9E
:1011100000D0030EE15C02E2E16AE552E16EE552C5
:10112000E7CFD9FF1200D9CFE6FFE1CFD9FFE652D2
:10113000DF6A0A0EDF5C1EE2DF50040DF3CFE9FF29
:10114000F4CFEAFFD50EE926000EEA22EE6AED6A38
:10115000DF50040DF3CFE9FFF4CFEAFFD50EE92607
:10116000000EEA22020EE926000EEA22EE6AED6A7D
:10117000DF2ADFD7070ED56E7A0EE66E170EE66E03
:10118000B0EC0FF0E552E552E552E552E7CFD9FF5A
:101190001200D9CFE6FFE1CFD9FF0C0EE126D59E94
:1011A0005FDF000906E0FD0EDBCFDEFFDBCFDDFFFA
:1011B00074D0D750146E14C015F0146AD6500001C4
:1011C0001410126E15C013F0FF0ED8801256FF0EC9
:1011D00013560101D051040DF3CFE9FFF4CFEAFF1C
:1011E000D50EE926000EEA221250EE5C106E135066
:1011F000EE58116E020E10C0DBFF030E11C0DBFFB4
:10120000FD0EDBCF12F0FE0EDBCF13F0020EDB5033
:101210001224106E030EDB501320116E10C0DEFF7F
:1012200011C0DDFFDECF10F0DDCF11F0020EDBCFFD
:1012300012F0030EDBCF13F01250105C1350115854
:101240002CE2040ED0C1DBFF040EDB500101D15DA6
:101250001FE0020EDBCF10F0030EDBCF11F0040E07
:10126000DB50040DF3CFE9FFF4CFEAFFD50EE926FA
:10127000000EEA221050EE5E1150ED5A040EDBCF44
:10128000E6FFC6DEE552E76E040EE7CFDBFFDCD7F4
:10129000FD0EDBCFDEFFDBCFDDFF040ED1C1DBFFB8
:1012A000040EDBCFE6FFC7DEE552E76E050EE7CFA3
:1012B000DBFFFFDE060EF3CFDBFF070EF4CFDBFF15
:1012C000D950060FE96EDACFEAFFEE50ED1002E1D9
:1012D000000EC9D0060EDBCFE9FF070EDBCFEAFF19
:1012E000DECFEEFFDDCFEDFF060EDBCFE9FF070E11
:1012F000DBCFEAFF020EE926000EEA22FB0EDBCF6F
:10130000EEFFFC0EDBCFEDFF040EDB500101D05DE4
:1013100001E187D0040EDB50040DF3CFE9FFF4CFD9
:10132000EAFFD50EE926000EEA22EECF10F0EFCF4D
:1013300011F0050EDB50040DF3CFE9FFF4CFEAFF07
:10134000D50EE926000EEA22EECF12F0EFCF13F011
:101350001250105C1350115864E2050EDB50040D5E
:10136000F3CFE9FFF4CFEAFFD50EE926000EEA221B
:10137000080EEECFDBFF090EEECFDBFF0A0EEECF3D
:10138000DBFF0B0EEECFDBFF040EDB50040DF3CFC3
:10139000E9FFF4CFEAFFD50EE926000EEA22EECFF0
:1013A00010F0EECF11F0EECF12F0EFCF13F0050EEC
:1013B000DB50040DF3CFE9FFF4CFEAFFD50EE926A9
:1013C000000EEA2210C0EEFF11C0EEFF12C0EEFFC9
:1013D00013C0EEFF040EDB50040DF3CFE9FFF4CF92
:1013E000EAFFD50EE926000EEA22080EDBCFEEFF5B
:1013F000090EDBCFEEFF0A0EDBCFEEFF0B0EDBCFCD
:10140000EEFF050EDB50E76E040EE7CFDBFF040EA8
:10141000DBCFE6FF10DEE552E76E050EE7CFDBFF20
:1014200073D7040EDB500101D05D1AE1F294F28A09
:10143000DECF10F0DDCF11F0FF0ED8801056FF0E7A
:10144000115610C0DEFF11C0DDFFDECF10F0DDCF82
:1014500011F011C010F0116A1050D76EDF50D66E27
:10146000D58E010E00D0106E0C0EE15C02E2E16A36
:10147000E552E16E1050E552E7CFD9FF1200D9CF07
:10148000E6FFE1CFD9FF0C0EE1260101D051040D9A
:10149000F3CFE9FFF4CFEAFFD50EE926000EEA22EA
:1014A000020EEECFDBFF030EEDCFDBFFFD0EDBCF39
:1014B00012F0FE0EDBCF13F0020EDB501224106E82
:1014C000030EDB501320116E10C0DEFF11C0DDFFD4
:1014D000DECF10F0DDCF11F0020EDBCF12F0030EE5
:1014E000DBCF13F01250105C135011582CE2040E95
:1014F000D0C1DBFF040EDB500101D15D1FE0020E05
:10150000DBCF10F0030EDBCF11F0040EDB50040D27
:10151000F3CFE9FFF4CFEAFFD50EE926000EEA2269
:101520001050EE5E1150ED5A040EDBCFE6FF70DD79
:10153000E552E76E040EE7CFDBFFDCD7FD0EDBCF15
:10154000DEFFDBCFDDFF040ED1C1DBFF040EDBCFFE
:10155000E6FF71DDE552E76E050EE7CFDBFFA9DDA3
:10156000060EF3CFDBFF070EF4CFDBFFD950060FDB
:10157000E96EDACFEAFFEE50ED1002E1000EAFD0D7
:10158000060EDBCFE9FF070EDBCFEAFFDECFEEFF73
:10159000DDCFEDFF060EDBCFE9FF070EDBCFEAFF65
:1015A000020EE926000EEA22FB0EDBCFEEFFFC0E58
:1015B000DBCFEDFF050EDB500101D05D01E18DD0E9
:1015C000040EDB500101D05D01E187D0040EDB5039
:1015D000040DF3CFE9FFF4CFEAFFD50EE926000EA4
:1015E000EA22EECF10F0EFCF11F0050EDB50040D24
:1015F000F3CFE9FFF4CFEAFFD50EE926000EEA2289
:10160000EECF12F0EFCF13F01250105C13501158C0
:1016100064E2050EDB50040DF3CFE9FFF4CFEAFFDF
:10162000D50EE926000EEA22080EEECFDBFF090EEA
:10163000EECFDBFF0A0EEECFDBFF0B0EEECFDBFFB4
:10164000040EDB50040DF3CFE9FFF4CFEAFFD50E13
:10165000E926000EEA22EECF10F0EECF11F0EECF29
:1016600012F0EFCF13F0050EDB50040DF3CFE9FFBE
:10167000F4CFEAFFD50EE926000EEA2210C0EEFFF5
:1016800011C0EEFF12C0EEFF13C0EEFF040EDB50E0
:10169000040DF3CFE9FFF4CFEAFFD50EE926000EE3
:1016A000EA22080EDBCFEEFF090EDBCFEEFF0A0EBB
:1016B000DBCFEEFF0B0EDBCFEEFF050EDB50E76E50
:1016C000040EE7CFDBFF040EDBCFE6FFB4DCE55210
:1016D000E76E050EE7CFDBFF6DD7010E00D0106E71
:1016E0000C0EE15C02E2E16AE552E16E1050E55257
:1016F000E7CFD9FF1200D9CFE6FFE1CFD9FFE652FD
:10170000D0C1DFFF0101D151DF5C30E0DF50040DBB
:10171000F3CFE9FFF4CFEAFFD50EE926000EEA2267
:10172000020EE926000EEA22EECF10F0EFCF11F004
:10173000FD0EDB50101803E1FE0EDB50111810E116
:10174000DF50040DF3CFE9FFF4CFEAFFD50EE92611
:10175000000EEA22020EE926000EEA22EE6AED6A87
:10176000DFCFE6FF55DCE552DF6ECCD7010E00D0AF
:10177000E552E552E7CFD9FF1200D9CFE6FFE1CF1E
:10178000D9FF080EE126F2A46BD0D59EF29472DC4C
:10179000F3CFDEFFF4CFDDFFDECFE9FFDDCFEAFFE1
:1017A000020EE926000EEA22060EEECFDBFF070E40
:1017B000EDCFDBFFD950060FE96EDACFEAFFEE502E
:1017C000ED100CE0060EDBCF10F0070EDBCF11F0B2
:1017D00004D011C0FAFF1050F96EFBDFDECFE9FF35
:1017E000DDCFEAFF020EEECFDBFF030EEDCFDBFF16
:1017F00059DC40DCF3CFDEFFF4CFDDFFD9CFE9FFCA
:10180000DACFEAFFEE50ED102BE0DECFE9FFDDCFBF
:10181000EAFFEECF12F0EFCF13F0020EDB50125CB6
:10182000106E030EDB501358116EFF0ED880105649
:10183000FF0E1156040E10C0DBFF050E11C0DBFFBA
:10184000040EDBCF10F0050EDBCF11F011C010F04D
:10185000116A1050D76E040EDB50D66EF294D58EFE
:10186000080EE15C02E2E16AE552E16EE552E7CF83
:10187000D9FF1200D9CFE6FFE1CFD9FFE652DF68EA
:10188000A650020B05E0DF50DF06000801E2F8D7A2
:10189000E552E552E7CFD9FF1200ECDF110EE66EFC
:1018A000090EE66EE66AA7EC18F0E552E552E5523D
:1018B0001200D9CFE6FFE1CFD9FFFE0EDBCFAAF1B0
:1018C000200EE66E190EE66EAAC1E6FF7AEC1AF05B
:1018D000E552E552E552AAC1E6FFD8EC1FF0E55209
:1018E000F3CFA8F1F4CFA9F1E552E7CFD9FF120069
:1018F000D9CFE6FFE1CFD9FF00D0E552E7CFD9FF3E
:1019000012006D960101AB6BAC6B0101AB07000ED1
:10191000AC5B0101AB51AC1101E0F7D7FF00120045
:10192000D9CFE6FFE1CFD9FF170EE126DE52110E27
:10193000DD6E110EF36E020EF3CFDBFF030EDB6ADA
:10194000040EDB6ADF6AFD0EDBCFE9FFFE0EDBCFA4
:10195000EAFFEF50FF0A01E1DFD1F40A01E182D191
:10196000010A01E16AD1030A01E162D10F0A01E132
:101970000ED1030A01E1F4D0010A01E1EED0070A19
:1019800001E1E8D0010A01E1E2D0050A01E1D6D087
:10199000060A01E1AED0010A13E0FE0A01E0C0D15F
:1019A000A8C1E9FFA9C1EAFFFE0EEF6EA8C1E9FFD9
:1019B000A9C1EAFFEE52070EEF6E020EDF6EB1D143
:1019C000FD0EDBCFE9FFFE0EDBCFEAFF030EE926BB
:1019D000000EEA22E9CF10F0EACF11F010C0E6FFC6
:1019E00011C0E6FFD9EC11F0E552E5520D0EF3CF30
:1019F000DBFF0E0EF4CFDBFF0D0EDBCFE6FF0E0E8E
:101A0000DBCFE6FFE5EC1DF0E552E552000956E1BB
:101A1000D9500D0FE96EDACFEAFFFF0EEE1801E1A3
:101A2000ED5045E0FD0EDBCFE9FFFE0EDBCFEAFF18
:101A3000EE52010EEFCFDBFF0D0EDBCFE6FF0E0EF9
:101A4000DBCFE6FF010EDBCFE6FF3DEC1DF0E552FC
:101A5000E552E552E76E130EE7CFDBFF0D0EDBCF4D
:101A6000E6FF0E0EDBCFE6FF3CEC13F0E552E5524D
:101A7000110EF3CFDBFF120EF4CFDBFF110EDBCF25
:101A800010F0120EDBCF11F0130EDBCFE6FF04D007
:101A900011C0FAFF1050F96EFBDFE552A8C1E9FF53
:101AA000A9C1EAFFEE52130EDBCFEFFF06D0A8C1AB
:101AB000E9FFA9C1EAFFEE52EF6813D00D0EDBCFAC
:101AC000E6FF0E0EDBCFE6FF13EC1EF0E552E5520B
:101AD000E66EA8C1E9FFA9C1EAFFEE52E552E75060
:101AE000EF6EA8C1E9FFA9C1EAFFEF6A020EDF6E3F
:101AF00018D1FD0EDBCFE9FFFE0EDBCFEAFFEE5281
:101B0000130EEFCFDBFF130EDBCFE6FFE1EC1EF091
:101B1000E552E76E140EE7CFDBFFA8C1E9FFA9C1CC
:101B2000EAFFEE52140EDBCFEFFFA8C1E9FFA9C117
:101B3000EAFF010EEF6E020EDF6EF3D0A8C1E9FFDF
:101B4000A9C1EAFF070EEF6E010EDF6EEAD0020EAA
:101B5000DF6EE7D0010EDF6EE4D0030EDF6EE1D062
:101B60006AEC12F0E76E030EE7CFDBFFA8C1E9FFD6
:101B7000A9C1EAFF050EEF6EA8C1E9FFA9C1EAFFFE
:101B8000EE52030EDBCFEFFF020EDF6ECAD0A8C10C
:101B9000E9FFA9C1EAFF060EEF6EFD0EDBCFE9FFFC
:101BA000FE0EDBCFEAFFEE52040EEFCFDBFFD95083
:101BB000050FE66E000EDA20E66E040EDBCFE6FFC0
:101BC000D4EC12F0E552E552E552160EDB6A080E2F
:101BD000F36E160EDBCFF4FFF350F45C26E2D9501F
:101BE000050F126EDACF13F0160EDB500F01122420
:101BF000E96E000E1320EA6EEF50E66EA8C1E9FF11
:101C0000A9C1EAFFEE52E9CF10F0EACF11F0160EAB
:101C1000DB500F011024E96E000E1120EA6EE55230
:101C2000E750EF6E160EDB2AD2D7090EDF6E79D0A1
:101C300034DE67DE010EDF6E74D0A8C1E9FFA9C1F2
:101C4000EAFF0A0EEF6E47EC20F0F350E66EA8C1F3
:101C5000E9FFA9C1EAFFEE52E552E750EF6E020E2E
:101C6000DF6E5FD0A8C1E9FFA9C1EAFF0B0EEF6EDE
:101C7000FD0EDBCFE9FFFE0EDBCFEAFFEE52130EC7
:101C8000EFCFDBFF0E0E106E10C00EF0130EDBCF89
:101C900009F03FEC19F0130E05C0DBFF130EDB500B
:101CA000040DF3CFE9FFF4CFEAFF610EE926000E41
:101CB000EA22EF50200B01E0010E106E116A105065
:101CC000111021E1130EDB50040DF3CFE9FFF4CF27
:101CD000EAFF610EE926000EEA22020EE926000E56
:101CE000EA22EECFE6FFEFCFE6FFA3EC12F0E552DB
:101CF000E552E66EA8C1E9FFA9C1EAFFEE52E5523E
:101D0000E750EF6E06D0A8C1E9FFA9C1EAFFEE5285
:101D1000EF68020EDF6E05D0F4DD010EDF6E01D03C
:101D200000D0DF501AE0160EDB68040104010C51EC
:101D3000800B08E0160EDBCFF3FFDB06F350000844
:101D400001E2F3D704010CBF08D0DFCFE6FFAAC140
:101D5000E6FFFEEC1BF0E552E552170EE15C02E2F5
:101D6000E16AE552E16EE552E7CFD9FF1200D9CF23
:101D7000E6FFE1CFD9FF020EE126A8C1E9FFA9C124
:101D8000EAFF020EEF6E010EDB6AFC0EDB50F36E13
:101D9000010EDBCFF4FFF350F45C26E2010EDB50C2
:101DA000E76EFD0EDBCFE9FFFE0EDBCFEAFFE7506B
:101DB000E926000EEA22EF50E66EA8C1E9FFA9C1AC
:101DC000EAFFEE52E9CF10F0EACF11F0010EDB503E
:101DD0000F011024E96E000E1120EA6EE552E75063
:101DE000EF6E010EDB2AD1D7FC0EDB28DF6E04017B
:101DF0000CBF08D0DFCFE6FFAAC1E6FFFEEC1BF068
:101E0000E552E552020EE15C02E2E16AE552E16E62
:101E1000E552E7CFD9FF12000101010ECF6F12008A
:101E20000101CF5103E00101CF6B01D06ADD200E2B
:101E3000E66E1E0EE66EDC0EE66EE6683FEC0AF01D
:101E4000E552E552E552E55212000101010ECF6F55
:101E5000200EE66E1E0EE66EB80EE66EE668C9EC63
:101E600008F0E552E552E552E5521200D9CFE6FFFF
:101E7000E1CFD9FF020EE126DF80DF92DF94DF960B
:101E8000DF98DF9ADECF10F0DDCF11F010C0F3FF46
:101E900011C0F4FF00D0020EE15C02E2E16AE552FB
:101EA000E16EE552E7CFD9FF1200D9CFE6FFE1CFCF
:101EB000D9FF020EE126DF80DF92DF94DF96DF9804
:101EC000DF9ADECF10F0DDCF11F010C0F3FF11C0AC
:101ED000F4FF00D0020EE15C02E2E16AE552E16E3D
:101EE000E552E7CFD9FF1200D9CFE6FFE1CFD9FF06
:101EF000020EE126DF80DF92DF94DF96DF98DF9A23
:101F0000DECF10F0DDCF11F010C0F3FF11C0F4FFF1
:101F100000D0020EE15C02E2E16AE552E16EE552B8
:101F2000E7CFD9FF1200D9CFE6FFE1CFD9FFE652C4
:101F3000DF6A050EDF5C0DE2EA6ADF34FE0BEA368B
:101F4000E96E6F0EE926010EEA22EE6AED6ADF2ADB
:101F5000F0D70101796BE552E552E7CFD9FF1200C6
:101F6000D9CFE6FFE1CFD9FF050E0101795D02E18E
:101F7000000E19D001017951E96EEA6AD890E9366C
:101F8000EA366F0EE926010EEA22FD0EDBCFEEFFE8
:101F9000FE0EDBCFEDFF01017951792B000801E244
:101FA000F28E010E00D0E552E7CFD9FF1200D9CF53
:101FB000E6FFE1CFD9FFE652DF6A050EDF5C47E2BC
:101FC000EA6ADF34FE0BEA36E96E6F0EE926010E8F
:101FD000EA22EE50ED103BE0EA6ADF34FE0BEA360F
:101FE000E96E6F0EE926010EEA22EECF10F0EFCF78
:101FF00011F0FD0EDB50101803E1FE0EDB5011183E
:1020000024E10101790701017951E96EEA6AD8906A
:10201000E936EA366F0EE926010EEA22EECF10F01D
:10202000EFCF11F0EA6ADF34FE0BEA36E96E6F0E8D
:10203000E926010EEA2210C0EEFF11C0EDFF0101FA
:10204000795101E1F29E010E04D0DF2AB6D7000ECD
:1020500000D0E552E552E7CFD9FF1200DACFE4FF16
:10206000E2CFDAFFE9CFE4FFEACFE4FFF6CFE4FF07
:10207000F7CFE4FFF5CFE4FFF3CFE4FFF4CFE4FFC5
:10208000FACFE4FF00EE00F0100EE80403E3EECF19
:10209000E4FFFBD700EE10F0080EE80403E3EECFF8
:1020A000E4FFFBD7E652D9CFE6FFE1CFD9FFE652F6
:1020B000DF6A01017951DF5C15E2EA6ADF34FE0B69
:1020C000EA36E96E6F0EE926010EEA22EECF18F02D
:1020D000EFCF19F004D019C0FAFF1850F96EFBDFEA
:1020E000DF2AE7D7E552E552E7CFD9FFE55200EE08
:1020F00017F0080EE80403E3E5CFEDFFFBD700EE91
:102100000FF0100EE80403E3E5CFEDFFFBD7E5CFBA
:10211000FAFFE5CFF4FFE5CFF3FFE5CFF5FFE5CF1D
:10212000F7FFE5CFF6FFE5CFEAFFE5CFE9FFE5CF23
:10213000DAFF1100D9CFE6FFE1CFD9FFE652DF6A1F
:10214000050EDF5C0DE2EA6ADF34FE0BEA36E96E6B
:10215000840EE926010EEA22EE6AED6ADF2AF0D744
:10216000E552E552E7CFD9FF1200D9CFE6FFE1CF24
:10217000D9FF020EE126DF6A010EDB6A050EDF5C85
:1021800023E2010EDB5020E1EA6ADF34FE0BEA367F
:10219000E96E840EE926010EEA22EE50ED1012E1FE
:1021A000DE52010EDD6EEA6ADF34FE0BEA36E96EBE
:1021B000840EE926010EEA22FD0EDBCFEEFFFE0EB5
:1021C000DBCFEDFFDF2ADAD7010EDB5002E1000E94
:1021D00002D0010E00D0106E020EE15C02E2E16A54
:1021E000E552E16E1050E552E7CFD9FF1200D9CF8A
:1021F000E6FFE1CFD9FF020EE126DF6A010EDB6ABE
:10220000050EDF5C28E2010EDB5025E1EA6ADF34CF
:10221000FE0BEA36E96E840EE926010EEA22EECFC5
:1022200010F0EFCF11F0FD0EDB50101803E1FE0EA1
:10223000DB5011180EE1DE52010EDD6EEA6ADF346A
:10224000FE0BEA36E96E840EE926010EEA22EE6AFA
:10225000ED6ADF2AD5D7010EDB5002E1000E02D075
:10226000010E00D0106E020EE15C02E2E16AE5525E
:10227000E16E1050E552E7CFD9FF1200D9CFE6FF4B
:10228000E1CFD9FFE652DF6A050EDF5C21E2EA6AA0
:10229000DF34FE0BEA36E96E840EE926010EEA22EF
:1022A000EE50ED1013E0EA6ADF34FE0BEA36E96E19
:1022B000840EE926010EEA22EECF10F0EFCF11F0E6
:1022C00004D011C0FAFF1050F96EFBDFDF2ADCD713
:1022D000E552E552E7CFD9FF1200D9CFE6FFE1CFB3
:1022E000D9FFE552E7CFD9FF1200D9CFE6FFE1CF02
:1022F000D9FF030EE126DF6ADE52010EDD6E020E0B
:10230000DB6ADF6A080EDF5C45E2020EDB5042E169
:10231000DF50E76EFD0EDBCFE9FFFE0EDBCFEAFFFD
:10232000E750E926000EEA22EF500EE0DF50E76E9C
:10233000FB0EDBCFE9FFFC0EDBCFEAFFE750E9261F
:10234000000EEA22EF5005E1010EF36E020EF3CF0C
:10235000DBFFDF50E76EFD0EDBCFE9FFFE0EDBCFCC
:10236000EAFFE750E926000EEA22EFCF10F0DF5037
:10237000E76EFB0EDBCFE9FFFC0EDBCFEAFFE75099
:10238000E926000EEA22EF50105C02E0010EDB6A43
:10239000DF2AB8D7010EDB5000D0106E030EE15CCF
:1023A00002E2E16AE552E16E1050E552E7CFD9FF53
:1023B0001200D9CFE6FFE1CFD9FF0D0EE126AB0E1B
:1023C000DE6E330EDD6E0C0EDB6ADECFF6FFDDCF88
:1023D000F7FF0800F5CF10F0116A10BE1168000178
:1023E000101C01E1111C69E0D9CFE9FFDACFEAFF47
:1023F000020EEECFDBFF030EEDCFDBFF0C0EDB6A30
:10240000080EF36E0C0EDBCFF4FFF350F45C2CE2FD
:10241000020EDBCFF6FF030EDBCFF7FF040EF6262E
:10242000000EF722F6CF12F0F7CF13F00C0EDB50B0
:102430000F011224F66E000E1320F76E0800F550FF
:10244000E66ED950040F106EDACF11F00C0EDB508F
:102450000F011024E96E000E1120EA6EE552E750DC
:10246000EF6E0C0EDB2ACCD7FD0EDBCFE6FFFE0EA7
:10247000DBCFE6FFD950040FE66E000EDA20E66EE1
:1024800034DFE552E552E552E552000909E0DECFBE
:1024900010F0DDCF11F010C0F3FF11C0F4FF10D029
:1024A000DECF10F0DDCF11F00C0E1026000E112241
:1024B00010C0DEFF11C0DDFF88D7F368F46A00D0DA
:1024C0000D0EE15C02E2E16AE552E16EE552E7CF12
:1024D000D9FF1200D9CFE6FFE1CFD9FF030EE126E5
:1024E000AB0EDE6E330EDD6E020EDB6ADECFF6FF64
:1024F000DDCFF7FF0800F5CF10F0116A10BE1168AC
:102500000001101C01E1111C0FE0DECF10F0DDCF47
:1025100011F00C0E1026000E112210C0DEFF11C0AB
:10252000DDFF020EDB2AE2D7020EDB5000D0106E78
:10253000030EE15C02E2E16AE552E16E1050E55201
:10254000E7CFD9FF1200D9CFE6FFE1CFD9FF020EC6
:10255000E126AB0EDE6E330EDD6EFD0EDBCF12F02C
:10256000FE0EDBCF13F0DE50125C106EDD50135800
:10257000116E0C0E0D6E0E6A10C008F011C009F03D
:10258000CEEC18F008C010F009C011F0105000D0C7
:10259000106E020EE15C02E2E16AE552E16E10505B
:1025A000E552E7CFD9FF1200D9CFE6FFE1CFD9FF3F
:1025B000050EE126AB0EF36E010EF3CFDBFF330EFB
:1025C000F36E020EF3CFDBFFFE0EDB500C0DF3506B
:1025D000E76E010EDBCF10F0020EDBCF11F0E750FB
:1025E0001026000E1122010E10C0DBFF020E11C0DA
:1025F000DBFF010EDBCF08F0020EDBCF09F0030E8C
:1026000008C0DBFF040E09C0DBFFDF6A080EDF5CD9
:1026100029E2030EDBCFF6FF040EDBCFF7FF040E3B
:10262000F626000EF722F6CF10F0F7CF11F0DF50AC
:102630000F011024F66E000E1120F76E0800F55001
:10264000E66EDF50E76EFC0EDBCFE9FFFD0EDBCF61
:10265000EAFFE750E926000EEA22E552E750EF6E66
:10266000DF2AD4D7050EE15C02E2E16AE552E16EB1
:10267000E552E7CFD9FF1200D9CFE6FFE1CFD9FF6E
:10268000020EE126FD0EDBCFDEFFDBCFDDFFDECF6E
:10269000F6FFDDCFF7FF0900F5CF10F00800F5CF0A
:1026A00011F010C0F3FF11C0F4FF00D0020EE15C86
:1026B00002E2E16AE552E16EE552E7CFD9FF12008E
:1026C000D9CFE6FFE1CFD9FF020EE126FD0EDBCF29
:1026D000DEFFDBCFDDFFDECFF6FFDDCFF7FF020E43
:1026E000F626000EF7220900F5CF10F00800F5CF0E
:1026F00011F010C0F3FF11C0F4FF00D0020EE15C36
:1027000002E2E16AE552E16EE552E7CFD9FF12003D
:10271000D9CFE6FFE1CFD9FF020EE126DE6ADD6AFE
:10272000DECF10F0DDCF11F0FD0EDBCF12F0FE0E8C
:10273000DBCF13F011501318E8AE02D0133404D0DD
:102740001250105C135011580AE2FA0EE66EF4ECC7
:1027500018F0E552DF2A010E01E3DB2AE1D7020E71
:10276000E15C02E2E16AE552E16EE552E7CFD9FFB2
:10277000120007D824D83EEC11F0A7EC1AF0FAD7D3
:10278000120092689368CF0E9410946E95689668C4
:1027900045EC2BF0F00EC114C16EC280140E6F6EAA
:1027A0000101B46B0101B56B0101B66B93EC0FF045
:1027B00093EC08F09AEC10F073EC1EF012002CEC85
:1027C00017F06F50800B01E0010E106E116A010EC0
:1027D000101801E1115002E05EEC17F01200040144
:1027E0002051600BE842E842E842E842E842106EBD
:1027F000116A1050111001E058D004012151070A4C
:1028000053E00B0A51E0070A42E0010A2CE00B0AF0
:1028100028E0020A26E0030A22E0080A12E0010A80
:102820000EE00F0A0AE0030A01E03ED00101010EAA
:10283000A16F0101040EB46F38D038D836D093D8C8
:1028400034D00101010EA16F0101B60EA26F010E7D
:10285000A36F0101B5930101010EA66F26D0ABD87D
:1028600024D000D922D00101010EA16F040124510E
:102870000101A26FA36BB70E0101A227010E010196
:10288000A3230101B5930101010EA66F0ED0010132
:10289000010EA16F04012451EA6AB70FE96E010E1F
:1028A000EA2222C4EFFF01D000D01200800E040102
:1028B000205D58E104012351030A34E0010A10E0CD
:1028C000030A01E04DD00101010EA16F0101EA0EE2
:1028D000A26F0A0EA36F120E0101A66FA76B40D064
:1028E0000101010EA16F04012251F66EF76AD89022
:1028F000F636F736EA0EF6260C0EF7220900F5CF6B
:10290000A2F10A00F5CFA3F1020E0101F76AA22598
:10291000F66EA351F7220900F5CFA6F10A00F5CF14
:10292000A7F11ED00101010EA16F04012251F66E24
:10293000F76AD890F636F7362A0EF6260D0EF722ED
:102940000900F5CFA2F10A00F5CFA3F1A2C1F6FF6D
:10295000A3C1F7FF0800F5500101A66FA76B00D0D7
:102960000101B58312000101010EA16F0F0EE66E89
:10297000710EE66E0F0EE66E07EC18F0E552E552AA
:10298000E552010EE66EB70EE66E010EE66E07EC3E
:1029900018F0E552E552E55222C4B6F10401225185
:1029A00004E10101050EB46F05D00101060EB46FFC
:1029B00076EC04F012000401286B0401296B040179
:1029C00020511F0B020A1BE0030A15E0010A01E077
:1029D0003BD00101010EA16F040128810101B55115
:1029E000010B106E116A010E101801E1115002E185
:1029F0000401288329D00101010EA16F25D0010116
:102A0000010EA16F040124510F0B080DF350116A40
:102A1000000F106E040E112204012451800B01E0FE
:102A2000010E040DF35001011024A46F000E1120BB
:102A3000A56FA4C1E9FFA5C1EAFFEF50040B03E0B5
:102A40000401010E286F00D00101A1050AE1010176
:102A5000280EA26F040EA36F0101B5930101020EAF
:102A6000A66F12000401220514E1040120511F0B7E
:102A7000106E116A105011100CE10101010EA16FCE
:102A8000030E0401215D03E10101B58102D00101C2
:102A9000B591040122514FE1040120511F0B106E2A
:102AA000116A020E101801E1115045E10401245190
:102AB0000F0B126E136A125013103DE00101010E4C
:102AC000A16F040124510F0B080DF350116A000F80
:102AD000106E040E112204012451800B01E0010E3E
:102AE000040DF35001011024A46F000E1120A56FF6
:102AF000030E0401215D07E1840EA4C1E9FFA5C115
:102B0000EAFFEF6E18D004012451800B01E0010EA2
:102B1000106E116A010E101801E1115006E1A4C1F6
:102B2000E9FFA5C1EAFFEF6A06D0880EA4C1E9FF5C
:102B3000A5C1EAFFEF6E12006C500BE104010051D9
:102B40003C0BE842E8420D0802E108D801D01AD84F
:102B500004D0040E6C5C01E12ED81200D9CFE6FF40
:102B6000E1CFD9FFE6520101A06B0101A16B010188
:102B7000A66BA76BEFEC13F007D9E552E552E7CF50
:102B8000D9FF1200020E0101A05D13E1BBD80401C0
:102B90000051400B01E0010E106E116A105011102F
:102BA00004E10401C80E006F03D00401880E006F19
:102BB00001D042D91200040E0101B45D0CE122C41F
:102BC0006EFF6E50000804E20101050EB46F03D0E1
:102BD0000101030EB46F0101A00513E114D8040133
:102BE0000451400B01E0010E106E116A10501110DB
:102BF00004E10401C80E046F03D00401880E046FC1
:102C000001D01AD91200D9CFE6FFE1CFD9FF020EC9
:102C1000E1260101080EA65D000EA75905E2A6C136
:102C2000DEFFA7C1DDFF03D0080EDE6EDD6A040102
:102C3000049304010491010EDB5004010413DFCF5F
:102C400005F4000EDB500101A65F010EDB5001010F
:102C5000A75B0101280EA46F040EA56F0101B551F9
:102C6000020B01E0010E106E116A010E101801E155
:102C7000115020E1D9CFE9FFDACFEAFFEE50ED1095
:102C800018E0A2C1F6FFA3C1F7FF0800F550A4C1E8
:102C9000E9FFA5C1EAFFEF6E0101A42B000EA523F9
:102CA0000101A22B000EA323DF06010E01E2DB06C9
:102CB000E1D71ED0D9CFE9FFDACFEAFFEE50ED1011
:102CC00017E0A2C1E9FFA3C1EAFFEF50A4C1E9FFE9
:102CD000A5C1EAFFEF6E0101A42B000EA52301019F
:102CE000A22B000EA323DF06010E01E2DB06E2D7D2
:102CF000020EE15C02E2E16AE552E16EE552E7CFE5
:102D0000D9FF1200D9CFE6FFE1CFD9FF020EE126AD
:102D1000030E04010015E76E010EE7CFDBFF01C4CF
:102D2000DFFFDE500101A627DD500101A7230101CD
:102D3000280EA26F040EA36FD9CFE9FFDACFEAFF06
:102D4000EE50ED1017E0A2C1E9FFA3C1EAFFEF507A
:102D5000A4C1E9FFA5C1EAFFEF6E0101A42B000E9B
:102D6000A5230101A22B000EA323DF06010E01E221
:102D7000DB06E2D7020EE15C02E2E16AE552E16EB7
:102D8000E552E7CFD9FF12000101A1510FE1040183
:102D9000080E016F0401200E026F040E036F040180
:102DA000840E006F0401840E046F44D0040120518E
:102DB000800B01E0010E106E116A010E101801E186
:102DC000115025E10101A6510401265D0101A75121
:102DD0000401275904E226C4A6F127C4A7F113DF92
:102DE0000101010EA06F0401080E016F0401200E05
:102DF000026F040E036F0401800E006F0401280EA1
:102E0000066F040E076F0401C80E046F13D0010192
:102E1000020EA06F0401056B0401C80E046F0401CB
:102E2000080E016F0401280E026F040E036F0401E7
:102E3000C80E006F6D9812000101A06B0401080E0E
:102E4000016F0401200E026F040E036F0401880E4F
:102E5000006F0401046B12006D50080B01E0010EBD
:102E6000106E116A1050111001E11AD80CD06D507B
:102E7000080B01E0010E106E116A010E101801E13D
:102E8000115001E114D80101B40509E16DBA07D070
:102E9000686A696A698069880101020EB46F12006C
:102EA0006D6A696A6D860101010EB46F12006D6A68
:102EB000696A0101B46B1200FADF12000101B4511A
:102EC00001E144D06850040B04E06950040B01E0B8
:102ED00042D86D50020B01E0010E106E116A010E16
:102EE000101801E1115001E131D06850010B04E0EC
:102EF0006950010B01E060D86850100B04E0695084
:102F0000100B01E024D86850400B04E06950400BDE
:102F100001E040D86850200B04E06950200B01E02C
:102F20003BD86850020B04E06950020B01E042D824
:102F3000030E0101B45D01E209D06850080B06E000
:102F40006950080B03E09CEC15F068961200698448
:102F500068986D8212006D92699468941200010164
:102F6000B551010B106E116A010E101801E11150DC
:102F700010E1F1DF6D840101080EC86F070EC96F03
:102F80000101C807000EC95B0101C851C911F8E170
:102F90006D941200689C12007050010B106E116A43
:102FA000010E101801E1115003E11CEC17F07090B4
:102FB000689A1200689212006A6A686A9F0E6B6EC5
:102FC0007B0E696E6E6A0F0EE66E710EE66E0F0E68
:102FD000E66E1DD8E552E552E552160E706E685049
:102FE000080B01E0010E106E116A010E101801E1CC
:102FF000115002E16896F3D76D981CEC17F00101AF
:10300000B5910101B66B0101030EB46F1200D9CF67
:10301000E6FFE1CFD9FFFD0EDBCFE9FFFE0EDBCFF0
:10302000EAFFFC0EDB5004E0EE6AFC0EDB06F9D78B
:08303000E552E7CFD9FF1200C1
:08303800AA0EF66E0D0EF76EF4
:10304000000EF86E01010900F550936F0900F5506C
:10305000946F03E1936701D03DD00900F5508E6F66
:103060000900F5508F6F0900F550906F09000900B5
:10307000F550E96E0900F550EA6E090009000900F3
:10308000F550916F0900F550926F09000900F6CFD5
:1030900095F1F7CF96F1F8CF97F18EC1F6FF8FC17A
:1030A000F7FF90C1F8FF0101915302E1925307E04D
:1030B0000900F550EE6E9107F8E29207F9D795C135
:1030C000F6FF96C1F7FF97C1F8FF01019307000EC5
:0630D000945BBFD7120063
:0A30D600706F72740000000000002B
:1030E000FF006C69676874000000301EF42362758D
:1030F00074746F6E0000E779BC86677265790000B2
:103100000000A1E6DCEA64697374616E6300739287
:10311000CE9E6770696F0000000000FFFFFF766FB2
:103120006C74000000009A60EF6C72657300000020
:103130000000DA4AE8556C65640000000000D5051F
:0E314000170773686C645F6363007E29F330C9
:02314E00D9CFD7
:10315000E6FFDACFE6FFE1CFD9FFE2CFDAFFFF0EDD
:10316000E76EFC0EDBCF10F0E75010161050A96E82
:10317000FB0EDB50A86EA69EA69CA684F29E550E62
:10318000A76EAA0EA76EA682A6B2FED7F28EA6944E
:0C319000E552E5CFDAFFE7CFD9FF1200CF
:04319C00006A0EAE09
:1031A000D7EF18F00D6C0E1EE86A0E22001E09AE55
:1031B000DFEF18F0086C091EE86A0922001E0BEC0C
:1031C00019F009BEEFEF18F000AE000C086C091EF4
:1031D000E86A0922046C051EE86A0522000C00BE9C
:0831E000E6EF18F00188FF0C76
:0831E800FF0EE3501B6EEF0E19
:1031F00001D0F30EE76EE72EFBEF18F00C0E1A6EFF
:10320000E76AE72E01EF19F01A2E00EF19F01B2ED6
:06321000F9EF18F01200B6
:0A321600056A046A100EE76ED890F6
:1032200008360936043605360D50045C0E50055834
:1032300005E30D50045E0E50055A082AE72EF0D71C
:0232400012007A
:0E324200000EF36E00EE00F0080E01D8120030
:10325000EA6002D0EE6AFCD7F350E9601200EE6A31
:02326000FCD799
:0E32620013EE00F023EE00F0F86A019C1CEC65
:0E32700018F04DEC19F0B9EC13F0FBD712007A
:02327E00056ADF
:10328000080EE76ED890093605360E50055C02E34D
:0A329000056E092AE72EF7D7120099
:02329A00120020
:02329C00000030
:02329E004040AE
:0432A000404040402A
:0C32A40082491E49C849E4490249C44A55
:1032B000604A0A4B264B444A064CA24B4C4C684C85
:1032C000864B484DE44C8E4DAA4DC84C8A4E264E36
:1032D000D04EEC4E0A4EC84F684F12502E504C4FF5
:0132E00000ED
:0232E1003201B8
:0232E3000000E9
:0533AB00B218F01861EA
:1033B000646D696E0000002A415442706E70000016
:1033C0000000000C478247706F7274000000003AE2
:1033D0005198516178000000000000865D1A5E621D
:1033E0007574746F6E0000705F046064697374615B
:1033F0006E63008A611E626772657900000000A436
:1034000063E6636861636B700000005067E4676C9B
:10341000696768740000006A69FE6972657300007C
:10342000000000846B186C766F6C7400000000F86C
:10343000717E726D6F746F72730000E87A467B6202
:0734400075746961000000D2
:04349C00D9CFE6FF9F
:1034A000E1CFD9FFFE0EEA6ADB34FE0BEA36E96EA5
:1034B0009C0EE926000EEA22FC0EDBCFEEFFFD0E8D
:1034C000DBCFEDFFE552E7CFD9FF1200D9CFE6FF02
:1034D000E1CFD9FFFE0EEA6ADB34FE0BEA36E96E75
:1034E0009C0EE926000EEA22EE6AED6AE552E7CF6D
:1034F000D9FF1200D9CFE6FFE1CFD9FFFE0EEA6A6D
:10350000DB34FE0BEA36E96EB80EE926000EEA223D
:10351000FC0EDBCFEEFFFD0EDBCFEDFFE552E7CF7C
:10352000D9FF1200D9CFE6FFE1CFD9FFFE0EEA6A3C
:10353000DB34FE0BEA36E96EB80EE926000EEA220D
:10354000EE6AED6AE552E7CFD9FF12001200D9CF3B
:10355000E6FFE1CFD9FF090EE126DF6A060E010181
:10356000B45D0BE36D50020B01E0010E106E116AA9
:10357000010E101801E1115001E136D1010EDB6896
:10358000010EF36E060EF3CFDBFF060EDBCF10F05D
:1035900000016051D880105401E226D1060EDB50A4
:1035A000E824040DF3CFE9FFF4CFEAFF000EE9268B
:1035B000040EEA22EF50800B01E013D1010EDBCFA5
:1035C00010F0060EDB50E824040DF3CFE9FFF4CF32
:1035D000EAFF000EE926040EEA22EE52EF50D880F0
:1035E000105410E2060EDB50E824040DF3CFE9FF7F
:1035F000F4CFEAFF000EE926040EEA22EE52010E95
:10360000EFCFDBFF060EDB50E824040DF3CFE9FF1C
:10361000F4CFEAFF000EE926040EEA22020EE926A4
:10362000000EEA22070EEECFDBFF080EEDCFDBFF28
:10363000070EDBCFE9FF080EDBCFEAFFEF50F80BF8
:10364000E842E842E842E96EEA6AD890E936EA36AA
:10365000B80EE926000EEA22EECF10F0EFCF11F0FF
:10366000070EDBCFE9FF080EDBCFEAFFEF50F80BC8
:10367000E842E842E842E66E010EDB50FD0FE66EDE
:10368000060EDB50E824040DF3CFE9FFF4CFEAFF88
:10369000000EE926040EEA22020EE926000EEA22B6
:1036A000EECF12F0EFCF13F0030E1226000E13220E
:1036B00012C0E6FF13C0E6FF04D011C0FAFF10509D
:1036C000F96EFBDFE552E552E552E552060EDBCF1F
:1036D000E6FF33EC20F0E552E66E060EDB50E82400
:1036E000040DF3CFE9FFF4CFEAFF000EE926040E44
:1036F000EA22EE52E552E750EF6E030EF36E060E2D
:10370000DBCFF4FFF350F45C4CE2400E106E060E7B
:10371000DB50E824040DF3CFE9FFF4CFEAFF000EFD
:10372000E926040EEA221050EF16060EDB50E824BC
:10373000040DF3CFE9FFF4CFEAFF000EE926040EF3
:10374000EA22EF50400B400A01E0010E106E060E17
:10375000DB50E824040DF3CFE9FFF4CFEAFF000EBD
:10376000E926040EEA221050010BF36EF346F346ED
:10377000F346F346F346F346BF0EEF14F310EF6E35
:10378000880E106E060EDB50E824040DF3CFE9FF1F
:10379000F4CFEAFF000EE926040EEA221050EF12E1
:1037A00020D0400E106E060EDB50E824040DF3CF3F
:1037B000E9FFF4CFEAFF000EE926040EEA221050DA
:1037C000EF16880E106E060EDB50E824040DF3CFC2
:1037D000E9FFF4CFEAFF000EE926040EEA221050BA
:1037E000EF12060EDB2AD1D6090EE15C02E2E16A95
:1037F000E552E16EE552E7CFD9FF1200D9CFE6FFDF
:10380000E1CFD9FF060EE126FE0EDB50040DF3CF0B
:10381000E9FFF4CFEAFF610EE926000EEA22010E6D
:10382000EECFDBFF020EEECFDBFF030EEECFDBFFB2
:10383000040EEECFDBFFD950010FE96EDACFEAFFBD
:10384000EF500F0BE76E050EE7CFDBFFFD0EDBCF72
:1038500010F010C0E6FF050EDBCFE6FF3DEC20F0D8
:10386000E552E552E7CF10F0FD0FD88010540BE27F
:10387000050EDBCFE6FF3DEC20F0E552FD0FE76ED5
:10388000FD0EE7CFDBFFFE0EDB5000011F0BF36EDA
:10389000F346F346F346070ED415F310D46F000138
:1038A000D491D493D495050EDB50E824010F040D78
:1038B000F3CFE9FFF4CFEAFF000EE926040EEA2277
:1038C000020EE926000EEA22EE50EFCFEAFFE96E83
:1038D000D4C0EFFFFD0EDB50030FE66E050EDB508C
:1038E000E824010F040DF3CFE9FFF4CFEAFF000E47
:1038F000E926040EEA22020EE926000EEA22EE5024
:10390000EFCFEAFFE96E010EE926000EEA22E5524A
:10391000E750EF6E050EDB50E824010F040DF3CFE6
:10392000E9FFF4CFEAFF000EE926040EEA22020EB8
:10393000E926000EEA22EE50EFCFEAFFE96E020E12
:10394000E926000EEA22EF6AFD0EDB50030FE66E59
:10395000050EDB50E824010F040DF3CFE9FFF4CF8F
:10396000EAFF000EE926040EEA22EE52E552E75085
:10397000EF6E030EF36E050EDBCFF4FFF350F45C35
:1039800050E2400E106E050EDB50E824010F040DCE
:10399000F3CFE9FFF4CFEAFF000EE926040EEA2296
:1039A0001050EF16050EDB50E824010F040DF3CF85
:1039B000E9FFF4CFEAFF000EE926040EEA22EF50F9
:1039C000400B400A01E0010E106E050EDB50E824AA
:1039D000010F040DF3CFE9FFF4CFEAFF000EE92653
:1039E000040EEA221050010BF36EF346F346F34641
:1039F000F346F346F346BF0EEF14F310EF6E880E56
:103A0000106E050EDB50E824010F040DF3CFE9FF23
:103A1000F4CFEAFF000EE926040EEA221050EF125E
:103A200022D0400E106E050EDB50E824010F040D6D
:103A3000F3CFE9FFF4CFEAFF000EE926040EEA22F5
:103A40001050EF16880E106E050EDB50E824010FA3
:103A5000040DF3CFE9FFF4CFEAFF000EE926040ED0
:103A6000EA221050EF12060EE15C02E2E16AE55232
:103A7000E16EE552E7CFD9FF1200D9CFE6FFE1CFE3
:103A8000D9FFE652DF6A0E0EDF5C45E2DF50040D1F
:103A9000F3CFE9FFF4CFEAFF610EE926000EEA2238
:103AA000EF50200B01E0010E106E116A010E10188C
:103AB00001E111502EE1DF50040DF3CFE9FFF4CF07
:103AC000EAFF610EE926000EEA22FE0EDBCFEFFFD1
:103AD000DF50040DF3CFE9FFF4CFEAFF610EE926D2
:103AE000000EEA22EF9ADF50040DF3CFE9FFF4CF86
:103AF000EAFF610EE926000EEA22020EE926000E18
:103B0000EA22FC0EDBCFEEFFFD0EDBCFEDFFDF5038
:103B100004D0DF2AB8D7FF0E00D0E552E552E7CF38
:103B2000D9FF1200D9CFE6FFE1CFD9FFFB0EDB5062
:103B3000040DF3CFE9FFF4CFEAFF610EE926000E92
:103B4000EA22EF50200B01E0010E106E116A010E07
:103B5000101801E1115033E1FB0EDB50040DF3CFDF
:103B6000E9FFF4CFEAFF610EE926000EEA22FE0E1D
:103B7000DBCFEFFFFB0EDB50040DF3CFE9FFF4CFFB
:103B8000EAFF610EE926000EEA22EF9AFB0EDB50F7
:103B9000040DF3CFE9FFF4CFEAFF610EE926000E32
:103BA000EA22020EE926000EEA22FC0EDBCFEEFF2F
:103BB000FD0EDBCFEDFFFB0EDB5003D002D0FF0E7E
:103BC00000D0E552E7CFD9FF1200D9CFE6FFE1CF11
:103BD000D9FFE652DF6A0E0EDF5C1EE2DF50040DF5
:103BE000F3CFE9FFF4CFEAFF610EE926000EEA22E7
:103BF000020EE926000EEA22EECF10F0EFCF11F010
:103C0000FD0EDB50101803E1FE0EDB50111802E12F
:103C1000010E04D0DF2ADFD7000E00D0E552E552B6
:103C2000E7CFD9FF1200D9CFE6FFE1CFD9FFE652A7
:103C3000DF6A0E0EDF5C1EE2DF50040DF3CFE9FFFA
:103C4000F4CFEAFF610EE926000EEA22020EE92611
:103C5000000EEA22EECF10F0EFCF11F0FD0EDB5098
:103C6000101803E1FE0EDB50111802E1DF5004D002
:103C7000DF2ADFD7FF0E00D0E552E552E7CFD9FFAC
:103C80001200D9CFE6FFE1CFD9FFE652DF6A0E0E70
:103C9000DF5C1DE2DF50040DF3CFE9FFF4CFEAFF54
:103CA000610EE926000EEA22EF8ADF50040DF3CF01
:103CB000E9FFF4CFEAFF610EE926000EEA22020EC8
:103CC000E926000EEA22EE6AED6ADF2AE0D7EA0E64
:103CD000F66E080EF76E0800F5CF60F0E552E5527B
:103CE000E7CFD9FF1200D9CFE6FFE1CFD9FF080E09
:103CF000E126C7DF610EDF6EDE52640EDD6E6D0EF3
:103D0000F36E020EF3CFDBFF690EF36E030EF3CFFB
:103D1000DBFF6E0EF36E040EF3CFDBFF050EDB6AE6
:103D2000060EDB6A070EDB6A55EC0FF0F3CF61F08D
:103D3000F4CF62F0D9CFE6FFDACFE6FFD9EC11F08D
:103D4000E552E552F3CF63F0F4CF64F0E66A59EC44
:103D50000CF0E552700EDF6EDE526E0EDD6E700EF0
:103D6000F36E020EF3CFDBFF030EDB6A040EDB6A99
:103D7000050EDB6A060EDB6A070EDB6A74EC0FF0D9
:103D8000F3CF7DF0F4CF7EF0D9CFE6FFDACFE6FFB8
:103D9000D9EC11F0E552E552F3CF7FF0F4CF80F08B
:103DA000E9EC38F0070EE66E95EC20F0E552080ECF
:103DB000E15C02E2E16AE552E16EE552E7CFD9FF4C
:103DC0001200D9CFE6FFE1CFD9FF020EE1260E0E99
:103DD000F36EFE0EDBCFF4FFF350F45C5DE2FE0EFB
:103DE000DB50040DF3CFE9FFF4CFEAFF610EE926C3
:103DF000000EEA22EF50200B01E0010E106E116A56
:103E00001050111049E1FE0EDB50040DF3CFE9FF15
:103E1000F4CFEAFF610EE926000EEA22EF8AFE0ED9
:103E2000DB50040DF3CFE9FFF4CFEAFF610EE92682
:103E3000000EEA22020EE926000EEA22EECFE6FF8D
:103E4000EFCFE6FF60EC13F0E552E552F3CFDEFF73
:103E5000F4CFDDFFDECF10F0DDCF11F0FE0EDBCFB3
:103E6000E6FF04D011C0FAFF1050F96EFBDFE552F7
:103E7000FE0EDB50040DF3CFE9FFF4CFEAFF610E35
:103E8000E926000EEA22020EE926000EEA22EE6A78
:103E9000ED6A010E03D002D0000E00D0106E020EAB
:103EA000E15C02E2E16AE552E16E1050E552E7CFD3
:103EB000D9FF1200D9CFE6FFE1CFD9FF030EE126EB
:103EC000010EF36E020EF3CFDBFF0E0EF36E020E49
:103ED000DBCFF4FFF350F45C5DE2020EDB50040D27
:103EE000F3CFE9FFF4CFEAFF610EE926000EEA22E4
:103EF000EF50200B01E0010E106E116A10501110EE
:103F000046E1020EDB50040DF3CFE9FFF4CFEAFFE8
:103F1000610EE926000EEA22EF8A020EDB50040D44
:103F2000F3CFE9FFF4CFEAFF610EE926000EEA22A3
:103F3000020EE926000EEA22EECFE6FFEFCFE6FF03
:103F400060EC13F0E552E552F3CFDEFFF4CFDDFF76
:103F5000DECF10F0DDCF11F0020EDBCFE6FF04D094
:103F600011C0FAFF1050F96EFBDFE552020EDB5074
:103F7000040DF3CFE9FFF4CFEAFF610EE926000E4E
:103F8000EA22020EE926000EEA22EE6AED6A020E2D
:103F9000DB2A9BD7010E00D0106E030EE15C02E21B
:103FA000E16AE552E16E1050E552E7CFD9FF120009
:103FB000D9CFE6FFE1CFD9FF050EE126FE0EDB509B
:103FC000040DF3CFE9FFF4CFEAFF610EE926000EFE
:103FD000EA22EECFDFFF010EEECFDBFF020EEECFC7
:103FE000DBFF030EEECFDBFFD9CFE9FFDACFEAFF2D
:103FF000EF500F0BE76E040EE7CFDBFFFE0EDB503A
:104000000AE1730E106E040E116E10C0F3FF11C0A2
:10401000F4FF1FD01ED0040EDB50E824010F040D66
:10402000F3CFE9FFF4CFEAFF000EE926040EEA22FF
:10403000020EE926000EEA22EECF10F0EFCF11F0CB
:10404000030E1026000E112210C0F3FF11C0F4FF62
:1040500000D0050EE15C02E2E16AE552E16EE55254
:10406000E7CFD9FF1200D9CFE6FFE1CFD9FF400E4D
:1040700000D0E552E7CFD9FF1200D9CFE6FFE1CF5C
:10408000D9FF400E00D0E552E7CFD9FF1200D9CFBB
:10409000E6FFE1CFD9FF020EE126010EDB6ADF6AFF
:1040A0000E0EDF5C18E2DF50040DF3CFE9FFF4CF12
:1040B000EAFF610EE926000EEA22EF50200B01E034
:1040C000010E106E116A1050111003E1010EDFCFC6
:1040D000DBFFDF2AE5D7010EDB50106E116A10C03E
:1040E000F3FF11C0F4FF00D0020EE15C02E2E16ACE
:1040F000E552E16EE552E7CFD9FF1200D9CFE6FFD6
:10410000E1CFD9FFE652DF6A060EDF5C09E2DF503D
:10411000EA6A7C0FE96E010EEA22EF6ADF2AF4D721
:10412000E552E552E7CFD9FF1200D9CFE6FFE1CF44
:10413000D9FF080EE1260001FF5101E081D0FE0EFB
:10414000DBCFFFF0400EE66E460EE66EFFC0E6FFE8
:104150007AEC1AF0E552E552E552FFC0E6FFD8ECE2
:104160001FF0E552F3CF7AF1F4CF7BF174EC0FF04E
:10417000F3CF82F1F4CF83F147EC28F0BFDF700E6C
:10418000DF6EDE526F0EDD6E720EF36E020EF3CF37
:10419000DBFF740EF36E030EF3CFDBFF040EDB6A5E
:1041A000050EDB6A060EDB6A070EDB6A010EE66EA1
:1041B000D9CFE6FFDACFE6FFD4D8E552E552E55293
:1041C000020EE66ED9CFE6FFDACFE6FFCAD8E55297
:1041D000E552E552030EE66ED9CFE6FFDACFE6FFF1
:1041E000C0D8E552E552E552040EE66ED9CFE6FF9F
:1041F000DACFE6FFB6D8E552E552E552050EE66E97
:10420000D9CFE6FFDACFE6FFACD8E552E552E5526A
:10421000060EE66ED9CFE6FFDACFE6FFA2D8E5526A
:10422000E552E552340EE66E440EE66E200EE66E62
:104230004E0EE66EC9EC08F0E552E552E552E55245
:10424000080EE15C02E2E16AE552E16EE552E7CF79
:10425000D9FF1200D9CFE6FFE1CFD9FFFE0EDBCFA9
:10426000E6FF66EC1AF0E552FE0EDBCFE6FF92ECBD
:104270001AF0E552340EE66E440EE66E7BEC0BF05F
:10428000E552E552E552E7CFD9FF1200D9CFE6FF5C
:10429000E1CFD9FF050EE126DF6ADF6A0A0EDF5C97
:1042A00052E2DF500C0DF3CFF6FFF4CFF7FFD60E3E
:1042B000F626300EF7220A0EF626000EF722090027
:1042C000010EF5CFDBFF0A00020EF5CFDBFFDF505A
:1042D0000C0DF3CFF6FFF4CFF7FFD60EF626300E17
:1042E000F722080EF626000EF7220900030EF5CF7E
:1042F000DBFF0A00040EF5CFDBFFFD0EDBCF10F075
:10430000FE0EDBCF11F0010EDBCF12F0020EDBCF81
:1043100013F01050125C1150135813E3030EDBCF4F
:1043200014F0040EDBCF15F0FD0EDBCF16F0FE0E01
:10433000DBCF17F01450165C1550175802E3DF500E
:1043400004D0DF2AABD7000E00D0106E050EE15C62
:1043500002E2E16AE552E16E1050E552E7CFD9FF83
:104360001200D9CFE6FFE1CFD9FF040EE126FD0E02
:10437000DBCFE6FFFE0EDBCFE6FFD9EC11F0E55216
:10438000E552020EF3CFDBFF030EF4CFDBFFD95073
:10439000020FE96EDACFEAFFFF0EEE1801E1ED50F1
:1043A00031E0FC0EDBCFE6FF020EDBCFE6FF030EB3
:1043B000DBCFE6FF82C1E6FF92EC1DF0E552E5524D
:1043C000E552E552E76EFC0EE7CFDBFF020EDBCFD6
:1043D000E6FF030EDBCFE6FF3CEC13F0E552E552BF
:1043E000F3CFDEFFF4CFDDFFDECF10F0DDCF11F035
:1043F000FC0EDBCFE6FF04D011C0FAFF1050F96EBF
:10440000FBDFE552040EE15C02E2E16AE552E16E97
:10441000E552E7CFD9FF1200D9CFE6FFE1CFD9FFB0
:10442000FE0EDBCFE6FFE1EC1EF0E552E552E7CFF2
:10443000D9FF1200D9CFE6FFE1CFD9FF0A0EE1265E
:10444000DF6A060EDF5C01E3E3D0DF500A0DF3CF35
:10445000E9FFF4CFEAFF000EE926010EEA22060E7C
:10446000E926000EEA22EECF12F0EFCF13F004D0CF
:1044700013C0FAFF1250F96EFBDFF3CF10F0F4CF48
:1044800011F010C0E6FF11C0E6FF00DFE552E55273
:10449000E76E010EE7CFDBFFDF50EA6A7C0FE96EC3
:1044A000010EEA22EF50F36E010EDB50F35C01E1E6
:1044B000ADD0DF28E66EB0DFE552010EDB500C0D0B
:1044C000F3CFF6FFF4CFF7FFD60EF626300EF72225
:1044D0000800020EF5CFDBFF010EDB500C0DF3CF11
:1044E000F6FFF4CFF7FFD60EF626300EF722010EB8
:1044F000F626000EF7220800030EF5CFDBFF010EB3
:10450000DB500C0DF3CFF6FFF4CFF7FFD60EF626F7
:10451000300EF722020EF626000EF7220800040ED7
:10452000F5CFDBFF010EDB500C0DF3CFF6FFF4CF20
:10453000F7FFD60EF626300EF722030EF626000EF3
:10454000F7220800050EF5CFDBFF010EDB500C0D46
:10455000F3CFF6FFF4CFF7FFD60EF626300EF72294
:10456000040EF626000EF7220800060EF5CFDBFF3C
:10457000010EDB500C0DF3CFF6FFF4CFF7FFD60E94
:10458000F626300EF722050EF626000EF72208005A
:10459000070EF5CFDBFF010EDB500C0DF3CFF6FF5E
:1045A000F4CFF7FFD60EF626300EF722060EF626CB
:1045B000000EF7220800080EF5CFDBFF010EDB50DE
:1045C0000C0DF3CFF6FFF4CFF7FFD60EF626300E24
:1045D000F722070EF626000EF7220800090EF5CF87
:1045E000DBFFDF28E66ED950020FE66E000EDA2000
:1045F000E66EB7DEE552E552E552DF50EA6A7C0F1F
:10460000E96E010EEA22010EDBCFEFFFDF2A19D798
:10461000340EE66E440EE66E200EE66E4E0EE66E2C
:104620003FEC0AF0E552E552E552E5520A0EE15C34
:1046300002E2E16AE552E16EE552E7CFD9FF1200EE
:10464000D9CFE6FFE1CFD9FF020EE126010EDB6AEA
:10465000FD0EDBCFE9FFFE0EDBCFEAFFEF5001E0FE
:104660003CD0FD0EDBCFE9FFFE0EDBCFEAFFEF50C3
:10467000E66E7AC1E9FF7BC1EAFFE552E750EF6ED3
:10468000FD0EDBCFE9FFFE0EDBCFEAFF010EE926D0
:10469000000EEA22EF50E66E7AC1E9FF7BC1EAFF25
:1046A000010EE926000EEA22E552E750EF6E7AC1CC
:1046B000E9FF7BC1EAFF020EE926000EEA22EF685D
:1046C0007AC1E9FF7BC1EAFF030EE926000EEA2268
:1046D000EF68DE52040EDD6E00D0010EDB500CE000
:1046E00004010CBF09D0010EDBCFE6FFFFC0E6FFDF
:1046F000FEEC1BF0E552E552020EE15C02E2E16ADB
:10470000E552E16EE552E7CFD9FF1200D9CFE6FFBF
:10471000E1CFD9FFAA0EE66E470EE66EFE0EDBCFA6
:10472000E6FF7AEC1AF0E552E552E552FE0EDBCFD9
:10473000E6FFD8EC1FF0E552F3CFCAF1F4CFCBF18E
:10474000FE0EDB040A0DF3CFE9FFF4CFEAFF000E03
:10475000E926010EEA22080EE926000EEA22EECF33
:1047600010F0EFCF11F0010EE66E04D011C0FAFF89
:104770001050F96EFBDFE552E552E7CFD9FF12008A
:104780001200D9CFE6FFE1CFD9FFFE0EDBCFE6FF67
:1047900066EC1AF0E552FE0EDBCFE6FF92EC1AF063
:1047A000E552E552E7CFD9FF1200D9CFE6FFE1CFBE
:1047B000D9FF0E0EE126010EDB6A040E00C1DBFFFD
:1047C000050E01C1DBFF060E02C1DBFF070E03C1B0
:1047D000DBFF080E04C1DBFF090E05C1DBFF0A0E7B
:1047E00006C1DBFF0B0E07C1DBFF0C0E08C1DBFFB0
:1047F0000D0E09C1DBFFFD0EDBCFE9FFFE0EDBCFA7
:10480000EAFFEF50010A29E0010A01E054D0FD0E51
:10481000DBCFE9FFFE0EDBCFEAFFEF50E66ECAC149
:10482000E9FFCBC1EAFFE552E750EF6ECAC1E9FFED
:10483000CBC1EAFF010EE926000EEA22010EEF6E5F
:10484000CAC1E9FFCBC1EAFF020EE926000EEA2247
:10485000EF6ADE52030EDD6E2FD0FD0EDBCFE9FFD7
:10486000FE0EDBCFEAFFEF50E66ECAC1E9FFCBC117
:10487000EAFFE552E750EF6E0A0EDBCF10F00B0EA9
:10488000DBCF11F004D011C0FAFF1050F96EFBDF3E
:10489000020EF3CFDBFF030EF4CFDBFFCAC1E9FF4B
:1048A000CBC1EAFF010EE926000EEA22EF68DE52D4
:1048B000020EDD6E01D000D0010EDB5018E0DF6883
:1048C000040104010C51800B05E0DF50DF060008F5
:1048D00001E2F6D704010CBF0AD0010EDBCFE6FFE0
:1048E000FB0EDBCFE6FFFEEC1BF0E552E5520E0EB1
:1048F000E15C02E2E16AE552E16EE552E7CFD9FF01
:104900001200D9CFE6FFE1CFD9FFFE0EDB50E8B0B1
:104910009282E8A09292E552E7CFD9FF1200D9CF58
:10492000E6FFE1CFD9FF030EE126DE6ADD6A020E63
:10493000DB68C29AC298C296C284C282C250020B7D
:1049400008E0020EDBCFF3FFDB06F350000801E2C4
:10495000F5D7C350DF6E010EC4CFDBFFDECF10F002
:10496000DDCF11F010C0F3FF11C0F4FF00D0030E33
:10497000E15C02E2E16AE552E16EE552E7CFD9FF80
:104980001200D9CFE6FFE1CFD9FF020EE126C7DF43
:10499000F3CFDEFFF4CFDDFFD950010FE96EDACFA0
:1049A000EAFFEF50800B02E0010E02D0000E00D0B3
:1049B000106E020EE15C02E2E16AE552E16E105017
:1049C000E552E7CFD9FF1200D9CFE6FFE1CFD9FFFB
:1049D000FE0EDB50E8B08082E8A08092E552E7CF7F
:1049E000D9FF1200D9CFE6FFE1CFD9FF030EE126B0
:1049F000020EDB68C29AC298C296C294C282C250AA
:104A0000020B08E0020EDBCFF3FFDB06F3500008D9
:104A100001E2F5D7C350DF6E010EC4CFDBFFDECF5E
:104A200010F0DDCF11F010C0F3FF11C0F4FF00D083
:104A3000030EE15C02E2E16AE552E16EE552E7CF86
:104A4000D9FF1200D9CFE6FFE1CFD9FFFE0EDB5030
:104A5000E8B09286E8A09296E552E7CFD9FF12001F
:104A6000D9CFE6FFE1CFD9FF030EE126DE6ADD6A8A
:104A7000020EDB68C29AC298C286C284C282C25049
:104A8000020B08E0020EDBCFF3FFDB06F350000859
:104A900001E2F5D7C350DF6E010EC4CFDBFFDECFDE
:104AA00010F0DDCF11F010C0F3FF11C0F4FF00D003
:104AB000030EE15C02E2E16AE552E16EE552E7CF06
:104AC000D9FF1200D9CFE6FFE1CFD9FF020EE126D0
:104AD000C7DFF3CFDEFFF4CFDDFFD950010FE96E62
:104AE000DACFEAFFEF50800B02E0010E02D0000E99
:104AF00000D0106E020EE15C02E2E16AE552E16E66
:104B00001050E552E7CFD9FF1200D9CFE6FFE1CF31
:104B1000D9FFFE0EDB50E8B08086E8A08096E55213
:104B2000E7CFD9FF1200D9CFE6FFE1CFD9FF030EBF
:104B3000E126020EDB68C29AC298C286C294C28283
:104B4000C250020B08E0020EDBCFF3FFDB06F3508E
:104B5000000801E2F5D7C350DF6E010EC4CFDBFFC2
:104B6000DECF10F0DDCF11F010C0F3FF11C0F4FF65
:104B700000D0030EE15C02E2E16AE552E16EE5522B
:104B8000E7CFD9FF1200D9CFE6FFE1CFD9FFFE0E64
:104B9000DB50E8B09682E8A09692E552E7CFD9FFC5
:104BA0001200D9CFE6FFE1CFD9FF030EE126DE6A7E
:104BB000DD6A020EDB68C29AC288C286C294C282D3
:104BC000C250020B08E0020EDBCFF3FFDB06F3500E
:104BD000000801E2F5D7C350DF6E010EC4CFDBFF42
:104BE000DECF10F0DDCF11F010C0F3FF11C0F4FFE5
:104BF00000D0030EE15C02E2E16AE552E16EE552AB
:104C0000E7CFD9FF1200D9CFE6FFE1CFD9FF020EDF
:104C1000E126C7DFF3CFDEFFF4CFDDFFD950010F70
:104C2000E96EDACFEAFFEF50800B02E0010E02D00E
:104C3000000E00D0106E020EE15C02E2E16AE55265
:104C4000E16E1050E552E7CFD9FF1200D9CFE6FF51
:104C5000E1CFD9FFFE0EDB50E8B08482E8A0849259
:104C6000E552E7CFD9FF1200D9CFE6FFE1CFD9FF58
:104C7000030EE126020EDB68C29AC288C286C28495
:104C8000C282C250020B08E0020EDBCFF3FFDB064C
:104C9000F350000801E2F5D7C350DF6E010EC4CF18
:104CA000DBFFDECF10F0DDCF11F010C0F3FF11C03D
:104CB000F4FF00D0030EE15C02E2E16AE552E16E2E
:104CC000E552E7CFD9FF1200D9CFE6FFE1CFD9FFF8
:104CD000FE0EDB50E8B0928AE8A0929AE552E7CF48
:104CE000D9FF1200D9CFE6FFE1CFD9FF030EE126AD
:104CF000DE6ADD6A020EDB68C29AC288C296C2947E
:104D0000C282C250020B08E0020EDBCFF3FFDB06CB
:104D1000F350000801E2F5D7C350DF6E010EC4CF97
:104D2000DBFFDECF10F0DDCF11F010C0F3FF11C0BC
:104D3000F4FF00D0030EE15C02E2E16AE552E16EAD
:104D4000E552E7CFD9FF1200D9CFE6FFE1CFD9FF77
:104D5000020EE126C7DFF3CFDEFFF4CFDDFFD9502F
:104D6000010FE96EDACFEAFFEF50800B02E0010E8F
:104D700002D0000E00D0106E020EE15C02E2E16A89
:104D8000E552E16E1050E552E7CFD9FF1200D9CFBE
:104D9000E6FFE1CFD9FFFE0EDB50E8B0808AE8A045
:104DA000809AE552E7CFD9FF1200D9CFE6FFE1CFD5
:104DB000D9FF030EE126020EDB68C29AC288C296B2
:104DC000C284C282C250020B08E0020EDBCFF3FFA6
:104DD000DB06F350000801E2F5D7C350DF6E010E89
:104DE000C4CFDBFFDECF10F0DDCF11F010C0F3FF3A
:104DF00011C0F4FF00D0030EE15C02E2E16AE5526B
:104E0000E16EE552E7CFD9FF1200D9CFE6FFE1CF3F
:104E1000D9FFFE0EDB50E8B09382E8A09392E552F2
:104E2000E7CFD9FF1200D9CFE6FFE1CFD9FF030EBC
:104E3000E126DE6ADD6A020EDB68C28AC298C2869B
:104E4000C294C282C250020B08E0020EDBCFF3FF15
:104E5000DB06F350000801E2F5D7C350DF6E010E08
:104E6000C4CFDBFFDECF10F0DDCF11F010C0F3FFB9
:104E700011C0F4FF00D0030EE15C02E2E16AE552EA
:104E8000E16EE552E7CFD9FF1200D9CFE6FFE1CFBF
:104E9000D9FF020EE126C7DFF3CFDEFFF4CFDDFF3F
:104EA000D950010FE96EDACFEAFFEF50800B02E034
:104EB000010E02D0000E00D0106E020EE15C02E284
:104EC000E16AE552E16E1050E552E7CFD9FF1200DA
:104ED000D9CFE6FFE1CFD9FFFE0EDB50E8B08182EB
:104EE000E8A08192E552E7CFD9FF1200D9CFE6FFC3
:104EF000E1CFD9FF030EE126020EDB68C28AC28829
:104F0000C296C294C282C250020B08E0020EDBCFEE
:104F1000F3FFDB06F350000801E2F5D7C350DF6E64
:104F2000010EC4CFDBFFDECF10F0DDCF11F010C0DB
:104F3000F3FF11C0F4FF00D0030EE15C02E2E16A6E
:104F4000E552E16EE552E7CFD9FF1200D9CFE6FF77
:104F5000E1CFD9FFFE0EDB50E8B09386E8A0939630
:104F6000E552E7CFD9FF1200D9CFE6FFE1CFD9FF55
:104F7000030EE126020EDB68C28AC298C296C28482
:104F8000C282C250020B08E0020EDBCFF3FFDB0649
:104F9000F350000801E2F5D7C350DF6E010EC4CF15
:104FA000DBFFDECF10F0DDCF11F010C0F3FF11C03A
:104FB000F4FF00D0030EE15C02E2E16AE552E16E2B
:104FC000E552E7CFD9FF1200D9CFE6FFE1CFD9FFF5
:104FD000020EE126DE6ADD6AC7DFF3CFDEFFF4CF23
:104FE000DDFFD950010FE96EDACFEAFFEF50800BF9
:104FF00002E0010E02D0000E00D0106E020EE15C45
:1050000002E2E16AE552E16E1050E552E7CFD9FFC6
:105010001200D9CFE6FFE1CFD9FFFE0EDB50E8B09A
:105020008186E8A08196E552E7CFD9FF1200D9CF5B
:10503000E6FFE1CFD9FF030EE126020EDB68C28A4C
:10504000C298C296C294C282C250020B08E0020EFD
:10505000DBCFF3FFDB06F350000801E2F5D7C350C6
:10506000DF6E010EC4CFDBFFDECF10F0DDCF11F01D
:1050700010C0F3FF11C0F4FF00D0030EE15C02E2A8
:10508000E16AE552E16EE552E7CFD9FF1200D9CFD0
:10509000E6FFE1CFD9FFE652CF0EC1140009C16E81
:1050A000F00EC1140009C16EC09EC70EC0143809AD
:1050B000C06EF80EC0140409C06E836A9568DF6A7A
:1050C000060EDF5C1DE2DF500A0DF3CFE9FFF4CFDF
:1050D000EAFF000EE926010EEA22080EE926000E7C
:1050E000EA22EECF10F0EFCF11F0010EE66E04D001
:1050F00011C0FAFF1050F96EFBDFE552DF2AE0D74E
:10510000E552E552E7CFD9FF1200D9CFE6FFE1CF54
:10511000D9FFFE0EDB040A0DF3CF10F0F4CF11F02F
:10512000000E1026010E112210C0F3FF11C0F4FF73
:1051300000D0E552E7CFD9FF1200D9CFE6FFE1CF8B
:10514000D9FFD00EE66E510EE66EFE0EDBCFE6FF07
:105150007AEC1AF0E552E552E552FE0EDBCFE6FF9F
:10516000D8EC1FF0E552F3CFC6F1F4CFC7F1E5520A
:10517000E7CFD9FF1200060E0101B45D0BE36D50BD
:10518000020B01E0010E106E116A010E101801E110
:10519000115001E100D01200D9CFE6FFE1CFD9FFD5
:1051A000FE0EDBCFE6FF66EC1AF0E552FE0EDBCF1B
:1051B000E6FF92EC1AF0E552760EE66E510EE66EC0
:1051C000F7EC10F0E552E552E552E7CFD9FF1200B7
:1051D000D9CFE6FFE1CFD9FF260EE126020EDB6A2A
:1051E000030EDB6A1C0EDB6A1D0EDB6A1E0EDB6A19
:1051F0001F0EDB6A200EDB6A210EDB6A220EDB6AE1
:10520000230EDB6A240EDB6A250EDB6AFD0EDBCF84
:10521000E9FFFE0EDBCFEAFFEF50FF0A01E1EDD11F
:10522000FD0A01E15BD1030A01E1CCD0020A2BE0C7
:10523000030A01E0E4D1FD0EDBCFE9FFFE0EDBCF78
:10524000EAFFEF50E66EC6C1E9FFC7C1EAFFE552CB
:10525000E750EF6EC6C1E9FFC7C1EAFF010EE926BC
:10526000000EEA22020EEF6EC6C1E9FFC7C1EAFFD7
:10527000020EE926000EEA22EF6A030EF36E220EFA
:10528000F3CFDBFFBDD1FD0EDBCFE9FFFE0EDBCFA1
:10529000EAFFEF50E66EC6C1E9FFC7C1EAFFE5527B
:1052A000E750EF6EFD0EDBCFE9FFFE0EDBCFEAFF2E
:1052B000010EE926000EEA22230EEFCFDBFFFC0EE3
:1052C000DBCFE6FFFD0EDBCFE6FFFE0EDBCFE6FF1A
:1052D0009DEC2EF0E552E552E552230EDB5063E0E3
:1052E000D950080FE66E000EDA20E66ED950240F72
:1052F000E66E000EDA20E66E1EEC2EF0E552E55268
:10530000E552E552E76E250EE7CFDBFFC6C1E9FFA8
:10531000C7C1EAFF010EE926000EEA22240EDBCF08
:10532000EFFFC6C1E9FFC7C1EAFF020EE926000E82
:10533000EA22250EDBCFEFFF240EDB50030FE76ED2
:10534000220EE7CFDBFF1C0EDB6A240EDBCFF3FF60
:10535000DB06F350000826E2D950080F126EDACFB0
:1053600013F01C0EDB500F011224E96E000E132007
:10537000EA6EEF50E66EC6C1E9FFC7C1EAFFE9CFAA
:1053800010F0EACF11F01C0EDB50030F0F011024B8
:10539000E96E000E1120EA6EE552E750EF6E1C0E2A
:1053A000DB2AD3D70ED0C6C1E9FFC7C1EAFF010E81
:1053B000E926000EEA22EF6A020EF36E220EF3CF08
:1053C000DBFF1ED1FD0EDBCFE9FFFE0EDBCFEAFFD8
:1053D000EF50E66EC6C1E9FFC7C1EAFFE552E750EC
:1053E000EF6EFD0EDBCFE9FFFE0EDBCFEAFF010E15
:1053F000E926000EEA221D0EEFCFDBFFFD0EDBCF0C
:10540000E9FFFE0EDBCFEAFF020EE926000EEA22DC
:105410001E0EEFCFDBFFFD0EDBCFE9FFFE0EDBCF75
:10542000EAFF030EE926000EEA22200EEFCFDBFF93
:10543000FD0EDBCFE9FFFE0EDBCFEAFF040EE9260F
:10544000000EEA22210EEFCFDBFF200EDB50E66ECE
:10545000D950040FE96EDACFEAFFE552E750EE6E5D
:10546000ED6A040EDBCF12F0050EDBCF13F012C095
:1054700013F0126A210EDB5000011210106E13C0DF
:1054800011F0040E10C0DBFF050E11C0DBFF040E8F
:10549000DBCFE6FF050EDBCFE6FF1E0EDBCFE6FF20
:1054A0001D0EDBCFE6FFF9EC2CF0E552E552E5529C
:1054B000E552E76E1F0EE7CFDBFFC6C1E9FFC7C1AC
:1054C000EAFF010EE926000EEA221F0EDBCFEFFFF6
:1054D000020EF36E220EF3CFDBFF92D0FD0EDBCF78
:1054E000E9FFFE0EDBCFEAFFEF50E66EC6C1E9FF33
:1054F000C7C1EAFFE552E750EF6EFD0EDBCFE9FFD3
:10550000FE0EDBCFEAFF010EE926000EEA221D0E99
:10551000EFCFDBFFFD0EDBCFE9FFFE0EDBCFEAFFB7
:10552000020EE926000EEA22060EEFCFDBFFFD0E8B
:10553000DBCFE9FFFE0EDBCFEAFF030EE926000E0C
:10554000EA22070EEFCFDBFFD950060FE66E000E02
:10555000DA20E66E020EE66E020EE66E1D0EDBCF60
:10556000E6FF9CEC2BF0106E050EE15E1050D9CFDB
:10557000E6FFDACFE6FFD950020FE66E000EDA2022
:10558000E66ED9501D0FE66E000EDA20E66E08ECCE
:105590002CF0106E060EE15E1050E76E1F0EE7CF86
:1055A000DBFFC6C1E9FFC7C1EAFF010EE926000E15
:1055B000EA22010EDBCFEFFFDECF10F0DDCF11F0DE
:1055C0000D6A010E0E6E10C008F011C009F0CEEC8D
:1055D00018F004C010F005C011F0C6C1E9FFC7C142
:1055E000EAFF020EE926000EEA2210C0EFFF030ECA
:1055F000F36E220EF3CFDBFF03D0FF0001D000D00B
:10560000220EDB501CE01C0EDB68040104010C516F
:10561000800B08E01C0EDBCFF3FFDB06F350000825
:1056200001E2F3D704010CBF0AD0220EDBCFE6FF64
:10563000FB0EDBCFE6FFFEEC1BF0E552E552260E3B
:10564000E15C02E2E16AE552E16EE552E7CFD9FFA3
:105650001200D9CFE6FFE1CFD9FFFD0EDB50126E6D
:10566000136A12C013F0126AFE0EDB5000011224FE
:10567000106E000E1320116E10C0F3FF11C0F4FF66
:1056800000D0E552E7CFD9FF1200AC6AAC9CAC9ACF
:10569000AC98AC96AC84AB6AAB8EAB9CAB98B86A5A
:1056A000B886040EAF6EF28EF28C948E1200AB9818
:1056B000949CAC8A1200948CAC9AAB880101616B0B
:1056C0001200AB98AC9A1200D9CFE6FFE1CFD9FF18
:1056D000ACA2FED7FE0EDB50AD6EFE0EDB5000D04E
:1056E000E552E7CFD9FF1200D9CFE6FFE1CFD9FFCE
:1056F000020EE126980EDE6E3A0EDD6E9E50200BF5
:105700000CE1DFCF10F0DF06010EDBCF11F001E27C
:10571000DB061050111001E0F1D79E9AAE5000D078
:10572000106E020EE15C02E2E16AE552E16E105099
:10573000E552E7CFD9FF1200D9CFE6FFE1CFD9FF7D
:10574000020EE126010EDB6AB2DFE668BDDFE5523C
:10575000E668BADFE552FE0EDBCFE6FFB5DFE552C5
:10576000106E010EDBCFE7FF1050E726010EE7CFEA
:10577000DBFFFD0EDB50020FE66EA6DFE552106E7A
:10578000010EDBCFE7FF1050E726010EE7CFDBFF6E
:10579000FC0EDBCFE6FF98DFE552106E010EDBCF8B
:1057A000E7FF1050E726010EE7CFDBFFDF6AFD0EB3
:1057B000DB50DF5C1BE2DF50E76EFA0EDBCFE9FF68
:1057C000FB0EDBCFEAFFE750E926000EEA22EF509E
:1057D000E66E7ADFE552106E010EDBCFE7FF105068
:1057E000E726010EE7CFDBFFDF2AE1D7010EDB1C46
:1057F000E66E6ADFE552ACA2FED75DDF020EE15C29
:1058000002E2E16AE552E16EE552E7CFD9FF12000C
:10581000D9CFE6FFE1CFD9FF040EE126010EF36EEA
:10582000030EF3CFDBFFFD0EDBCFE9FFFE0EDBCF78
:10583000EAFFEF6AFB0EDBCFE9FFFC0EDBCFEAFFEE
:10584000EE6AED6AF90EDBCFE9FFFA0EDBCFEAFF75
:10585000EE6AED6A020EDB6ADF6A0101616B020E1D
:10586000DB505EE1DF505CE1030EDB50050A3CE0FB
:10587000010A28E0070A0DE0020A03E0030A01E03A
:105880004CD032DFFF0803E1030EDB2A01D0DF2A10
:1058900046D02ADFE66EFD0EDBCFE9FFFE0EDBCF42
:1058A000EAFFE552E750EF6EFD0EDBCFE9FFFE0E9B
:1058B000DBCFEAFFEF50FE0803E3030EDB2A01D043
:1058C000DF2A2DD011DFE76E010EE7CFDBFF200EC0
:1058D000F36E010EDBCFF4FFF350F45C03E2030E32
:1058E000DB2A01D0DF2A1BD0FFDEE66E0101615109
:1058F000EA6A410FE96E010EEA22E552E750EF6EC7
:105900000101612B010EDB500101615D05E3010E18
:10591000F36E020EF3CFDBFF02D0010EDF6E9FD7D6
:10592000D0DEDF5018E0FD0EDBCFE9FFFE0EDBCF4F
:10593000EAFFEF68FB0EDBCFE9FFFC0EDBCFEAFFEF
:10594000EE68ED68F90EDBCFE9FFFA0EDBCFEAFF78
:10595000EE68ED6840D001014151E66EFB0EDBCFF1
:10596000E9FFFC0EDBCFEAFFE552E750EE6EED6A91
:10597000010EDB50040A11E0070A01E024D0010106
:105980004251E66EF90EDBCFE9FFFA0EDBCFEAFFFC
:10599000E552E750EE6EED6A1ED043C1E6FF42C10C
:1059A000E6FF57DEE552E552F3CF10F0F4CF11F0E9
:1059B000F90EDBCFE9FFFA0EDBCFEAFF10C0EEFFF6
:1059C00011C0EDFF08D0F90EDBCFE9FFFA0EDBCFF7
:1059D000EAFFEE68ED68DF5000D0106E040EE15C67
:1059E00002E2E16AE552E16E1050E552E7CFD9FFDD
:1059F0001200D9CFE6FFE1CFD9FF210EE126DF6A01
:105A0000FD0EDB50060A34E00E0A32E0060A30E0F2
:105A1000100A2EE03E0A2CE0020A2AE0120A28E0D0
:105A2000330A23E0070A21E0010A1FE00E0A1DE005
:105A3000070A1BE0010A19E01D0A17E0010A15E038
:105A4000030A13E0010A11E00B0A0FE0010A0DE05E
:105A5000030A0BE0010A09E0070A07E0010A05E072
:105A6000310A03E0030A01E006D0010EDF6E03D025
:105A7000020EDF6E00D0FD0EDB50E76E010EE7CFA9
:105A8000DBFFFF0EE76EFB0EDBCF10F0FC0EDBCF73
:105A900011F0E7501016116A020E10C0DBFFDF5044
:105AA000010810E2FB0EDBCF10F0FC0EDBCF11F093
:105AB000000E1016FF0E111611C010F0116A030E21
:105AC00010C0DBFFD950010FE66E000EDA20E66E43
:105AD000030EE66EDF28E66EFE0EDBCFE6FF2CDE61
:105AE000106E050EE15E10503F0EE66E010EE66E82
:105AF0003D0EE66E010EE66E3C0EE66E010EE66EA3
:105B000087DE106E060EE15E105000D0106E210E82
:105B1000E15C02E2E16AE552E16E1050E552E7CF46
:105B2000D9FF1200D9CFE6FFE1CFD9FF000EE66E14
:105B3000E66A060EE66EFE0EDBCFE6FF5ADFE552A2
:105B4000E552E552E552FD0EDB500EE0000EE66E2A
:105B5000E66A080EE66EFE0EDBCFE6FF4ADFE55290
:105B6000E552E552E5520DD0E668030EE66E080EEA
:105B7000E66EFE0EDBCFE6FF3CDFE552E552E55276
:105B8000E552E552E7CFD9FF1200D9CFE6FFE1CFCA
:105B9000D9FFFC0EDBCF10F0FD0EDBCF11F00001C2
:105BA000800E111402E0FB0EDB70FC0EDBCF12F056
:105BB000FD0EDBCF13F00001800E13140BE0FC0E82
:105BC000DBCF10F0FD0EDBCF11F0106C111E000EBC
:105BD000112206D0FC0EDBCF10F0FD0EDBCF11F052
:105BE000FC0E10C0DBFFFD0E11C0DBFFFB0EDB5017
:105BF000106E116A0A0ED89010361136E806FBE1D5
:105C0000D950FC0FE96EFF0EDA20EA6E1050EE124A
:105C10001150ED12FC0EDBCFE6FFFD0EDBCFE6FFF1
:105C2000200EE66EFE0EDBCFE6FFE3DEE552E55228
:105C3000E552E552E552E7CFD9FF1200D9CFE6FF92
:105C4000E1CFD9FF030EE126DF6A010EDB6A020E07
:105C5000DB6AD59EF29E040EDF5C13E245DDE66E44
:105C6000DF50DF2AE76EFB0EDBCFE9FFFC0EDBCF58
:105C7000EAFFE750E926000EEA22E552E750EF6E10
:105C8000EAD7DF04E76EFB0EDBCFE9FFFC0EDBCFCC
:105C9000EAFFE750E926000EEA22020EEFCFDBFF13
:105CA000020EDB50200803E3020EDB5009E1FD0E7B
:105CB000DBCFE9FFFE0EDBCFEAFFEF6A010E31D04A
:105CC000020EDB50F36E010EDBCFF4FFF350F45CF9
:105CD00016E20ADDE66E010EDB50DF24E76EFB0EF6
:105CE000DBCFE9FFFC0EDBCFEAFFE750E926000E31
:105CF000EA22E552E750EF6E010EDB2AE1D7D58E9E
:105D0000F28EDFDC010EDB50DF24E66EFD0EDBCF12
:105D1000E9FFFE0EDBCFEAFFE552E750EF6E000E23
:105D200000D0106E030EE15C02E2E16AE552E16E22
:105D30001050E552E7CFD9FF1200D9CFE6FFE1CFEF
:105D4000D9FFE652020EDF6EB2DCFC0EDB50DF5CE8
:105D500012E2DF50DF2AE76EFD0EDBCFE9FFFE0E19
:105D6000DBCFEAFFE750E926000EEA22EF50E66EAD
:105D7000ABDCE552EAD7ACA2FED79DDCE552E5529A
:105D8000E7CFD9FF1200D9CFE6FFE1CFD9FF420E0E
:105D9000E66E5E0EE66EFE0EDBCFE6FF7AEC1AF0E4
:105DA000E552E552E552FE0EDBCFE6FFD8EC1FF0E0
:105DB000E552F3CFC2F1F4CFC3F1FE0EDBCFE6FF25
:105DC00085EC28F0E552F3CFE9FFF4CFEAFF080EA7
:105DD000E926000EEA22EECF10F0EFCF11F0010E0F
:105DE000E66E04D011C0FAFF1050F96EFBDFE552E9
:105DF000E552E7CFD9FF1200060E0101B45D0BE3B7
:105E00006D50020B01E0010E106E116A010E1018A8
:105E100001E1115001E100D01200D9CFE6FFE1CF3E
:105E2000D9FFFE0EDBCFE6FF66EC1AF0E552FE0E60
:105E3000DBCFE6FF92EC1AF0E552E552E7CFD9FF4F
:105E40001200D9CFE6FFE1CFD9FF020EE126010E05
:105E5000DB6AFD0EDBCFE9FFFE0EDBCFEAFFEF5082
:105E6000FF0A5EE0FE0A29E0010A01E05BD0FD0EB8
:105E7000DBCFE9FFFE0EDBCFEAFFEF50E66EC2C1DB
:105E8000E9FFC3C1EAFFE552E750EF6EC2C1E9FF87
:105E9000C3C1EAFF010EE926000EEA22010EEF6EF1
:105EA000C2C1E9FFC3C1EAFF020EE926000EEA22E1
:105EB000EF6ADE52030EDD6E36D0FD0EDBCFE9FF5A
:105EC000FE0EDBCFEAFFEF50E66EC2C1E9FFC3C1B1
:105ED000EAFFE552E750EF6EFB0EDBCFE6FF85EC05
:105EE00028F0E552F3CFE9FFF4CFEAFFEECF10F050
:105EF000EFCF11F004D011C0FAFF1050F96EFBDFA4
:105F0000E66EC2C1E9FFC3C1EAFF010EE926000E39
:105F1000EA22E552E750EF6EDE52020EDD6E03D04C
:105F2000FF0001D000D0010EDB5018E0DF68040153
:105F300004010C51800B05E0DF50DF06000801E290
:105F4000F6D704010CBF0AD0010EDBCFE6FFFB0E33
:105F5000DBCFE6FFFEEC1BF0E552E552020EE15C02
:105F600002E2E16AE552E16EE552E7CFD9FF1200A5
:105F7000D9CFE6FFE1CFD9FF2C0EE66E600EE66EBC
:105F8000FE0EDBCFE6FF7AEC1AF0E552E552E55261
:105F9000FE0EDBCFE6FFD8EC1FF0E552F3CFC0F1E9
:105FA000F4CFC1F1FE0EDBCFE6FF85EC28F0E55221
:105FB000F3CFE9FFF4CFEAFF080EE926000EEA224C
:105FC000EECF10F0EFCF11F0010EE66E04D011C04D
:105FD000FAFF1050F96EFBDFE552E552E7CFD9FF2B
:105FE0001200060E0101B45D0BE36D50020B01E0DF
:105FF000010E106E116A010E101801E1115001E13D
:1060000000D01200D9CFE6FFE1CFD9FFFE0EDBCFE3
:10601000E6FF66EC1AF0E552FE0EDBCFE6FF92ECEF
:106020001AF0E552E552E7CFD9FF1200D9CFE6FFCB
:10603000E1CFD9FF040EE126030EDB6AFD0EDBCFB4
:10604000E9FFFE0EDBCFEAFFEF50FF0A76E0FE0A23
:106050002BE0010A01E073D0FD0EDBCFE9FFFE0E5D
:10606000DBCFEAFFEF50E66EC0C1E9FFC1C1EAFF36
:10607000E552E750EF6EC0C1E9FFC1C1EAFF010E72
:10608000E926000EEA22010EEF6EC0C1E9FFC1C190
:10609000EAFF020EE926000EEA22EF6A030EF36E13
:1060A000030EF3CFDBFF4CD0FD0EDBCFE9FFFE0E7E
:1060B000DBCFEAFFEF50E66EC0C1E9FFC1C1EAFFE6
:1060C000E552E750EF6EFB0EDBCFE6FF85EC28F0E4
:1060D000E552F3CFE9FFF4CFEAFF020EE926000E06
:1060E000EA22EECF10F0EFCF11F004D011C0FAFF8A
:1060F0001050F96EFBDFDE52F3CFDEFFF4CFDDFF91
:10610000DD52C0C1E9FFC1C1EAFF010EE926000E60
:10611000EA22010EDBCFEFFFC0C1E9FFC1C1EAFFF8
:10612000020EE926000EEA22020EDBCFEFFF030E7D
:10613000F36E030EF3CFDBFF03D0FF0001D000D0DE
:10614000030EDB5018E0DF68040104010C51800BE2
:1061500005E0DF50DF06000801E2F6D704010CBFBE
:106160000AD0030EDBCFE6FFFB0EDBCFE6FFFEEC33
:106170001BF0E552E552040EE15C02E2E16AE552F1
:10618000E16EE552E7CFD9FF1200D9CFE6FFE1CFAC
:10619000D9FF460EE66E620EE66EFE0EDBCFE6FF20
:1061A0007AEC1AF0E552E552E552FE0EDBCFE6FF3F
:1061B000D8EC1FF0E552F3CFBEF1F4CFBFF1FE0EE5
:1061C000DBCFE6FF85EC28F0E552F3CFE9FFF4CF13
:1061D000EAFF080EE926000EEA22EECF10F0EFCF1C
:1061E00011F0010EE66E04D011C0FAFF1050F96EE6
:1061F000FBDFE552E552E7CFD9FF1200060E0101A1
:10620000B45D0BE36D50020B01E0010E106E116ADC
:10621000010E101801E1115001E100D01200D9CF98
:10622000E6FFE1CFD9FFFE0EDBCFE6FF66EC1AF00A
:10623000E552FE0EDBCFE6FF92EC1AF0E552E55296
:10624000E7CFD9FF1200D9CFE6FFE1CFD9FF040E87
:10625000E126030EDB6AFD0EDBCFE9FFFE0EDBCF8E
:10626000EAFFEF50FF0A76E0FE0A2BE0010A01E0A8
:1062700073D0FD0EDBCFE9FFFE0EDBCFEAFFEF5060
:10628000E66EBEC1E9FFBFC1EAFFE552E750EF6E1F
:10629000BEC1E9FFBFC1EAFF010EE926000EEA22F6
:1062A000010EEF6EBEC1E9FFBFC1EAFF020EE92693
:1062B000000EEA22EF6A030EF36E030EF3CFDBFF4C
:1062C0004CD0FD0EDBCFE9FFFE0EDBCFEAFFEF5037
:1062D000E66EBEC1E9FFBFC1EAFFE552E750EF6ECF
:1062E000FB0EDBCFE6FF85EC28F0E552F3CFE9FFAC
:1062F000F4CFEAFF020EE926000EEA22EECF10F0FC
:10630000EFCF11F004D011C0FAFF1050F96EFBDF8F
:10631000DE52F3CFDEFFF4CFDDFFDD52BEC1E9FF79
:10632000BFC1EAFF010EE926000EEA22010EDBCF13
:10633000EFFFBEC1E9FFBFC1EAFF020EE926000E72
:10634000EA22020EDBCFEFFF030EF36E030EF3CF54
:10635000DBFF03D0FF0001D000D0030EDB5018E0BC
:10636000DF68040104010C51800B05E0DF50DF06FB
:10637000000801E2F6D704010CBF0AD0030EDBCF00
:10638000E6FFFB0EDBCFE6FFFEEC1BF0E552E5522D
:10639000040EE15C02E2E16AE552E16EE552E7CF0C
:1063A000D9FF1200D9CFE6FFE1CFD9FF120EE66E7A
:1063B000640EE66EFE0EDBCFE6FF7AEC1AF0E552D5
:1063C000E552E552FE0EDBCFE6FFD8EC1FF0E552BA
:1063D000F3CFBCF1F4CFBDF1836A9568E552E7CF06
:1063E000D9FF12001200D9CFE6FFE1CFD9FFFE0E90
:1063F000DBCFE6FF66EC1AF0E552FE0EDBCFE6FFE0
:1064000092EC1AF0E552836A9568E552E7CFD9FF1E
:106410001200D9CFE6FFE1CFD9FF040EE126010E2D
:10642000DB6AFD0EDBCFE9FFFE0EDBCFEAFFEF50AC
:10643000020A01E11DD1040A01E105D1030A01E1CB
:10644000EDD0010A01E1CAD0070A01E179D0020AC0
:1064500029E0010A01E056D1FD0EDBCFE9FFFE0E77
:10646000DBCFEAFFEF50E66EBCC1E9FFBDC1EAFF3A
:10647000E552E750EF6EBCC1E9FFBDC1EAFF010E76
:10648000E926000EEA22020EEF6EBCC1E9FFBDC193
:10649000EAFF020EE926000EEA22EF6ADE52030E40
:1064A000DD6E31D1FD0EDBCFE9FFFE0EDBCFEAFF63
:1064B000EF50E66EBCC1E9FFBDC1EAFFE552E7500F
:1064C000EF6EFD0EDBCFE9FFFE0EDBCFEAFF010E24
:1064D000E926000EEA22EF50E66ED950020FE96E6F
:1064E000DACFEAFFE552E750EE6EED6AFD0EDBCF44
:1064F000E9FFFE0EDBCFEAFF020EE926000EEA22DC
:10650000EF500EE1010EF36E020EDB5004E0D89066
:10651000F336E806FCE1F350E81C9514956E0CD0B8
:10652000010EF36E020EDB5004E0D890F336E8065D
:10653000FCE1F3509510956EDE52010EDD6EE3D056
:10654000FD0EDBCFE9FFFE0EDBCFEAFFEF50E66E7C
:10655000BCC1E9FFBDC1EAFFE552E750EF6EFD0E99
:10656000DBCFE9FFFE0EDBCFEAFF010EE926000ECE
:10657000EA22EF50E66ED950020FE96EDACFEAFF59
:10658000E552E750EE6EED6AFD0EDBCFE9FFFE0E41
:10659000DBCFEAFF020EE926000EEA22EF040DE14E
:1065A000010EF36E020EDB5004E0D890F336E806DD
:1065B000FCE1F3508310836E0DD0010EF36E020EDA
:1065C000DB5004E0D890F336E806FCE1F350E81C19
:1065D0008314836EDE52010EDD6E95D0FD0EDBCF8F
:1065E000E9FFFE0EDBCFEAFFEF50E66EBCC1E9FF2C
:1065F000BDC1EAFFE552E750EF6EFD0EDBCFE9FFCC
:10660000FE0EDBCFEAFF010EE926000EEA22EF5074
:10661000836E956ADE52010EDD6E75D0FD0EDBCF06
:10662000E9FFFE0EDBCFEAFFEF50E66EBCC1E9FFEB
:10663000BDC1EAFFE552E750EF6E836A9568DE520E
:10664000010EDD6E60D0FD0EDBCFE9FFFE0EDBCF6D
:10665000EAFFEF50E66EBCC1E9FFBDC1EAFFE552BB
:10666000E750EF6E836A956ADE52010EDD6E4BD005
:10667000FD0EDBCFE9FFFE0EDBCFEAFFEF50E66E4B
:10668000BCC1E9FFBDC1EAFFE552E750EF6EFD0E68
:10669000DBCFE9FFFE0EDBCFEAFF010EE926000E9D
:1066A000EA22EF50E66ED950020FE96EDACFEAFF28
:1066B000E552E750EE6EED6A020EDBCF10F0010EF0
:1066C000F36E020EDB5004E0D890F336E806FCE1EE
:1066D000F350831410C0E7FFE75204E0E8427F0B59
:1066E000E706FCE1E66EBCC1E9FFBDC1EAFF010EB1
:1066F000E926000EEA22E552E750EF6EDE52020E66
:10670000DD6E01D000D0010EDB5018E0DF6804011F
:1067100004010C51800B05E0DF50DF06000801E2A8
:10672000F6D704010CBF0AD0010EDBCFE6FFFB0E4B
:10673000DBCFE6FFFEEC1BF0E552E552040EE15C18
:1067400002E2E16AE552E16EE552E7CFD9FF1200BD
:10675000D9CFE6FFE1CFD9FF0C0EE66E680EE66EEC
:10676000FE0EDBCFE6FF7AEC1AF0E552E552E55279
:10677000FE0EDBCFE6FFD8EC1FF0E552F3CFBAF107
:10678000F4CFBBF1FE0EDBCFE6FF85EC28F0E5523F
:10679000F3CFE9FFF4CFEAFF080EE926000EEA2264
