:020000040000FA
:060000006FEF16F0120084
:0608C0006FEF16F01200BC
:0608C8006FEF0EF01200BC
:0208D80012000C
:0108EA00010C
:0408EC001E0E716EFD
:1008F0000401400E096F0401200E0A6F040E0B6FF5
:100900000401880E086F0401600E0E6F040E0F6F55
:080910000401400E0C6F1200FF
:060AEA00120100020000F1
:100AF0000008D8040C0000000102030109022000D4
:100B000001010080FA09040000020000000007054E
:100B100001024000FF070581024000FF04030904B1
:100B20004A037700770077002E00660069006E00A8
:100B300067002E006500640075002E0075007900C6
:100B40002F0069006E0063006F002F0070007200BC
:100B50006F0079006500630074006F0073002F0060
:100B6000620075007400690061003603550053008F
:100B700042003400420075007400690061002000EA
:100B800032003000310031002000460049004E00A4
:100B9000470020005500640065006C0061005200B1
:100BA00012033000300030003000300030003000E0
:020BB000320011
:040CEA00FC0AFC0AFA
:060D2A001C0B200B6A0BFC
:020D3000A00B16
:060DAA0004005A2D0000B8
:100DB000B101000002000000592D0000FF000000FA
:100DC000010000001D2D0000000100003C0000009B
:0C0DD000182D00009A0100000500000032
:040DDC00D9CFE6FF86
:100DE000E1CFD9FFFE0EDB2AFE0EDB500A0802E13E
:100DF000FE0EDB6AFE0EDB5000D0E552E7CFD9FFD6
:100E00001200D9CFE6FFE1CFD9FFFE0EDB5005E19E
:100E10000A0EF36EFE0EF3CFDBFFFE0EDB06FE0EB8
:100E2000DB5000D0E552E7CFD9FF12000101B251EB
:100E30000101B15D02E0000E01D0010E00D01200F0
:100E4000F5DF000904E0F36AF46A11D010D0010163
:100E5000B151040DF3CF10F0F4CF11F0D50E1026E0
:100E6000000E112210C0F3FF11C0F4FF00D01200D9
:100E7000B1C1E6FFB3DFE5520101B16F1200D9CF76
:100E8000E6FFE1CFD9FF030EE126B2C1E6FFA6DF00
:100E9000E552DF6E0101B251040DF3CF10F0F4CF33
:100EA00011F0D50E1026000E1122010E10C0DBFF2E
:100EB000020E11C0DBFF0101B151DF5C03E1F36AF7
:100EC000F46A0DD0DFCFB2F1010EDBCF10F0020ECD
:100ED000DBCF11F010C0F3FF11C0F4FF00D0030E00
:100EE000E15C02E2E16AE552E16EE552E7CFD9FF4B
:100EF0001200D9CFE6FFE1CFD9FFE652DF6A0A0E32
:100F0000DF5C1EE2DF50040DF3CFE9FFF4CFEAFF10
:100F1000D50EE926000EEA22EE6AED6ADF50040DD6
:100F2000F3CFE9FFF4CFEAFFD50EE926000EEA225F
:100F3000020EE926000EEA22EE6AED6ADF2ADFD70A
:100F4000070ED56E460EE66E150EE66EF1EC0DF050
:100F5000E552E552E552E552E7CFD9FF1200D9CF6D
:100F6000E6FFE1CFD9FF0C0EE126D59E5FDF000939
:100F700006E0FD0EDBCFDEFFDBCFDDFF74D0D75008
:100F8000146E14C015F0146AD65000011410126EBD
:100F900015C013F0FF0ED8801256FF0E1356010134
:100FA000B151040DF3CFE9FFF4CFEAFFD50EE926E6
:100FB000000EEA221250EE5C106E1350EE58116EC5
:100FC000020E10C0DBFF030E11C0DBFFFD0EDBCFF6
:100FD00012F0FE0EDBCF13F0020EDB501224106E67
:100FE000030EDB501320116E10C0DEFF11C0DDFFB9
:100FF000DECF10F0DDCF11F0020EDBCF12F0030ECA
:10100000DBCF13F01250105C135011582CE2040E79
:10101000B1C1DBFF040EDB500101B25D1FE0020E27
:10102000DBCF10F0030EDBCF11F0040EDB50040D0C
:10103000F3CFE9FFF4CFEAFFD50EE926000EEA224E
:101040001050EE5E1150ED5A040EDBCFE6FFC6DE07
:10105000E552E76E040EE7CFDBFFDCD7FD0EDBCFFA
:10106000DEFFDBCFDDFF040EB2C1DBFF040EDBCF02
:10107000E6FFC7DEE552E76E050EE7CFDBFFFFDEDA
:10108000060EF3CFDBFF070EF4CFDBFFD950060FC0
:10109000E96EDACFEAFFEE50ED1002E1000EC9D0A2
:1010A000060EDBCFE9FF070EDBCFEAFFDECFEEFF58
:1010B000DDCFEDFF060EDBCFE9FF070EDBCFEAFF4A
:1010C000020EE926000EEA22FB0EDBCFEEFFFC0E3D
:1010D000DBCFEDFF040EDB500101B15D01E187D0F4
:1010E000040EDB50040DF3CFE9FFF4CFEAFFD50E79
:1010F000E926000EEA22EECF10F0EFCF11F0050E38
:10110000DB50040DF3CFE9FFF4CFEAFFD50EE9265B
:10111000000EEA22EECF12F0EFCF13F01250105C67
:101120001350115864E2050EDB50040DF3CFE9FFB4
:10113000F4CFEAFFD50EE926000EEA22080EEECF24
:10114000DBFF090EEECFDBFF0A0EEECFDBFF0B0E4F
:10115000EECFDBFF040EDB50040DF3CFE9FFF4CF3D
:10116000EAFFD50EE926000EEA22EECF10F0EECF10
:1011700011F0EECF12F0EFCF13F0050EDB50040D9F
:10118000F3CFE9FFF4CFEAFFD50EE926000EEA22FD
:1011900010C0EEFF11C0EEFF12C0EEFF13C0EEFF55
:1011A000040EDB50040DF3CFE9FFF4CFEAFFD50EB8
:1011B000E926000EEA22080EDBCFEEFF090EDBCF98
:1011C000EEFF0A0EDBCFEEFF0B0EDBCFEEFF050EC0
:1011D000DB50E76E040EE7CFDBFF040EDBCFE6FF4C
:1011E00010DEE552E76E050EE7CFDBFF73D7040E86
:1011F000DB500101B15D1AE1F294F28ADECF10F00A
:10120000DDCF11F0FF0ED8801056FF0E115610C022
:10121000DEFF11C0DDFFDECF10F0DDCF11F011C019
:1012200010F0116A1050D76EDF50D66ED58E010EB9
:1012300000D0106E0C0EE15C02E2E16AE552E16E54
:101240001050E552E7CFD9FF1200D9CFE6FFE1CF2A
:10125000D9FF0C0EE1260101B151040DF3CFE9FFD6
:10126000F4CFEAFFD50EE926000EEA22020EEECFF9
:10127000DBFF030EEDCFDBFFFD0EDBCF12F0FE0E2A
:10128000DBCF13F0020EDB501224106E030EDB5086
:101290001320116E10C0DEFF11C0DDFFDECF10F095
:1012A000DDCF11F0020EDBCF12F0030EDBCF13F017
:1012B0001250105C135011582CE2040EB1C1DBFF28
:1012C000040EDB500101B25D1FE0020EDBCF10F017
:1012D000030EDBCF11F0040EDB50040DF3CFE9FF5A
:1012E000F4CFEAFFD50EE926000EEA221050EE5E9A
:1012F0001150ED5A040EDBCFE6FF70DDE552E76ECC
:10130000040EE7CFDBFFDCD7FD0EDBCFDEFFDBCF4C
:10131000DDFF040EB2C1DBFF040EDBCFE6FF71DDA3
:10132000E552E76E050EE7CFDBFFA9DD060EF3CF32
:10133000DBFF070EF4CFDBFFD950060FE96EDACFE3
:10134000EAFFEE50ED1002E1000EAFD0060EDBCF4B
:10135000E9FF070EDBCFEAFFDECFEEFFDDCFEDFFCB
:10136000060EDBCFE9FF070EDBCFEAFF020EE92610
:10137000000EEA22FB0EDBCFEEFFFC0EDBCFEDFF13
:10138000050EDB500101B15D01E18DD0040EDB5093
:101390000101B15D01E187D0040EDB50040DF3CFF4
:1013A000E9FFF4CFEAFFD50EE926000EEA22EECFE0
:1013B00010F0EFCF11F0050EDB50040DF3CFE9FF75
:1013C000F4CFEAFFD50EE926000EEA22EECF12F0A6
:1013D000EFCF13F01250105C1350115864E2050E59
:1013E000DB50040DF3CFE9FFF4CFEAFFD50EE92679
:1013F000000EEA22080EEECFDBFF090EEECFDBFF78
:101400000A0EEECFDBFF0B0EEECFDBFF040EDB5040
:10141000040DF3CFE9FFF4CFEAFFD50EE926000E65
:10142000EA22EECF10F0EECF11F0EECF12F0EFCFB8
:1014300013F0050EDB50040DF3CFE9FFF4CFEAFF04
:10144000D50EE926000EEA2210C0EEFF11C0EEFF15
:1014500012C0EEFF13C0EEFF040EDB50040DF3CFFD
:10146000E9FFF4CFEAFFD50EE926000EEA22080EC6
:10147000DBCFEEFF090EDBCFEEFF0A0EDBCFEEFF78
:101480000B0EDBCFEEFF050EDB50E76E040EE7CF51
:10149000DBFF040EDBCFE6FFB4DCE552E76E050EA2
:1014A000E7CFDBFF6DD7010E00D0106E0C0EE15CB4
:1014B00002E2E16AE552E16E1050E552E7CFD9FF52
:1014C0001200D9CFE6FFE1CFD9FFE652B1C1DFFF6D
:1014D0000101B251DF5C30E0DF50040DF3CFE9FFD2
:1014E000F4CFEAFFD50EE926000EEA22020EE92625
:1014F000000EEA22EECF10F0EFCF11F0FD0EDB5020
:10150000101803E1FE0EDB50111810E1DF50040D3E
:10151000F3CFE9FFF4CFEAFFD50EE926000EEA2269
:10152000020EE926000EEA22EE6AED6ADFCFE6FF40
:1015300055DCE552DF6ECCD7010E00D0E552E55206
:10154000E7CFD9FF1200D9CFE6FFE1CFD9FF080ED0
:10155000E126F2A46BD0D59EF29472DCF3CFDEFFCD
:10156000F4CFDDFFDECFE9FFDDCFEAFF020EE92693
:10157000000EEA22060EEECFDBFF070EEDCFDBFFFB
:10158000D950060FE96EDACFEAFFEE50ED100CE00D
:10159000060EDBCF10F0070EDBCF11F004D011C028
:1015A000FAFF1050F96EFBDFDECFE9FFDDCFEAFF77
:1015B000020EEECFDBFF030EEDCFDBFF59DC40DC8C
:1015C000F3CFDEFFF4CFDDFFD9CFE9FFDACFEAFFBB
:1015D000EE50ED102BE0DECFE9FFDDCFEAFFEECFDE
:1015E00012F0EFCF13F0020EDB50125C106E030E00
:1015F000DB501358116EFF0ED8801056FF0E115697
:10160000040E10C0DBFF050E11C0DBFF040EDBCFA4
:1016100010F0050EDBCF11F011C010F0116A105060
:10162000D76E040EDB50D66EF294D58E080EE15CB8
:1016300002E2E16AE552E16EE552E7CFD9FF12001E
:10164000D9CFE6FFE1CFD9FFE652DF68A650020B03
:1016500005E0DF50DF06000801E2F8D7E552E55269
:10166000E7CFD9FF1200ECDF110EE66E090EE66E31
:10167000E66AFCEC15F0E552E552E5521200D9CFCE
:10168000E6FFE1CFD9FFFE0EDBCF97F1EC0EE66E61
:10169000160EE66E97C1E6FF80EC1AF0E552E552B1
:1016A000E55297C1E6FF24EC1FF0E552F3CF95F128
:1016B000F4CF96F1E552E7CFD9FF1200D9CFE6FF7C
:1016C000E1CFD9FF00D0E552E7CFD9FF12006D96E8
:1016D0000101986B996B01019807000E995B01015C
:1016E0009851991101E0F7D7FF001200D9CFE6FF1A
:1016F000E1CFD9FF120EE126DE52110EDD6E020E91
:10170000DB6ADF6AFD0EDBCFE9FFFE0EDBCFEAFF0F
:10171000EF50FF0A01E1F5D1F40A01E198D1010A85
:1017200001E181D1030A01E17BD10F0A01E127D157
:10173000030A01E110D1010A01E10CD1070A01E11C
:1017400008D1010A01E1E2D0050A01E1D6D0060A7A
:1017500001E1AED0010A13E0FE0A01E0D4D195C147
:10176000E9FF96C1EAFFFE0EEF6E95C1E9FF96C153
:10177000EAFFEE52080EEF6E020EDF6EC5D1FD0ECF
:10178000DBCFE9FFFE0EDBCFEAFF030EE926000EFA
:10179000EA22E9CF10F0EACF11F010C0E6FF11C045
:1017A000E6FF3FEC0FF0E552E5520B0EF3CFDBFF07
:1017B0000C0EF4CFDBFF0B0EDBCFE6FF0C0EDBCF06
:1017C000E6FF99EC1DF0E552E552000956E1D950CB
:1017D0000B0FE96EDACFEAFFFF0EEE1801E1ED50D4
:1017E00045E0FD0EDBCFE9FFFE0EDBCFEAFFEE5258
:1017F000010EEFCFDBFF0B0EDBCFE6FF0C0EDBCFD6
:10180000E6FF010EDBCFE6FFF1EC1CF0E552E552FE
:10181000E552E76E0F0EE7CFDBFF0B0EDBCFE6FFE7
:101820000C0EDBCFE6FFA2EC10F0E552E5520D0EF8
:10183000F3CFDBFF0E0EF4CFDBFF0D0EDBCF10F08E
:101840000E0EDBCF11F00F0EDBCFE6FF04D011C080
:10185000FAFF1050F96EFBDFE55295C1E9FF96C122
:10186000EAFFEE520F0EDBCFEFFF06D095C1E9FF86
:1018700096C1EAFFEE52EF6813D00B0EDBCFE6FF06
:101880000C0EDBCFE6FFC7EC1DF0E552E552E66E2D
:1018900095C1E9FF96C1EAFFEE52E552E750EF6EBF
:1018A00095C1E9FF96C1EAFFEF6A020EDF6E2CD107
:1018B000FD0EDBCFE9FFFE0EDBCFEAFFEE520F0E8F
:1018C000EFCFDBFF0F0EDBCFE6FF95EC1EF0E5520E
:1018D000E76E100EE7CFDBFF95C1E9FF96C1EAFF87
:1018E000EE52100EDBCFEFFF95C1E9FF96C1EAFF84
:1018F000010EEF6E020EDF6E07D195C1E9FF96C1B2
:10190000EAFF070EEF6E010EDF6EFED0DF6AFC0EFF
:10191000DB50DF5C1AE2DF50E76EFD0EDBCFE9FF44
:10192000FE0EDBCFEAFFE750E926000EEA22EF5079
:10193000E66EDF500101EA6A9525E96E9651EA22CA
:10194000E552E750EF6EDF2AE2D7FC0EDB50DF6E88
:10195000DBD0DAD0D9D095C1E9FF96C1EAFF050EF8
:10196000EF6ED0EC0FF0E66E95C1E9FF96C1EAFF8D
:10197000EE52E552E750EF6E020EDF6EC5D095C114
:10198000E9FF96C1EAFF060EEF6EFD0EDBCFE9FF21
:10199000FE0EDBCFEAFFEE52020EEFCFDBFFD95097
:1019A000030FE66E000EDA20E66E020EDBCFE6FFD6
:1019B0003AEC10F0E552E552E552110EDB6A080EE2
:1019C000F36E110EDBCFF4FFF350F45C26E2D95036
:1019D000030F126EDACF13F0110EDB500F01122439
:1019E000E96E000E1320EA6EEF50E66E95C1E9FF36
:1019F00096C1EAFFEE52E9CF10F0EACF11F0110ED6
:101A0000DB500F011024E96E000E1120EA6EE55242
:101A1000E750EF6E110EDB2AD2D7090EDF6E74D0BD
:101A200022DE55DE71D095C1E9FF96C1EAFF0A0EAC
:101A3000EF6E93EC1FF0E66E95C1E9FF96C1EAFFE9
:101A4000EE52E552E750EF6E020EDF6E5DD095C1AB
:101A5000E9FF96C1EAFF0B0EEF6EFD0EDBCFE9FF4B
:101A6000FE0EDBCFEAFFEE520F0EEFCFDBFF0E0EC6
:101A7000106E10C00EF00F0EDBCF09F07DEC16F0EB
:101A80000F0E05C0DBFF0F0EDB50040DF3CFE9FF97
:101A9000F4CFEAFF610EE926000EEA22EF50200B98
:101AA00001E0010E106E116A1050111021E10F0EAD
:101AB000DB50040DF3CFE9FFF4CFEAFF610EE92616
:101AC000000EEA22020EE926000EEA22EECFE6FF21
:101AD000EFCFE6FF09EC10F0E552E552E66E95C156
:101AE000E9FF96C1EAFFEE52E552E750EF6E06D0ED
:101AF00095C1E9FF96C1EAFFEE52EF68020EDF6E74
:101B000003D0E5DD01D000D0DFCFE6FF97C1E6FFCF
:101B1000C6EC1BF0E552E552120EE15C02E2E16A0E
:101B2000E552E16EE552E7CFD9FF1200D9CFE6FFCB
:101B3000E1CFD9FF020EE126DF80DF92DF94DF964E
:101B4000DF98DF9ADECF10F0DDCF11F010C0F3FF89
:101B500011C0F4FF00D0020EE15C02E2E16AE5523E
:101B6000E16EE552E7CFD9FF1200D9CFE6FFE1CF12
:101B7000D9FF020EE126DF80DF92DF94DF96DF9847
:101B8000DF9ADECF10F0DDCF11F010C0F3FF11C0EF
:101B9000F4FF00D0020EE15C02E2E16AE552E16E80
:101BA000E552E7CFD9FF1200D9CFE6FFE1CFD9FF49
:101BB000E652DF6A050EDF5C0DE2EA6ADF34FE0BF7
:101BC000EA36E96E6E0EE926010EEA22EE6AED6A49
:101BD000DF2AF0D70101786BE552E552E7CFD9FF54
:101BE0001200D9CFE6FFE1CFD9FF050E0101785DE4
:101BF00002E1000E19D001017851E96EEA6AD8902D
:101C0000E936EA366E0EE926010EEA22FD0EDBCF3A
:101C1000EEFFFE0EDBCFEDFF01017851782B0008BF
:101C200001E2F28E010E00D0E552E7CFD9FF12009B
:101C3000D9CFE6FFE1CFD9FFE652DF6A050EDF5CC0
:101C400047E2EA6ADF34FE0BEA36E96E6E0EE926F9
:101C5000010EEA22EE50ED103BE0EA6ADF34FE0BA3
:101C6000EA36E96E6E0EE926010EEA22EECF10F09A
:101C7000EFCF11F0FD0EDB50101803E1FE0EDB502C
:101C8000111824E10101780701017851E96EEA6A2F
:101C9000D890E936EA366E0EE926010EEA22EECF3A
:101CA00010F0EFCF11F0EA6ADF34FE0BEA36E96E8E
:101CB0006E0EE926010EEA2210C0EEFF11C0EDFF04
:101CC0000101785101E1F29E010E04D0DF2AB6D75E
:101CD000000E00D0E552E552E7CFD9FF1200DACF6F
:101CE000E4FFE2CFDAFFE9CFE4FFEACFE4FFF6CF8B
:101CF000E4FFF7CFE4FFF5CFE4FFF3CFE4FFF4CF49
:101D0000E4FFFACFE4FF00EE00F0100EE80403E376
:101D1000EECFE4FFFBD700EE10F0080EE80403E37B
:101D2000EECFE4FFFBD7E652D9CFE6FFE1CFD9FFF4
:101D3000E652DF6A01017851DF5C15E2EA6ADF34BE
:101D4000FE0BEA36E96E6E0EE926010EEA22EECFB0
:101D500018F0EFCF19F004D019C0FAFF1850F96E3F
:101D6000FBDFDF2AE7D7E552E552E7CFD9FFE5529F
:101D700000EE17F0080EE80403E3E5CFEDFFFBD714
:101D800000EE0FF0100EE80403E3E5CFEDFFFBD704
:101D9000E5CFFAFFE5CFF4FFE5CFF3FFE5CFF5FFA1
:101DA000E5CFF7FFE5CFF6FFE5CFEAFFE5CFE9FFA7
:101DB000E5CFDAFF1100D9CFE6FFE1CFD9FF030E5F
:101DC000E126DF6ADE52010EDD6E020EDB6ADF6A9B
:101DD000080EDF5C45E2020EDB5042E1DF50E76EA9
:101DE000FD0EDBCFE9FFFE0EDBCFEAFFE750E92671
:101DF000000EEA22EF500EE0DF50E76EFB0EDBCF65
:101E0000E9FFFC0EDBCFEAFFE750E926000EEA22ED
:101E1000EF5005E1010EF36E020EF3CFDBFFDF5052
:101E2000E76EFD0EDBCFE9FFFE0EDBCFEAFFE750EA
:101E3000E926000EEA22EFCF10F0DF50E76EFB0E2E
:101E4000DBCFE9FFFC0EDBCFEAFFE750E926000E0F
:101E5000EA22EF50105C02E0010EDB6ADF2AB8D7FD
:101E6000010EDB5000D0106E030EE15C02E2E16A6D
:101E7000E552E16E1050E552E7CFD9FF1200D9CFFD
:101E8000E6FFE1CFD9FF0D0EE126AB0EDE6E330E7D
:101E9000DD6E0C0EDB6ADECFF6FFDDCFF7FF08004C
:101EA000F5CF10F0116A10BE11680001101C01E19D
:101EB000111C69E0D9CFE9FFDACFEAFF020EEECFBD
:101EC000DBFF030EEDCFDBFF0C0EDB6A080EF36EBB
:101ED0000C0EDBCFF4FFF350F45C2CE2020EDBCFF0
:101EE000F6FF030EDBCFF7FF040EF626000EF722F7
:101EF000F6CF12F0F7CF13F00C0EDB500F011224C7
:101F0000F66E000E1320F76E0800F550E66ED950FD
:101F1000040F106EDACF11F00C0EDB500F011024FD
:101F2000E96E000E1120EA6EE552E750EF6E0C0EDE
:101F3000DB2ACCD7FD0EDBCFE6FFFE0EDBCFE6FFC4
:101F4000D950040FE66E000EDA20E66E34DFE5525B
:101F5000E552E552E552000909E0DECF10F0DDCF91
:101F600011F010C0F3FF11C0F4FF10D0DECF10F05D
:101F7000DDCF11F00C0E1026000E112210C0DEFF76
:101F800011C0DDFF88D7F368F46A00D00D0EE15C64
:101F900002E2E16AE552E16EE552E7CFD9FF1200B5
:101FA000D9CFE6FFE1CFD9FF030EE126AB0EDE6EFF
:101FB000330EDD6E020EDB6ADECFF6FFDDCFF7FFFC
:101FC0000800F5CF10F0116A10BE11680001101C56
:101FD00001E1111C0FE0DECF10F0DDCF11F00C0E8F
:101FE0001026000E112210C0DEFF11C0DDFF020E10
:101FF000DB2AE2D7020EDB5000D0106E030EE15C4C
:1020000002E2E16AE552E16E1050E552E7CFD9FFF6
:102010001200D9CFE6FFE1CFD9FF020EE126AB0EC9
:10202000DE6E330EDD6EFD0EDBCF12F0FE0EDBCF6B
:1020300013F0DE50125C106EDD501358116E0C0E52
:102040000D6E0E6A10C008F011C009F023EC16F0F6
:1020500008C010F009C011F0105000D0106E020E30
:10206000E15C02E2E16AE552E16E1050E552E7CF31
:10207000D9FF1200D9CFE6FFE1CFD9FF050EE12647
:10208000AB0EF36E010EF3CFDBFF330EF36E020ED9
:10209000F3CFDBFFFE0EDB500C0DF350E76E010EAD
:1020A000DBCF10F0020EDBCF11F0E7501026000E50
:1020B0001122010E10C0DBFF020E11C0DBFF010E6A
:1020C000DBCF08F0020EDBCF09F0030E08C0DBFF08
:1020D000040E09C0DBFFDF6A080EDF5C29E2030E95
:1020E000DBCFF6FF040EDBCFF7FF040EF626000E63
:1020F000F722F6CF10F0F7CF11F0DF500F011024C8
:10210000F66E000E1120F76E0800F550E66EDF50F7
:10211000E76EFC0EDBCFE9FFFD0EDBCFEAFFE750F9
:10212000E926000EEA22E552E750EF6EDF2AD4D707
:10213000050EE15C02E2E16AE552E16EE552E7CFAD
:10214000D9FF1200D9CFE6FFE1CFD9FF020EE12679
:10215000FD0EDBCFDEFFDBCFDDFFDECFF6FFDDCF19
:10216000F7FF0900F5CF10F00800F5CF11F010C00F
:10217000F3FF11C0F4FF00D0020EE15C02E2E16A5D
:10218000E552E16EE552E7CFD9FF1200D9CFE6FF65
:10219000E1CFD9FF020EE126FD0EDBCFDEFFDBCF64
:1021A000DDFFDECFF6FFDDCFF7FF020EF626000ED5
:1021B000F7220900F5CF10F00800F5CF11F010C09C
:1021C000F3FF11C0F4FF00D0020EE15C02E2E16A0D
:1021D000E552E16EE552E7CFD9FF120005D820D8CD
:1021E000ACEC1AF0FCD7120092689368CF0E9410F2
:1021F000946E95689668DCEC29F0F00EC114C16EFF
:10220000C280140E6F6E01019F6B0101A06B010172
:10221000A16BD4EC0DF079EC07F027EC1EF0120066
:1022200062EC14F06F50800B01E0010E106E116A29
:10223000010E101801E1115002E095EC14F01200AB
:1022400004011051600BE842E842E842E842E842EB
:10225000106E116A1050111001E058D00401115194
:10226000070A53E00B0A51E0070A42E0010A2CE09A
:102270000B0A28E0020A26E0030A22E0080A12E01C
:10228000010A0EE00F0A0AE0030A01E03ED0010154
:10229000010E8E6F0101040E9F6F38D038D836D0F2
:1022A00093D834D00101010E8E6F0101A10E8F6F02
:1022B000010E906F0101A0930101010E936F26D0D2
:1022C000ABD824D000D922D00101010E8E6F0401B9
:1022D000145101018F6F906BA20E01018F27010E27
:1022E000010190230101A0930101010E936F0ED013
:1022F0000101010E8E6F04011451EA6AA20FE96E0A
:10230000010EEA2212C4EFFF01D000D01200800EAD
:102310000401105D58E104011351030A34E0010A7D
:1023200010E0030A01E04DD00101010E8E6F0101A2
:10233000EA0E8F6F0A0E906F120E0101936F946B6D
:1023400040D00101010E8E6F04011251F66EF76A42
:10235000D890F636F736EA0EF6260C0EF72209006C
:10236000F5CF8FF10A00F5CF90F1020E0101F76A67
:102370008F25F66E9051F7220900F5CF93F10A00F0
:10238000F5CF94F11ED00101010E8E6F04011251A0
:10239000F66EF76AD890F636F7362A0EF6260D0E48
:1023A000F7220900F5CF8FF10A00F5CF90F18FC128
:1023B000F6FF90C1F7FF0800F5500101936F946B91
:1023C00000D00101A08312000101010E8E6F0F0EDB
:1023D000E66E710EE66E0F0EE66E3EEC15F0E552FF
:1023E000E552E552010EE66EA20EE66E010EE66EB5
:1023F0003EEC15F0E552E552E55212C4A1F104019C
:10240000125104E10101050E9F6F05D00101060E76
:102410009F6F76EC04F012000401186B0401196B35
:10242000040110511F0B020A1BE0030A15E0010A08
:1024300001E03BD00101010E8E6F04011881010102
:10244000A051010B106E116A010E101801E111501C
:1024500002E10401188329D00101010E8E6F25D0FD
:102460000101010E8E6F040114510F0B080DF35082
:10247000116A000F106E040E112204011451800B1A
:1024800001E0010E040DF35001011024916F000EC4
:102490001120926F91C1E9FF92C1EAFFEF50040B46
:1024A00003E00401010E186F00D001018E050AE15E
:1024B0000101180E8F6F040E906F0101A0930101AE
:1024C000020E936F12000401120514E10401105171
:1024D0001F0B106E116A105011100CE10101010E5A
:1024E0008E6F030E0401115D03E10101A08102D092
:1024F0000101A091040112514FE1040110511F0B81
:10250000106E116A020E101801E1115045E104012C
:1025100014510F0B126E136A125013103DE001019B
:10252000010E8E6F040114510F0B080DF350116A48
:10253000000F106E040E112204011451800B01E0F3
:10254000010E040DF35001011024916F000E1120B3
:10255000926F030E0401115D07E1840E91C1E9FF42
:1025600092C1EAFFEF6E18D004011451800B01E014
:10257000010E106E116A010E101801E1115006E1F2
:1025800091C1E9FF92C1EAFFEF6A06D0880E91C1BE
:10259000E9FF92C1EAFFEF6E12006C50106E116AF3
:1025A0001050111010E1040100513C0BE842E842C8
:1025B000106E116A0D0E101801E1115002E10DD8D4
:1025C00001D016D809D06C50106E116A040E101884
:1025D00001E1115001E125D8120001018D6B0101CB
:1025E0008E6B0101936B946B20EC11F003D91200F8
:1025F000020E01018D5D13E1BBD804010051400BB7
:1026000001E0010E106E116A1050111004E1040176
:10261000C80E006F03D00401880E006F01D042D9AC
:102620001200040E01019F5D0CE112C46EFF6E509A
:10263000000804E20101050E9F6F03D00101030EA3
:102640009F6F01018D0513E114D804010451400B63
:1026500001E0010E106E116A1050111004E1040126
:10266000C80E046F03D00401880E046F01D01AD97C
:102670001200D9CFE6FFE1CFD9FF020EE12601011A
:10268000080E935D000E945905E293C1DEFF94C1DC
:10269000DDFF03D0080EDE6EDD6A04010493040141
:1026A0000491010EDB5004010413DFCF05F4000E8A
:1026B000DB500101935F010EDB500101945B0101CE
:1026C000180E916F040E926F0101A051020B01E0F0
:1026D000010E106E116A010E101801E1115020E177
:1026E000D9CFE9FFDACFEAFFEE50ED1018E08FC145
:1026F000F6FF90C1F7FF0800F55091C1E9FF92C1C4
:10270000EAFFEF6E0101912B000E922301018F2B46
:10271000000E9023DF06010E01E2DB06E1D71ED09A
:10272000D9CFE9FFDACFEAFFEE50ED1017E08FC105
:10273000E9FF90C1EAFFEF5091C1E9FF92C1EAFFC2
:10274000EF6E0101912B000E922301018F2B000EE1
:102750009023DF06010E01E2DB06E2D7020EE15C08
:1027600002E2E16AE552E16EE552E7CFD9FF1200DD
:10277000D9CFE6FFE1CFD9FF020EE126030E040117
:102780000015E76E010EE7CFDBFF01C4DFFFDE506F
:1027900001019327DD50010194230101180E8F6F71
:1027A000040E906FD9CFE9FFDACFEAFFEE50ED10BB
:1027B00017E08FC1E9FF90C1EAFFEF5091C1E9FF37
:1027C00092C1EAFFEF6E0101912B000E92230101ED
:1027D0008F2B000E9023DF06010E01E2DB06E2D70D
:1027E000020EE15C02E2E16AE552E16EE552E7CFFA
:1027F000D9FF120001018E510FE10401080E016F93
:102800000401100E026F040E036F0401840E006FAA
:102810000401840E046F44D004011051800B01E0C8
:10282000010E106E116A010E101801E1115025E120
:10283000010193510401165D0101945104011759DE
:1028400004E216C493F117C494F113DF0101010EE1
:102850008D6F0401080E016F0401100E026F040E4B
:10286000036F0401800E006F0401180E066F040E42
:10287000076F0401C80E046F13D00101020E8D6FA3
:102880000401056B0401C80E046F0401080E016FFA
:102890000401180E026F040E036F0401C80E006FCE
:1028A0006D98120001018D6B0401080E016F040187
:1028B000100E026F040E036F0401880E006F0401F6
:1028C000046B12006D50080B01E0010E106E116ACE
:1028D0001050111001E11AD80CD06D50080B01E016
:1028E000010E106E116A010E101801E1115001E184
:1028F00014D801019F0509E16DBA07D0686A696AB9
:10290000698069880101020E9F6F12006D6A696A11
:102910006D860101010E9F6F12006D6A696A6D96E6
:1029200001019F6B1200F9DF120001019F5101E1CB
:1029300044D06850040B04E06950040B01E042D815
:102940006D50020B01E0010E106E116A010E10189D
:1029500001E1115001E131D06850010B04E06950F0
:10296000010B01E060D86850100B04E06950100BB7
:1029700001E024D86850400B04E06950400B01E0AE
:1029800040D86850200B04E06950200B01E03BD890
:102990006850020B04E06950020B01E042D8030EBC
:1029A00001019F5D01E209D06850080B06E0695003
:1029B000080B03E0CDEC12F0689612006984689869
:1029C0006D8212006D926994689412000101A05109
:1029D000010B106E116A010E101801E1115010E187
:1029E000F1DF6D840101080EAD6F070EAE6F0101BE
:1029F000AD07000EAE5B0101AD51AE11F8E16D9473
:102A00001200689C12007050010B106E116A010ECA
:102A1000101801E1115003E152EC14F07090689A23
:102A20001200689212006A6A686A9F0E6B6E7B0ED3
:102A3000696E6E6A0F0EE66E710EE66E0F0EE66E32
:102A40001DD8E552E552E552160E706E6850080B1F
:102A500001E0010E106E116A010E101801E1115013
:102A600002E16896F3D76D9852EC14F00101A09141
:102A70000101A16B0101030E9F6F1200D9CFE6FF88
:102A8000E1CFD9FFFD0EDBCFE9FFFE0EDBCFEAFF82
:102A9000FC0EDB5004E0EE6AFC0EDB06F9D7E552D3
:062AA000E7CFD9FF120090
:0A2AA600706F727400000000000061
:102AB000FF006C69676874000000301EF4236275C3
:102AC00074746F6E0000E779BC86677265790000E8
:102AD0000000A1E6DCEA64697374616E63007392BE
:102AE000CE9E766F6C74000000009A60EF6C726589
:102AF000730000000000DA4AE8556C6564000000CD
:102B00000000D505170774656D70000000000BE725
:102B100025E26D6F6453656E4100BDDB8CE16D6F26
:102B20006453656E42001ECEB0D56D6F6453656E02
:102B3000430025B37DBD6D6F64416374410055153D
:102B40009A196D6F644163744200A10EA8116D6FF4
:0A2B5000644163744200290A4F0C2F
:062B5A00AA0EF66E0D0E3E
:102B6000F76E000EF86E01010900F550886F09003C
:102B7000F550896F03E1886701D03DD00900F55019
:102B8000836F0900F550846F0900F550856F0900C7
:102B90000900F550E96E0900F550EA6E09000900D8
:102BA0000900F550866F0900F550876F090009008C
:102BB000F6CF8AF1F7CF8BF1F8CF8CF183C1F6FF16
:102BC00084C1F7FF85C1F8FF0101865302E18753F5
:102BD00007E00900F550EE6E8607F8E28707F9D79F
:102BE0008AC1F6FF8BC1F7FF8CC1F8FF010188078E
:082BF000000E895BBFD7120043
:082BF800D9CFE6FFDACFE6FFBA
:102C0000E1CFD9FFE2CFDAFFFF0EE76EFC0EDBCF9C
:102C100010F0E75010161050A96EFB0EDB50A86E96
:102C2000A69EA69CA684F29E550EA76EAA0EA76E1F
:102C3000A682A6B2FED7F28EA694E552E5CFDAFFC1
:062C4000E7CFD9FF1200EE
:0A2C4600006A0EAE2CEF16F00D6CC4
:102C50000E1EE86A0E22001E09AE34EF16F0086C54
:102C6000091EE86A0922001E49EC16F009BE44EF6D
:102C700016F000AE000C086C091EE86A0922046C0C
:102C8000051EE86A0522000C00BE3BEF16F0018825
:022C9000FF0C37
:0E2C9200056A046A100EE76ED89008360936FF
:102CA000043605360D50045C0E50055805E30D50F2
:0E2CB000045E0E50055A082AE72EF0D71200D7
:022CBE00000E06
:102CC000F36E00EE00F0080E01D81200EA6002D0A8
:0E2CD000EE6AFCD7F350E9601200EE6AFCD702
:022CDE0013EEF3
:102CE00000F023EE00F0F86A019CADEC15F08BECDF
:0A2CF00016F0EEEC10F0FBD7120016
:062CFA00056A080EE76EFA
:102D0000D890093605360E50055C02E3056E092A97
:062D1000E72EF7D71200C8
:022D16001200A9
:052D1800526200000101
:032D1D0000479CD0
:102D2000464647624780464248DE478848A448C234
:102D30004784492049CA49E6490449C64A624A0CBF
:102D40004B284B464A084CA44B4E4C6A4C884B4689
:092D50004DE64C904DAC4DCA4C0F
:012D59000079
:022D5A00000077
:0533AB007E16BC166156
:1033B000646D696E000000BA3FB440706E7000002A
:1033C00000000024459645706F727400000000C430
:1033D0004E004F6178000000000000B45A265B6286
:1033E0007574746F6E0000465C865C6861636B7018
:1033F0000000005C6598656D6F746F7273000092D9
:1034000069CE696275746961000000046B746B6D4C
:103410006F644163744100046B746B6D6F6441634E
:10342000744200046B746B6D6F64416374430004F9
:103430006B746B6C65640000000000446DB66D6DCC
:103440006F6453656E4100446DB66D6D6F64536576
:103450006E4200446DB66D6D6F6453656E430044FB
:103460006DB66D6772657900000000446DB66D6CD5
:1034700069676874000000446DB66D726573000082
:10348000000000446DB66D766F6C7400000000445F
:103490006DB66D74656D7000000000446DB66D64AE
:0734A000697374616E6300A3
:0834A800D9CFE6FFE1CFD9FF07
:1034B000FE0EEA6ADB34FE0BEA36E96E9C0EE92664
:1034C000000EEA22FC0EDBCFEEFFFD0EDBCFEDFFA0
:1034D000E552E7CFD9FF1200D9CFE6FFE1CFD9FF00
:1034E000FE0EEA6ADB34FE0BEA36E96E9C0EE92634
:1034F000000EEA22EE6AED6AE552E7CFD9FF12002C
:10350000D9CFE6FFE1CFD9FFFE0EEA6ADB34FE0B2E
:10351000EA36E96EB80EE926000EEA22FC0EDBCF91
:10352000EEFFFD0EDBCFEDFFE552E7CFD9FF120036
:10353000D9CFE6FFE1CFD9FFFE0EEA6ADB34FE0BFE
:10354000EA36E96EB80EE926000EEA22EE6AED6A66
:10355000E552E7CFD9FF1200D9CFE6FFE1CFD9FF7F
:10356000040EE126DE52010EDD6E060E01019F5DA6
:103570000BE36D50020B01E0010E106E116A010E9B
:10358000101801E1115001E1F7D03F0EDF6E010E7E
:10359000DB50E824040DF3CFE9FFF4CFEAFF000E7F
:1035A000E926040EEA22EF50800B01E0E5D0010E7F
:1035B000DB50E824040DF3CFE9FFF4CFEAFF000E5F
:1035C000E926040EEA22EE52EF50D880DF540FE2D3
:1035D000010EDB50E824040DF3CFE9FFF4CFEAFF3E
:1035E000000EE926040EEA22EE52EFCFDFFF010EB5
:1035F000DB50E824040DF3CFE9FFF4CFEAFF000E1F
:10360000E926040EEA22020EE926000EEA22020E44
:10361000EECFDBFF030EEDCFDBFF020EDBCFE9FFCA
:10362000030EDBCFEAFFEF50F80BE842E842E84236
:10363000E96EEA6AD890E936EA36B80EE926000E55
:10364000EA22EECF10F0EFCF11F0020EDBCFE9FF50
:10365000030EDBCFEAFFEF50F80BE842E842E84206
:10366000E66E030EDF5CE66E010EDB50E824040D0F
:10367000F3CFE9FFF4CFEAFF000EE926040EEA22B9
:10368000020EE926000EEA22EECF12F0EFCF13F081
:10369000030E1226000E132212C0E6FF13C0E6FF2F
:1036A00004D011C0FAFF1050F96EFBDFE552E5526D
:1036B000E552E552010EDBCFE6FF7FEC1FF0E5524D
:1036C000E66E010EDB50E824040DF3CFE9FFF4CFE2
:1036D000EAFF000EE926040EEA22EE52E552E75018
:1036E000EF6E400E106E010EDB50E824040DF3CF98
:1036F000E9FFF4CFEAFF000EE926040EEA2210509B
:10370000EF16010EDB50E824040DF3CFE9FFF4CFF0
:10371000EAFF000EE926040EEA22EF50400B400AB1
:1037200001E0010E106E010EDB50E824040DF3CF12
:10373000E9FFF4CFEAFF000EE926040EEA2210505A
:10374000010BF36EF346F346F346F346F346F346B6
:10375000BF0EEF14F310EF6E880E106E010EDB50EB
:10376000E824040DF3CFE9FFF4CFEAFF000EE926C9
:10377000040EEA221050EF12040EE15C02E2E16A4C
:10378000E552E16EE552E7CFD9FF1200D9CFE6FF4F
:10379000E1CFD9FF060EE126DF68FD0EDB5001E127
:1037A00016D1FE0EDB50040DF3CFE9FFF4CFEAFF94
:1037B000610EE926000EEA22010EEECFDBFF020EBB
:1037C000EECFDBFF030EEECFDBFF040EEECFDBFF11
:1037D000D950010FE96EDACFEAFFEF500F0BE76E19
:1037E000050EE7CFDBFF050EDB50E824010F040DCB
:1037F000F3CFE9FFF4CFEAFF000EE926040EEA2238
:10380000EF50800B05E0DF50DF06000801E2EBD748
:10381000050EDB50E824010F040DF3CFE9FFF4CFD0
:10382000EAFF000EE926040EEA22EF50800B01E0C9
:10383000CED0FD0EDB503D0805E23D0EF36EFD0ED1
:10384000F3CFDBFFFE0EDB5000011F0BF36EF346E0
:10385000F346F346070ED415F310D46F0001D4914C
:10386000D493D495050EDB50E824010F040DF3CF5B
:10387000E9FFF4CFEAFF000EE926040EEA22020E69
:10388000E926000EEA22EE50EFCFEAFFE96ED4C03F
:10389000EFFFFD0EDB50030FE66E050EDB50E82454
:1038A000010F040DF3CFE9FFF4CFEAFF000EE92684
:1038B000040EEA22020EE926000EEA22EE50EFCFB5
:1038C000EAFFE96E010EE926000EEA22E552E75012
:1038D000EF6E050EDB50E824010F040DF3CFE9FF76
:1038E000F4CFEAFF000EE926040EEA22020EE926D2
:1038F000000EEA22EE50EFCFEAFFE96E020EE92653
:10390000000EEA22EF6AFD0EDB50030FE66E050E95
:10391000DB50E824010F040DF3CFE9FFF4CFEAFFF9
:10392000000EE926040EEA22EE52E552E750EF6E51
:10393000400E106E050EDB50E824010F040DF3CF8E
:10394000E9FFF4CFEAFF000EE926040EEA22105048
:10395000EF16050EDB50E824010F040DF3CFE9FF4D
:10396000F4CFEAFF000EE926040EEA22EF50400BE6
:10397000400A01E0010E106E050EDB50E824010F35
:10398000040DF3CFE9FFF4CFEAFF000EE926040EA1
:10399000EA221050010BF36EF346F346F346F3466A
:1039A000F346F346BF0EEF14F310EF6E880E106E61
:1039B000050EDB50E824010F040DF3CFE9FFF4CF2F
:1039C000EAFF000EE926040EEA221050EF12060E5E
:1039D000E15C02E2E16AE552E16EE552E7CFD9FF30
:1039E0001200D9CFE6FFE1CFD9FFE652DF6A0E0E13
:1039F000DF5C45E2DF50040DF3CFE9FFF4CFEAFFCF
:103A0000610EE926000EEA22EF50200B01E0010EC4
:103A1000106E116A010E101801E111502EE1DF50F5
:103A2000040DF3CFE9FFF4CFEAFF610EE926000EA3
:103A3000EA22FE0EDBCFEFFFDF50040DF3CFE9FFEC
:103A4000F4CFEAFF610EE926000EEA22EF9ADF507A
:103A5000040DF3CFE9FFF4CFEAFF610EE926000E73
:103A6000EA22020EE926000EEA22FC0EDBCFEEFF70
:103A7000FD0EDBCFEDFFDF5004D0DF2AB8D7FF0EFD
:103A800000D0E552E552E7CFD9FF1200D9CFE6FFCB
:103A9000E1CFD9FFFB0EDB50040DF3CFE9FFF4CFEC
:103AA000EAFF610EE926000EEA22EF50200B01E04A
:103AB000010E106E116A010E101801E1115033E170
:103AC000FB0EDB50040DF3CFE9FFF4CFEAFF610EEC
:103AD000E926000EEA22FE0EDBCFEFFFFB0EDB50E5
:103AE000040DF3CFE9FFF4CFEAFF610EE926000EE3
:103AF000EA22EF9AFB0EDB50040DF3CFE9FFF4CF7F
:103B0000EAFF610EE926000EEA22020EE926000E07
:103B1000EA22FC0EDBCFEEFFFD0EDBCFEDFFFB0E4E
:103B2000DB5003D002D0FF0E00D0E552E7CFD9FF23
:103B30001200D9CFE6FFE1CFD9FFE652DF6A0E0EC1
:103B4000DF5C1EE2DF50040DF3CFE9FFF4CFEAFFA4
:103B5000610EE926000EEA22020EE926000EEA2294
:103B6000EECF10F0EFCF11F0FD0EDB50101803E197
:103B7000FE0EDB50111802E1010E04D0DF2ADFD760
:103B8000000E00D0E552E552E7CFD9FF1200D9CFA1
:103B9000E6FFE1CFD9FFE652DF6A0E0EDF5C1EE2E0
:103BA000DF50040DF3CFE9FFF4CFEAFF610EE92601
:103BB000000EEA22020EE926000EEA22EECF10F0F5
:103BC000EFCF11F0FD0EDB50101803E1FE0EDB50BD
:103BD000111802E1DF5004D0DF2ADFD7FF0E00D03A
:103BE000E552E552E7CFD9FF1200D9CFE6FFE1CF8A
:103BF000D9FFE652DF6A0E0EDF5C1DE2DF50040DD6
:103C0000F3CFE9FFF4CFEAFF610EE926000EEA22C6
:103C1000EF8ADF50040DF3CFE9FFF4CFEAFF610E26
:103C2000E926000EEA22020EE926000EEA22EE6ADA
:103C3000ED6ADF2AE0D7EA0EF66E080EF76E08008E
:103C4000F5CF60F0E552E552E7CFD9FF1200D9CFAA
:103C5000E6FFE1CFD9FF080EE126C7DF610EDF6E78
:103C6000DE52640EDD6E6D0EF36E020EF3CFDBFFDF
:103C7000690EF36E030EF3CFDBFF6E0EF36E040ED0
:103C8000F3CFDBFF050EDB6A060EDB6A070EDB6A8D
:103C900096EC0DF0F3CF61F0F4CF62F0D9CFE6FFF0
:103CA000DACFE6FF3FEC0FF0E552E552F3CF63F0D9
:103CB000F4CF64F0E66A3FEC0BF0E552700EDF6E75
:103CC000DE526E0EDD6E700EF36E020EF3CFDBFF72
:103CD000030EDB6A040EDB6A050EDB6A060EDB6A86
:103CE000070EDB6AB5EC0DF0F3CF7DF0F4CF7EF07C
:103CF000D9CFE6FFDACFE6FF3FEC0FF0E552E55211
:103D0000F3CF7FF0F4CF80F06EEC32F0070EE66E6A
:103D1000DDEC1FF0E552080EE15C02E2E16AE552DB
:103D2000E16EE552E7CFD9FF1200D9CFE6FFE1CF30
:103D3000D9FF020EE1260E0EF36EFE0EDBCFF4FF6E
:103D4000F350F45C5DE2FE0EDB50040DF3CFE9FFAF
:103D5000F4CFEAFF610EE926000EEA22EF50200BB5
:103D600001E0010E106E116A1050111049E1FE0EB3
:103D7000DB50040DF3CFE9FFF4CFEAFF610EE92633
:103D8000000EEA22EF8AFE0EDB50040DF3CFE9FFAE
:103D9000F4CFEAFF610EE926000EEA22020EE926C0
:103DA000000EEA22EECFE6FFEFCFE6FFC6EC10F002
:103DB000E552E552F3CFDEFFF4CFDDFFDECF10F0AA
:103DC000DDCF11F0FE0EDBCFE6FF04D011C0FAFF0D
:103DD0001050F96EFBDFE552FE0EDB50040DF3CF01
:103DE000E9FFF4CFEAFF610EE926000EEA22020E97
:103DF000E926000EEA22EE6AED6A010E03D002D037
:103E0000000E00D0106E020EE15C02E2E16AE552A3
:103E1000E16E1050E552E7CFD9FF1200D9CFE6FF8F
:103E2000E1CFD9FFE652DF6A0E0EDF5C06E2DF2843
:103E3000E66E7BDFE552DF2AF7D7010E00D0E552B0
:103E4000E552E7CFD9FF1200D9CFE6FFE1CFD9FF86
:103E5000050EE126FE0EDB50040DF3CFE9FFF4CF93
:103E6000EAFF610EE926000EEA22EECFDFFF010E27
:103E7000EECFDBFF020EEECFDBFF030EEECFDBFF5C
:103E8000D9CFE9FFDACFEAFFEF500F0BE76E040E50
:103E9000E7CFDBFFFE0EDB500AE1630E106E040E6F
:103EA000116E10C0F3FF11C0F4FF1FD01ED0040E1E
:103EB000DB50E824010F040DF3CFE9FFF4CFEAFF54
:103EC000000EE926040EEA22020EE926000EEA227E
:103ED000EECF10F0EFCF11F0030E1026000E1122DE
:103EE00010C0F3FF11C0F4FF00D0050EE15C02E248
:103EF000E16AE552E16EE552E7CFD9FF1200D9CF72
:103F0000E6FFE1CFD9FF400E00D0E552E7CFD9FF61
:103F10001200D9CFE6FFE1CFD9FF400E00D0E55225
:103F2000E7CFD9FF1200D9CFE6FFE1CFD9FF020ECC
:103F3000E126010EDB6ADF6A0E0EDF5C18E2DF505D
:103F4000040DF3CFE9FFF4CFEAFF610EE926000E7E
:103F5000EA22EF50200B01E0010E106E116A1050A2
:103F6000111003E1010EDFCFDBFFDF2AE5D7010EE1
:103F7000DB5000D0106E020EE15C02E2E16AE55215
:103F8000E16E1050E552E7CFD9FF1200D9CFE6FF1E
:103F9000E1CFD9FFE652DF6A060EDF5C09E2DF50AF
:103FA000EA6A7B0FE96E010EEA22EF6ADF2AF4D794
:103FB000E552E552E7CFD9FF1200D9CFE6FFE1CFB6
:103FC000D9FF090EE1260001FF5101E069D0FE0E84
:103FD000DBCFFFF0A00EE66E440EE66EFFC0E6FFFC
:103FE00080EC1AF0E552E552E552FFC0E6FF24EC02
:103FF0001FF0E552F3CF79F1F4CF7AF1B5EC0DF083
:10400000F3CF81F1F4CF82F1AAEC32F0020806E19D
:10401000010EE66E06EC27F0E55204D0E66A06ECE7
:1040200027F0E552B3DF700EDF6EDE526F0EDD6EED
:10403000720EF36E020EF3CFDBFF740EF36E030EFF
:10404000F3CFDBFF040EDB6A050EDB6A060EDB6ACC
:10405000070EDB6A080EDB6A060EF36E080EDBCF76
:10406000F4FFF350F45C0EE2080EDB28E66ED9CFC5
:10407000E6FFDACFE6FFA5D8E552E552E552080E95
:10408000DB2AEAD7940EE66E420EE66E200EE66E4E
:104090004E0EE66EAFEC07F0E552E552E552E55202
:1040A000090EE15C02E2E16AE552E16EE552E7CF1A
:1040B000D9FF1200D9CFE6FFE1CFD9FFFE0EDBCF4B
:1040C000E6FF6CEC1AF0E552FE0EDBCFE6FF98EC53
:1040D0001AF0E552940EE66E420EE66E61EC0AF0BE
:1040E000E552E552E552E7CFD9FF1200D9CFE6FFFE
:1040F000E1CFD9FF050EE126DF6ADF6A0F0EDF5C34
:1041000052E2DF500C0DF3CFF6FFF4CFF7FFA60E0F
:10411000F6262A0EF7220A0EF626000EF7220900CE
:10412000010EF5CFDBFF0A00020EF5CFDBFFDF50FB
:104130000C0DF3CFF6FFF4CFF7FFA60EF6262A0EEE
:10414000F722080EF626000EF7220900030EF5CF1F
:10415000DBFF0A00040EF5CFDBFFFD0EDBCF10F016
:10416000FE0EDBCF11F0010EDBCF12F0020EDBCF23
:1041700013F01050125C1150135813E3030EDBCFF1
:1041800014F0040EDBCF15F0FD0EDBCF16F0FE0EA3
:10419000DBCF17F01450165C1550175802E3DF50B0
:1041A00004D0DF2AABD7000E00D0106E050EE15C04
:1041B00002E2E16AE552E16E1050E552E7CFD9FF25
:1041C0001200D9CFE6FFE1CFD9FF040EE126FD0EA4
:1041D000DBCFE6FFFE0EDBCFE6FF3FEC0FF0E55254
:1041E000E552020EF3CFDBFF030EF4CFDBFFD95015
:1041F000020FE96EDACFEAFFFF0EEE1801E1ED5093
:1042000031E0FC0EDBCFE6FF020EDBCFE6FF030E54
:10421000DBCFE6FF81C1E6FF46EC1DF0E552E5523B
:10422000E552E552E76EFC0EE7CFDBFF020EDBCF77
:10423000E6FF030EDBCFE6FFA2EC10F0E552E552FD
:10424000F3CFDEFFF4CFDDFFDECF10F0DDCF11F0D6
:10425000FC0EDBCFE6FF04D011C0FAFF1050F96E60
:10426000FBDFE552040EE15C02E2E16AE552E16E39
:10427000E552E7CFD9FF1200D9CFE6FFE1CFD9FF52
:10428000FE0EDBCFE6FF95EC1EF0E552E552E7CFE0
:10429000D9FF1200D9CFE6FFE1CFD9FF0A0EE12600
:1042A000DF6A060EDF5C01E3E3D0DF500A0DF3CFD7
:1042B000E9FFF4CFEAFF000EE926010EEA22060E1E
:1042C000E926000EEA22EECF12F0EFCF13F004D071
:1042D00013C0FAFF1250F96EFBDFF3CF10F0F4CFEA
:1042E00011F010C0E6FF11C0E6FF00DFE552E55215
:1042F000E76E010EE7CFDBFFDF50EA6A7B0FE96E66
:10430000010EEA22EF50F36E010EDB50F35C01E187
:10431000ADD0DF28E66EB0DFE552010EDB500C0DAC
:10432000F3CFF6FFF4CFF7FFA60EF6262A0EF722FC
:104330000800020EF5CFDBFF010EDB500C0DF3CFB2
:10434000F6FFF4CFF7FFA60EF6262A0EF722010E8F
:10435000F626000EF7220800030EF5CFDBFF010E54
:10436000DB500C0DF3CFF6FFF4CFF7FFA60EF626C9
:104370002A0EF722020EF626000EF7220800040E7F
:10438000F5CFDBFF010EDB500C0DF3CFF6FFF4CFC2
:10439000F7FFA60EF6262A0EF722030EF626000ECB
:1043A000F7220800050EF5CFDBFF010EDB500C0DE8
:1043B000F3CFF6FFF4CFF7FFA60EF6262A0EF7226C
:1043C000040EF626000EF7220800060EF5CFDBFFDE
:1043D000010EDB500C0DF3CFF6FFF4CFF7FFA60E66
:1043E000F6262A0EF722050EF626000EF722080002
:1043F000070EF5CFDBFF010EDB500C0DF3CFF6FF00
:10440000F4CFF7FFA60EF6262A0EF722060EF626A2
:10441000000EF7220800080EF5CFDBFF010EDB507F
:104420000C0DF3CFF6FFF4CFF7FFA60EF6262A0EFB
:10443000F722070EF626000EF7220800090EF5CF28
:10444000DBFFDF28E66ED950020FE66E000EDA20A1
:10445000E66EB7DEE552E552E552DF50EA6A7B0FC1
:10446000E96E010EEA22010EDBCFEFFFDF2A19D73A
:10447000940EE66E420EE66E200EE66E4E0EE66E70
:1044800025EC09F0E552E552E552E5520A0EE15CF1
:1044900002E2E16AE552E16EE552E7CFD9FF120090
:1044A000D9CFE6FFE1CFD9FFE652DF6AFD0EDBCFC1
:1044B000E9FFFE0EDBCFEAFFEF5001E025D0FD0E55
:1044C000DBCFE9FFFE0EDBCFEAFFEF50E66E79C1EE
:1044D000E9FF7AC1EAFFE552E750EF6E79C1E9FFE3
:1044E0007AC1EAFF010EE926000EEA22010EEF6E04
:1044F00079C1E9FF7AC1EAFF020EE926000EEA223D
:10450000EF6A030EDF6E01D000D0DFCFE6FFFFC001
:10451000E6FFC6EC1BF0E552E552E552E552E7CF67
:10452000D9FF1200D9CFE6FFE1CFD9FFBE0EE66E6C
:10453000450EE66EFE0EDBCFE6FF80EC1AF0E5528C
:10454000E552E552FE0EDBCFE6FF24EC1FF0E5520C
:10455000F3CFAFF1F4CFB0F1FE0EDBCFE6FF4AECC4
:1045600027F0E552F3CFE9FFF4CFEAFF080EE92682
:10457000000EEA22EECF10F0EFCF11F0010EE66E42
:1045800004D011C0FAFF1050F96EFBDFE552E5527E
:10459000E7CFD9FF1200D9CFE6FFE1CFD9FFFE0E5A
:1045A000DBCFE6FF6CEC1AF0E552FE0EDBCFE6FF48
:1045B00098EC1AF0E552E552E7CFD9FF1200D9CFB7
:1045C000E6FFE1CFD9FFE652DF6AFD0EDBCFE9FF60
:1045D000FE0EDBCFEAFFEF50010A28E0010A01E0FE
:1045E00040D0FD0EDBCFE9FFFE0EDBCFEAFFEF5040
:1045F000E66EAFC1E9FFB0C1EAFFE552E750EF6EEA
:10460000AFC1E9FFB0C1EAFF010EE926000EEA22C0
:10461000010EEF6EAFC1E9FFB0C1EAFF020EE9265D
:10462000000EEA22EF6A030EDF6E1CD0FD0EDBCF18
:10463000E9FFFE0EDBCFEAFFEF50E66EAFC1E9FF08
:10464000B0C1EAFFE552E750EF6EAFC1E9FFB0C17C
:10465000EAFF010EE926000EEA22EF68020EDF6E85
:1046600001D000D0DFCFE6FFFB0EDBCFE6FFC6ECCC
:104670001BF0E552E552E552E552E7CFD9FF1200B3
:10468000D9CFE6FFE1CFD9FFFE0EDB50E8B0928232
:10469000E8A09292E552E7CFD9FF1200D9CFE6FF0A
:1046A000E1CFD9FF030EE126DE6ADD6A020EDB6888
:1046B000C29AC298C296C284C282C250020B08E05B
:1046C000020EDBCFF3FFDB06F350000801E2F5D763
:1046D000C350DF6E010EC4CFDBFFDECF10F0DDCFA5
:1046E00011F010C0F3FF11C0F4FF00D0030EE15C25
:1046F00002E2E16AE552E16EE552E7CFD9FF12002E
:10470000D9CFE6FFE1CFD9FF020EE126C7DFF3CF15
:10471000DEFFF4CFDDFFD950010FE96EDACFEAFFFB
:10472000EF50800B02E0010E02D0000E00D0106EA0
:10473000020EE15C02E2E16AE552E16E1050E552E0
:10474000E7CFD9FF1200D9CFE6FFE1CFD9FFFE0EA8
:10475000DB50E8B08082E8A08092E552E7CFD9FF35
:104760001200D9CFE6FFE1CFD9FF030EE126020EFA
:10477000DB68C29AC298C296C294C282C250020B2F
:1047800008E0020EDBCFF3FFDB06F350000801E286
:10479000F5D7C350DF6E010EC4CFDBFFDECF10F0C4
:1047A000DDCF11F010C0F3FF11C0F4FF00D0030EF5
:1047B000E15C02E2E16AE552E16EE552E7CFD9FF42
:1047C0001200D9CFE6FFE1CFD9FFFE0EDB50E8B0F3
:1047D0009286E8A09296E552E7CFD9FF1200D9CF92
:1047E000E6FFE1CFD9FF030EE126DE6ADD6A020EA5
:1047F000DB68C29AC298C286C284C282C250020BCF
:1048000008E0020EDBCFF3FFDB06F350000801E205
:10481000F5D7C350DF6E010EC4CFDBFFDECF10F043
:10482000DDCF11F010C0F3FF11C0F4FF00D0030E74
:10483000E15C02E2E16AE552E16EE552E7CFD9FFC1
:104840001200D9CFE6FFE1CFD9FF020EE126C7DF84
:10485000F3CFDEFFF4CFDDFFD950010FE96EDACFE1
:10486000EAFFEF50800B02E0010E02D0000E00D0F4
:10487000106E020EE15C02E2E16AE552E16E105058
:10488000E552E7CFD9FF1200D9CFE6FFE1CFD9FF3C
:10489000FE0EDB50E8B08086E8A08096E552E7CFB8
:1048A000D9FF1200D9CFE6FFE1CFD9FF030EE126F1
:1048B000020EDB68C29AC298C286C294C282C250FB
:1048C000020B08E0020EDBCFF3FFDB06F35000081B
:1048D00001E2F5D7C350DF6E010EC4CFDBFFDECFA0
:1048E00010F0DDCF11F010C0F3FF11C0F4FF00D0C5
:1048F000030EE15C02E2E16AE552E16EE552E7CFC8
:10490000D9FF1200D9CFE6FFE1CFD9FFFE0EDB5071
:10491000E8B09682E8A09692E552E7CFD9FF120060
:10492000D9CFE6FFE1CFD9FF030EE126DE6ADD6ACB
:10493000020EDB68C29AC288C286C294C282C2508A
:10494000020B08E0020EDBCFF3FFDB06F35000089A
:1049500001E2F5D7C350DF6E010EC4CFDBFFDECF1F
:1049600010F0DDCF11F010C0F3FF11C0F4FF00D044
:10497000030EE15C02E2E16AE552E16EE552E7CF47
:10498000D9FF1200D9CFE6FFE1CFD9FF020EE12611
:10499000C7DFF3CFDEFFF4CFDDFFD950010FE96EA3
:1049A000DACFEAFFEF50800B02E0010E02D0000EDA
:1049B00000D0106E020EE15C02E2E16AE552E16EA7
:1049C0001050E552E7CFD9FF1200D9CFE6FFE1CF73
:1049D000D9FFFE0EDB50E8B08482E8A08492E55255
:1049E000E7CFD9FF1200D9CFE6FFE1CFD9FF030E01
:1049F000E126020EDB68C29AC288C286C284C282E5
:104A0000C250020B08E0020EDBCFF3FFDB06F350CF
:104A1000000801E2F5D7C350DF6E010EC4CFDBFF03
:104A2000DECF10F0DDCF11F010C0F3FF11C0F4FFA6
:104A300000D0030EE15C02E2E16AE552E16EE5526C
:104A4000E7CFD9FF1200D9CFE6FFE1CFD9FFFE0EA5
:104A5000DB50E8B0928AE8A0929AE552E7CFD9FFFE
:104A60001200D9CFE6FFE1CFD9FF030EE126DE6ABF
:104A7000DD6A020EDB68C29AC288C296C294C28204
:104A8000C250020B08E0020EDBCFF3FFDB06F3504F
:104A9000000801E2F5D7C350DF6E010EC4CFDBFF83
:104AA000DECF10F0DDCF11F010C0F3FF11C0F4FF26
:104AB00000D0030EE15C02E2E16AE552E16EE552EC
:104AC000E7CFD9FF1200D9CFE6FFE1CFD9FF020E21
:104AD000E126C7DFF3CFDEFFF4CFDDFFD950010FB2
:104AE000E96EDACFEAFFEF50800B02E0010E02D050
:104AF000000E00D0106E020EE15C02E2E16AE552A7
:104B0000E16E1050E552E7CFD9FF1200D9CFE6FF92
:104B1000E1CFD9FFFE0EDB50E8B0808AE8A0809A92
:104B2000E552E7CFD9FF1200D9CFE6FFE1CFD9FF99
:104B3000030EE126020EDB68C29AC288C296C284C6
:104B4000C282C250020B08E0020EDBCFF3FFDB068D
:104B5000F350000801E2F5D7C350DF6E010EC4CF59
:104B6000DBFFDECF10F0DDCF11F010C0F3FF11C07E
:104B7000F4FF00D0030EE15C02E2E16AE552E16E6F
:104B8000E552E7CFD9FF1200D9CFE6FFE1CFD9FF39
:104B9000FE0EDB50E8B09382E8A09392E552E7CF97
:104BA000D9FF1200D9CFE6FFE1CFD9FF030EE126EE
:104BB000DE6ADD6A020EDB68C28AC298C286C294CF
:104BC000C282C250020B08E0020EDBCFF3FFDB060D
:104BD000F350000801E2F5D7C350DF6E010EC4CFD9
:104BE000DBFFDECF10F0DDCF11F010C0F3FF11C0FE
:104BF000F4FF00D0030EE15C02E2E16AE552E16EEF
:104C0000E552E7CFD9FF1200D9CFE6FFE1CFD9FFB8
:104C1000020EE126C7DFF3CFDEFFF4CFDDFFD95070
:104C2000010FE96EDACFEAFFEF50800B02E0010ED0
:104C300002D0000E00D0106E020EE15C02E2E16ACA
:104C4000E552E16E1050E552E7CFD9FF1200D9CFFF
:104C5000E6FFE1CFD9FFFE0EDB50E8B08182E8A08D
:104C60008192E552E7CFD9FF1200D9CFE6FFE1CF1D
:104C7000D9FF030EE126020EDB68C28AC288C29603
:104C8000C294C282C250020B08E0020EDBCFF3FFD7
:104C9000DB06F350000801E2F5D7C350DF6E010ECA
:104CA000C4CFDBFFDECF10F0DDCF11F010C0F3FF7B
:104CB00011C0F4FF00D0030EE15C02E2E16AE552AC
:104CC000E16EE552E7CFD9FF1200D9CFE6FFE1CF81
:104CD000D9FFFE0EDB50E8B09386E8A09396E5522C
:104CE000E7CFD9FF1200D9CFE6FFE1CFD9FF030EFE
:104CF000E126020EDB68C28AC298C296C284C282D2
:104D0000C250020B08E0020EDBCFF3FFDB06F350CC
:104D1000000801E2F5D7C350DF6E010EC4CFDBFF00
:104D2000DECF10F0DDCF11F010C0F3FF11C0F4FFA3
:104D300000D0030EE15C02E2E16AE552E16EE55269
:104D4000E7CFD9FF1200D9CFE6FFE1CFD9FF020E9E
:104D5000E126DE6ADD6AC7DFF3CFDEFFF4CFDDFFD9
:104D6000D950010FE96EDACFEAFFEF50800B02E075
:104D7000010E02D0000E00D0106E020EE15C02E2C5
:104D8000E16AE552E16E1050E552E7CFD9FF12001B
:104D9000D9CFE6FFE1CFD9FFFE0EDB50E8B0818628
:104DA000E8A08196E552E7CFD9FF1200D9CFE6FF00
:104DB000E1CFD9FF030EE126020EDB68C28AC2985A
:104DC000C296C294C282C250020B08E0020EDBCF30
:104DD000F3FFDB06F350000801E2F5D7C350DF6EA6
:104DE000010EC4CFDBFFDECF10F0DDCF11F010C01D
:104DF000F3FF11C0F4FF00D0030EE15C02E2E16AB0
:104E0000E552E16EE552E7CFD9FF1200D9CFE6FFB8
:104E1000E1CFD9FFE652CF0EC1140009C16EF00EEA
:104E2000C1140009C16EC09EC70EC0143809C06EFF
:104E3000F80EC0140409C06EFE0EDB5003E0090E2C
:104E4000956E02D0836A9568DF6A060EDF5C1DE20C
:104E5000DF500A0DF3CFE9FFF4CFEAFF000EE92699
:104E6000010EEA22080EE926000EEA22EECF10F02B
:104E7000EFCF11F0010EE66E04D011C0FAFF105012
:104E8000F96EFBDFE552DF2AE0D7E552E552E7CFC6
:104E9000D9FF1200D9CFE6FFE1CFD9FFFE0EDB0428
:104EA0000A0DF3CF10F0F4CF11F0000E1026010E12
:104EB000112210C0F3FF11C0F4FF00D0E552E7CF7C
:104EC000D9FF1200D9CFE6FFE1CFD9FF280EE66E59
:104ED0004F0EE66EFE0EDBCFE6FF80EC1AF0E552D9
:104EE000E552E552FE0EDBCFE6FF24EC1FF0E55263
:104EF000F3CFABF1F4CFACF1E552E7CFD9FF12001D
:104F0000D9CFE6FFE1CFD9FFFE0EDBCFE6FF6CEC99
:104F10001AF0E552FE0EDBCFE6FF98EC1AF0E552F0
:104F2000E552E7CFD9FF1200D9CFE6FFE1CFD9FF95
:104F3000260EE126020EDB6A030EDB6A1C0EDB6A1C
:104F40001D0EDB6A1E0EDB6A1F0EDB6A200EDB6A9B
:104F5000210EDB6A220EDB6A230EDB6A240EDB6A7B
:104F6000250EDB6AFD0EDBCFE9FFFE0EDBCFEAFF8D
:104F7000EF50FF0A01E1EDD1FD0A01E15BD1030A27
:104F800001E1CCD0020A2BE0030A01E0E4D1FD0EDE
:104F9000DBCFE9FFFE0EDBCFEAFFEF50E66EABC1E1
:104FA000E9FFACC1EAFFE552E750EF6EABC1E9FFA4
:104FB000ACC1EAFF010EE926000EEA22020EEF6EF6
:104FC000ABC1E9FFACC1EAFF020EE926000EEA22FE
:104FD000EF6A030EF36E220EF3CFDBFFBDD1FD0EA1
:104FE000DBCFE9FFFE0EDBCFEAFFEF50E66EABC191
:104FF000E9FFACC1EAFFE552E750EF6EFD0EDBCFF3
:10500000E9FFFE0EDBCFEAFF010EE926000EEA22E1
:10501000230EEFCFDBFFFC0EDBCFE6FFFD0EDBCF79
:10502000E6FFFE0EDBCFE6FF34EC2DF0E552E55255
:10503000E552230EDB5063E0D950080FE66E000EF8
:10504000DA20E66ED950240FE66E000EDA20E66E06
:10505000B5EC2CF0E552E552E552E552E76E250E2F
:10506000E7CFDBFFABC1E9FFACC1EAFF010EE926E8
:10507000000EEA22240EDBCFEFFFABC1E9FFACC18B
:10508000EAFF020EE926000EEA22250EDBCFEFFF33
:10509000240EDB50030FE76E220EE7CFDBFF1C0E62
:1050A000DB6A240EDBCFF3FFDB06F350000826E2B9
:1050B000D950080F126EDACF13F01C0EDB500F011F
:1050C0001224E96E000E1320EA6EEF50E66EABC1BB
:1050D000E9FFACC1EAFFE9CF10F0EACF11F01C0EF6
:1050E000DB50030F0F011024E96E000E1120EA6E51
:1050F000E552E750EF6E1C0EDB2AD3D70ED0ABC1C2
:10510000E9FFACC1EAFF010EE926000EEA22EF6AD0
:10511000020EF36E220EF3CFDBFF1ED1FD0EDBCFAE
:10512000E9FFFE0EDBCFEAFFEF50E66EABC1E9FF11
:10513000ACC1EAFFE552E750EF6EFD0EDBCFE9FFB1
:10514000FE0EDBCFEAFF010EE926000EEA221D0E5D
:10515000EFCFDBFFFD0EDBCFE9FFFE0EDBCFEAFF7B
:10516000020EE926000EEA221E0EEFCFDBFFFD0E37
:10517000DBCFE9FFFE0EDBCFEAFF030EE926000ED0
:10518000EA22200EEFCFDBFFFD0EDBCFE9FFFE0EA4
:10519000DBCFEAFF040EE926000EEA22210EEFCF54
:1051A000DBFF200EDB50E66ED950040FE96EDACF3C
:1051B000EAFFE552E750EE6EED6A040EDBCF12F027
:1051C000050EDBCF13F012C013F0126A210EDB5074
:1051D00000011210106E13C011F0040E10C0DBFF9E
:1051E000050E11C0DBFF040EDBCFE6FF050EDBCFA3
:1051F000E6FF1E0EDBCFE6FF1D0EDBCFE6FF90ECD9
:105200002BF0E552E552E552E552E76E1F0EE7CF6F
:10521000DBFFABC1E9FFACC1EAFF010EE926000EDE
:10522000EA221F0EDBCFEFFF020EF36E220EF3CF4A
:10523000DBFF92D0FD0EDBCFE9FFFE0EDBCFEAFFF6
:10524000EF50E66EABC1E9FFACC1EAFFE552E750B3
:10525000EF6EFD0EDBCFE9FFFE0EDBCFEAFF010EA6
:10526000E926000EEA221D0EEFCFDBFFFD0EDBCF9D
:10527000E9FFFE0EDBCFEAFF020EE926000EEA226E
:10528000060EEFCFDBFFFD0EDBCFE9FFFE0EDBCF1F
:10529000EAFF030EE926000EEA22070EEFCFDBFF3E
:1052A000D950060FE66E000EDA20E66E020EE66EAC
:1052B000020EE66E1D0EDBCFE6FF33EC2AF0106E19
:1052C000050EE15E1050D9CFE6FFDACFE6FFD950E8
:1052D000020FE66E000EDA20E66ED9501D0FE66E64
:1052E000000EDA20E66E9FEC2AF0106E060EE15EEC
:1052F0001050E76E1F0EE7CFDBFFABC1E9FFACC17B
:10530000EAFF010EE926000EEA22010EDBCFEFFFD5
:10531000DECF10F0DDCF11F00D6A010E0E6E10C061
:1053200008F011C009F023EC16F004C010F005C01D
:1053300011F0ABC1E9FFACC1EAFF020EE926000E95
:10534000EA2210C0EFFF030EF36E220EF3CFDBFF55
:1053500003D0FF0001D000D0220EDBCFE6FFFB0E12
:10536000DBCFE6FFC6EC1BF0E552E552260EE15C12
:1053700002E2E16AE552E16EE552E7CFD9FF1200A1
:10538000D9CFE6FFE1CFD9FFFD0EDB50126E136AD5
:1053900012C013F0126AFE0EDB5000011224106ED0
:1053A000000E1320116E10C0F3FF11C0F4FF00D0E7
:1053B000E552E7CFD9FF1200AC6AAC9CAC9AAC982E
:1053C000AC96AC84AB6AAB8EAB9CAB98B86AB88633
:1053D000040EAF6EF28EF28C948E1200AB98949CF9
:1053E000AC8A1200948CAC9AAB880101616B1200FC
:1053F000AB98AC9A1200D9CFE6FFE1CFD9FFACA2AF
:10540000FED7FE0EDB50AD6EFE0EDB5000D0E55237
:10541000E7CFD9FF1200D9CFE6FFE1CFD9FF020EC7
:10542000E126980EDE6E3A0EDD6E9E50200B0CE1EA
:10543000DFCF10F0DF06010EDBCF11F001E2DB065B
:105440001050111001E0F1D79E9AAE5000D0106EAE
:10545000020EE15C02E2E16AE552E16E1050E552B3
:10546000E7CFD9FF1200D9CFE6FFE1CFD9FF020E77
:10547000E126010EDB6AB2DFE668BDDFE552E668D1
:10548000BADFE552FE0EDBCFE6FFB5DFE552106E68
:10549000010EDBCFE7FF1050E726010EE7CFDBFF61
:1054A000FD0EDB50020FE66EA6DFE552106E010E18
:1054B000DBCFE7FF1050E726010EE7CFDBFFFC0E46
:1054C000DBCFE6FF98DFE552106E010EDBCFE7FF82
:1054D0001050E726010EE7CFDBFFDF6AFD0EDB5041
:1054E000DF5C1BE2DF50E76EFA0EDBCFE9FFFB0E5D
:1054F000DBCFEAFFE750E926000EEA22EF50E66E26
:105500007ADFE552106E010EDBCFE7FF1050E72681
:10551000010EE7CFDBFFDF2AE1D7010EDB1CE66ED1
:105520006ADFE552ACA2FED75DDF020EE15C02E26B
:10553000E16AE552E16EE552E7CFD9FF1200D9CF1B
:10554000E6FFE1CFD9FF040EE126010EF36E030E54
:10555000F3CFDBFFFD0EDBCFE9FFFE0EDBCFEAFF73
:10556000EF6AFB0EDBCFE9FFFC0EDBCFEAFFEE6A52
:10557000ED6AF90EDBCFE9FFFA0EDBCFEAFFEE6A48
:10558000ED6A020EDB6ADF6A0101616B020EDB501D
:105590005EE1DF505CE1030EDB50050A3CE0010AEE
:1055A00028E0070A0DE0020A03E0030A01E04CD0FC
:1055B00032DFFF0803E1030EDB2A01D0DF2A46D0E9
:1055C0002ADFE66EFD0EDBCFE9FFFE0EDBCFEAFF42
:1055D000E552E750EF6EFD0EDBCFE9FFFE0EDBCFAD
:1055E000EAFFEF50FE0803E3030EDB2A01D0DF2AB7
:1055F0002DD011DFE76E010EE7CFDBFF200EF36E3B
:10560000010EDBCFF4FFF350F45C03E2030EDB2A60
:1056100001D0DF2A1BD0FFDEE66E01016151EA6A8C
:10562000410FE96E010EEA22E552E750EF6E0101EB
:10563000612B010EDB500101615D05E3010EF36E8C
:10564000020EF3CFDBFF02D0010EDF6E9FD7D0DE5C
:10565000DF5018E0FD0EDBCFE9FFFE0EDBCFEAFFE7
:10566000EF68FB0EDBCFE9FFFC0EDBCFEAFFEE6855
:10567000ED68F90EDBCFE9FFFA0EDBCFEAFFEE684B
:10568000ED6840D001014151E66EFB0EDBCFE9FF32
:10569000FC0EDBCFEAFFE552E750EE6EED6A010E3D
:1056A000DB50040A11E0070A01E024D00101425155
:1056B000E66EF90EDBCFE9FFFA0EDBCFEAFFE5522B
:1056C000E750EE6EED6A1ED043C1E6FF42C1E6FF31
:1056D00057DEE552E552F3CF10F0F4CF11F0F90E9A
:1056E000DBCFE9FFFA0EDBCFEAFF10C0EEFF11C0FF
:1056F000EDFF08D0F90EDBCFE9FFFA0EDBCFEAFFB2
:10570000EE68ED68DF5000D0106E040EE15C02E23E
:10571000E16AE552E16E1050E552E7CFD9FF120081
:10572000D9CFE6FFE1CFD9FF210EE126DF6AFD0EDA
:10573000DB50060A34E00E0A32E0060A30E0100AB6
:105740002EE03E0A2CE0020A2AE0120A28E0330A80
:1057500023E0070A21E0010A1FE00E0A1DE0070A04
:105760001BE0010A19E01D0A17E0010A15E0030A0F
:1057700013E0010A11E00B0A0FE0010A0DE0030A31
:105780000BE0010A09E0070A07E0010A05E0310A17
:1057900003E0030A01E006D0010EDF6E03D0020E23
:1057A000DF6E00D0FD0EDB50E76E010EE7CFDBFFB2
:1057B000FF0EE76EFB0EDBCF10F0FC0EDBCF11F01F
:1057C000E7501016116A020E10C0DBFFDF5001080F
:1057D00010E2FB0EDBCF10F0FC0EDBCF11F0000E61
:1057E0001016FF0E111611C010F0116A030E10C032
:1057F000DBFFD950010FE66E000EDA20E66E030ED5
:10580000E66EDF28E66EFE0EDBCFE6FF2CDE106EC6
:10581000050EE15E10503F0EE66E010EE66E3D0E87
:10582000E66E010EE66E3C0EE66E010EE66E87DE5B
:10583000106E060EE15E105000D0106E210EE15C7D
:1058400002E2E16AE552E16E1050E552E7CFD9FF7E
:105850001200D9CFE6FFE1CFD9FF000EE66EE66A6F
:10586000060EE66EFE0EDBCFE6FF5ADFE552E5528E
:10587000E552E552FD0EDB500EE0000EE66EE66AE4
:10588000080EE66EFE0EDBCFE6FF4ADFE552E5527C
:10589000E552E5520DD0E668030EE66E080EE66EA0
:1058A000FE0EDBCFE6FF3CDFE552E552E552E55266
:1058B000E552E7CFD9FF1200D9CFE6FFE1CFD9FFFC
:1058C000FC0EDBCF10F0FD0EDBCF11F00001800EDF
:1058D000111402E0FB0EDB70FC0EDBCF12F0FD0EAC
:1058E000DBCF13F00001800E13140BE0FC0EDBCFB6
:1058F00010F0FD0EDBCF11F0106C111E000E112206
:1059000006D0FC0EDBCF10F0FD0EDBCF11F0FC0E4D
:1059100010C0DBFFFD0E11C0DBFFFB0EDB50106E75
:10592000116A0A0ED89010361136E806FBE1D950FC
:10593000FC0FE96EFF0EDA20EA6E1050EE121150E5
:10594000ED12FC0EDBCFE6FFFD0EDBCFE6FF200EF7
:10595000E66EFE0EDBCFE6FFE3DEE552E552E552F2
:10596000E552E552E7CFD9FF1200D9CFE6FFE1CFEC
:10597000D9FF030EE126DF6A010EDB6A020EDB6A45
:10598000D59EF29E040EDF5C13E245DDE66EDF502D
:10599000DF2AE76EFB0EDBCFE9FFFC0EDBCFEAFF71
:1059A000E750E926000EEA22E552E750EF6EEAD70B
:1059B000DF04E76EFB0EDBCFE9FFFC0EDBCFEAFF77
:1059C000E750E926000EEA22020EEFCFDBFF020EBF
:1059D000DB50200803E3020EDB5009E1FD0EDBCFB4
:1059E000E9FFFE0EDBCFEAFFEF6A010E31D0020EB7
:1059F000DB50F36E010EDBCFF4FFF350F45C16E2E4
:105A00000ADDE66E010EDB50DF24E76EFB0EDBCF16
:105A1000E9FFFC0EDBCFEAFFE750E926000EEA22A1
:105A2000E552E750EF6E010EDB2AE1D7D58EF28EFC
:105A3000DFDC010EDB50DF24E66EFD0EDBCFE9FF7D
:105A4000FE0EDBCFEAFFE552E750EF6E000E00D00E
:105A5000106E030EE15C02E2E16AE552E16E105065
:105A6000E552E7CFD9FF1200D9CFE6FFE1CFD9FF4A
:105A7000E652020EDF6EB2DCFC0EDB50DF5C12E29F
:105A8000DF50DF2AE76EFD0EDBCFE9FFFE0EDBCF36
:105A9000EAFFE750E926000EEA22EF50E66EABDCA3
:105AA000E552EAD7ACA2FED79DDCE552E552E7CF3E
:105AB000D9FF1200D9CFE6FFE1CFD9FF4E0EE66E37
:105AC0005B0EE66EFE0EDBCFE6FF80EC1AF0E552D1
:105AD000E552E552FE0EDBCFE6FF24EC1FF0E55267
:105AE000F3CFA7F1F4CFA8F1FE0EDBCFE6FF4AEC2F
:105AF00027F0E552F3CFE9FFF4CFEAFF080EE926DD
:105B0000000EEA22EECF10F0EFCF11F0010EE66E9C
:105B100004D011C0FAFF1050F96EFBDFE552E552D8
:105B2000E7CFD9FF1200D9CFE6FFE1CFD9FFFE0EB4
:105B3000DBCFE6FF6CEC1AF0E552FE0EDBCFE6FFA2
:105B400098EC1AF0E552E552E7CFD9FF1200D9CF11
:105B5000E6FFE1CFD9FFE652DF6AFD0EDBCFE9FFBA
:105B6000FE0EDBCFEAFFEF50FF0A5CE0FE0A28E002
:105B7000010A01E059D0FD0EDBCFE9FFFE0EDBCFBD
:105B8000EAFFEF50E66EA7C1E9FFA8C1EAFFE552C0
:105B9000E750EF6EA7C1E9FFA8C1EAFF010EE926B1
:105BA000000EEA22010EEF6EA7C1E9FFA8C1EAFFCD
:105BB000020EE926000EEA22EF6A030EDF6E35D0F0
:105BC000FD0EDBCFE9FFFE0EDBCFEAFFEF50E66E06
:105BD000A7C1E9FFA8C1EAFFE552E750EF6EFB0E4F
:105BE000DBCFE6FF4AEC27F0E552F3CFE9FFF4CF35
:105BF000EAFFEECF10F0EFCF11F004D011C0FAFFA2
:105C00001050F96EFBDFE66EA7C1E9FFA8C1EAFFFD
:105C1000010EE926000EEA22E552E750EF6E020E71
:105C2000DF6E03D0FF0001D000D0DFCFE6FFFB0E18
:105C3000DBCFE6FFC6EC1BF0E552E552E552E5523C
:105C4000E7CFD9FF1200D9CFE6FFE1CFD9FFB20EDF
:105C5000E66E5C0EE66EFE0EDBCFE6FF80EC1AF021
:105C6000E552E552E552FE0EDBCFE6FF24EC1FF0D5
:105C7000E552F3CFA5F1F4CFA6F1836A9568E5521A
:105C8000E7CFD9FF1200D9CFE6FFE1CFD9FFFE0E53
:105C9000DBCFE6FF6CEC1AF0E552FE0EDBCFE6FF41
:105CA00098EC1AF0E552836A9568E552E7CFD9FF80
:105CB0001200D9CFE6FFE1CFD9FF020EE126DF6A5D
:105CC000FD0EDBCFE9FFFE0EDBCFEAFFEF50020A4D
:105CD00001E106D1040A01E1EFD0030A01E1D8D0C5
:105CE000010A01E1B6D0070A6FE0020A28E0010AC2
:105CF00001E037D1FD0EDBCFE9FFFE0EDBCFEAFF7F
:105D0000EF50E66EA5C1E9FFA6C1EAFFE552E750F4
:105D1000EF6EA5C1E9FFA6C1EAFF010EE926000E5C
:105D2000EA22020EEF6EA5C1E9FFA6C1EAFF020E4C
:105D3000E926000EEA22EF6A030EDF6E13D1FD0E94
:105D4000DBCFE9FFFE0EDBCFEAFFEF50E66EA5C129
:105D5000E9FFA6C1EAFFE552E750EF6EFD0EDBCF8B
:105D6000E9FFFE0EDBCFEAFF010EE926000EEA2274
:105D7000010EEFCFDBFFFD0EDBCFE9FFFE0EDBCF29
:105D8000EAFF020EE926000EEA22EF500EE1010EB4
:105D9000F36E010EDB5004E0D890F336E806FCE128
:105DA000F350E81C9514956E0CD0010EF36E010EA5
:105DB000DB5004E0D890F336E806FCE1F350951090
:105DC000956E010EDF6ECED0FD0EDBCFE9FFFE0E2D
:105DD000DBCFEAFFEF50E66EA5C1E9FFA6C1EAFFFF
:105DE000E552E750EF6EFD0EDBCFE9FFFE0EDBCF95
:105DF000EAFF010EE926000EEA22010EEFCFDBFFDB
:105E0000FD0EDBCFE9FFFE0EDBCFEAFF020EE92637
:105E1000000EEA22EF040DE1010EF36E010EDB50DD
:105E200004E0D890F336E806FCE1F3508310836E6B
:105E30000DD0010EF36E010EDB5004E0D890F33666
:105E4000E806FCE1F350E81C8314836E010EDF6E5C
:105E500089D0FD0EDBCFE9FFFE0EDBCFEAFFEF506E
:105E6000E66EA5C1E9FFA6C1EAFFE552E750EF6E75
:105E7000FD0EDBCFE9FFFE0EDBCFEAFF010EE926C8
:105E8000000EEA22EF50836E956A010EDF6E6AD033
:105E9000FD0EDBCFE9FFFE0EDBCFEAFFEF50E66E33
:105EA000A5C1E9FFA6C1EAFFE552E750EF6E836A9C
:105EB0009568010EDF6E56D0FD0EDBCFE9FFFE0EBA
:105EC000DBCFEAFFEF50E66EA5C1E9FFA6C1EAFF0E
:105ED000E552E750EF6E836A956A010EDF6E42D09D
:105EE000FD0EDBCFE9FFFE0EDBCFEAFFEF50E66EE3
:105EF000A5C1E9FFA6C1EAFFE552E750EF6EFD0E2E
:105F0000DBCFE9FFFE0EDBCFEAFF010EE926000E34
:105F1000EA22010EEFCFDBFF010EDBCF10F0010E06
:105F2000F36E010EDB5004E0D890F336E806FCE196
:105F3000F350831410C0E7FFE75204E0E8427F0B00
:105F4000E706FCE1E66EA5C1E9FFA6C1EAFF010E86
:105F5000E926000EEA22E552E750EF6E020EDF6EF0
:105F600001D000D0DFCFE6FFFB0EDBCFE6FFC6ECB3
:105F70001BF0E552E552020EE15C02E2E16AE552F5
:105F8000E16EE552E7CFD9FF1200D9CFE6FFE1CFAE
:105F9000D9FFD950FD0FE96EFF0EDA20EA6EEE5000
:105FA000ED1004E1839A839C839209D08382FC0ED6
:105FB000DB0403E1839A838C02D0838A839CE552BD
:105FC000E7CFD9FF1200D9CFE6FFE1CFD9FFD950F3
:105FD000FD0FE96EFF0EDA20EA6EEE50ED1004E1DF
:105FE0008398839E839409D08384FC0EDB5003E165
:105FF0008398838E02D08388839EE552E7CFD9FFB2
:106000001200D9CFE6FFE1CFD9FFFC0EDBCFE6FFD0
:10601000FD0EDBCFE6FFFE0EDBCFE6FF64C1E6FF41
:106020005CEC2CF0E552E552E552E552E552E7CF43
:10603000D9FF1200D9CFE6FFE1CFD9FFFC0EDBCFAD
:10604000E6FFFD0EDBCFE6FFFE0EDBCFE6FF62C113
:10605000E6FF5CEC2CF0E552E552E552E552E552E4
:10606000E7CFD9FF1200E66A000EE66EE66A05D0B9
:106070006BC1FAFF01016A51F96EFADFE552E55290
:10608000E5521200E66A580EE66E020EE66E05D084
:106090006BC1FAFF01016A51F96EFADFE552E55270
:1060A000E552660EE66E600EE66E880EE66E130E24
:1060B000E66E25EC09F0E552E552E552E552120094
:1060C000010EE66E580EE66E020EE66E05D06BC14E
:1060D000FAFF01016A51F96EFADFE552E552E55225
:1060E000840EE66E600EE66E880EE66E130EE66EA9
:1060F00025EC09F0E552E552E552E5521200E66A58
:10610000000EE66EE66A05D069C1FAFF010168512A
:10611000F96EFADFE552E552E552C00EE66E600E0A
:10612000E66E880EE66E130EE66E25EC09F0E5527B
:10613000E552E552E5521200010EE66E580EE66E8B
:10614000020EE66E05D069C1FAFF01016851F96ED1
:10615000FADFE552E552E552FE0EE66E600EE66E9F
:10616000880EE66E130EE66E25EC09F0E552E55258
:10617000E552E5521200E66A580EE66E020EE66E31
:1061800005D069C1FAFF01016851F96EFADFE552E5
:10619000E552E552380EE66E610EE66E880EE66E4A
:1061A000130EE66E25EC09F0E552E552E552E55294
:1061B0001200760EE66E610EE66ED00EE66E070EEB
:1061C000E66EAFEC07F0E552E552E552E5521200FB
:1061D000D9CFE6FFE1CFD9FF050EE126020EDB6A3B
:1061E000030EDB6A2A0EDF6EDE52010EDD6ED9CFA2
:1061F000E6FFDACFE6FF020EE66E020EE66E62C141
:10620000E6FF33EC2AF0106E050EE15E1050FD0E35
:10621000DBCFE6FFFE0EDBCFE6FFD950020FE66EC6
:10622000000EDA20E66ED950040FE66E000EDA207A
:10623000E66E9FEC2AF0106E060EE15E1050050E21
:10624000E15C02E2E16AE552E16EE552E7CFD9FF97
:106250001200D9CFE6FFE1CFD9FFFD0EDBCFE9FF7A
:10626000FE0EDBCFEAFFEE68ED6AE552E7CFD9FF1D
:106270001200D9CFE6FFE1CFD9FFFD0EDBCFE6FF5D
:10628000FE0EDBCFE6FF05D09BC1FAFF01019A515C
:10629000F96EFADFE552E552E552E7CFD9FF120079
:1062A000D9CFE6FFE1CFD9FF010EE66EFE0EDBCFC0
:1062B000E6FF29EC2CF0E552E552000EE66EE66AA8
:1062C0001A0EE66EFE0EDBCFE6FF90EC2BF0E552E9
:1062D000E552E552E552000EE66EE66A1B0EE66EEA
:1062E000FE0EDBCFE6FF90EC2BF0E552E552E552D7
:1062F000E5525F0EE66EE66A1C0EE66EFE0EDBCF22
:10630000E6FF90EC2BF0E552E552E552E5525F0EC8
:10631000E66EE66A1D0EE66EFE0EDBCFE6FF90EC43
:106320002BF0E552E552E552E552960EE66EE66A2E
:10633000300EE66EFE0EDBCFE6FF90EC2BF0E55262
:10634000E552E552E552E668030EE66E0E0EE66E85
:10635000FE0EDBCFE6FF90EC2BF0E552E552E55266
:10636000E552550EE66EE66A0B0EE66EFE0EDBCFCC
:10637000E6FF90EC2BF0E552E552E552E5523C0E7B
:10638000E66EE66A0C0EE66EFE0EDBCFE6FF90ECE4
:106390002BF0E552E552E552E552BE0EE66EE66A96
:1063A0000D0EE66EFE0EDBCFE6FF90EC2BF0E55215
:1063B000E552E552E552960EE66EE66A050EE66E89
:1063C000FE0EDBCFE6FF90EC2BF0E552E552E552F6
:1063D000E552E552E7CFD9FF1200D9CFE6FFE1CF72
:1063E000D9FF060EE126050EDB6A020EF36E050EDE
:1063F000DBCFF4FFF350F45C3DE2040EDB68000EEB
:10640000E66EE66A010EE66EE66A9CC1E6FF33ECD4
:106410002AF0106E050EE15E1050D950020FE66EA4
:10642000000EDA20E66ED9CFE6FFDACFE6FFD950CC
:10643000040FE66E000EDA20E66E9FEC2AF0106E76
:10644000060EE15E105001019C519C2BF36E040E70
:10645000DB50F35C0CE101019D519D2BEA6A6C0F4E
:10646000E96E010EEA22040EDBCFEFFF03D0050E2A
:10647000DB2ABBD7020E01019D5D13E36CC162F103
:106480000101636B62C1E6FF0BDFE5526DC164F190
:106490000101010E656F64C1E6FF02DFE55289DE8E
:1064A00013D0FD0E01019C5D01E10ED0DA0EE66E07
:1064B000630EE66E880EE66E130EE66E25EC09F0AE
:1064C000E552E552E552E552060EE15C02E2E16A70
:1064D000E552E16EE552E7CFD9FF1200070E8214B4
:1064E000040817E10101C60E686F5F0E696F0101B4
:1064F0008A0E6A6F5F0E6B6F0101020E9E6F0101C3
:10650000520E9A6F620E9B6F090E956E836A51DE72
:1065100020D00101340E686F600E696F0101020E18
:106520006A6F600E6B6F0101010E9E6F0101D00E4C
:106530009A6F610E9B6FDA0EE66E630EE66ED00EFA
:10654000E66E070EE66EAFEC07F0E552E552E55257
:10655000E552120001019E5100D01200D9CFE6FF92
:10656000E1CFD9FFC00EE66E650EE66EFE0EDBCF04
:10657000E6FF80EC1AF0E552E552E552FE0EDBCF65
:10658000E6FF24EC1FF0E552F3CF66F1F4CF67F19C
:10659000E552E7CFD9FF1200D9CFE6FFE1CFD9FF0F
:1065A000FE0EDBCFE6FF6CEC1AF0E552FE0EDBCF01
:1065B000E6FF98EC1AF0E552E552E7CFD9FF12005A
:1065C000D9CFE6FFE1CFD9FF0C0EE126DF6AFD0E41
:1065D000DBCFE9FFFE0EDBCFEAFFEF50030A01E15C
:1065E000B1D1020A01E1DFD0030A46E0060A28E041
:1065F000040A01E0BAD1FD0EDBCFE9FFFE0EDBCFCE
:10660000EAFFEF50E66E66C1E9FF67C1EAFFE552B7
:10661000E750EF6E66C1E9FF67C1EAFF010EE926A8
:10662000000EEA22020EEF6E66C1E9FF67C1EAFFC3
:10663000020EE926000EEA22EF6A030EDF6E96D103
:10664000FD0EDBCFE9FFFE0EDBCFEAFFEF50E66E7B
:1066500066C1E9FF67C1EAFFE552E750EF6E66C128
:10666000E9FF67C1EAFF010EE926000EEA229EC19A
:10667000EFFF020EDF6E7AD1FD0EDBCFE9FFFE0EDB
:10668000DBCFEAFFEF50E66E66C1E9FF67C1EAFFC4
:10669000E552E750EF6EFD0EDBCFE9FFFE0EDBCFDC
:1066A000EAFF010EE926000EEA22070EEFCFDBFF1C
:1066B000FD0EDBCFE9FFFE0EDBCFEAFF020EE9267F
:1066C000000EEA22010EEFCFDBFFFD0EDBCFE9FF6C
:1066D000FE0EDBCFEAFF030EE926000EEA22050ECE
:1066E000EFCFDBFFFD0EDBCFE9FFFE0EDBCFEAFFD6
:1066F000040EE926000EEA22030EEFCFDBFF050EA3
:10670000DB50E66ED950080FE96EDACFEAFFE552AA
:10671000E750EE6EED6A080EDBCF12F0090EDBCF0C
:1067200013F012C013F0126A030EDB5000011210B6
:10673000106E13C011F0080E10C0DBFF090E11C05F
:10674000DBFF070EDB5019E1010EDBCFE6FF010E88
:10675000E552D880E754E66E080EDBCFE6FF090E5F
:10676000DBCFE6FF05D069C1FAFF01016851F96E80
:10677000FADFE552E552E55213D0010EDBCFE6FF1A
:10678000080EDBCFE6FF090EDBCFE6FF05D06BC1BD
:10679000FAFF01016A51F96EFADFE552E552E5525E
:1067A000010EDF6EE3D0FD0EDBCFE9FFFE0EDBCF87
:1067B000EAFFEF50E66E66C1E9FF67C1EAFFE55206
:1067C000E750EF6EFD0EDBCFE9FFFE0EDBCFEAFFF9
:1067D000010EE926000EEA22010EEFCFDBFFFD0ECF
:1067E000DBCFE9FFFE0EDBCFEAFF020EE926000E4B
:1067F000EA22050EEFCFDBFFFD0EDBCFE9FFFE0E39
:10680000DBCFEAFF030EE926000EEA22030EEFCFEC
:10681000DBFF050EDB50E66ED950080FE96EDACFCC
:10682000EAFFE552E750EE6EED6A080EDBCF12F09C
:10683000090EDBCF13F012C013F0126A030EDB5007
:1068400000011210106E13C011F0080E10C0DBFF13
:10685000090E11C0DBFFFD0EDBCFE9FFFE0EDBCF23
:10686000EAFF040EE926000EEA22020EEFCFDBFF5C
:10687000FD0EDBCFE9FFFE0EDBCFEAFF050EE926BA
:10688000000EEA22060EEFCFDBFFFD0EDBCFE9FFA5
:10689000FE0EDBCFEAFF060EE926000EEA22040E0A
:1068A000EFCFDBFF060EDB50E66ED9500A0FE96E24
:1068B000DACFEAFFE552E750EE6EED6A0A0EDBCF63
:1068C00012F00B0EDBCF13F012C013F0126A040E9D
:1068D000DB5000011210106E13C011F00A0E10C030
:1068E000DBFF0B0E11C0DBFF010EDBCFE6FF010E5D
:1068F000E552D880E754E66E080EDBCFE6FF090EBE
:10690000DBCFE6FF05D069C1FAFF01016851F96EDE
:10691000FADFE552E552E552020EDBCFE6FF0A0E42
:10692000DBCFE6FF0B0EDBCFE6FF05D06BC1FAFF36
:1069300001016A51F96EFADFE552E552E552010EA6
:10694000DF6E14D0FD0EDBCFE9FFFE0EDBCFEAFFDA
:10695000EF50E66E66C1E9FF67C1EAFFE552E75016
:10696000EF6E27DC010EDF6E01D000D0DFCFE6FF37
:10697000FB0EDBCFE6FFC6EC1BF0E552E5520C0E3A
:10698000E15C02E2E16AE552E16EE552E7CFD9FF50
:106990001200D9CFE6FFE1CFD9FFF60EE66E690E01
:1069A000E66EFE0EDBCFE6FF80EC1AF0E552E55214
:1069B000E552FE0EDBCFE6FF24EC1FF0E552F3CFED
:1069C000A9F1F4CFAAF1E552E7CFD9FF1200D9CF50
:1069D000E6FFE1CFD9FFFE0EDBCFE6FF6CEC1AF04D
:1069E000E552FE0EDBCFE6FF98EC1AF0E552E552D9
:1069F000E7CFD9FF1200D9CFE6FFE1CFD9FF030ED1
:106A0000E126DF6A030EF36E010EF3CFDBFF020E09
:106A1000DB6AFD0EDBCFE9FFFE0EDBCFEAFFEF50B6
:106A2000FF0A5AE0FC0A1FE0010A01E057D0FD0E00
:106A3000DBCFE9FFFE0EDBCFEAFFEF50E66EA9C128
:106A4000E9FFAAC1EAFFE552E750EF6EA9C1E9FFED
:106A5000AAC1EAFF010EE926000EEA22170EEF6E28
:106A6000020EDF6E3CD0FD0EDBCFE9FFFE0EDBCF6A
:106A7000EAFFEF50E66EA9C1E9FFAAC1EAFFE552BD
:106A8000E750EF6ED950010FE66E000EDA20E66E89
:106A900039EC31F0E552E552010EDBCF10F0020E79
:106AA000DBCF11F00D6A010E0E6E10C008F011C0A0
:106AB00009F023EC16F004C010F005C011F0A9C1D4
:106AC000E9FFAAC1EAFF010EE926000EEA2210C082
:106AD000EFFF020EDF6E03D0FF0001D000D0DFCF4A
:106AE000E6FFFB0EDBCFE6FFC6EC1BF0E552E552FE
:106AF000030EE15C02E2E16AE552E16EE552E7CFA6
:106B0000D9FF1200D9CFE6FFE1CFD9FF060EE66E1E
:106B10006C0EE66EFE0EDBCFE6FF80EC1AF0E5525F
:106B2000E552E552FE0EDBCFE6FF24EC1FF0E55206
:106B3000F3CFA3F1F4CFA4F1FE0EDBCFE6FF4AECD6
:106B400027F0E552F3CFE9FFF4CFEAFF080EE9267C
:106B5000000EEA22EECF10F0EFCF11F0E66A04D07B
:106B600011C0FAFF1050F96EFBDFE552E552E7CF96
:106B7000D9FF1200D9CFE6FFE1CFD9FFFE0EDBCF60
:106B8000E6FF4AEC27F0E552F3CFE9FFF4CFEAFF46
:106B9000040EE926000EEA22EECF10F0EFCF11F03E
:106BA000E66A04D011C0FAFF1050F96EFBDFE5521F
:106BB000FE0EDBCFE6FF4AEC27F0E552F3CFE9FF0C
:106BC000F4CFEAFF080EE926000EEA22EECF10F01D
:106BD000EFCF11F0010EE66E04D011C0FAFF105095
:106BE000F96EFBDFE552FE0EDBCFE6FF6CEC1AF030
:106BF000E552FE0EDBCFE6FF98EC1AF0E552E552C7
:106C0000E7CFD9FF1200D9CFE6FFE1CFD9FFE65297
:106C1000DF6AFD0EDBCFE9FFFE0EDBCFEAFFEF50B0
:106C2000FF0A01E17ED0FE0A28E0010A01E07BD0E4
:106C3000FD0EDBCFE9FFFE0EDBCFEAFFEF50E66E85
:106C4000A3C1E9FFA4C1EAFFE552E750EF6EA3C17B
:106C5000E9FFA4C1EAFF010EE926000EEA22010EB7
:106C6000EF6EA3C1E9FFA4C1EAFF020EE926000E00
:106C7000EA22EF6A030EDF6E57D0FD0EDBCFE9FF8D
:106C8000FE0EDBCFEAFFEF50E66EA3C1E9FFA4C121
:106C9000EAFFE552E750EF6EFD0EDBCFE9FFFE0E97
:106CA000DBCFEAFF010EE926000EEA22EF041CE129
:106CB000FB0EDBCFE6FF4AEC27F0E552F3CFE9FF0E
:106CC000F4CFEAFF040EE926000EEA22EECF10F020
:106CD000EFCF11F0010EE66E04D011C0FAFF105094
:106CE000F96EFBDFE5521AD0FB0EDBCFE6FF4AEC74
:106CF00027F0E552F3CFE9FFF4CFEAFF040EE926CF
:106D0000000EEA22EECF10F0EFCF11F0E66A04D0C9
:106D100011C0FAFF1050F96EFBDFE552010EDF6E75
:106D200003D0FF0001D000D0DFCFE6FFFB0EDBCFAA
:106D3000E6FFC6EC1BF0E552E552E552E552E7CF1F
:106D4000D9FF1200D9CFE6FFE1CFD9FFDE0EE66E04
