:020000040000FA
:0600000084EF18F012006D
:0608C00084EF18F01200A5
:0608C80000EF10F0120029
:0208D80012000C
:0108EA00030A
:0408EC001E0E716EFD
:1008F0000401400E096F300E0A6F040E0B6F880E54
:10090000086F700E0E6F040E0F6F400E0C6F1E0EF0
:10091000726E400E116FB00E126F040E136F880EC0
:10092000106FF00E166F040E176F400E146F1E0E30
:10093000736E400E196F300E1A6F050E1B6F800E0E
:10094000186F700E1E6F050E1F6F400E1C6F120089
:060AEA00120100020000F1
:100AF0000008D8040C0000000102030109023C00B8
:100B000001010080FA09040000060000000007054A
:100B100001024000FF070581024000FF07050202B5
:100B20004000FF070582024000FF07050301400067
:100B3000060705830140000604030904320341004F
:100B400067007500690072007200650020004600B1
:100B5000650072006E0061006E00640065007A003E
:100B60002000470072006F007300730079002A03B1
:100B7000550053004200340061006C006C002000FE
:100B800028004300290032003000300037002000E8
:100B9000460049004E00470012033000300030008C
:0A0BA0003000300030003000320059
:040CEA00FC0AFC0AFA
:060D2A00380B3C0B6E0BC0
:020D3000980B1E
:060DAA0004006A310000A4
:100DB000D60100000200000068310000D4010000EC
:100DC000020000002C310000000100003C00000087
:0C0DD00026310000B80100000600000001
:040DDC00D9CFE6FF86
:100DE000E1CFD9FFE652DF6A050EDF5C0DE2EA6A69
:100DF000DF34FE0BEA36E96EE50EE926000EEA2244
:100E0000EE6AED6ADF2AF0D70001EF6BE552E5529A
:100E1000E7CFD9FF1200D9CFE6FFE1CFD9FF020E0D
:100E2000E126DF6A010EDB6A050EDF5C23E2010EBC
:100E3000DB5020E1EA6ADF34FE0BEA36E96EE50EAC
:100E4000E926000EEA22EE50ED1012E1DE52010E0C
:100E5000DD6EEA6ADF34FE0BEA36E96EE50EE9265E
:100E6000000EEA22FD0EDBCFEEFFFE0EDBCFEDFF24
:100E7000DF2ADAD7010EDB5002E1000E16D00001A6
:100E8000EF51EF2B00090FE18C0EE66E0F0EE66EB0
:100E90006DEC0FF0E552E552F294F28AF1C0D6FF04
:100EA000F0C0D7FFD58E010E00D0106E020EE15CAF
:100EB00002E2E16AE552E16E1050E552E7CFD9FF58
:100EC0001200D9CFE6FFE1CFD9FF020EE126DF6A9B
:100ED000010EDB6A050EDF5C28E2010EDB5025E126
:100EE000EA6ADF34FE0BEA36E96EE50EE926000E0B
:100EF000EA22EECF10F0EFCF11F0FD0EDB5010180C
:100F000003E1FE0EDB5011180EE1DE52010EDD6E24
:100F1000EA6ADF34FE0BEA36E96EE50EE926000EDA
:100F2000EA22EE6AED6ADF2AD5D7010EDB5002E134
:100F3000000E10D00001EF070BE1D59EF294F29A5B
:100F40008C0EE66E0F0EE66EB5EC0FF0E552E55234
:100F5000010E00D0106E020EE15C02E2E16AE55281
:100F6000E16E1050E552E7CFD9FF1200D9CFE6FF6E
:100F7000E1CFD9FF020ED56EFE0EDBCFF1F0FD0EF4
:100F8000DBCFF0F0E552E7CFD9FF1200D9CFE6FF73
:100F9000E1CFD9FFE652DF6AF2A429D0F294F1C082
:100FA000D6FFF0C0D7FF050EDF5C21E2EA6ADF342E
:100FB000FE0BEA36E96EE50EE926000EEA22EE5057
:100FC000ED1013E0EA6ADF34FE0BEA36E96EE50E57
:100FD000E926000EEA22EECF10F0EFCF11F004D098
:100FE00011C0FAFF1050F96EFBDFDF2ADCD7E552A3
:100FF000E552E7CFD9FF1200D9CFE6FFE1CFD9FF05
:10100000FE0EDB2ADB500A0802E1FE0EDB6AFE0E52
:10101000DB5000D0E552E7CFD9FF1200D9CFE6FF71
:10102000E1CFD9FFFE0EDB5005E10A0EF36EFE0E96
:10103000F3CFDBFFFE0EDB06DB5000D0E552E7CF3F
:10104000D9FF12000101D751D65D02E0000E01D098
:10105000010E00D01200F6DF000904E0F36AF46A22
:1010600011D010D00101D651040DF3CF10F0F4CF00
:1010700011F03C0E1026010E112210C0F3FF11C01A
:10108000F4FF00D01200D6C1E6FFB6DFE552010141
:10109000D66F1200D9CFE6FFE1CFD9FF030EE126CC
:1010A000D7C1E6FFA9DFE552DF6E0101D751040D7C
:1010B000F3CF10F0F4CF11F03C0E1026010E1122E8
:1010C000010E10C0DBFF020E11C0DBFFD651DF5C4A
:1010D00003E1F36AF46A0DD0DFCFD7F1010EDBCF65
:1010E00010F0020EDBCF11F010C0F3FF11C0F4FFBF
:1010F00000D0030EE15C02E2E16AE552E16EE552E6
:10110000E7CFD9FF1200D9CFE6FFE1CFD9FFE652F2
:10111000DF6A0A0EDF5C1EE2DF50040DF3CFE9FF49
:10112000F4CFEAFF3C0EE926010EEA22EE6AED6AF0
:10113000DF50040DF3CFE9FFF4CFEAFF3C0EE926C0
:10114000010EEA22020EE926000EEA22EE6AED6A9C
:10115000DF2ADFD7070ED56E460EE66E170EE66E57
:101160006DEC0FF0E552E552E552E552E7CFD9FFBD
:101170001200D9CFE6FFE1CFD9FF0C0EE126D59EB4
:1011800061DF000906E0FD0EDBCFDEFFDBCFDDFF18
:1011900072D0D750146E14C015F0146AD6500001E6
:1011A0001410126E15C013F0FF0ED880125613568D
:1011B0000101D651040DF3CFE9FFF4CFEAFF3C0E55
:1011C000E926010EEA221250EE5C106E1350EE5822
:1011D000116E020E10C0DBFF030E11C0DBFFFD0E0F
:1011E000DBCF12F0FE0EDBCF13F0020EDB50122429
:1011F000106E030EDB501320116E10C0DEFF11C005
:10120000DDFFDECF10F0DDCF11F0020EDBCF12F0EC
:10121000030EDBCF13F01250105C135011582BE269
:10122000040ED6C1DBFFDB500101D75D1FE0020ECB
:10123000DBCF10F0030EDBCF11F0040EDB50040DFA
:10124000F3CFE9FFF4CFEAFF3C0EE926010EEA22D4
:101250001050EE5E1150ED5A040EDBCFE6FFCCDEEF
:10126000E552E76E040EE7CFDBFFDDD7FD0EDBCFE7
:10127000DEFFDBCFDDFF040ED7C1DBFFDBCFE6FFF8
:10128000CDDEE552E76E050EE7CFDBFF03DF060E8E
:10129000F3CFDBFF070EF4CFDBFFD950060FE96E6B
:1012A000DACFEAFFEE50ED1002E1000EC6D0060ED6
:1012B000DBCFE9FF070EDBCFEAFFDECFEEFFDDCFAE
:1012C000EDFF060EDBCFE9FF070EDBCFEAFF020ED4
:1012D000E926000EEA22FB0EDBCFEEFFFC0EDBCF91
:1012E000EDFF040EDB500101D65D01E186D0040E56
:1012F000DB50040DF3CFE9FFF4CFEAFF3C0EE92603
:10130000010EEA22EECF10F0EFCF11F0050EDB5008
:10131000040DF3CFE9FFF4CFEAFF3C0EE926010EFE
:10132000EA22EECF12F0EFCF13F01250105C135000
:10133000115863E2050EDB50040DF3CFE9FFF4CF43
:10134000EAFF3C0EE926010EEA22080EEECFDBFF93
:10135000090EEECFDBFF0A0EEECFDBFF0B0EEECF5A
:10136000DBFF040EDB50040DF3CFE9FFF4CFEAFFFF
:101370003C0EE926010EEA22EECF10F0EECF11F07E
:10138000EECF12F0EFCF13F0050EDB50040DF3CFCC
:10139000E9FFF4CFEAFF3C0EE926010EEA2210C075
:1013A000EEFF11C0EEFF12C0EEFF13C0EEFF040E01
:1013B000DB50040DF3CFE9FFF4CFEAFF3C0EE92642
:1013C000010EEA22080EDBCFEEFF090EDBCFEEFFA7
:1013D0000A0EDBCFEEFF0B0EDBCFEEFF050EDB5070
:1013E000E76E040EE7CFDBFFDBCFE6FF17DEE5524B
:1013F000E76E050EE7CFDBFF74D7040EDB50D65D3A
:1014000019E1F294F28ADECF10F0DDCF11F0FF0E79
:10141000D8801056115610C0DEFF11C0DDFFDECFA0
:1014200010F0DDCF11F011C010F0116A1050D76E1E
:10143000DF50D66ED58E010E00D0106E0C0EE15C22
:1014400002E2E16AE552E16E1050E552E7CFD9FFC2
:101450001200D9CFE6FFE1CFD9FF0C0EE126010142
:10146000D651040DF3CFE9FFF4CFEAFF3C0EE92695
:10147000010EEA22020EEECFDBFF030EEDCFDBFF03
:10148000FD0EDBCF12F0FE0EDBCF13F0020EDB50B1
:101490001224106E030EDB501320116E10C0DEFFFD
:1014A00011C0DDFFDECF10F0DDCF11F0020EDBCF7B
:1014B00012F0030EDBCF13F01250105C13501158D2
:1014C0002BE2040ED6C1DBFFDB500101D75D1FE02C
:1014D000020EDBCF10F0030EDBCF11F0040EDB5059
:1014E000040DF3CFE9FFF4CFEAFF3C0EE926010E2D
:1014F000EA221050EE5E1150ED5A040EDBCFE6FFEB
:101500007BDDE552E76E040EE7CFDBFFDDD7FD0E96
:10151000DBCFDEFFDBCFDDFF040ED7C1DBFFDBCF90
:10152000E6FF7CDDE552E76E050EE7CFDBFFB2DDBF
:10153000060EF3CFDBFF070EF4CFDBFFD950060F0B
:10154000E96EDACFEAFFEE50ED1002E1000EADD009
:10155000060EDBCFE9FF070EDBCFEAFFDECFEEFFA3
:10156000DDCFEDFF060EDBCFE9FF070EDBCFEAFF95
:10157000020EE926000EEA22FB0EDBCFEEFFFC0E88
:10158000DBCFEDFF050EDB500101D65D01E18BD015
:10159000040EDB50D65D01E186D0040EDB50040D55
:1015A000F3CFE9FFF4CFEAFF3C0EE926010EEA2271
:1015B000EECF10F0EFCF11F0050EDB50040DF3CF9E
:1015C000E9FFF4CFEAFF3C0EE926010EEA22EECF56
:1015D00012F0EFCF13F01250105C1350115863E269
:1015E000050EDB50040DF3CFE9FFF4CFEAFF3C0E0C
:1015F000E926010EEA22080EEECFDBFF090EEECF40
:10160000DBFF0A0EEECFDBFF0B0EEECFDBFF040E8F
:10161000DB50040DF3CFE9FFF4CFEAFF3C0EE926DF
:10162000010EEA22EECF10F0EECF11F0EECF12F065
:10163000EFCF13F0050EDB50040DF3CFE9FFF4CF2D
:10164000EAFF3C0EE926010EEA2210C0EEFF11C0AF
:10165000EEFF12C0EEFF13C0EEFF040EDB50040DD0
:10166000F3CFE9FFF4CFEAFF3C0EE926010EEA22B0
:10167000080EDBCFEEFF090EDBCFEEFF0A0EDBCF4D
:10168000EEFF0B0EDBCFEEFF050EDB50E76E040E18
:10169000E7CFDBFFDBCFE6FFC1DCE552E76E050EEF
:1016A000E7CFDBFF6FD7010E00D0106E0C0EE15CB0
:1016B00002E2E16AE552E16E1050E552E7CFD9FF50
:1016C0001200D9CFE6FFE1CFD9FFE652D6C1DFFF46
:1016D0000101D751DF5C30E0DF50040DF3CFE9FFAB
:1016E000F4CFEAFF3C0EE926010EEA22020EE926BB
:1016F000000EEA22EECF10F0EFCF11F0FD0EDB501E
:10170000101803E1FE0EDB50111810E1DF50040D3C
:10171000F3CFE9FFF4CFEAFF3C0EE926010EEA22FF
:10172000020EE926000EEA22EE6AED6ADFCFE6FF3E
:1017300063DCE552DF6ECCD7010E00D0E552E552F6
:10174000E7CFD9FF1200D9CFE6FFE1CFD9FF080ECE
:10175000E126F2A46AD0D59EF2947DDCF3CFDEFFC1
:10176000F4CFDDFFDECFE9FFDDCFEAFF020EE92691
:10177000000EEA22060EEECFDBFF070EEDCFDBFFF9
:10178000D950060FE96EDACFEAFFEE50ED100CE00B
:10179000060EDBCF10F0070EDBCF11F004D011C026
:1017A000FAFF1050F96EFBDFDECFE9FFDDCFEAFF75
:1017B000020EEECFDBFF030EEDCFDBFF64DC4BDC74
:1017C000F3CFDEFFF4CFDDFFD9CFE9FFDACFEAFFB9
:1017D000EE50ED102AE0DECFE9FFDDCFEAFFEECFDD
:1017E00012F0EFCF13F0020EDB50125C106E030EFE
:1017F000DB501358116EFF0ED88010561156040E90
:1018000010C0DBFF050E11C0DBFF040EDBCF10F0B4
:10181000050EDBCF11F011C010F0116A1050D76E19
:10182000040EDB50D66EF294D58E080EE15C02E217
:10183000E16AE552E16EE552E7CFD9FF1200D9CF58
:10184000E6FFE1CFD9FFE652DF68A650020B05E0C4
:10185000DF50DF06000801E2F8D7E552E552E7CF96
:10186000D9FF1200ECDF110EE66E090EE66EE66A95
:10187000DCEC17F0E552E552E5521200D9CFE6FF55
:10188000E1CFD9FFFE0EDBCFB4F1EE0EE66E180EFF
:10189000E66EB4C1E6FF28EC26F0E552E552E552CB
:1018A000B4C1E6FF85EC2BF0E552F3CFB2F1F4CFF3
:1018B000B3F1E552E7CFD9FF1200D9CFE6FFE1CF70
:1018C000D9FF00D0E552E7CFD9FF120000D01200B7
:1018D0006D960101B56BB66B0101B507000EB65BE5
:1018E0000101B551B61101E0F7D7FF001200D9CFC1
:1018F000E6FFE1CFD9FF170EE126DE52110EDD6EB5
:10190000F36E020EF3CFDBFF030EDB6A040EDB6A1D
:10191000DF6AFD0EDBCFE9FFFE0EDBCFEAFFEF5003
:10192000FF0A01E1BED1F40A01E16ED1010A01E131
:101930005BD1030A01E153D1010A01E12DD10E0A65
:1019400001E1DAD0030A01E1C0D0010A01E1BAD015
:10195000070A01E1B4D0010A01E1AED0050A01E1B4
:10196000A2D0060A01E17CD0010A01E09ED1FD0E61
:10197000DBCFE9FFFE0EDBCFEAFF030EE926000E08
:10198000EA22E9CF10F0EACF11F010C0E6FF11C053
:10199000E6FFB6EC11F0E552E5520D0EF3CFDBFF9A
:1019A0000E0EF4CFDBFFD9500D0FE96EDACFEAFF50
:1019B000FF0EEE1801E1ED5045E0FD0EDBCFE9FF33
:1019C000FE0EDBCFEAFFEE52010EEFCFDBFF0D0E76
:1019D000DBCFE6FF0E0EDBCFE6FF010EDBCFE6FF2F
:1019E000E0EC28F0E552E552E552E76E130EE7CF42
:1019F000DBFF0D0EDBCFE6FF0E0EDBCFE6FF19ECB3
:101A000013F0E552E552110EF3CFDBFF120EF4CFC7
:101A1000DBFF110EDBCF10F0120EDBCF11F0130E37
:101A2000DBCFE6FF04D011C0FAFF1050F96EFBDFE8
:101A3000E552B2C1E9FFB3C1EAFFEE52130EDBCFAC
:101A4000EFFF06D0B2C1E9FFB3C1EAFFEE52EF6883
:101A5000B2C1E9FFB3C1EAFFEF6A020EDF6E25D122
:101A6000FD0EDBCFE9FFFE0EDBCFEAFFEE52130ED9
:101A7000EFCFDBFFDBCFE6FF44EC2AF0E552E76E69
:101A8000140EE7CFDBFFB2C1E9FFB3C1EAFFEE52AC
:101A9000DBCFEFFFB2C1E9FFB3C1EAFF010EEF6E8A
:101AA000020EDF6E02D1B2C1E9FFB3C1EAFF070E39
:101AB000EF6E010EDF6EF9D0020EDF6EF6D0010E72
:101AC000DF6EF3D0030EDF6EF0D047EC12F0E76E5E
:101AD000030EE7CFDBFFB2C1E9FFB3C1EAFF050E9A
:101AE000EF6EB2C1E9FFB3C1EAFFEE52030EDBCFE6
:101AF000EFFF020EDF6ED9D0B2C1E9FFB3C1EAFF3A
:101B0000060EEF6EFD0EDBCFE9FFFE0EDBCFEAFF28
:101B1000EE52040EEFCFDBFFD950050FE66E000E3C
:101B2000DA20E66E040EDBCFE6FFB1EC12F0E552F0
:101B3000E552E552160EDB6A080EF36E160EDBCF89
:101B4000F4FFF350F45C25E2D950050F126EDACFA2
:101B500013F0160EDB500F011224E96E000E132055
:101B6000EA6EEF50E66EB2C1E9FFB3C1EAFFEE5292
:101B7000E9CF10F0EACF11F0160EDB501024E96E19
:101B8000000E1120EA6EE552E750EF6E160EDB2ACA
:101B9000D3D7090EDF6E89D0FD0EDBCFE9FFFE0E35
:101BA000DBCFEAFFEE52130EEFCFDBFFDBCFE6FF1A
:101BB000B7EC2AF0E552E76E140EE7CFDBFFB2C1B7
:101BC000E9FFB3C1EAFFEE52DBCFEFFFB2C1E9FF9D
:101BD000B3C1EAFF080EEF6E020EDF6E66D042DE82
:101BE00077DE010EDF6E61D0B2C1E9FFB3C1EAFF5B
:101BF0000A0EEF6EB2C1E9FFB3C1EAFFEE52100E5A
:101C0000EF6E020EDF6E51D0B2C1E9FFB3C1EAFF41
:101C10000B0EEF6EFD0EDBCFE9FFFE0EDBCFEAFF12
:101C2000EE52130EEFCFDBFFDB500F0BE76E130E00
:101C3000E7CFDBFFDB50040DF3CFE9FFF4CFEAFF82
:101C4000610EE926000EEA22EF50200B21E1130E6F
:101C5000DB50040DF3CFE9FFF4CFEAFF610EE92674
:101C6000000EEA22020EE926000EEA22EECFE6FF7F
:101C7000EFCFE6FF80EC12F0E552E552E66EB2C11E
:101C8000E9FFB3C1EAFFEE52E552E750EF6E06D02E
:101C9000B2C1E9FFB3C1EAFFEE52EF68020EDF6E98
:101CA00004D016DE010EDF6E00D0DF5018E0160EF5
:101CB000DB6804010C51800B08E0160EDBCFF3FF4C
:101CC000DB06F350000801E2F4D70CBF08D0DFCFE9
:101CD000E6FFB4C1E6FFA2EC27F0E552E552170E8D
:101CE000E15C02E2E16AE552E16EE552E7CFD9FF3D
:101CF0001200D9CFE6FFE1CFD9FF020EE126B2C133
:101D0000E9FFB3C1EAFFEF6E010EDB6AFC0EDB50A8
:101D1000F36E010EDBCFF4FFF350F45C26E2010E0C
:101D2000DB50E76EFD0EDBCFE9FFFE0EDBCFEAFFF7
:101D3000E750E926000EEA22EF50E66EB2C1E9FF55
:101D4000B3C1EAFFEE52E9CF10F0EACF11F0010E75
:101D5000DB500F011024E96E000E1120EA6EE552EF
:101D6000E750EF6E010EDB2AD1D7FC0EDB28DF6EC9
:101D700004010CBF08D0DFCFE6FFB4C1E6FFA2EC40
:101D800027F0E552E552020EE15C02E2E16AE5521B
:101D9000E16EE552E7CFD9FF12000101010ED56FC8
:101DA00012000101D55102E0D56B01D091DDA20EE8
:101DB000E66E1D0EE66EDC0EE66EE66829EC0AF0B5
:101DC000E552E552E552E55212000101010ED56FD0
:101DD000A20EE66E1D0EE66EB80EE66EE668B9EC73
:101DE00008F0E552E552E552E5521200D9CFE6FF80
:101DF000E1CFD9FF020EE126DF80DF92DF94DF968C
:101E0000DF98DF9ADECF10F0DDCF11F010C0F3FFC6
:101E100011C0F4FFE15C03E200D0E16AE552E16E3B
:101E2000E552E7CFD9FF1200D9CFE6FFE1CFD9FFC6
:101E3000020EE126DF80DF92DF94DF96DF98DF9AE3
:101E4000DECF10F0DDCF11F010C0F3FF11C0F4FFB2
:101E5000E15C03E200D0E16AE552E16EE552E7CFD2
:101E6000D9FF1200D9CFE6FFE1CFD9FF020EE1265C
:101E7000DF80DF92DF94DF96DF98DF9ADECF10F00D
:101E8000DDCF11F010C0F3FF11C0F4FFE15C03E2FD
:101E900000D0E16AE552E16EE552E7CFD9FF1200CA
:101EA000D9CFE6FFE1CFD9FFE652DF6A050EDF5C4E
:101EB0000DE2EA6ADF34FE0BEA36E96E8B0EE926A4
:101EC000010EEA22EE6AED6ADF2AF0D70101956B76
:101ED000E552E552E7CFD9FF1200D9CFE6FFE1CFB7
:101EE000D9FF020EE126DF6A010EDB6A050EDF5C18
:101EF00023E2010EDB5020E1EA6ADF34FE0BEA3612
:101F0000E96E8B0EE926010EEA22EE50ED1012E189
:101F1000DE52010EDD6EEA6ADF34FE0BEA36E96E50
:101F20008B0EE926010EEA22FD0EDBCFEEFFFE0E40
:101F3000DBCFEDFFDF2ADAD7010EDB5002E1000E26
:101F400008D001019551952B000901E1F28E010E97
:101F500000D0106E020EE15C02E2E16AE552E16E31
:101F60001050E552E7CFD9FF1200D9CFE6FFE1CFFD
:101F7000D9FF020EE126DF6A010EDB6A050EDF5C87
:101F800028E2010EDB5025E1EA6ADF34FE0BEA3677
:101F9000E96E8B0EE926010EEA22EECF10F0EFCFAC
:101FA00011F0FD0EDB50101803E1FE0EDB5011188E
:101FB0000EE1DE52010EDD6EEA6ADF34FE0BEA3618
:101FC000E96E8B0EE926010EEA22EE6AED6ADF2A3F
:101FD000D5D7010EDB5002E1000E06D001019507B6
:101FE00001E1F29E010E00D0106E020EE15C02E2F1
:101FF000E16AE552E16E1050E552E7CFD9FF1200D9
:10200000DACFE4FFE2CFDAFFE9CFE4FFEACFE4FF83
:10201000F6CFE4FFF7CFE4FFF5CFE4FFF3CFE4FF23
:10202000F4CFE4FFFACFE4FF00EE00F0100EE80476
:1020300003E3EECFE4FFFBD700EE10F00E0EE80452
:1020400003E3EECFE4FFFBD7E652D9CFE6FFE1CFC3
:10205000D9FFE652DF6A050EDF5C21E2EA6ADF346F
:10206000FE0BEA36E96E8B0EE926010EEA22EE50EF
:10207000ED1013E0EA6ADF34FE0BEA36E96E8B0EF0
:10208000E926010EEA22EECF1EF0EFCF1FF004D0BA
:102090001FC0FAFF1E50F96EFBDFDF2ADCD7E552C6
:1020A000E552E7CFD9FFE55200EE1DF00E0EE80431
:1020B00003E3E5CFEDFFFBD700EE0FF0100EE804D1
:1020C00003E3E5CFEDFFFBD7E5CFFAFFE5CFF4FF64
:1020D000E5CFF3FFE5CFF5FFE5CFF7FFE5CFF6FF5F
:1020E000E5CFEAFFE5CFE9FFE5CFDAFF1100D9CF71
:1020F000E6FFE1CFD9FFE652DF6A050EDF5C0DE2B5
:10210000EA6ADF34FE0BEA36E96E960EE926010E26
:10211000EA22EE6AED6ADF2AF0D7E552E552E7CF10
:10212000D9FF1200D9CFE6FFE1CFD9FF020EE12699
:10213000DF6A010EDB6A050EDF5C23E2010EDB5075
:1021400020E1EA6ADF34FE0BEA36E96E960EE926F4
:10215000010EEA22EE50ED1012E1DE52010EDD6EAC
:10216000EA6ADF34FE0BEA36E96E960EE926010EC6
:10217000EA22FD0EDBCFEEFFFE0EDBCFEDFFDF2A06
:10218000DAD7010EDB5002E1000E02D0010E00D0C2
:10219000106E020EE15C02E2E16AE552E16E10505F
:1021A000E552E7CFD9FF1200D9CFE6FFE1CFD9FF43
:1021B000020EE126DF6A010EDB6A050EDF5C28E213
:1021C000010EDB5025E1EA6ADF34FE0BEA36E96EE8
:1021D000960EE926010EEA22EECF10F0EFCF11F0B5
:1021E000FD0EDB50101803E1FE0EDB5011180EE15E
:1021F000DE52010EDD6EEA6ADF34FE0BEA36E96E6E
:10220000960EE926010EEA22EE6AED6ADF2AD5D79C
:10221000010EDB5002E1000E02D0010E00D0106E64
:10222000020EE15C02E2E16AE552E16E1050E55215
:10223000E7CFD9FF1200D9CFE6FFE1CFD9FFE652B1
:10224000DF6A050EDF5C21E2EA6ADF34FE0BEA3664
:10225000E96E960EE926010EEA22EE50ED1013E02B
:10226000EA6ADF34FE0BEA36E96E960EE926010EC5
:10227000EA22EECF10F0EFCF11F004D011C0FAFF38
:102280001050F96EFBDFDF2ADCD7E552E552E7CFCD
:10229000D9FF1200D9CFE6FFE1CFD9FFE552E7CF52
:1022A000D9FF1200D9CFE6FFE1CFD9FF030EE12617
:1022B000DF6ADE52010EDD6E020EDB6ADF6A080E97
:1022C000DF5C45E2020EDB5042E1DF50E76EFD0EBF
:1022D000DBCFE9FFFE0EDBCFEAFFE750E926000E79
:1022E000EA22EF500EE0DF50E76EFB0EDBCFE9FF96
:1022F000FC0EDBCFEAFFE750E926000EEA22EF50A2
:1023000005E1010EF36E020EF3CFDBFFDF50E76E47
:10231000FD0EDBCFE9FFFE0EDBCFEAFFE750E9263B
:10232000000EEA22EFCF10F0DF50E76EFB0EDBCF9E
:10233000E9FFFC0EDBCFEAFFE750E926000EEA22B8
:10234000EF50105C02E0010EDB6ADF2AB8D7010E05
:10235000DB50106E030EE15C03E200D0E16AE5524F
:10236000E16E1050E552E7CFD9FF1200D9CFE6FF5A
:10237000E1CFD9FF0D0EE126AB0EDE6E330EDD6E22
:102380000C0EDB6ADECFF6FFDDCFF7FF0800F5CFDE
:1023900010F0116A10BE11680001101C01E1111C3F
:1023A00069E0D9CFE9FFDACFEAFF020EEECFDBFF1B
:1023B000030EEDCFDBFF0C0EDB6A080EF36E0C0E86
:1023C000DBCFF4FFF350F45C2CE2020EDBCFF6FF20
:1023D000030EDBCFF7FF060EF626000EF722F6CF30
:1023E00012F0F7CF13F00C0EDB500F011224F66E33
:1023F000000E1320F76E0800F550E66ED950040F5A
:10240000106EDACF11F00C0EDB500F011024E96EC4
:10241000000E1120EA6EE552E750EF6E0C0EDB2A3B
:10242000CCD7FD0EDBCFE6FFFE0EDBCFE6FFD950AB
:10243000040FE66E000EDA20E66E34DFE552E55258
:10244000E552E552000909E0DECF10F0DDCF11F0D2
:1024500010C0F3FF11C0F4FF10D0DECF10F0DDCFBD
:1024600011F00E0E1026000E112210C0DEFF11C05A
:10247000DDFF88D7F368F46A00D00D0EE15C02E25C
:10248000E16AE552E16EE552E7CFD9FF1200D9CFFC
:10249000E6FFE1CFD9FF030EE126AB0EDE6E330E71
:1024A000DD6E020EDB6ADECFF6FFDDCFF7FF080040
:1024B000F5CF10F0116A10BE11680001101C01E187
:1024C000111C0FE0DECF10F0DDCF11F00E0E102644
:1024D000000E112210C0DEFF11C0DDFF020EDB2A4C
:1024E000E2D7020EDB50106E030EE15C03E200D077
:1024F000E16AE552E16E1050E552E7CFD9FF1200D4
:10250000D9CFE6FFE1CFD9FF020EE126AB0EDE6E9A
:10251000330EDD6EFD0EDBCF12F0FE0EDBCF13F0BF
:10252000DE50125C106EDD501358116E0E0E0D6EE3
:102530000E6A10C008F011C009F003EC18F008C0D2
:1025400010F009C011F01050106E020EE15C03E2B1
:1025500000D0E16AE552E16E1050E552E7CFD9FFB5
:102560001200D9CFE6FFE1CFD9FF050EE126AB0E71
:10257000F36E010EF3CFDBFF330EF36E020EF3CFDB
:10258000DBFFFE0EDB500E0DF350E76E010EDBCFCE
:1025900010F0020EDBCF11F0E7501026000E1122D2
:1025A000010E10C0DBFF020E11C0DBFF010EDBCFFE
:1025B00008F0020EDBCF09F0030E08C0DBFF040EAB
:1025C00009C0DBFFDF6A080EDF5C29E2030EDBCF08
:1025D000F6FF040EDBCFF7FF060EF626000EF722FD
:1025E000F6CF10F0F7CF11F0DF500F011024F66E88
:1025F000000E1120F76E0800F550E66EDF50E76E12
:10260000FC0EDBCFE9FFFD0EDBCFEAFFE750E9264A
:10261000000EEA22E552E750EF6EDF2AD4D7050E0E
:10262000E15C02E2E16AE552E16EE552E7CFD9FFF3
:102630001200D9CFE6FFE1CFD9FF020EE126FD0E51
:10264000DBCFDEFFDBCFDDFFDECFF6FFDDCFF7FF39
:102650000900F5CF10F00800F5CF11F010C0F3FF1E
:1026600011C0F4FF020EE15C03E200D0E16AE55222
:10267000E16EE552E7CFD9FF1200D9CFE6FFE1CFF7
:10268000D9FF020EE126FD0EDBCFDEFFDBCFDDFF43
:10269000DECFF6FFDDCFF7FF020EF626000EF722A3
:1026A0000900F5CF10F00800F5CF11F010C0F3FFCE
:1026B00011C0F4FF020EE15C03E200D0E16AE552D2
:1026C000E16EE552E7CFD9FF1200D9CFE6FFE1CFA7
:1026D000D9FF020EE126FD0EDBCFDEFFDBCFDDFFF3
:1026E000DECFF6FFDDCFF7FF040EF626000EF72251
:1026F0000900F5CF10F00800F5CF11F010C0F3FF7E
:1027000011C0F4FF020EE15C03E200D0E16AE55281
:10271000E16EE552E7CFD9FF1200D9CFE6FFE1CF56
:10272000D9FF020EE126DE6ADD6ADECF10F0DDCFD2
:1027300011F0FD0EDBCF12F0FE0EDBCF13F01150C7
:102740001318E8AE02D0133404D01250105C1350AA
:1027500011580AE2FA0EE66E47EC18F0E552DF2A4D
:10276000010E01E3DB2AE1D7020EE15C02E2E16A3D
:10277000E552E16EE552E7CFD9FF1200D9CFE6FF6F
:10278000E1CFD9FF120EE126100EDB6A110EDB6AD3
:1027900014D82ED81BEC11F055EC26F0FAD7120EF7
:1027A000E15C02E2E16AE552E16EE552E7CFD9FF72
:1027B0001200ABEC20F06FEF39F00F0EC112140EC7
:1027C0006F6E0101BE6B0101BF6B0101C06B9268AE
:1027D0009368CF0E9410946E9568966850EC0FF045
:1027E00083EC08F077EC10F0D8EC29F0D9EF13F077
:1027F000D3EC16F06FBE02D0F2EC16F0120004011A
:102800002051600BE842E842E842E842E842000911
:1028100001E055D02151070A51E00B0A4FE0070AA9
:1028200040E0010A2CE00B0A28E0020A26E0030A35
:1028300022E0080A12E0010A0EE00F0A0AE0030A89
:1028400001E03CD00101010EAB6F0101040EBE6F2F
:1028500036D036D834D090D832D00101010EAB6FCB
:102860000101C00EAC6F010EAD6F0101BF930101FC
:10287000010EB06F24D0A8D822D0F4D820D0010106
:10288000010EAB6F040124510101AC6FAD6BC10EA1
:10289000AC27010EAD230101BF930101010EB06F02
:1028A0000ED00101010EAB6F04012451EA6AC10F81
:1028B000E96E010EEA2222C4EFFF01D000D012001F
:1028C000800E0401205D57E12351030A34E0010A20
:1028D00010E0030A01E04DD00101010EAB6F0101D0
:1028E000EA0EAC6F0A0EAD6F120E0101B06FB16B44
:1028F00040D00101010EAB6F04012251F66EF76A60
:10290000D890F636F736EA0EF6260C0EF7220900B6
:10291000F5CFACF10A00F5CFADF1020E0101F76A77
:10292000AC25F66EAD51F7220900F5CFB0F10A00E3
:10293000F5CFB1F11ED00101010EAB6F04012251A0
:10294000F66EF76AD890F636F7362A0EF6260D0E92
:10295000F7220900F5CFACF10A00F5CFADF1ACC11B
:10296000F6FFADC1F7FF0800F5500101B06FB16B84
:1029700000D00101BF8312000101010EAB6F0F0EE9
:10298000E66E710EE66E0F0EE66E78EC17F0E5520D
:10299000E552E552010EE66EC10EE66E010EE66EE0
:1029A00078EC17F0E552E552E55222C4C0F104017B
:1029B000225104E10101050EBE6F05D00101060E92
:1029C000BE6F76EC04F012000401286B296B040141
:1029D00020511F0B020A14E0030A0EE0010A01E075
:1029E00033D00101010EAB6F040128810101BFA1A9
:1029F00002D00401288328D00101010EAB6F24D03E
:102A00000101010EAB6F040124510F0B080DF350AF
:102A1000116A000F106E040E11222451800B01E088
:102A2000010E040DF35001011024AE6F000E1120B1
:102A3000AF6FAEC1E9FFAFC1EAFFEF50040B03E097
:102A40000401010E286F00D00101AB050AE101016C
:102A5000280EAC6F040EAD6F0101BF930101020E91
:102A6000B06F12000401220510E120511F0B000974
:102A70000CE10101010EAB6F030E0401215D03E1C6
:102A80000101BF8102D00101BF91040122513AE14D
:102A900020511F0B020836E124510F0B000932E0D0
:102AA0000101010EAB6F040124510F0B080DF3500F
:102AB000116A000F106E040E11222451800B01E0E8
:102AC000010E040DF35001011024AE6F000E112011
:102AD000AF6F030E0401215D07E1840EAEC1E9FF73
:102AE000AFC1EAFFEF6E0ED024AF06D0AEC1E9FF52
:102AF000AFC1EAFFEF6A06D0880EAEC1E9FFAFC1F1
:102B0000EAFFEF6E12006C500BE1040100513C0B28
:102B1000E842E8420D0802E108D801D018D804D0F4
:102B2000040E6C5C01E123D81200D9CFE6FFE1CF9F
:102B3000D9FFE6520101AA6BAB6BB06BB16BFFEC36
:102B400013F0DDD8E552E552E7CFD9FF1200020EAF
:102B50000101AA5D0AE196D8040100BD03D0C80EA8
:102B6000006F02D0880E006F01D00FD91200040E42
:102B70000101BE5D0AE122C46EFF6E50000803E24F
:102B8000050EBE6F02D0030EBE6F0101AA050AE159
:102B90000BD8040104BD03D0C80E046F02D0880E08
:102BA000046F01D0F2D81200D9CFE6FFE1CFD9FFF0
:102BB000020EE1260101080EB05D000EB15905E2DA
:102BC000B0C1DEFFB1C1DDFF03D0080EDE6EDD6AED
:102BD000040104930491010EDB500413DFCF05F4CC
:102BE000000EDB500101B05F010EDB50B15B280E1F
:102BF000AE6F040EAF6F0101BFA31ED0D9CFE9FFA6
:102C0000DACFEAFFEE50ED1016E0ACC1F6FFADC131
:102C1000F7FF0800F550AEC1E9FFAFC1EAFFEF6E64
:102C20000101AE2B000EAF23AC2BAD23DF06010E4E
:102C300001E2DB06E3D71CD0D9CFE9FFDACFEAFF08
:102C4000EE50ED1015E0ACC1E9FFADC1EAFFEF5069
:102C5000AEC1E9FFAFC1EAFFEF6E0101AE2B000E7E
:102C6000AF23AC2BAD23DF06010E01E2DB06E4D778
:102C7000020EE15C02E2E16AE552E16EE552E7CF65
:102C8000D9FF1200D9CFE6FFE1CFD9FF020EE1262E
:102C9000030E04010015E76E010EE7CFDBFF01C450
:102CA000DFFFDE500101B027DD50B123280EAC6FED
:102CB000040EAD6FD9CFE9FFDACFEAFFEE50ED1089
:102CC00014E0ACC1E9FFADC1EAFFEF50AEC1E9FFCE
:102CD000AFC1EAFFEF6EAE2B000EAF23AC2BAD23DE
:102CE000DF06010E01E2DB06E5D7020EE15C02E23F
:102CF000E16AE552E16EE552E7CFD9FF120001012A
:102D0000AB510CE10401080E016F200E026F040E9E
:102D1000036F840E006F0401046F35D0040120AFEF
:102D200022D00101B0510401265D0101B15104011D
:102D3000275904E226C4B0F127C4B1F135DF0101FF
:102D4000010EAA6F0401080E016F200E026F040E1F
:102D5000036F800E006F0401280E066F040E076FCC
:102D6000C80E046F10D00101020EAA6F0401056B9A
:102D7000C80E046F0401080E016F280E026F040EC6
:102D8000036FC80E006F6D9812000101AA6B040159
:102D9000080E016F200E026F040E036F880E006F85
:102DA0000401046B12006DA60FD802D06DB613D8C3
:102DB0000101BE0508E16DBA06D0686A696A6980DA
:102DC0006988020EBE6F12006D6A696A6D86010124
:102DD000010EBE6F12006D6A696A0101BE6B1200BE
:102DE000EBEF16F00101BE5101E13AD06850040B3F
:102DF00004E06950040B01E038D86DB231D068505E
:102E0000010B04E06950010B01E050D86850100B31
:102E100004E06950100B01E024D86850400B04E036
:102E20006950400B01E037D86850200B04E069502E
:102E3000200B01E032D86850020B04E06950020B0D
:102E400001E032D8030E0101BE5D01E209D06850F5
:102E5000080B06E06950080B03E083EC15F0689658
:102E60001200698468986D8212006D92699468946A
:102E700012000101BFA10ED0F8DF6D840101080E20
:102E8000CE6F070ECF6FCE07000ECF5BCE51CF11A6
:102E9000FAE16D941200689C120070A003D0C5EC9A
:102EA00016F07090689A1200689212006A6A686A56
:102EB0009F0E6B6E7B0E696E6E6A0F0EE66E710E64
:102EC000E66E0F0EE66E14D8E552E552E552160E88
:102ED000706E68A602D06896FCD76D98C5EC16F0A7
:102EE0000101BF910101C06B0101030EBE6F120011
:102EF000D9CFE6FFE1CFD9FFFD0EDBCFE9FFFE0E14
:102F0000DBCFEAFFFC0EDB5004E0EE6AFC0EDB06D2
:0A2F1000F9D7E552E7CFD9FF120010
:062F1A00AA0EF66E0D0E7A
:102F2000F76E000EF86E01010900F550A56F09005B
:102F3000F550A66F03E1A56701D03DD00900F5501B
:102F4000A06F0900F550A16F0900F550A26F0900AC
:102F50000900F550E96E0900F550EA6E0900090014
:102F60000900F550A36F0900F550A46F090009008E
:102F7000F6CFA7F1F7CFA8F1F8CFA9F1A0C1F6FFDE
:102F8000A1C1F7FFA2C1F8FF0101A35302E1A453BD
:102F900007E00900F550EE6EA307F8E2A407F9D7A1
:102FA000A7C1F6FFA8C1F7FFA9C1F8FF0101A50756
:082FB000000EA65BBFD7120062
:082FB800D9CFE6FFDACFE6FFF6
:102FC000E1CFD9FFE2CFDAFFFF0EE76EFC0EDBCFD9
:102FD00010F0E75010161050A96EFB0EDB50A86ED3
:102FE000A69EA69CA684F29E550EA76EAA0EA76E5C
:102FF000A682A6B2FED7F28EA694E552E5CFDAFFFE
:06300000E7CFD9FF12002A
:0A300600006A0EAE0CEF18F00D6C1E
:103010000E1EE86A0E22001E09AE14EF18F0086CAE
:10302000091EE86A0922001E5EEC18F009BE24EFB2
:1030300018F000AE000C086C091EE86A0922046C46
:10304000051EE86A0522000C00BE1BEF18F001887F
:02305000FF0C73
:0E305200706F7274000000000000FF006275D5
:1030600074746F6E0000E779BC8667726579000042
:103070000000A1E6DCEA646973740000000073924A
:0E308000CE9E6770696F0000000000FFFFFF2A
:02308E00FF0E33
:10309000E350216EEF0E01D0F30EE76EE72E4EEFF8
:1030A00018F00C0E206EE76AE72E54EF18F0202E71
:0C30B00053EF18F0212E4CEF18F0120026
:0430BC00056A046A33
:1030C000100EE76ED89008360936043605360D50D6
:1030D000045C0E50055805E30D50045E0E50055A71
:0830E000082AE72EF0D71200C8
:0830E800000EF36E00EE00F093
:1030F000080E01D81200EA6002D0EE6AFCD7F35045
:08310000E9601200EE6AFCD741
:0831080013EE00F023EE00F0CD
:10311000F86A019C8DEC17F092EC18F0BEEC13F0FD
:04312000FBD71200C7
:02312400120097
:0631260040404040404023
:04312C0016605C606D
:10313000C060DC60FA5F5C61A2610662226240618D
:10314000A262E8624C6368638662E8632E649264FC
:10315000AE64CC632E657465D865F46512657466DB
:08316000BA661E673A67586663
:02316800320132
:02316A00000063
:0533AB007C18BA18CCEB
:1033B0001861646D696E000000284A684A644A67B3
:1033C00070696F00000000165838597059706E709F
:1033D0000000000000F25D6A5E665E706F7274004D
:1033E0000000004668AE689A686C6261636B00001A
:1033F00000AC69026AEE696275746961000000B030
:103400006B366C226C627574746F6E00008C6D127A
:103410006EFE6D6469737400000000986F1E700A80
:103420007067726579000000001A739E738A736D6D
:073430006F746F727300005E
:0440AC00D9CFE6FF83
:1040B000E1CFD9FFFD0EDBCF10F0FE0EDBCF11F00C
:1040C000113404E210500008000E115402E3000EF7
:1040D00001D0010E00D0E552E7CFD9FF1200D9CFB1
:1040E000E6FFE1CFD9FFFE0EDB50000803E2010E30
:1040F00003D002D0FF0E00D0E552E7CFD9FF120067
:10410000D9CFE6FFE1CFD9FFFE0EDBCFE6FFFD0EF4
:10411000DB50000EF350E552E710106E116A10C02C
:10412000F3FF11C0F4FF00D0E552E7CFD9FF120032
:10413000D9CFE6FFE1CFD9FFFD0EDBCF10F0FE0EA9
:10414000DBCF11F011C010F0116A105000D0E55211
:10415000E7CFD9FF1200AC6AAC9CAC9AAC98AC9695
:10416000AC84AB6AAB8EAB9CAB98B86AB886040ED5
:10417000AF6EF28EF28C948E1200AB98949CAC8A47
:104180001200948CAC9AAB8801018A6B12009D9A44
:10419000AB98AC9A1200D9CFE6FFE1CFD9FFACA221
:1041A000FED7FE0EDB50AD6EFE0EDB5000D0E552AA
:1041B000E7CFD9FF1200D9CFE6FFE1CFD9FF020E3A
:1041C000E126010EDB6AD9DFE668E5DFE552E66845
:1041D000E2DFE552FE0EDBCFE6FFDDDFE552106EDB
:1041E000010EDBCFE7FF1050E726010EE7CFDBFF24
:1041F000FD0EDB50020FE66ECEDFE552106E010EB3
:10420000DBCFE7FF1050E726010EE7CFDBFFFC0E08
:10421000DBCFE6FFC0DFE552106E010EDBCFE7FF1C
:104220001050E726010EE7CFDBFFDF6AFD0EDB5003
:10423000DF5C1BE2DF50E76EFA0EDBCFE9FFFB0E1F
:10424000DBCFEAFFE750E926000EEA22EF50E66EE8
:10425000A2DFE552106E010EDBCFE7FF1050E7261C
:10426000010EE7CFDBFFDF2AE1D7010EDB1CE66E94
:1042700092DFE552ACA2FED784DF020EE15C02E2DF
:10428000E16AE552E16EE552E7CFD9FF1200D9CFDE
:10429000E6FFE1CFD9FF020EE126BC0EDE6EB10EC5
:1042A000DD6E9E50200B0CE1DFCF10F0DF06010E1B
:1042B000DBCF11F001E2DB061050111001E0F1D765
:1042C0009E9AAE50106E020EE15C03E200D0E16AED
:1042D000E552E16E1050E552E7CFD9FF1200D9CF79
:1042E000E6FFE1CFD9FF050EE126010EF36E040EC5
:1042F000F3CFDBFF030EDB6ADF6A01018A6B030E7B
:10430000DB5065E1DF5063E1040EDB50050A45E058
:10431000010A31E0070A0DE0020A03E0030A01E0A6
:1043200053D0B5DFFF0803E1040EDB2A01D0DF2AFA
:104330004DD0ADDFE66EFD0EDBCFE9FFFE0EDBCF2D
:10434000EAFFE552E750EE6EED6AFD0EDBCFE9FFC6
:10435000FE0EDBCFEAFFEECF10F0EFCF11F01134FD
:1043600004E21050FE08000E115403E3040EDB2A91
:1043700001D0DF2A2BD08BDFE76E010EE7CFDBFF0A
:10438000200EF36E010EDBCFF4FFF350F45C03E27A
:10439000040EDB2A01D0DF2A19D079DFE66E010195
:1043A0008A51EA6A6A0FE96E010EEA22E552E75085
:1043B000EF6E8A2B010EDB508A5D05E3010EF36E72
:1043C000030EF3CFDBFF02D0010EDF6E98D7DFDEE6
:1043D000DF5019E0FD0EDBCFE9FFFE0EDBCFEAFF79
:1043E000EE68ED68FB0EDBCFE9FFFC0EDBCFEAFFEA
:1043F000EE68ED68F90EDBCFE9FFFA0EDBCFEAFFDE
:10440000EE68ED683FD001016A51E66EFB0EDBCF2E
:10441000E9FFFC0EDBCFEAFFE552E750EE6EED6AF6
:10442000010EDB50040A10E0070A01E023D06B51B3
:10443000E66EF90EDBCFE9FFFA0EDBCFEAFFE552BD
:10444000E750EE6EED6A1ED06CC1E6FF6BC1E6FF71
:1044500057DEE552E552F3CF10F0F4CF11F0F90E2C
:10446000DBCFE9FFFA0EDBCFEAFF10C0EEFF11C091
:10447000EDFF08D0F90EDBCFE9FFFA0EDBCFEAFF44
:10448000EE68ED68010ED880DF5400D0106E050E86
:10449000E15C02E2E16AE552E16E1050E552E7CFDD
:1044A000D9FF1200D9CFE6FFE1CFD9FF110EE126E7
:1044B000FD0EDB50E76E010EE7CFDBFFDF6AFC0E7F
:1044C000DB50DF5C1FE2DF50E76EFA0EDBCFE9FF67
:1044D000FB0EDBCFEAFFE750E926000EEA22EF50A1
:1044E000E66ED950010F106EDACF11F0DF280F0100
:1044F0001024E96E000E1120EA6EE552E750EF6ECF
:10450000DF2ADDD7D950010FE66E000EDA20E66E05
:10451000030EE66EFC0EDB28E66EFE0EDBCFE6FF3A
:104520004ADE106E050EE15E1050680EE66E010E5A
:10453000E66E660EE66E010EE66E640EE66E010E27
:10454000E66ECDDE106E060EE15E1050106E110E9E
:10455000E15C03E200D0E16AE552E16E1050E55201
:10456000E7CFD9FF1200D9CFE6FFE1CFD9FF020E86
:10457000E126FD0EDB50DF6EFC0EDB50E76E010E18
:10458000E7CFDBFFD9CFE6FFDACFE6FF020EE66E1C
:10459000E66EFE0EDBCFE6FF0EDE106E050EE15E70
:1045A0001050680EE66E010EE66E660EE66E010EA7
:1045B000E66E640EE66E010EE66E91DE106E060E7D
:1045C000E15E1050106E020EE15C03E200D0E16A81
:1045D000E552E16E1050E552E7CFD9FF1200D9CF76
:1045E000E6FFE1CFD9FF000EE66EE66A060EE66E44
:1045F000FE0EDBCFE6FF09D8E552E552E552E55263
:1046000000D0E552E7CFD9FF1200D9CFE6FFE1CFC6
:10461000D9FF110EE126DF6AFD0EDB50060A34E0F9
:104620000E0A32E0060A30E0100A2EE03E0A2CE0C4
:10463000020A2AE0120A28E0330A23E0070A21E0EE
:10464000010A1FE00E0A1DE0070A1BE0010A19E03B
:104650001D0A17E0010A15E0030A13E0010A11E040
:104660000B0A0FE0010A0DE0030A0BE0010A09E062
:10467000070A07E0010A05E0310A03E0030A01E046
:1046800006D0010EDF6E03D0020EDF6E00D0FD0EED
:10469000DB50E76E010EE7CFDBFFFF0EE76EFB0E90
:1046A000DBCF10F0FC0EDBCF11F0E7501016116AD3
:1046B000020E10C0DBFFDF50010810E2FB0EDBCF63
:1046C00010F0FC0EDBCF11F0000E1016FF0E1116CD
:1046D00011C010F0116A030E10C0DBFFD950010F9A
:1046E000E66E000EDA20E66E030EE66EDF28E66E5A
:1046F000FE0EDBCFE6FF5FDD106E050EE15E1050B3
:10470000680EE66E010EE66E660EE66E010EE66E51
:10471000640EE66E010EE66EE2DD106E060EE15EE0
:104720001050106E110EE15C03E200D0E16AE55218
:10473000E16E1050E552E7CFD9FF1200D9CFE6FF66
:10474000E1CFD9FF000EE66EE66A060EE66EFE0EBB
:10475000DBCFE6FF5ADFE552E552E552E552FD0EAA
:10476000DB500EE0000EE66EE66A080EE66EFE0E08
:10477000DBCFE6FF4ADFE552E552E552E5520DD0C8
:10478000E668030EE66E080EE66EFE0EDBCFE6FF71
:104790003CDFE552E552E552E552E552E7CFD9FF5D
:1047A0001200D9CFE6FFE1CFD9FFFC0EDBCF10F02E
:1047B000FD0EDBCF11F00001800E111402E0FB0EA4
:1047C000DB70FC0EDBCF12F0FD0EDBCF13F0800EA2
:1047D00013140BE0FC0EDBCF10F0FD0EDBCF11F05D
:1047E000106C111E000E112206D0FC0EDBCF10F053
:1047F000FD0EDBCF11F0FC0E10C0DBFFFD0E11C073
:10480000DBFFFB0EDB50106E116A0A0ED8901036DB
:104810001136E806FBE1D950FC0FE96EFF0EDA20F5
:10482000EA6E1050EE121150ED12FC0EDBCFE6FFD7
:10483000FD0EDBCFE6FF200EE66EFE0EDBCFE6FFC1
:10484000E4DEE552E552E552E552E552E7CFD9FF05
:104850001200D9CFE6FFE1CFD9FF020EE126060E06
:10486000E66E240EE66EFD0EDBCFE6FF7CDEE55243
:10487000E552E552E76E010EE7CFDBFFDF6A030E7C
:10488000DF5C01E3A6D0010E0101156A6825146EF4
:1048900069511522DF50E8240F011424E96E000E3F
:1048A0001520EA6E6A0EE926010EEA22EF50E66E46
:1048B000DF50E8240101EA6A6825E96E6951EA22BD
:1048C0006A0EE926010EEA22EF50E66E19DCE55287
:1048D000E552F3CF12F0F4CF13F0116ADF34FE0B80
:1048E0001136106EFB0EDB501024E96EFC0EDB500F
:1048F0001120EA6E12C0EEFF13C0EDFFDF5000087A
:1049000066E2176ADF34FE0B1736166EFB0EDB50BD
:104910001624E96EFC0EDB501720EA6EEECF14F081
:10492000EFCF15F0FF0E1416030E151614C0E6FF98
:1049300015C0E6FFFE0EDBCFE6FF1D6ADF34FE0B7F
:104940001D361C6EFB0EDB501C24E96EFC0EDB508A
:104950001D20EA6EEECF1AF0EFCF1BF01B3404E2FD
:104960001A50FF08030E1B5402E3000E01D0010E83
:10497000E552E718E66E6FEC20F0E552E552E7CF1E
:1049800015F0E552E7CF14F0186E196A18BE1968D1
:10499000000118501402F3CF12F0F4CF13F01502F7
:1049A000F350132619501402F3501326116ADF3402
:1049B000FE0B1136106EFB0EDB501024E96EFC0E60
:1049C000DB501120EA6E12C0EEFF13C0EDFFDF2AAC
:1049D00056D7FE0EDB5019E0FB0EDBCFE9FFFC0ED5
:1049E000DBCFEAFFEECF10F0EFCF11F0FF0ED88053
:1049F0001056030E1156FB0EDBCFE9FFFC0EDBCF8A
:104A0000EAFF10C0EEFF11C0EDFF010EDB50106E8B
:104A1000020EE15C03E200D0E16AE552E16E105063
:104A2000E552E7CFD9FF1200D9CFE6FFE1CFD9FF9A
:104A3000900EE66E4A0EE66EFE0EDBCFE6FF28EC29
:104A400026F0E552E552E552FE0EDBCFE6FF85EC9F
:104A50002BF0E552F3CFD2F1F4CFD3F1E552E7CF0B
:104A6000D9FF120012001200D9CFE6FFE1CFD9FF23
:104A7000FE0EDBCFE6FF14EC26F0E552FE0EDBCF98
:104A8000E6FF40EC26F0E552E552E7CFD9FF1200F1
:104A9000D9CFE6FFE1CFD9FF0E0EE126010EDB6A8A
:104AA000040E00C1DBFF050E01C1DBFF060E02C1D3
:104AB000DBFF070E03C1DBFF080E04C1DBFF090E9D
:104AC00005C1DBFF0A0E06C1DBFF0B0E07C1DBFFD2
:104AD0000C0E08C1DBFF0D0E09C1DBFFFD0EDBCFA5
:104AE000E9FFFE0EDBCFEAFFEF50010A29E0010AE1
:104AF00001E05FD0FD0EDBCFE9FFFE0EDBCFEAFF6A
:104B0000EF50E66ED2C1E9FFD3C1EAFFE552E750AC
:104B1000EF6ED2C1E9FFD3C1EAFF010EE926000E14
:104B2000EA22010EEF6ED2C1E9FFD3C1EAFF020E05
:104B3000E926000EEA22EF6ADE52030EDD6E39D05E
:104B4000FD0EDBCFE9FFFE0EDBCFEAFFEF50E66E96
:104B5000D2C1E9FFD3C1EAFFE552E750EF6E0A0E7A
:104B6000DBCF10F00B0EDBCF11F004D011C0FAFF39
:104B70001050F96EFBDF020EF3CFDBFF030EF4CF14
:104B8000DBFFD2C1E9FFD3C1EAFF010EE926000E27
:104B9000EA22020EDBCFEFFFD2C1E9FFD3C1EAFF69
:104BA000E926000EEA22030EDBCFEFFFDE52DD6EB8
:104BB00000D0010EDB5016E0DF6804010C51800BC1
:104BC00005E0DF50DF06000801E2F7D70CBF0AD08E
:104BD000010EDBCFE6FFFB0EDBCFE6FFA2EC27F0FA
:104BE000E552E5520E0EE15C02E2E16AE552E16E49
:104BF000E552E7CFD9FF1200D9CFE6FFE1CFD9FFC9
:104C0000FE0EEA6ADB34FE0BEA36E96EA40EE926F4
:104C1000000EEA22FC0EDBCFEEFFFD0EDBCFEDFF38
:104C2000E552E7CFD9FF1200D9CFE6FFE1CFD9FF98
:104C3000FE0EEA6ADB34FE0BEA36E96EA40EE926C4
:104C4000000EEA22EE6AED6AE552E7CFD9FF1200C4
:104C5000D9CFE6FFE1CFD9FFFE0EEA6ADB34FE0BC7
:104C6000EA36E96EC40EE926000EEA22FC0EDBCF1E
:104C7000EEFFFD0EDBCFEDFFE552E7CFD9FF1200CF
:104C8000D9CFE6FFE1CFD9FFFE0EEA6ADB34FE0B97
:104C9000EA36E96EC40EE926000EEA22EE6AED6AF3
:104CA000E552E7CFD9FF12001200D9CFE6FFE1CFDE
:104CB000D9FF090EE126DF6A060E0101BE5D03E39E
:104CC0006D50020B01E034D1010EDB68F36E060E6D
:104CD000F3CFDBFFDBCF10F000016051D880105420
:104CE00001E226D1060EDB50E824040DF3CFE9FFE4
:104CF000F4CFEAFF000EE926040EEA22EF50800B03
:104D000001E013D1010EDBCF10F0060EDB50E824DA
:104D1000040DF3CFE9FFF4CFEAFF000EE926040EFD
:104D2000EA22EE52EF50D880105410E2060EDB500B
:104D3000E824040DF3CFE9FFF4CFEAFF000EE926E3
:104D4000040EEA22EE52010EEFCFDBFF060EDB501F
:104D5000E824040DF3CFE9FFF4CFEAFF000EE926C3
:104D6000040EEA22020EE926000EEA22070EEECF1A
:104D7000DBFF080EEDCFDBFF070EDBCFE9FF080EF0
:104D8000DBCFEAFFEF50F80BE842E842E842E96E79
:104D9000EA6AD890E936EA36C40EE926000EEA221D
:104DA000EECF10F0EFCF11F0070EDBCFE9FF080ECA
:104DB000DBCFEAFFEF50F80BE842E842E842E66E4C
:104DC000010EDB50FD0FE66E060EDB50E824040DED
:104DD000F3CFE9FFF4CFEAFF000EE926040EEA2242
:104DE000020EE926000EEA22EECF12F0EFCF13F00A
:104DF000030E1226000E132212C0E6FF13C0E6FFB8
:104E000004D011C0FAFF1050F96EFBDFE552E552F5
:104E1000E552E552060EDBCFE6FFE0EC2BF0E55263
:104E2000E66E060EDB50E824040DF3CFE9FFF4CF65
:104E3000EAFF000EE926040EEA22EE52E552E750A0
:104E4000EF6E030EF36E060EDBCFF4FFF350F45C4F
:104E50004CE2400E106E060EDB50E824040DF3CF3A
:104E6000E9FFF4CFEAFF000EE926040EEA22105013
:104E7000EF16060EDB50E824040DF3CFE9FFF4CF64
:104E8000EAFF000EE926040EEA22EF50400B400A2A
:104E900001E0010E106E060EDB50E824040DF3CF86
:104EA000E9FFF4CFEAFF000EE926040EEA221050D3
:104EB000010BF36EF346F346F346F346F346F3462F
:104EC000BF0EEF14F310EF6E880E106E060EDB505F
:104ED000E824040DF3CFE9FFF4CFEAFF000EE92642
:104EE000040EEA221050EF1220D0400E106E060E73
:104EF000DB50E824040DF3CFE9FFF4CFEAFF000E06
:104F0000E926040EEA221050EF16880E106E060EE7
:104F1000DB50E824040DF3CFE9FFF4CFEAFF000EE5
:104F2000E926040EEA221050EF12060EDB2AD2D632
:104F3000090EE15C02E2E16AE552E16EE552E7CF7B
:104F4000D9FF1200D9CFE6FFE1CFD9FF060EE12647
:104F5000FE0EDB50040DF3CFE9FFF4CFEAFF610E44
:104F6000E926000EEA22010EEECFDBFF020EEECFA5
:104F7000DBFF030EEECFDBFF040EEECFDBFFD950DD
:104F8000010FE96EDACFEAFFEF500F0BE76E050E67
:104F9000E7CFDBFFFD0EDBCF10F010C0E6FF050E04
:104FA000DBCFE6FFEAEC2BF0E552E552E7CF10F05D
:104FB000FD0FD88010540BE2050EDBCFE6FFEAECC4
:104FC0002BF0E552FD0FE76EFD0EE7CFDBFFFE0E87
:104FD000DB5000011F0BF36EF346F346F346070E5A
:104FE000E415F310E46FE491E493E495050EDB50CF
:104FF000E824010F040DF3CFE9FFF4CFEAFF000E20
:10500000E926040EEA22020EE926000EEA22EE50FC
:10501000EFCFEAFFE96EE4C0EFFFFD0EDB50030FB8
:10502000E66E050EDB50E824010F040DF3CFE9FF17
:10503000F4CFEAFF000EE926040EEA22020EE9266A
:10504000000EEA22EE50EFCFEAFFE96E010EE926EC
:10505000000EEA22E552E750EF6E050EDB50E82421
:10506000010F040DF3CFE9FFF4CFEAFF000EE926AC
:10507000040EEA22020EE926000EEA22EE50EFCFDD
:10508000EAFFE96E020EE926000EEA22EF6AFD0E43
:10509000DB50030FE66E050EDB50E824010F040D14
:1050A000F3CFE9FFF4CFEAFF000EE926040EEA226F
:1050B000EE52E552E750EF6E030EF36E050EDBCFB6
:1050C000F4FFF350F45C50E2400E106E050EDB501E
:1050D000E824010F040DF3CFE9FFF4CFEAFF000E3F
:1050E000E926040EEA221050EF16050EDB50E824E4
:1050F000010F040DF3CFE9FFF4CFEAFF000EE9261C
:10510000040EEA22EF50400B400A01E0010E106E3F
:10511000050EDB50E824010F040DF3CFE9FFF4CFB7
:10512000EAFF000EE926040EEA221050010BF36E8E
:10513000F346F346F346F346F346F346BF0EEF1449
:10514000F310EF6E880E106E050EDB50E824010F91
:10515000040DF3CFE9FFF4CFEAFF000EE926040EB9
:10516000EA221050EF1222D0400E106E050EDB50D6
:10517000E824010F040DF3CFE9FFF4CFEAFF000E9E
:10518000E926040EEA221050EF16880E106E050E66
:10519000DB50E824010F040DF3CFE9FFF4CFEAFF61
:1051A000000EE926040EEA221050EF12060EE15C12
:1051B00002E2E16AE552E16EE552E7CFD9FF120063
:1051C000D9CFE6FFE1CFD9FFE652DF6A100EDF5CF0
:1051D0003DE2DF50040DF3CFE9FFF4CFEAFF610EAB
:1051E000E926000EEA22EF50200B2EE0DF50040DDE
:1051F000F3CFE9FFF4CFEAFF610EE926000EEA22C1
:10520000FE0EDBCFEFFFDF50040DF3CFE9FFF4CF4D
:10521000EAFF610EE926000EEA22EF9ADF50040D44
:10522000F3CFE9FFF4CFEAFF610EE926000EEA2290
:10523000020EE926000EEA22FC0EDBCFEEFFFD0E89
:10524000DBCFEDFFDF5004D0DF2AC0D7FF0E00D048
:10525000E552E552E7CFD9FF1200D9CFE6FFE1CF03
:10526000D9FFFB0EDB50040DF3CFE9FFF4CFEAFFCB
:10527000610EE926000EEA22EF50200B33E0FB0E10
:10528000DB50040DF3CFE9FFF4CFEAFF610EE9260E
:10529000000EEA22FE0EDBCFEFFFFB0EDB50040D0B
:1052A000F3CFE9FFF4CFEAFF610EE926000EEA2210
:1052B000EF9AFB0EDB50040DF3CFE9FFF4CFEAFFCA
:1052C000610EE926000EEA22020EE926000EEA220D
:1052D000FC0EDBCFEEFFFD0EDBCFEDFFFB0EDB5058
:1052E00003D002D0FF0E00D0E552E7CFD9FF120065
:1052F000D9CFE6FFE1CFD9FFE652DF6A100EDF5CBF
:105300001EE2DF50040DF3CFE9FFF4CFEAFF610E98
:10531000E926000EEA22020EE926000EEA22EECF6E
:1053200010F0EFCF11F0FD0EDB50101803E1FE0E70
:10533000DB50111802E1010E04D0DF2ADFD7000E86
:1053400000D0E552E552E7CFD9FF1200D9CFE6FFF2
:10535000E1CFD9FFE652DF6A100EDF5C1DE2DF50BD
:10536000040DF3CFE9FFF4CFEAFF610EE926000E4A
:10537000EA22EF8ADF50040DF3CFE9FFF4CFEAFF12
:10538000610EE926000EEA22020EE926000EEA224C
:10539000EE6AED6ADF2AE0D7EA0EF66E080EF76EC7
:1053A0000800F5CF60F0E552E552E7CFD9FF1200D3
:1053B000D9CFE6FFE1CFD9FF080EE126C7DF610EA6
:1053C000DF6EDE52640EDD6E6D0EF36E020EF3CFF5
:1053D000DBFF690EF36E030EF3CFDBFF6E0EF36E91
:1053E000040EF3CFDBFF050EDB6A060EDB6A070E49
:1053F000DB6A14EC0FF0F3CF61F0F4CF62F0D9CF99
:10540000E6FFDACFE6FFB6EC11F0E552E552F3CF56
:1054100063F0F4CF64F0E66A3EEC0CF0E552700EF7
:10542000DF6EDE526E0EDD6E700EF36E020EF3CF87
:10543000DBFF030EDB6A040EDB6A050EDB6A060E79
:10544000DB6A070EDB6A32EC0FF0F3CF7DF0F4CFAE
:105450007EF0D9CFE6FFDACFE6FFB6EC11F0E552E9
:10546000E552F3CF7FF0F4CF80F0070EE66E0BEC41
:105470002CF0E552080EE15C02E2E16AE552E16ED1
:10548000E552E7CFD9FF1200D9CFE6FFE1CFD9FF30
:10549000020EE126100EF36EFE0EDBCFF4FFF3508A
:1054A000F45C57E2FE0EDB50040DF3CFE9FFF4CFBE
:1054B000EAFF610EE926000EEA22EF50200B49E1D7
:1054C000FE0EDB50040DF3CFE9FFF4CFEAFF610ECF
:1054D000E926000EEA22EF8AFE0EDB50040DF3CF20
:1054E000E9FFF4CFEAFF610EE926000EEA22020E80
:1054F000E926000EEA22EECFE6FFEFCFE6FF3DEC15
:1055000013F0E552E552F3CFDEFFF4CFDDFFDECF3F
:1055100010F0DDCF11F0FE0EDBCFE6FF04D011C09E
:10552000FAFF1050F96EFBDFE552FE0EDB50040D62
:10553000F3CFE9FFF4CFEAFF610EE926000EEA227D
:10554000020EE926000EEA22EE6AED6A010E03D091
:1055500002D0000E00D0106E020EE15C02E2E16AA1
:10556000E552E16E1050E552E7CFD9FF1200D9CFD6
:10557000E6FFE1CFD9FF020EE126100EF36EFE0E1C
:10558000DBCFF4FFF350F45C3AE2FE0EDB50040D87
:10559000F3CFE9FFF4CFEAFF610EE926000EEA221D
:1055A000EF50200B2CE1FE0EDB50040DF3CFE9FF92
:1055B000F4CFEAFF610EE926000EEA22020EE92688
:1055C000000EEA22EECFE6FFEFCFE6FF65EC13F028
:1055D000E552E552F3CFDEFFF4CFDDFFDECF10F072
:1055E000DDCF11F0FE0EDBCFE6FF04D011C0FAFFD5
:1055F0001050F96EFBDFE552010E03D002D0000E11
:1056000000D0106E020EE15C02E2E16AE552E16E4A
:105610001050E552E7CFD9FF1200D9CFE6FFE1CF16
:10562000D9FF030EE126010EF36E020EF3CFDBFF6E
:10563000100EF36E020EDBCFF4FFF350F45C57E272
:10564000020EDB50040DF3CFE9FFF4CFEAFF610E49
:10565000E926000EEA22EF50200B46E1020EDB5055
:10566000040DF3CFE9FFF4CFEAFF610EE926000E47
:10567000EA22EF8A020EDB50040DF3CFE9FFF4CFEC
:10568000EAFF610EE926000EEA22020EE926000E6C
:10569000EA22EECFE6FFEFCFE6FF3DEC13F0E55256
:1056A000E552F3CFDEFFF4CFDDFFDECF10F0DDCF2C
:1056B00011F0020EDBCFE6FF04D011C0FAFF10504C
:1056C000F96EFBDFE552020EDB50040DF3CFE9FF6C
:1056D000F4CFEAFF610EE926000EEA22020EE92667
:1056E000000EEA22EE6AED6A020EDB2AA1D7010E55
:1056F000106E030EE15C03E200D0E16AE552E16E58
:105700001050E552E7CFD9FF1200D9CFE6FFE1CF25
:10571000D9FF050EE126FE0EDB50040DF3CFE9FFA5
:10572000F4CFEAFF610EE926000EEA22EECFDFFF9A
:10573000010EEECFDBFF020EEECFDBFF030EEECF4E
:10574000DBFFD9CFE9FFDACFEAFFEF500F0BE76EAF
:10575000040EE7CFDBFFFE0EDB500AE1730E106E86
:10576000040E116E10C0F3FF11C0F4FF1FD01ED045
:10577000040EDB50E824010F040DF3CFE9FFF4CF52
:10578000EAFF000EE926040EEA22020EE926000EC8
:10579000EA22EECF10F0EFCF11F0030E1026000E2C
:1057A000112210C0F3FF11C0F4FF00D0050EE15C20
:1057B00002E2E16AE552E16EE552E7CFD9FF12005D
:1057C000D9CFE6FFE1CFD9FF400E00D0E552E7CFB9
:1057D000D9FF1200D9CFE6FFE1CFD9FF400E00D0AC
:1057E000E552E7CFD9FF1200D9CFE6FFE1CFD9FFCD
:1057F000E652DF6A060EDF5C09E2DF50EA6AF50F67
:10580000E96E000EEA22EF6ADF2AF4D7E552E5528C
:10581000E7CFD9FF1200D9CFE6FFE1CFD9FF090EBC
:10582000E126FE0EDBCFF2F0260EE66E5D0EE66E92
:10583000F2C0E6FF28EC26F0E552E552E552F2C050
:10584000E6FF85EC2BF0E552F3CFF3F0F4CFF4F064
:1058500032EC0FF0F3CFFBF0F4CFFCF0CFEC33F0F1
:10586000C3DF700EDF6EDE526F0EDD6E720EF36EF2
:10587000020EF3CFDBFF740EF36E030EF3CFDBFFEC
:10588000040EDB6A050EDB6A060EDB6A070EDB6AB6
:10589000010EE66ED9CFE6FFDACFE6FFD5D8E552A6
:1058A000E552E552020EE66ED9CFE6FFDACFE6FF0B
:1058B000CBD8E552E552E552030EE66ED9CFE6FFAE
:1058C000DACFE6FFC1D8E552E552E552040EE66EA6
:1058D000D9CFE6FFDACFE6FFB7D8E552E552E55279
:1058E000050EE66ED9CFE6FFDACFE6FFADD8E5527A
:1058F000E552E552060EE66ED9CFE6FFDACFE6FFB7
:10590000A3D8E552E552E5521A0EE66E5B0EE66E3E
:10591000100EE66E270EE66EB9EC08F0E552E55281
:10592000E552E552090EE15C02E2E16AE552E16E00
:10593000E552E7CFD9FF1200D9CFE6FFE1CFD9FF7B
:10594000FE0EDBCFE6FF14EC26F0E552FE0EDBCFB9
:10595000E6FF40EC26F0E5521A0EE66E5B0EE66EB0
:1059600061EC0BF0E552E552E552E7CFD9FF1200AA
:105970001200D9CFE6FFE1CFD9FF050EE126DF6A9D
:10598000DF6A050EDF5C52E2DF500C0DF3CFF6FF4D
:10599000F4CFF7FF520EF626300EF7220A0EF62647
:1059A000000EF7220900010EF5CFDBFF0A00020E00
:1059B000F5CFDBFFDF500C0DF3CFF6FFF4CFF7FF91
:1059C000520EF626300EF722080EF626000EF722AB
:1059D0000900030EF5CFDBFF0A00040EF5CFDBFF55
:1059E000FD0EDBCF10F0FE0EDBCF11F0010EDBCF92
:1059F00012F0020EDBCF13F01050125C115013584E
:105A000013E3030EDBCF14F0040EDBCF15F0FD0E15
:105A1000DBCF16F0FE0EDBCF17F01450165C1550DE
:105A2000175802E3DF5004D0DF2AABD7000E00D0B6
:105A3000106E050EE15C02E2E16AE552E16E105083
:105A4000E552E7CFD9FF1200D9CFE6FFE1CFD9FF6A
:105A5000040EE126FD0EDBCFE6FFFE0EDBCFE6FFF8
:105A6000B6EC11F0E552E552020EF3CFDBFF030E68
:105A7000F4CFDBFFD950020FE96EDACFEAFFFF0E59
:105A8000EE1801E1ED5031E0FC0EDBCFE6FF020E37
:105A9000DBCFE6FF030EDBCFE6FFFBC0E6FF2DEC1E
:105AA00029F0E552E552E552E552E76EFC0EE7CFEC
:105AB000DBFF020EDBCFE6FF030EDBCFE6FF19ECC8
:105AC00013F0E552E552F3CFDEFFF4CFDDFFDECF7A
:105AD00010F0DDCF11F0FC0EDBCFE6FF04D011C0DB
:105AE000FAFF1050F96EFBDFE552040EE15C02E2B2
:105AF000E16AE552E16EE552E7CFD9FF1200D9CF56
:105B0000E6FFE1CFD9FFFE0EDBCFE6FF44EC2AF043
:105B1000E552E552E7CFD9FF1200D9CFE6FFE1CF3A
:105B2000D9FF0A0EE126DF6A060EDF5C01E3E3D04F
:105B3000DF500A0DF3CFE9FFF4CFEAFF000EE926AC
:105B4000010EEA22060EE926000EEA22EECF12F03E
:105B5000EFCF13F004D013C0FAFF1250F96EFBDF41
:105B6000F3CF10F0F4CF11F010C0E6FF11C0E6FF44
:105B700000DFE552E552E76E010EE7CFDBFFDF50B5
:105B8000EA6AF50FE96E000EEA22EF50F36E010E9D
:105B9000DB50F35C01E1ADD0DF28E66EB0DFE5520B
:105BA000010EDB500C0DF3CFF6FFF4CFF7FF520ED2
:105BB000F626300EF7220800020EF5CFDBFF010EAD
:105BC000DB500C0DF3CFF6FFF4CFF7FF520EF626A5
:105BD000300EF722010EF626000EF7220800030E03
:105BE000F5CFDBFF010EDB500C0DF3CFF6FFF4CF4A
:105BF000F7FF520EF626300EF722020EF626000EA2
:105C0000F7220800040EF5CFDBFF010EDB500C0D70
:105C1000F3CFF6FFF4CFF7FF520EF626300EF72241
:105C2000030EF626000EF7220800050EF5CFDBFF67
:105C3000010EDB500C0DF3CFF6FFF4CFF7FF520E41
:105C4000F626300EF722040EF626000EF722080084
:105C5000060EF5CFDBFF010EDB500C0DF3CFF6FF88
:105C6000F4CFF7FF520EF626300EF722050EF62679
:105C7000000EF7220800070EF5CFDBFF010EDB5008
:105C80000C0DF3CFF6FFF4CFF7FF520EF626300ED1
:105C9000F722060EF626000EF7220800080EF5CFB2
:105CA000DBFF010EDB500C0DF3CFF6FFF4CFF7FF57
:105CB000520EF626300EF722070EF626000EF722B9
:105CC0000800090EF5CFDBFFDF28E66ED950020F82
:105CD000E66E000EDA20E66EB7DEE552E552E552DA
:105CE000DF50EA6AF50FE96E000EEA22010EDBCF03
:105CF000EFFFDF2A19D71A0EE66E5B0EE66E100E66
:105D0000E66E270EE66E29EC0AF0E552E552E55202
:105D1000E5520A0EE15C02E2E16AE552E16EE5520B
:105D2000E7CFD9FF1200D9CFE6FFE1CFD9FF020EAE
:105D3000E126010EDB6AFD0EDBCFE9FFFE0EDBCFB5
:105D4000EAFFEF5001E03CD0FD0EDBCFE9FFFE0E95
:105D5000DBCFEAFFEF50E66EF3C0E9FFF4C0EAFFE5
:105D6000E552E750EF6EFD0EDBCFE9FFFE0EDBCF15
:105D7000EAFF010EE926000EEA22EF50E66EF3C0BC
:105D8000E9FFF4C0EAFF010EE926000EEA22E5521F
:105D9000E750EF6EF3C0E9FFF4C0EAFF020EE92618
:105DA000000EEA22EF68F3C0E9FFF4C0EAFF030E39
:105DB000E926000EEA22EF68DE52040EDD6E00D006
:105DC000010EDB500CE004010CBF09D0010EDBCF4B
:105DD000E6FFF2C0E6FFA2EC27F0E552E552020E24
:105DE000E15C02E2E16AE552E16EE552E7CFD9FFFC
:105DF0001200D9CFE6FFE1CFD9FF920EE66E5E0E1C
:105E0000E66EFE0EDBCFE6FF28EC26F0E552E5520B
:105E1000E552FE0EDBCFE6FF85EC2BF0E552F3CF2B
:105E2000D0F1F4CFD1F1FE0EDB040A0DF3CFE9FF80
:105E3000F4CFEAFF000EE926010EEA22080EE92659
:105E4000000EEA22EECF10F0EFCF11F0010EE66E59
:105E500004D011C0FAFF1050F96EFBDFE552E55295
:105E6000E7CFD9FF120012001200D9CFE6FFE1CF31
:105E7000D9FFFE0EDBCFE6FF14EC26F0E552FE0E56
:105E8000DBCFE6FF40EC26F0E552E552E7CFD9FF45
:105E90001200D9CFE6FFE1CFD9FF0E0EE126010EA9
:105EA000DB6A040E00C1DBFF050E01C1DBFF060E3D
:105EB00002C1DBFF070E03C1DBFF080E04C1DBFFDD
:105EC000090E05C1DBFF0A0E06C1DBFF0B0E07C181
:105ED000DBFF0C0E08C1DBFF0D0E09C1DBFFFD0E61
:105EE000DBCFE9FFFE0EDBCFEAFFEF50010A29E02E
:105EF000010A01E05FD0FD0EDBCFE9FFFE0EDBCF34
:105F0000EAFFEF50E66ED0C1E9FFD1C1EAFFE552EA
:105F1000E750EF6ED0C1E9FFD1C1EAFF010EE926DB
:105F2000000EEA22010EEF6ED0C1E9FFD1C1EAFFF7
:105F3000020EE926000EEA22EF6ADE52030EDD6E43
:105F400039D0FD0EDBCFE9FFFE0EDBCFEAFFEF50CD
:105F5000E66ED0C1E9FFD1C1EAFFE552E750EF6E2E
:105F60000A0EDBCF10F00B0EDBCF11F004D011C006
:105F7000FAFF1050F96EFBDF020EF3CFDBFF030ECA
:105F8000F4CFDBFFD0C1E9FFD1C1EAFF010EE92662
:105F9000000EEA22020EDBCFEFFFD0C1E9FFD1C134
:105FA000EAFFE926000EEA22030EDBCFEFFFDE5206
:105FB000DD6E00D0010EDB5016E0DF6804010C51ED
:105FC000800B05E0DF50DF06000801E2F7D70CBFC9
:105FD0000AD0010EDBCFE6FFFB0EDBCFE6FFA2EC23
:105FE00027F0E552E5520E0EE15C02E2E16AE5526D
:105FF000E16EE552E7CFD9FF1200D9CFE6FFE1CF3E
:10600000D9FFFE0EDB50E8B09282E8A09292E552F2
:10601000E7CFD9FF1200D9CFE6FFE1CFD9FF020EBB
:10602000E1261CD8F3CFDEFFF4CFDDFFD950010FFE
:10603000E96EDACFEAFFEF50800B02E0010E02D0EA
:10604000000E00D0106E020EE15C02E2E16AE55241
:10605000E16E1050E552E7CFD9FF1200D9CFE6FF2D
:10606000E1CFD9FF030EE126020EDB68C29AC29887
:10607000C296C284C280C282C250020B08E0020EE5
:10608000DBCFF3FFDB06F350000801E2F5D7C35086
:10609000DF6E010EC4CFDBFFC290DECF10F0DDCF8C
:1060A00011F010C0F3FF11C0F4FF030EE15C03E236
:1060B00000D0E16AE552E16EE552E7CFD9FF120068
:1060C000D9CFE6FFE1CFD9FFFE0EDB50E8B08082EA
:1060D000E8A08092E552E7CFD9FF1200D9CFE6FFC2
:1060E000E1CFD9FF030EE126020EDB68C29AC29807
:1060F000C296C294C280C282C250020B08E0020E55
:10610000DBCFF3FFDB06F350000801E2F5D7C35005
:10611000DF6E010EC4CFDBFFC290DECF10F0DDCF0B
:1061200011F010C0F3FF11C0F4FF030EE15C03E2B5
:1061300000D0E16AE552E16EE552E7CFD9FF1200E7
:10614000D9CFE6FFE1CFD9FFFE0EDB50E8B0928653
:10615000E8A09296E552E7CFD9FF1200D9CFE6FF2B
:10616000E1CFD9FF020EE1261CD8F3CFDEFFF4CF3A
:10617000DDFFD950010FE96EDACFEAFFEF50800B57
:1061800002E0010E02D0000E00D0106E020EE15CA3
:1061900002E2E16AE552E16E1050E552E7CFD9FF25
:1061A0001200D9CFE6FFE1CFD9FF030EE126020EA0
:1061B000DB68C29AC298C286C284C280C282C250C0
:1061C000020B08E0020EDBCFF3FFDB06F350000802
:1061D00001E2F5D7C350DF6E010EC4CFDBFFC290E2
:1061E000DECF10F0DDCF11F010C0F3FF11C0F4FFCF
:1061F000030EE15C03E200D0E16AE552E16EE55294
:10620000E7CFD9FF1200D9CFE6FFE1CFD9FFFE0ECD
:10621000DB50E8B08086E8A08096E552E7CFD9FF52
:106220001200D9CFE6FFE1CFD9FF030EE126020E1F
:10623000DB68C29AC298C286C294C280C282C2502F
:10624000020B08E0020EDBCFF3FFDB06F350000881
:1062500001E2F5D7C350DF6E010EC4CFDBFFC29061
:10626000DECF10F0DDCF11F010C0F3FF11C0F4FF4E
:10627000030EE15C03E200D0E16AE552E16EE55213
:10628000E7CFD9FF1200D9CFE6FFE1CFD9FFFE0E4D
:10629000DB50E8B09682E8A09692E552E7CFD9FFAE
:1062A0001200D9CFE6FFE1CFD9FF020EE1261CD8BC
:1062B000F3CFDEFFF4CFDDFFD950010FE96EDACF67
:1062C000EAFFEF50800B02E0010E02D0000E00D07A
:1062D000106E020EE15C02E2E16AE552E16E1050DE
:1062E000E552E7CFD9FF1200D9CFE6FFE1CFD9FFC2
:1062F000030EE126020EDB68C29AC288C286C294EF
:10630000C280C282C250020B08E0020EDBCFF3FF54
:10631000DB06F350000801E2F5D7C350DF6E010E33
:10632000C4CFDBFFC290DECF10F0DDCF11F010C084
:10633000F3FF11C0F4FF030EE15C03E200D0E16A59
:10634000E552E16EE552E7CFD9FF1200D9CFE6FF63
:10635000E1CFD9FFFE0EDB50E8B08482E8A0849242
:10636000E552E7CFD9FF1200D9CFE6FFE1CFD9FF41
:10637000030EE126020EDB68C29AC288C286C2847E
:10638000C280C282C250020B08E0020EDBCFF3FFD4
:10639000DB06F350000801E2F5D7C350DF6E010EB3
:1063A000C4CFDBFFC290DECF10F0DDCF11F010C004
:1063B000F3FF11C0F4FF030EE15C03E200D0E16AD9
:1063C000E552E16EE552E7CFD9FF1200D9CFE6FFE3
:1063D000E1CFD9FFFE0EDB50E8B0928AE8A0929A96
:1063E000E552E7CFD9FF1200D9CFE6FFE1CFD9FFC1
:1063F000020EE1261CD8F3CFDEFFF4CFDDFFD9502B
:10640000010FE96EDACFEAFFEF50800B02E0010ED8
:1064100002D0000E00D0106E020EE15C02E2E16AD2
:10642000E552E16E1050E552E7CFD9FF1200D9CF07
:10643000E6FFE1CFD9FF030EE126020EDB68C29A28
:10644000C288C296C294C280C282C250020B08E0C7
:10645000020EDBCFF3FFDB06F350000801E2F5D7B5
:10646000C350DF6E010EC4CFDBFFC290DECF10F051
:10647000DDCF11F010C0F3FF11C0F4FF030EE15C9B
:1064800003E200D0E16AE552E16EE552E7CFD9FFC1
:106490001200D9CFE6FFE1CFD9FFFE0EDB50E8B006
:1064A000808AE8A0809AE552E7CFD9FF1200D9CFC1
:1064B000E6FFE1CFD9FF030EE126020EDB68C29AA8
:1064C000C288C296C284C280C282C250020B08E057
:1064D000020EDBCFF3FFDB06F350000801E2F5D735
:1064E000C350DF6E010EC4CFDBFFC290DECF10F0D1
:1064F000DDCF11F010C0F3FF11C0F4FF030EE15C1B
:1065000003E200D0E16AE552E16EE552E7CFD9FF40
:106510001200D9CFE6FFE1CFD9FFFE0EDB50E8B085
:106520009382E8A09392E552E7CFD9FF1200D9CF2A
:10653000E6FFE1CFD9FF020EE1261CD8F3CFDEFF44
:10654000F4CFDDFFD950010FE96EDACFEAFFEF504B
:10655000800B02E0010E02D0000E00D0106E020E81
:10656000E15C02E2E16AE552E16E1050E552E7CFEC
:10657000D9FF1200D9CFE6FFE1CFD9FF030EE12604
:10658000020EDB68C28AC298C286C294C280C282EE
:10659000C250020B08E0020EDBCFF3FFDB06F35024
:1065A000000801E2F5D7C350DF6E010EC4CFDBFF58
:1065B000C290DECF10F0DDCF11F010C0F3FF11C09C
:1065C000F4FF030EE15C03E200D0E16AE552E16E04
:1065D000E552E7CFD9FF1200D9CFE6FFE1CFD9FFCF
:1065E000FE0EDB50E8B08182E8A08192E552E7CF51
:1065F000D9FF1200D9CFE6FFE1CFD9FF030EE12684
:10660000020EDB68C28AC288C296C294C280C2826D
:10661000C250020B08E0020EDBCFF3FFDB06F350A3
:10662000000801E2F5D7C350DF6E010EC4CFDBFFD7
:10663000C290DECF10F0DDCF11F010C0F3FF11C01B
:10664000F4FF030EE15C03E200D0E16AE552E16E83
:10665000E552E7CFD9FF1200D9CFE6FFE1CFD9FF4E
:10666000FE0EDB50E8B09386E8A09396E552E7CFA4
:10667000D9FF1200D9CFE6FFE1CFD9FF020EE12604
:106680001CD8F3CFDEFFF4CFDDFFD950010FE96E48
:10669000DACFEAFFEF50800B02E0010E02D0000ECD
:1066A00000D0106E020EE15C02E2E16AE552E16E9A
:1066B0001050E552E7CFD9FF1200D9CFE6FFE1CF66
:1066C000D9FF030EE126020EDB68C28AC298C29689
:1066D000C284C280C282C250020B08E0020EDBCF2D
:1066E000F3FFDB06F350000801E2F5D7C350DF6E7D
:1066F000010EC4CFDBFFC290DECF10F0DDCF11F072
:1067000010C0F3FF11C0F4FF030EE15C03E200D000
:10671000E16AE552E16EE552E7CFD9FF1200D9CF29
:10672000E6FFE1CFD9FFFE0EDB50E8B08186E8A09E
:106730008196E552E7CFD9FF1200D9CFE6FFE1CF2E
:10674000D9FF030EE126020EDB68C28AC298C29608
:10675000C294C280C282C250020B08E0020EDBCF9C
:10676000F3FFDB06F350000801E2F5D7C350DF6EFC
:10677000010EC4CFDBFFC290DECF10F0DDCF11F0F1
:1067800010C0F3FF11C0F4FF030EE15C03E200D080
:10679000E16AE552E16EE552E7CFD9FF1200D9CFA9
:1067A000E6FFE1CFD9FFE652CF0EC1140009C16E5A
:1067B000F00EC1140009C16EC09EC70EC014380986
:1067C000C06EF80EC0140409C06EDF6A060EDF5CEE
:1067D0001DE2DF500A0DF3CFE9FFF4CFEAFF000E10
:1067E000E926010EEA22080EE926000EEA22EECF83
:1067F00010F0EFCF11F0010EE66E04D011C0FAFFD9
:106800001050F96EFBDFE552DF2AE0D7E552E55282
:10681000E7CFD9FF1200D9CFE6FFE1CFD9FFFE0EB7
:10682000DB040A0DF3CF10F0F4CF11F0000E1026A8
:10683000010E112210C0F3FF11C0F4FF00D0E55289
:10684000E7CFD9FF1200D9CFE6FFE1CFD9FFE6525B
:10685000FE0EDBCFC5F1E60EE66E680EE66EC5C134
:10686000E6FF28EC26F0E552E552E5529C0EE66E76
:10687000680EE66E92EC10F0E552E552DF6EC5C18F
:10688000E6FF85EC2BF0E552F3CFC6F1F4CFC7F16C
:10689000E552E552E7CFD9FF12001200060E0101C2
:1068A000BE5D03E36D50020B01E000D01200D9CFB2
:1068B000E6FFE1CFD9FFFE0EDBCFE6FF14EC26F0BA
:1068C000E552FE0EDBCFE6FF40EC26F0E5529C0ED3
:1068D000E66E680EE66ED4EC10F0E552E552E55235
:1068E000E7CFD9FF1200D9CFE6FFE1CFD9FF0B0EDA
:1068F000E126D950010FE96EDACFEAFF4C0EEE6EB9
:10690000420EEE6E410EEE6E430EEE6E4B0EEE6ECE
:10691000200EEE6E3A0EEE6E290EEE6EEE6A0A0E46
:10692000DB6ADB6AFC0EDB50F36E0A0EDBCFF4FF92
:10693000F350F45C1DE20A0EDB50E76EFD0EDBCF78
:10694000E9FFFE0EDBCFEAFFE750E926000EEA2260
:10695000EF50E66E0A0EDB500101EA6AC625E96EC9
:10696000C751EA22E552E750EF6E0A0EDB2ADAD76A
:10697000FC0EDB50E76E0A0EE7CFDBFFDB500CE0CE
:1069800004010CBF09D00A0EDBCFE6FFC5C1E6FF4C
:10699000A2EC27F0E552E5520B0EE15C02E2E16A5F
:1069A000E552E16EE552E7CFD9FF1200D9CFE6FFFD
:1069B000E1CFD9FFE652FE0EDBCFC2F12A0EE66E22
:1069C0006A0EE66EC2C1E6FF28EC26F0E552E552FB
:1069D000E552C2C1E6FF85EC2BF0E552F3CFC3F1DF
:1069E000F4CFC4F1E552E552E7CFD9FF120012000F
:1069F000060E0101BE5D03E36D50020B01E000D005
:106A00001200D9CFE6FFE1CFD9FFFE0EDBCFE6FFC4
:106A100014EC26F0E552FE0EDBCFE6FF40EC26F04C
:106A2000E552E552E7CFD9FF1200D9CFE6FFE1CF1B
:106A3000D9FF0B0EE126020EDB6A090EDB6A0A0E95
:106A4000DB6AFD0EDBCFE9FFFE0EDBCFEAFFEF5086
:106A5000FF0A01E182D0FE0A2BE0010A01E07FD0AB
:106A6000FD0EDBCFE9FFFE0EDBCFEAFFEF50E66E57
:106A7000C3C1E9FFC4C1EAFFE552E750EF6EC3C1ED
:106A8000E9FFC4C1EAFF010EE926000EEA22010E69
:106A9000EF6EC3C1E9FFC4C1EAFF010EE926000E93
:106AA000EA22EF6A030EF36E020EF3CFDBFF58D03B
:106AB000FD0EDBCFE9FFFE0EDBCFEAFFEF50E66E07
:106AC000C3C1E9FFC4C1EAFFE552E750EF6E2A0EE9
:106AD000F36E030EF3CFDBFF010EF36E040EF3CF64
:106AE000DBFFD950030FE66E000EDA20E66E020ED1
:106AF000E66E020EE66E010EE66EDBEC20F0106E26
:106B0000050EE15E1050D950090FE66E000EDA2036
:106B1000E66ED950070FE66E000EDA20E66ED95009
:106B2000050FE66E000EDA20E66E6FEC21F0106EB7
:106B3000060EE15E1050DF6EC3C1E9FFC4C1EAFF7B
:106B4000010EE926000EEA22090EDBCFEFFF020E4E
:106B5000F36E020EF3CFDBFF03D0FF0001D000D0B5
:106B6000020EDB501BE0010EDB68040104010C5136
:106B7000800B08E0010EDBCFF3FFDB06F3500008CB
:106B800001E2F3D704010CBF09D0020EDBCFE6FF10
:106B9000C2C1E6FFA2EC27F0E552E5520B0EE15C24
:106BA00002E2E16AE552E16EE552E7CFD9FF120059
:106BB000D9CFE6FFE1CFD9FF5E0EE66E6C0EE66E32
:106BC000FE0EDBCFE6FF28EC26F0E552E552E5525B
:106BD000FE0EDBCFE6FF85EC2BF0E552F3CFCCF1D8
:106BE000F4CFCDF1FE0EDBCFE6FF0BEC34F0E55237
:106BF000F3CFE9FFF4CFEAFF080EE926000EEA2200
:106C0000EECF10F0EFCF11F0010EE66E04D011C000
:106C1000FAFF1050F96EFBDFE552E552E7CFD9FFDE
:106C200012001200060E0101BE5D03E36D50020B5F
:106C300001E000D01200D9CFE6FFE1CFD9FFFE0E70
:106C4000DBCFE6FF14EC26F0E552FE0EDBCFE6FFCD
:106C500040EC26F0E552E552E7CFD9FF1200D9CF3C
:106C6000E6FFE1CFD9FF020EE126010EDB6AFD0E41
:106C7000DBCFE9FFFE0EDBCFEAFFEF50FF0A5EE05D
:106C8000FE0A29E0010A01E05BD0FD0EDBCFE9FF3F
:106C9000FE0EDBCFEAFFEF50E66ECCC1E9FFCDC1BF
:106CA000EAFFE552E750EF6ECCC1E9FFCDC1EAFF44
:106CB000010EE926000EEA22010EEF6ECCC1E9FFBB
:106CC000CDC1EAFF020EE926000EEA22EF6ADE528B
:106CD000030EDD6E36D0FD0EDBCFE9FFFE0EDBCFFF
:106CE000EAFFEF50E66ECCC1E9FFCDC1EAFFE55205
:106CF000E750EF6EFB0EDBCFE6FF0BEC34F0E55216
:106D0000F3CFE9FFF4CFEAFFEECF10F0EFCF11F0B1
:106D100004D011C0FAFF1050F96EFBDFE66ECCC153
:106D2000E9FFCDC1EAFF010EE926000EEA22E55295
:106D3000E750EF6EDE52020EDD6E03D0FF0001D091
:106D400000D0010EDB5018E0DF68040104010C5193
:106D5000800B05E0DF50DF06000801E2F6D70401F2
:106D60000CBF0AD0010EDBCFE6FFFB0EDBCFE6FF48
:106D7000A2EC27F0E552E552020EE15C02E2E16A84
:106D8000E552E16EE552E7CFD9FF1200D9CFE6FF19
:106D9000E1CFD9FF3A0EE66E6E0EE66EFE0EDBCF49
:106DA000E6FF28EC26F0E552E552E552FE0EDBCF79
:106DB000E6FF85EC2BF0E552F3CFCAF1F4CFCBF12F
:106DC000FE0EDBCFE6FF0BEC34F0E552F3CFE9FF2C
:106DD000F4CFEAFF080EE926000EEA22EECF10F00B
:106DE000EFCF11F0010EE66E04D011C0FAFF105083
:106DF000F96EFBDFE552E552E7CFD9FF1200120032
:106E0000060E0101BE5D03E36D50020B01E000D0F0
:106E10001200D9CFE6FFE1CFD9FFFE0EDBCFE6FFB0
:106E200014EC26F0E552FE0EDBCFE6FF40EC26F038
:106E3000E552E552E7CFD9FF1200D9CFE6FFE1CF07
:106E4000D9FF040EE126030EDB6AFD0EDBCFE9FF5E
:106E5000FE0EDBCFEAFFEF50FF0A76E0FE0A2BE0E2
:106E6000010A01E073D0FD0EDBCFE9FFFE0EDBCFA0
:106E7000EAFFEF50E66ECAC1E9FFCBC1EAFFE55277
:106E8000E750EF6ECAC1E9FFCBC1EAFF010EE92668
:106E9000000EEA22010EEF6ECAC1E9FFCBC1EAFF84
:106EA000020EE926000EEA22EF6A030EF36E030ECD
:106EB000F3CFDBFF4CD0FD0EDBCFE9FFFE0EDBCFC7
:106EC000EAFFEF50E66ECAC1E9FFCBC1EAFFE55227
:106ED000E750EF6EFB0EDBCFE6FF0BEC34F0E55234
:106EE000F3CFE9FFF4CFEAFF020EE926000EEA2213
:106EF000EECF10F0EFCF11F004D011C0FAFF105018
:106F0000F96EFBDFDE52F3CFDEFFF4CFDDFFDD52A3
:106F1000CAC1E9FFCBC1EAFF010EE926000EEA2251
:106F2000010EDBCFEFFFCAC1E9FFCBC1EAFF020EC2
:106F3000E926000EEA22020EDBCFEFFF030EF36E0E
:106F4000030EF3CFDBFF03D0FF0001D000D0030E10
:106F5000DB5018E0DF68040104010C51800B05E0F0
:106F6000DF50DF06000801E2F6D704010CBF0AD0AB
:106F7000030EDBCFE6FFFB0EDBCFE6FFA2EC27F034
:106F8000E552E552040EE15C02E2E16AE552E16E8F
:106F9000E552E7CFD9FF1200D9CFE6FFE1CFD9FF05
:106FA000460EE66E700EE66EFE0EDBCFE6FF28ECB8
:106FB00026F0E552E552E552FE0EDBCFE6FF85EC0A
:106FC0002BF0E552F3CFC8F1F4CFC9F1FE0EDBCFC1
:106FD000E6FF0BEC34F0E552F3CFE9FFF4CFEAFF24
:106FE000080EE926000EEA22EECF10F0EFCF11F0E6
:106FF000010EE66E04D011C0FAFF1050F96EFBDFEF
:10700000E552E552E7CFD9FF12001200060E01014A
:10701000BE5D03E36D50020B01E000D01200D9CF3A
:10702000E6FFE1CFD9FFFE0EDBCFE6FF14EC26F042
:10703000E552FE0EDBCFE6FF40EC26F0E552E552CE
:10704000E7CFD9FF1200D9CFE6FFE1CFD9FF040E79
:10705000E126030EDB6AFD0EDBCFE9FFFE0EDBCF80
:10706000EAFFEF50FF0A76E0FE0A2BE0010A01E09A
:1070700073D0FD0EDBCFE9FFFE0EDBCFEAFFEF5052
:10708000E66EC8C1E9FFC9C1EAFFE552E750EF6EFD
:10709000C8C1E9FFC9C1EAFF010EE926000EEA22D4
:1070A000010EEF6EC8C1E9FFC9C1EAFF020EE92671
:1070B000000EEA22EF6A030EF36E030EF3CFDBFF3E
:1070C0004CD0FD0EDBCFE9FFFE0EDBCFEAFFEF5029
:1070D000E66EC8C1E9FFC9C1EAFFE552E750EF6EAD
:1070E000FB0EDBCFE6FF0BEC34F0E552F3CFE9FF0C
:1070F000F4CFEAFF020EE926000EEA22EECF10F0EE
:10710000EFCF11F004D011C0FAFF1050F96EFBDF81
:10711000DE52F3CFDEFFF4CFDDFFDD52C8C1E9FF61
:10712000C9C1EAFF010EE926000EEA22010EDBCFFB
:10713000EFFFC8C1E9FFC9C1EAFF020EE926000E50
:10714000EA22020EDBCFEFFF030EF36E030EF3CF46
:10715000DBFF03D0FF0001D000D0030EDB5018E0AE
:10716000DF68040104010C51800B05E0DF50DF06ED
:10717000000801E2F6D704010CBF0AD0030EDBCFF2
:10718000E6FFFB0EDBCFE6FFA2EC27F0E552E5526F
:10719000040EE15C02E2E16AE552E16EE552E7CFFE
:1071A000D9FF1200000EE66EE66A200EE66E020EB1
:1071B000E66E05EC23F0E552E552E552E552120089
:1071C000010EE66EA80EE66EFD0EE66E020EE66E8F
:1071D000D1EC23F0E552E552E552E552A40EE66EFD
:1071E000710EE66E880EE66E130EE66E29EC0AF05E
:1071F000E552E552E552E5521200010EE66E580ED8
:10720000E66E020EE66EE66ED1EC23F0E552E55234
:10721000E552E552C00EE66E710EE66E880EE66E21
:10722000130EE66E29EC0AF0E552E552E552E552FE
:107230001200000EE66EE66A200EE66E010EE66EA5
:1072400005EC23F0E552E552E552E552FA0EE66E02
:10725000710EE66E880EE66E130EE66E29EC0AF0ED
:10726000E552E552E552E5521200010EE66EA80E17
:10727000E66EFD0EE66E010EE66ED1EC23F0E552F1
:10728000E552E552E552320EE66E720EE66E880E5B
:10729000E66E130EE66E29EC0AF0E552E552E55271
:1072A000E5521200010EE66E580EE66E020EE66E14
:1072B000010EE66ED1EC23F0E552E552E552E552BF
:1072C0006A0EE66E720EE66E880EE66E130EE66EBF
:1072D00029EC0AF0E552E552E552E5521200010EA2
:1072E000E66EE66E9EEC23F0E552E552010EE66E88
:1072F000020EE66E9EEC23F0E552E552A40EE66E19
:10730000720EE66ED00EE66E070EE66EB9EC08F071
:10731000E552E552E552E5521200D9CFE6FFE1CF42
:10732000D9FF020EE126FE0EDBCFFDF0C60EE66EA3
:10733000730EE66EFDC0E6FF28EC26F0E552E5523E
:10734000E552FDC0E6FF85EC2BF0E552F3CFFEF0F1
:10735000F4CFFFF0ABEC20F0010EE66EE66E9EEC93
:1073600023F0E552E552010EE66E020EE66E9EEC4B
:1073700023F0E552E552020EE15C02E2E16AE552D9
:10738000E16EE552E7CFD9FF12001200060E0101AF
:10739000BE5D03E36D50020B01E000D01200D9CFB7
:1073A000E6FFE1CFD9FFFE0EDBCFE6FF14EC26F0BF
:1073B000E552FE0EDBCFE6FF40EC26F0E552E5524B
:1073C000E7CFD9FF1200D9CFE6FFE1CFD9FF0D0EED
:1073D000E126010EDB6AFD0EDBCFE9FFFE0EDBCFFF
:1073E000EAFFEF50020A01E150D1030A2DE0FE0A44
:1073F00029E0FF0A01E05DD1FD0EDBCFE9FFFE0EC3
:10740000DBCFEAFFEF50E66EFEC0E9FFFFC0EAFF08
:10741000E552E750EF6EFEC0E9FFFFC0EAFF010E44
:10742000E926000EEA22010EEF6EFEC0E9FFFFC062
:10743000EAFF020EE926000EEA22EF6ADE52030E90
:10744000DD6E38D1FF0036D1FD0EDBCFE9FFFE0E39
:10745000DBCFEAFF010EE926000EEA22EF50E66ECE
:10746000FEC0E9FFFFC0EAFFE552E750EF6EFD0EF8
:10747000DBCFE9FFFE0EDBCFEAFF010EE926000EAF
:10748000EA22020EEFCFDBFFFD0EDBCFE9FFFE0E9F
:10749000DBCFEAFF020EE926000EEA22060EEFCF4E
:1074A000DBFFFD0EDBCFE9FFFE0EDBCFEAFF030EB5
:1074B000E926000EEA22040EEFCFDBFF060EDB50BA
:1074C000E66ED950090FE96EDACFEAFFE552E750D0
:1074D000EE6EED6A090EDBCF12F00A0EDBCF13F071
:1074E00012C013F0126A040EDB5000011210106E6D
:1074F00013C011F0090E10C0DBFF0A0E11C0DBFF34
:10750000FD0EDBCFE9FFFE0EDBCFEAFF040EE9261E
:10751000000EEA22030EEFCFDBFFFD0EDBCFE9FF0B
:10752000FE0EDBCFEAFF050EE926000EEA22070E6B
:10753000EFCFDBFFFD0EDBCFE9FFFE0EDBCFEAFF77
:10754000060EE926000EEA22050EEFCFDBFF070E3E
:10755000DB50E66ED9500B0FE96EDACFEAFFE55249
:10756000E750EE6EED6A0B0EDBCF12F00C0EDBCFA8
:1075700013F012C013F0126A050EDB500001121056
:10758000106E13C011F00B0E10C0DBFF0C0E11C0FB
