:020000040000FA
:0600000038EF14F01200BD
:0608C00038EF14F01200F5
:0608C800EAEF0CF0120043
:0208D80012000C
:0108EA00030A
:0408EC001E0E716EFD
:1008F0000401400E096F300E0A6F040E0B6F880E54
:10090000086F700E0E6F040E0F6F400E0C6F1E0EF0
:10091000726E400E116FB00E126F040E136F880EC0
:10092000106FF00E166F040E176F400E146F1E0E30
:10093000736E400E196F300E1A6F050E1B6F800E0E
:10094000186F700E1E6F050E1F6F400E1C6F120089
:060AEA00120100020000F1
:100AF0000008D8040C0000000102030109023C00B8
:100B000001010080FA09040000060000000007054A
:100B100001024000FF070581024000FF07050202B5
:100B20004000FF070582024000FF07050301400067
:100B3000060705830140000604030904320341004F
:100B400067007500690072007200650020004600B1
:100B5000650072006E0061006E00640065007A003E
:100B60002000470072006F007300730079002A03B1
:100B7000550053004200340061006C006C002000FE
:100B800028004300290032003000300037002000E8
:100B9000460049004E00470012033000300030008C
:0A0BA0003000300030003000320059
:040CEA00FC0AFC0AFA
:060D2A00380B3C0B6E0BC0
:020D3000980B1E
:060DAA000500F028000026
:100DB0000A02000002000000EE2800000802000005
:100DC00002000000B2280000A50100003C00000065
:100DD000AC280000E100000006000000AA28000086
:080DE000060200000200000001
:080DE800BDD8E652DF6A050EDA
:100DF000DF5C05E2ADD8EE6AED6ADF2AF8D70101C3
:100E0000EB6BE552B4D0B7D8050EDF5C13E2010EF0
:100E1000DB5010E19DD8EE50ED100AE1DE52010EDC
:100E2000DD6E96D8FD0EDBCFEEFFFE0EDBCFEDFFC5
:100E3000DF2AEAD7010EDB5002E1000E15D00101D6
:100E4000EB51EB2B00090FE1000EE66E0F0EE66E84
:100E500093EC0CF0E552E552F294F28AEDC1D6FF24
:100E6000ECC1D7FFD58E010E106E020EE15C02E2DE
:100E7000E16AE552E16E10507AD07DD8050EDF5C54
:100E800018E2010EDB5015E163D8EECF10F0EFCF82
:100E900011F0FD0EDB5010180AE1FE0EDB501118A8
:100EA00006E1DE52010EDD6E53D8EE6AED6ADF2AEE
:100EB000E5D7010EDB5002E1000E0FD00101EB0778
:100EC0000BE1D59EF294F29A000EE66E0F0EE66EDE
:100ED000BDEC0CF0E552E552010E106E020EE15C25
:100EE00002E2E16AE552E16E105041D03BD8020EB9
:100EF000D56EFE0EDBCFEDF1FD0EDBCFECF137D082
:100F000031D8E652DF6AF2A421D0F294EDC1D6FFC7
:100F1000ECC1D7FF050EDF5C19E21AD8EE50ED10D8
:100F200013E0EA6ADF34FE0BEA36E96EE10EE926E9
:100F3000010EEA22EECF10F0EFCF11F004D011C075
:100F4000FAFF1050F96EFBDFDF2AE4D7E5520FD02D
:100F5000EA6ADF34FE0BEA36E96EE10EE926010E9D
:100F6000EA221200D9CFE6FFE1CFD9FF1200E55205
:100F7000E7CFD9FF1200F6DF020EE126DF6A010E8D
:100F8000DB6A1200CAD9FE0EDB2ADB500A0802E136
:100F9000FE0EDB6AFE0EDB50C5D1BFD9FE0EDB5064
:100FA00005E10A0EF36EFE0EF3CFDBFFFE0EDB064D
:100FB000DB50B8D102010B510A5D01E0000C010CBD
:100FC000F9DF000903E0F36AF46A120002010A5132
:100FD000CED910C0F3FF11C0F4FF12000AC2E6FF21
:100FE000D1DFE55202010A6F120097D9030EE12604
:100FF0000BC2E6FFC7DFE552DF6E02010B51B7D926
:10100000010E10C0DBFF020E11C0DBFF0A51DF5CD6
:1010100003E1F36AF46A0CD0DFCF0BF2010EDBCFF1
:1010200010F0020EDBCF11F010C0F3FF11C0F4FF7F
:10103000030EE15C02E2E16AE552E16E73D16DD923
:10104000E652DF6A0A0EDF5C09E2DF501ED9EE6A63
:10105000ED6ADF501AD995D9DF2AF4D7070ED56E7D
:10106000E40EE66E110EE66E93EC0CF0E552E552DE
:10107000E55258D152D90C0EE126D59E9BDF0009CE
:1010800028E1D750156E146AD6501410126E15C090
:1010900013F0FF0ED8801256135602010A51F5D8EC
:1010A0001250EE5C106E1350EE58116E020E10C00E
:1010B000DBFF030E11C0DBFF47D9116E1FD90EE213
:1010C000040E0AC2DBFFDB5002010B5D02E09CD97B
:1010D000FAD7FD0EDBCFDEFFDBCFDDFFE0D802E18C
:1010E000000E23D0FDD8040EDB5002010A5D04E09F
:1010F00082D902E261D9F7D7040EDB500A5D13E111
:10110000F294F28AA7D9FF0ED8801056115610C05B
:10111000DEFF11C0DDFF9ED911C010F0116A105022
:10112000D76EDF50D66ED58E010E106E0C0EE15CC0
:1011300002E2E16AE552E16E1050F4D0EED80C0EF6
:10114000E12602010A51A1D820D9FED8D7D80EE253
:10115000040E0AC2DBFFDB5002010B5D02E054D932
:10116000FAD7FD0EDBCFDEFFDBCFDDFF98D802E143
:10117000000E0FD0B5D8050EDB5002010A5D08E065
:10118000040EDB500A5D04E036D902E215D9F3D72C
:10119000010E106E0C0EE15C02E2E16AE552E16EB6
:1011A0001050C0D0BAD8E6520AC2DFFF02010B517C
:1011B000DF5C15E0DF5069D839D9F4D8FD0EDB507B
:1011C000101807E1FE0EDB50111803E1DF505DD867
:1011D000D8D8DFCFE6FFD6DEE552DF6EE7D7010EC7
:1011E000E552A0D09AD8080EE126F2A447D0D59EA9
:1011F000F294D2D8DCD81AD9060EEECFDBFF070E58
:10120000EDCFDBFF18D90CE0060EDBCF10F0070E98
:10121000DBCF11F004D011C0FAFF1050F96EFBDFE4
:10122000C6D8B3D8DBDEB8D8D9CFE9FFDACFEAFF2A
:10123000EE50ED1023E0BBD895D8020EDB50125CC7
:10124000106E030EDB501358116EFF0ED88010562F
:101250001156040E10C0DBFF050E11C0DBFF040E9B
:10126000DBCF10F0050EDBCF11F011C010F01150E4
:10127000D76E040EDB50D66EF294D58E080EE15C6C
:1012800002E2E16AE552E16E4DD0040DF3CFE9FFD1
:10129000F4CFEAFF600EE926000EEA221200040EE7
:1012A0000BC2DBFFBAD8A1DE060EF3CFDBFF070EC1
:1012B000F4CFDBFF1BEF0AF0080EDBCFEEFF090EC9
:1012C000DBCFEEFF0A0EDBCFEEFF0B0EDBCFEEFF28
:1012D000050EDB50E76E040EE7CFDBFF0DEF0AF0E3
:1012E000B2D8DECFEEFFDDCFEDFFADD89FD8FB0E3D
:1012F000DBCFEEFFFC0EDBCFEDFF120010C0DEFFF8
:10130000DD6EA8D8020EDBCF12F0030EDBCF13F098
:101310001250105C135011581200D9CFE6FFE1CFE4
:10132000D9FF1200E552E7CFD9FF12001050EE5E50
:101330001150ED5A040EDBCFE6FF24DEE552E76ED6
:10134000040EE7CFDBFF1200FD0EDBCF12F0FE0E26
:10135000DBCF13F0020EDB501224106E030EDB50B5
:1013600013201200EECF12F0EFCF13F01200040D95
:10137000F3CF10F0F4CF11F0600E1026000E112202
:10138000120054D8EE6AED6A1200020EEECFDBFFB7
:10139000030EEDCFDBFF120013DEF3CFDEFFF4CF41
:1013A000DDFF1200EECF10F0EFCF11F01200DECF14
:1013B000E9FFDDCFEAFF120056D8080EEECFDBFFC3
:1013C000090EEECFDBFF0A0EEECFDBFF0B0EEECFEA
:1013D000DBFF45D8EECF10F0EECF11F0C3DF43D8DE
:1013E00010C0EEFF11C0EEFF12C0EEFF13C0EEFF03
:1013F00036D85CEF09F033D8D5DF35D8B3DF1250DB
:10140000105C135011581200020EDBCF10F0030EC7
:10141000DBCF11F024D896EF09F0DBCFE6FFBDDD7E
:10142000E552E76E050EE7CFDBFF1200020EE9265C
:10143000000EEA221200D950060FE96EDACFEAFF59
:10144000EE50ED101200060EDBCFE9FF070EDBCFEA
:10145000EAFF1200DECF10F0DDCF11F01200040E13
:10146000DB5045EF09F0050EDB5045EF09F005DADA
:10147000E652DF68A650020B04E0DF50DF060008EA
:10148000F9E3E552E3D1F3DF110EE66E090EE66EE5
:10149000E66AAEEC13F0F6D1F0D9FE0EDBCFFCF12C
:1014A000EE0EE66E140EE66EFCC1E6FFA2EC1EF038
:1014B000E552E552E552FCC1E6FF40EC21F0E55271
:1014C000F3CFFAF1F4CFFBF1C1D1D9CFE6FFBED112
:1014D0006D960101FD6BFE6B0101FD07000EFE5BC9
:1014E0000101FD51FE1101E0F7D7FF001200C5D93F
:1014F000170EE126DE52110EDD6EF36E020EF3CFF3
:10150000DBFF030EDB6A040EDB6ADF6A8DD9EF5066
:10151000FF0A01E11BD1F40A01E1EDD0010A01E16A
:10152000E3D0030A01E1DED00F0A01E1A7D0030AEC
:1015300001E196D0010A01E191D0070A01E107D14A
:10154000010A01E101D1050A01E184D0060A72E035
:10155000010A08E0FE0A01E0FCD061D9FE0EEF6E40
:101560009AD976D061D9030EE926000EEA228ED9E7
:10157000E9CFE6FFEACFE6FF41EC0EF0E552E55297
:101580000D0EF3CFDBFF0E0EF4CFDBFFD9500D0FA6
:10159000E96EDACFEAFFFF0EEE1801E1ED5045E00B
:1015A000FD0EDBCFE9FFFE0EDBCFEAFFEE52010EB0
:1015B000EFCFDBFF0D0EDBCFE6FF0E0EDBCFE6FF3E
:1015C000010EDBCFE6FFDFEC1FF0E552E552E552FE
:1015D000E76E130EE7CFDBFF0D0EDBCFE6FF0E0E3F
:1015E000DBCFE6FF4CEC0FF0E552E552110EF3CFE6
:1015F000DBFF120EF4CFDBFF110EDBCF10F0120E6B
:10160000DBCF11F0130EDBCFE6FF04D011C0FAFFE1
:101610001050F96EFBDFE552FAC1E9FFFBC1EAFFAA
:10162000EE52130EDBCFEFFF02D035D9EF68F7D8BB
:10163000EF6A8AD033D9DBCFE6FF81EC20F0E552A8
:10164000E76E140EE7CFDBFF26D9DBCFEFFFE7D83D
:10165000010E76D0E4D8070EEF6E79D0030E78D065
:10166000B4EC0EF0E76E030EE7CFDBFFD8D8050E23
:10167000EF6E11D9030EDBCFEFFF66D0D0D8060E88
:10168000EF6ED2D8EE52040EEFCFDBFFD950050F2C
:10169000E66E000EDA20E66E040EDBCFE6FFF1EC1C
:1016A0000EF0E552E552E552160EDB6A080EF36EB7
:1016B000160EDBCFF4FFF350F45C12E2D950050FA5
:1016C000126EDACF13F0160EDB501224E96E000E04
:1016D000DA20EA6EE9D8160EBDD8160EDB2AE6D758
:1016E000090E36D0D0DE32D09AD80A0EEF6E7EECDC
:1016F00021F0F35021D093D80B0EEF6ECFD8140EFB
:10170000106E0E6E130EDBCF09F046EC14F0130EC4
:1017100005C0DBFF90D8EF50200B14E1130E8BD8DF
:10172000020EE926000EEA22EECFE6FFEFCFE6FF3B
:10173000CFEC0EF0E552E552E66EADD8E552E7503B
:10174000EF6E02D0A8D8EF68020E02D0C1DE010E03
:10175000DF6EDF500FE0160EDB6804010C51800BCA
:1017600007E0160EDBCFF3FFDB06F3500008F5E3CE
:101770000CAF7AD8170EE15C02E2E16AE552E16E45
:1017800065D07BD8020EE1264AD8EF6E010EDB6AE7
:10179000FC0EDB50F36E010EDBCFF4FFF350F45C74
:1017A0000EE2010EDB50E76E3FD8E750E926000E4F
:1017B000EA227AD8010E4ED8010EDB2AE9D7FC0EB8
:1017C000DB28DF6E04010CAF4FD8020EE15C02E2B1
:1017D000E16AE552E16E3AD00201010E096F120092
:1017E0000201095102E0096B01D072DEE00EE66EE3
:1017F000170EE66EDC0EE66EE6689EEC08F0E5522B
:1018000041D00201010E096FE00EE66E170EE66E82
:10181000B80EE66EE6683AEC08F0E55233D0FAC14D
:10182000E9FFFBC1EAFF1200FD0EDBCFE9FFFE0E70
:10183000DBCFEAFF1200DB50040DF3CFE9FFF4CF5A
:10184000EAFF010EE926010EEA221200E552E7CF77
:10185000D9FF1200DB50E924E96E000EEA20EA6E9F
:10186000E552E750EF6E1200DFCFE6FFFCC1E6FF66
:1018700075EC1FF0E552E5521200D9CFE6FFE1CF3B
:10188000D9FF1200E552E552E5521200E9CF10F0FF
:10189000EACF11F01200C3DFEE521200C5DFEE52A4
:1018A000130EEFCFDBFF1200EF50E66EF4DF46EFD2
:1018B0000CF00ED802E2E16AE55220D009D802E22B
:1018C000E16AE5521BD004D802E2E16AE55216D083
:1018D000D9CFE6FFE1CFD9FF020EE126DF80DF920C
:1018E000DF94DF96DF98DF9ADECF10F0DDCF11F0C6
:1018F00010C0F3FF11C0F4FFE15C1200E16EE5528D
:10190000E7CFD9FF1200E4D8050EDF5C05E2CCD8A2
:10191000EE6AED6ADF2AF8D70001C46BE552E552A2
:10192000E7CFD9FF1200CAD8050EDF5C13E2010E23
:10193000DB5010E1B9D8EE50ED100AE1DE52010E95
:10194000DD6EB2D8FD0EDBCFEEFFFE0EDBCFEDFF7E
:10195000DF2AEAD7010EDB5002E1000E07D00001BA
:10196000C451C42B000901E1F28E010E106E020E6B
:10197000E15C02E2E16AE552B2D0A0D8050EDF5C7C
:1019800018E2010EDB5015E18FD8EECF10F0EFCF4B
:1019900011F0FD0EDB5010180AE1FE0EDB5011189D
:1019A00006E1DE52010EDD6E7FD8EE6AED6ADF2AB7
:1019B000E5D7010EDB5002E1000E05D00001C4079F
:1019C00001E1F29E010E106E020EE15C02E2E16A9C
:1019D000E55285D0DACFE4FFE2CFDAFFE9CFE4FFCA
:1019E000EACFE4FFF6CFE4FFF7CFE4FFF5CFE4FF63
:1019F000F3CFE4FFF4CFE4FFFACFE4FF00EE00F012
:101A0000100EE80403E3EECFE4FFFBD700EE10F086
:101A10000E0EE80403E3EECFE4FFFBD7E65258D8FE
:101A2000050EDF5C19E240D8EE50ED1013E0EA6AD3
:101A3000DF34FE0BEA36E96EBA0EE926000EEA2222
:101A4000EECF1EF0EFCF1FF004D01FC0FAFF1E50E4
:101A5000F96EFBDFDF2AE4D7E552E552E7CFD9FF85
:101A6000E55200EE1DF00E0EE80403E3E5CFEDFFB6
:101A7000FBD700EE0FF0100EE80403E3E5CFEDFF17
:101A8000FBD7E5CFFAFFE5CFF4FFE5CFF3FFE5CFD6
:101A9000F5FFE5CFF7FFE5CFF6FFE5CFEAFFE5CFAE
:101AA000E9FFE5CFDAFF1100EA6ADF34FE0BEA3620
:101AB000E96EBA0EE926000EEA221200D9CFE6FF3F
:101AC000E1CFD9FF020EE126DF6A010EDB6A1200C8
:101AD000D9CFE6FFE1CFD9FFE652DF6A1200E16E0F
:101AE0001050E552E7CFD9FF120092D8050EDF5C07
:101AF00005E276D8EE6AED6ADF2AF8D7E55284D09F
:101B000079D8050EDF5C13E2010EDB5010E168D8D6
:101B1000EE50ED100AE1DE52010EDD6E61D8FD0ED1
:101B2000DBCFEEFFFE0EDBCFEDFFDF2AEAD7010EA3
:101B3000DB5002E1000E01D0010E106E020EE15CDE
:101B400002E2E16AE552E16E10505ED053D8050E14
:101B5000DF5C18E2010EDB5015E142D8EECF10F049
:101B6000EFCF11F0FD0EDB5010180AE1FE0EDB5036
:101B7000111806E1DE52010EDD6E32D8EE6AED6A12
:101B8000DF2AE5D7010EDB5002E1000E01D0010E85
:101B9000106E020EE15C02E2E16AE552E16E105065
:101BA00033D036D8050EDF5C19E21AD8EE50ED10AE
:101BB00013E0EA6ADF34FE0BEA36E96EC50EE92669
:101BC000000EEA22EECF10F0EFCF11F004D011C0DA
:101BD000FAFF1050F96EFBDFDF2AE4D7E55214D08C
:101BE000EA6ADF34FE0BEA36E96EC50EE926000E1E
:101BF000EA221200D9CFE6FFE1CFD9FF020EE1269B
:101C0000DF6A010EDB6A1200E552E7CFD9FF12004E
:101C1000D9CFE6FFE1CFD9FFE652DF6A1200D9CF74
:101C2000E6FF53D18CD9030EE126DF6ADE52010EA6
:101C3000DD6E020EDB6ADF6A080EDF5C17E2020E61
:101C4000DB5014E18AD9EF5002E07ED905E1010EA4
:101C5000F36E020EF3CFDBFF80D9EFCF10F074D913
:101C6000105C02E0010EDB6ADF2AE6D7010EDB50D2
:101C7000106E030EE15C02E2E16AE552E16E105083
:101C800024D15DD90D0E55D90C0EDB6A49D910BE91
:101C900011680001101C01E1111C5DE0D9CFE9FFC2
:101CA000DACFEAFF020EEECFDBFF030EEDCFDBFF54
:101CB0000C0EDB6A080EF36E0C0EDBCFF4FFF35054
:101CC000F45C2BE2020EDBCFF6FF030EDBCFF7FF57
:101CD000040EF626000EF722F6CF12F0F7CF13F01F
:101CE0000C0EDB501224F66E000E1320F76E080067
:101CF000F550E66ED950040F106EDACF11F00C0ECD
:101D0000DB500F011024E96E000EDA20EA6EE55276
:101D1000E750EF6E0C0EDB2ACDD7FD0EDBCFE6FFD2
:101D2000FE0EDBCFE6FFD950040FE66E000EDA2080
:101D3000E66E78DFE552E552E552E552000909E02A
:101D4000DECF10F0DDCF11F010C0F3FF11C0F4FFB3
:101D500004D0CCD89BD7F368F46A0D0EE15C02E2A4
:101D6000E16AE552E16EB1D0EAD8030EE2D8020E84
:101D7000DB6AD6D810BE1168101C01E1111C04E00A
:101D8000B5D8020EDB2AF5D7020EDB50106E030E1B
:101D9000E15C02E2E16AE552E16E105096D0CFD8E4
:101DA000020EC7D8FD0EDBCF12F0FE0EDBCF13F014
:101DB000DE50125C106EDD501358116E0C0E0D6E5D
:101DC0000E6A10C008F011C009F0D5EC13F00850ED
:101DD000106E020EE15C02E2E16AE552E16E105023
:101DE00074D0ADD8050EE126AB0EF36E010EF3CF25
:101DF000DBFF330EF36E020EF3CFDBFFFE0EDB5084
:101E00000C0DF350E76E010EDBCF10F0020EDBCFAE
:101E100011F0E7501026000E1122010E10C0DBFF5A
:101E2000020E11C0DBFF010EDBCF08F0020EDBCF8C
:101E300009F0030E08C0DBFF040E09C0DBFFDF6AF8
:101E4000080EDF5C22E2030EDBCFF6FF040EDBCFD1
:101E5000F7FFF626000EF722F6CF10F0F7CF11F0BD
:101E6000DF501024F66E000E1120F76E0800F550BA
:101E7000E66EDF50E76EFC0EDBCFE9FFFD0E1ED8ED
:101E8000E552E750EF6EDF2ADBD7050EE15C02E298
:101E9000E16AE552E16E19D01CD835D802E2E16A58
:101EA000E552E16E12D015D8020EF626000EF7228A
:101EB0002AD802E2E16AE552E16E07D0DBCFEAFF01
:101EC000E750E926000EEA221200E552E7CFD9FFDB
:101ED000120035D8020EE126FD0EDBCFDEFFDBCF90
:101EE000DDFFDECFF6FFDDCFF7FF1200DECF10F013
:101EF000DDCF11F00C0E1026000E112210C0DEFFF7
:101F000011C0DDFF12000900F5CF10F00800F5CF79
:101F100011F010C0F3FF11C0F4FF020EE15C1200DB
:101F2000DECFF6FFDDCFF7FF0800F5CF10F0116A26
:101F30001200E126AB0EDE6E330EDD6E1200D9CF3D
:101F4000E6FFE1CFD9FF1200DF50E76EFB0EDBCFDB
:101F5000E9FFFC0EB3DFEF501200DF50E76EFD0E1D
:101F6000DBCFE9FFFE0E5EEF0FF0D9CFE6FFE1CF4A
:101F7000D9FF020EE126DE6ADD6ADECF10F0DDCF8A
:101F800011F0FD0EDBCF12F0FE0EDBCF13F011507F
:101F90001318E8AE02D0133404D01250105C135062
:101FA00011580AE2FA0EE66EFBEC13F0E552DF2A56
:101FB000010EE3E3DB2AE1D7020EE15C02E2E16A13
:101FC000E552E16EE552E7CFD9FF120006D822D8DC
:101FD000D1EC0DF0AAEC1EF0FAD792689368CF0E00
:101FE0009410946E9568966880EC1AF0F00EC11407
:101FF000C16EC280140E6F6E0001E76B0001E86BCA
:102000000001E96B83EC0CF01FEC08F075EC0DF0AF
:1020100037EF20F072EC12F06FBE02D08EEC12F0AF
:10202000120004012051600BE842E842E842E84215
:10203000E842000901E012002151070A40E00B0AC2
:102040003EE0070A33E0010A23E00B0A1FE0020A20
:102050001DE0030A19E0080A10E0010A0CE00F0A6B
:1020600008E0030A01E0120012D90001040EE76F34
:10207000120060EF10F097EF10F009D90001E90E9F
:10208000DB6F000EDC6F0CD0B2EF10F0E4EF10F05D
:1020900002D90001DB6FDC6BEA0EDB27000EDC23CC
:1020A0000001E8930001010EDF6F1200F4D8EA6A24
:1020B000EA0FE96E000EEA2222C4EFFF12001200BE
:1020C000800E0401205D32E12351030A1FE0010A62
:1020D0000AE0030A29E1DBD80001EA0EDB6F0A0EF1
:1020E000DC6F120E1ED0ADD8EA0EF6260C0EBBD851
:1020F000020E0001F76ADB25F66EDC51F7220900BB
:10210000F5CFDFF00A00F5CFE0F00ED09AD82A0E16
:10211000F6260D0EA8D8DBC0F6FFDCC0F7FF0800DE
:10212000F5500001DF6FE06B0001E8831200AFD8CB
:102130000F0EE66E710EE66E0F0E9DD8010EE66E66
:10214000EA0EE66E000E97D822C4E9F0040122518F
:1021500004E10001050EE76F12000001060EE76FB3
:1021600076EF04F00401286B296B040120511F0B4A
:10217000020A0FE0030A0BE0010A18E188D8040103
:1021800028810001E8A112D0040128830FD07FD854
:102190000DD04BD801E0010E5DD8DDC0E9FFEA6E3D
:1021A000EF50040B03E00401010E286F0001DA0573
:1021B0000AE10001280EDB6F040EDC6F0001E893DA
:1021C0000001020EDF6F1200040122050EE1205112
:1021D0001F0B00090AE15BD8030E0401215D03E136
:1021E0000001E88102D00001E891040122511CE1C4
:1021F00020511F0B020818E124510F0B000914E0B5
:1022000014D801E0010E26D8030E0401215D04E17B
:10221000840E38D8EF6E120024AF03D033D8EF6AA3
:102220001200880E2FD8EF6E120035D80F0B080D54
:10223000F350116A000F106E040E11222451800B0E
:10224000120025D804012251F66EF76AD890F636AE
:10225000F7361200040DF35000011024DD6F000E5C
:102260001120DE6F1200F7220900F5CFDBF00A0023
:10227000F5CFDCF01200E66E14EC13F0E552E552F7
:10228000E5521200DDC0E9FFDEC0EAFF12000001E6
:10229000010EDA6F1200FBDF0401245112006C50B2
:1022A0000BE1040100513C0BE842E8420D0802E159
:1022B00061EF11F070EF11F0040E6C5C01E11FD8BA
:1022C0001200D9CFE6FFE1CFD9FFE6520001D96B6A
:1022D000DA6BDF6BE06B11EC10F099D8E552F6D0B9
:1022E000020E0001D95D09E168D8040100BD02D0E9
:1022F000C80E01D0880E006F120040EF12F0040EDD
:102300000001E75D09E122C46EFF6E50000802E2A1
:10231000050E01D0030EE76F0001D90509E10AD8C7
:10232000040104BD02D0C80E01D0880E046F120053
:1023300040EF12F0C4D80001080EDF5D000EE05936
:1023400005E2DFC0DEFFE0C0DDFF03D0080EDE6E79
:10235000DD6A040104930491010EDB500413DFCF06
:1023600005F4000EDB500001DF5F010EDB50E05B87
:10237000280EDD6F040EDE6F0001E8A30CD098D8A4
:1023800015E0DBC0F6FFDCC0F7FF0800F55080D891
:10239000F6E2DB06F4D78CD809E0DBC0E9FFDCC04D
:1023A000EAFFEF5075D8F7E2DB06F5D7020EE15CE5
:1023B00002E2E16AE552E16E89D081D8030E0401A0
:1023C0000015E76E010EE7CFDBFF01C4DFFFDE5033
:1023D0000001DF27DD50E023280EDB6F040EDC6FE9
:1023E00067D80EE0DBC0E9FFDCC0EAFFEF50DDC0DC
:1023F000E9FFDEC0EAFFEF6E6DD8F2E2DB06F0D750
:10240000020EE15C02E2E16AE552E16E5FD000019A
:10241000DA5105E145D8840E006F04011DD0040196
:1024200020AF1CD00001DF510401265D0001E05106
:102430000401275904E226C4DFF027C4E0F07ADF64
:102440000001010ED96F2CD8800E006F0401280EF8
:10245000066F040E076FC80E046F10D00001020E45
:10246000D96F0401056BC80E046F0401080E016FDB
:10247000280E026F040E036FC80E006F6D981200D5
:102480000001D96B0DD8880E006F0401046B120097
:10249000DDC0E9FFDEC0EAFFEF6E00016AEF12F077
:1024A0000401080E016F200E026F040E036F12006C
:1024B000D9CFE9FFDACFEAFFEE50ED101200D9CF05
:1024C000E6FFE1CFD9FF020EE1261200E552E7CF89
:1024D000D9FF1200DD2B000EDE23DB2BDC23DF0611
:1024E000010E12006DA60CD80001E70508E16DBAD7
:1024F00006D0686A696A69806988020EE76F12000F
:102500006D6A696A6D860001010EE76F12006D6ADF
:10251000696A0001E76B120087EF12F00001E751D2
:1025200001E112006850040B04E06950040B01E063
:1025300038D86DB212006850010B04E06950010BED
:1025400001E050D86850100B04E06950100B01E016
:1025500024D86850400B04E06950400B01E037D8A4
:102560006850200B04E06950200B01E032D868501D
:10257000020B04E06950020B01E032D8030E0001A7
:10258000E75D01E212006850080B06E06950080B95
:1025900003E04FEC11F068961200698468986D8230
:1025A00012006D926994689412000001E8A10ED0A7
:1025B000F8DF6D840201080E006F070E016F00073F
:1025C000000E015B00510111FAE16D941200689C4C
:1025D000120070A003D040EC12F07090689A1200C4
:1025E000689212006A6A686A9F0E6B6E7B0E696E53
:1025F0006E6A0F0EE66E710EE66E0F0EE66E14D862
:10260000E552E552E552160E706E68A602D0689645
:10261000FCD76D9840EC12F00001E8910001E96BE5
:102620000001030EE76F1200D9CFE6FFE1CFD9FF1B
:10263000FD0EDBCFE9FFFE0EDBCFEAFFFC0EDB5029
:1026400004E0EE6AFC0EDB06F9D7E552E7CFD9FFCE
:02265000120076
:0E265200AA0EF66E0D0EF76E000EF86E000169
:102660000900F550D46F0900F550D56F03E1D46728
:1026700001D03DD00900F550CF6F0900F550D06F63
:102680000900F550D16F09000900F550E96E090005
:10269000F550EA6E090009000900F550D26F0900F3
:1026A000F550D36F09000900F6CFD6F0F7CFD7F079
:1026B000F8CFD8F0CFC0F6FFD0C0F7FFD1C0F8FFF9
:1026C0000001D25302E1D35307E00900F550EE6E4A
:1026D000D207F8E2D307F9D7D6C0F6FFD7C0F7FF85
:1026E000D8C0F8FF0001D407000ED55BBFD7120099
:1026F000706F7274000000000000FF006C69676872
:1027000074000000301EF423627574746F6E000054
:10271000E779BC866772657900000000A1E6DCEA13
:1027200064697374616E63007392CE9E6770696FA3
:102730000000000000FFFFFF766F6C7400000000D7
:102740009A60EF6C7265730000000000DA4AE85589
:0C2750006C65640000000000D505170750
:04275C00D9CFE6FFEC
:10276000DACFE6FFE1CFD9FFE2CFDAFFFF0EE76E67
:10277000FC0EDBCF10F0E75010161050A96EFB0EC8
:10278000DB50A86EA69EA69CA684F29E550EA76E50
:10279000AA0EA76EA682A6B2FED7F28EA694E55226
:0A27A000E5CFDAFFE7CFD9FF120002
:0627AA00006A0EAEDEEF36
:1027B00013F00D6C0E1EE86A0E22001E09AEE6EF45
:1027C00013F0086C091EE86A0922001E12EC14F0CE
:1027D00009BEF6EF13F000AE000C086C091EE86AA3
:1027E0000922046C051EE86A0522000C00BEEDEF0C
:0627F00013F00188FF0C4C
:0A27F600FF0EE350216EEF0E01D03C
:10280000F30EE76EE72E02EF14F00C0E206EE76A6F
:10281000E72E08EF14F0202E07EF14F0212E00EF22
:0428200014F012009E
:0C282400056A046A100EE76ED8900836B2
:102830000936043605360D50045C0E50055805E384
:102840000D50045E0E50055A082AE72EF0D71200EC
:10285000000EF36E00EE00F0080E01D81200EA60E0
:1028600002D0EE6AFCD7F350E9601200EE6AFCD7A2
:1028700013EE00F023EE00F0F86A019C29EC13F04F
:0C28800054EC14F0E6EC0FF0FBD7120053
:04288C00056A080EC3
:10289000E76ED890093605360E50055C02E3056EEA
:0828A000092AE72EF7D7120008
:0228A80012001C
:0228AA0000002C
:0428AC004040404028
:0228B0004040A6
:0E28B200FC4ADC4A184B244BD04A724B524B66
:1028C0008E4B9A4B464BE84BC84B044C104CBC4BC0
:1028D0005E4C3E4C7A4C864C324CD84CB44CF44C4A
:0E28E000004DA84C504D2E4D704D7C4D224D9C
:0228EE003201B5
:0228F0000000E6
:0533AB009814CA146132
:1033B000646D696E000000923BC43B6770696F00EA
:1033C000000000A6444645706E700000000000E258
:1033D000485849706F727400000000C64E164F6C5A
:1033E0006261636B000000BC4F04506275746961D8
:1033F0000000005051CE51627574746F6E0000244D
:1034000053A25364697374616E63002855A65567AF
:1034100072657900000000EA581E596D6F746F7272
:10342000730000D05C4E5D6C69676874000000D466
:103430005E525F7265730000000000D860566176CE
:103440006F6C7400000000DC6264636C65640000F3
:0F3450000000000A663C666861636B7000000054
:04349C0009DBFD0E3D
:1034A000DBCF10F0FE0EDBCF11F0113404E2105030
:1034B0000008000E115402E3000E01D0010EFDD2EF
:1034C000F7DAFE0EDB50000802E2010E01D0FF0E1B
:1034D000F4D2EEDAFD0EDB50136E126AFE0EDB50F4
:1034E0001224106E000E132010C0F3FFF46EE5D20C
:1034F000DFDAFE0EDBCF11F011C010F01150DDD27B
:10350000AC6AAC9CAC9AAC98AC96AC84AB6AAB8E13
:10351000AB9CAB98B86AB886040EAF6EF28EF28C94
:10352000948E1200AB98949CAC8A1200948CAC9A46
:10353000AB880001AE6B1200AB98AC9A1200B8DAFF
:10354000ACA2FED7FE0EDB50AD6EFE0EDB50B5D248
:103550001CDB010EDB6AE6DFE668F1DFE552E668B8
:10356000EEDFE552FE0EDBCFE6FF96DAFD0EDB5016
:10357000020FE66E91DAFC0EDBCFE6FF8DDADF6A32
:10358000FD0EDB50DF5C04E2A6DA86DADF2AF8D72C
:10359000010EDB1CE66ED3DFE552ACA2FED7C6DF20
:1035A000020EE15C02E2E16AE552E16E86D2EDDAFA
:1035B000980EDE6E3A0EDD6E9E50200B0BE1DFCFD3
:1035C00010F0DF06010EDBCF11F001E2DB06105038
:1035D0001110F2E19E9AAE50106E020EE15C02E212
:1035E000E16AE552E16E105068D262DA050EE1261A
:1035F000010EF36E040EF3CFDBFF030EDB6ADF6A0E
:103600000001AE6B030EDB504CE1DF504AE1040ECB
:10361000DB50050A2FE0010A1EE0070A0BE0020A50
:1036200005E0030A03E0010EDF6EECD7C0DFFF0800
:103630001CE01ED0BCDFE66E72DA9BDA70DAEECFE9
:1036400010F0EFCF11F0113404E21050FE08000E1C
:1036500011540EE30AD0ABDF70DA200EF36E010EC8
:10366000DBCFF4FFF350F45C03E2040EDB2ACAD78D
:10367000DF2AC8D79CDFE66E0001AE51EA6A8E0FE2
:10368000E96E000EEA22E552E750EF6EAE2B010E16
:10369000DB50AE5DB7E3010EF36E030EF3CFDBFF3D
:1036A000B1D74ADFDF5007E03ADAEE68ED6822DA98
:1036B000EE68ED681FD000018E51E66E1BDA59DA14
:1036C000010EDB50040A07E0070A14E18F51E66E91
:1036D0002DDA4FDA12D090C0E6FF8FC0E6FFF9DE98
:1036E000E552E552F4CF11F021DAF3CFEEFF11C02D
:1036F000EDFF03D01BDAEE68ED68010ED880DF54D1
:10370000106E050EE15C02E2E16AE552E16E1050D6
:10371000D4D1CED9110EE126FD0EDB500EDADF6AD0
:10372000FC0EDB50DF5C12E2D6D9D950010F106ECF
:10373000DACF11F0DF280F011024E96E000EDA2035
:10374000EA6EE552E750EF6EDF2AEAD7FBD9FC0EAE
:10375000DB2886D9110EE15C02E2E16AE552E16EF6
:103760001050ABD112DAFD0EDB50DF6EFC0EDB50D9
:10377000E4D9D9CFE6FFDACFE6FF020EE66E70D9C4
:10378000020EE15C02E2E16AE552E16E105095D171
:10379000F5D993D18DD9110EE126DF6AFD0EDB50EC
:1037A000060A32E00E0A30E0060A2EE0100A2CE08B
:1037B0003E0A2AE0020A28E0120A26E0330A22E042
:1037C000070A20E0010A1EE00E0A1CE0070A1AE0C0
:1037D000010A18E01D0A16E0010A14E0030A12E0CB
:1037E000010A10E00B0A0EE0010A0CE0030A0AE0ED
:1037F000010A08E0070A06E0010A04E0310A02E0D3
:10380000030A04E1010E01D0020EDF6EFD0EDB5053
:1038100094D9FF0EE76EFB0EDBCF10F0FC0EE750E5
:103820001016116A020E10C0DBFFDF50010810E213
:10383000FB0EDBCF10F0FC0EDBCF11F0000E1016EC
:10384000FF0E111611C010F0116A030E10C0DBFF3D
:1038500079D9DF2805D9110EE15C02E2E16AE5526F
:10386000E16E10502AD18AD9FD0EDB5004E0000E23
:10387000E66EE66A03D0E668030EE66E080E21D90E
:103880001CD116D9FD0EDBCF11F00001800E1114F2
:1038900002E0FB0EDB70FC0EDBCF12F0FD0EDBCF87
:1038A00013F0800E131406E056D9106C111E000E92
:1038B000112201D050D9FC0E10C0DBFFFD0E11C04B
:1038C000DBFFFB0EDB50106E116A0A0ED89010362B
:1038D0001136E806FBE1D950FC0FE96EFF0EDA2045
:1038E000EA6E1050EE121150ED12FC0EDBCFE6FF27
:1038F000FD0EDBCFE6FF200EE4D8DFD046D9060E62
:10390000E66E240EE66EFD0EDBCFE6FF2BDFE55202
:10391000E552E55212D9DF6A030EDF5C01E383D082
:10392000010E0001156A8C25146E8D511522DF5091
:10393000E8240F011424E96E000E1520EA6E12D956
:10394000DF50E8240001EA6A8C25E96E8D51EA22F5
:1039500009D9BFDDE552E552F3CF12F0F4CF13F0F1
:10396000D0D8F3CFEEFF13C0EDFFDF50000859E2CF
:10397000176ADF34FE0B1736166EFB0EDB5016246B
:10398000E96EFC0EDB501720EA6EEECF14F0EFCF9D
:1039900015F0FF0E1416030E151614C0E6FF15C021
:1039A000E6FFFE0EDBCFE6FF1D6ADF34FE0B1D36A1
:1039B0001C6EFB0EDB501C24E96EFC0EDB501D2040
:1039C000EA6EEECF1AF0EFCF1BF01B3404E21A5070
:1039D000FF08030E1B5402E3000E01D0010EE55256
:1039E000E718E66E6DDDE552E552E7CF15F0E552DA
:1039F000E7CF14F0186E196A18BE19680001185044
:103A00001402F3CF12F0F4CF13F01502F350132683
:103A100019501402F350132674D812C0EEFF13C0CD
:103A2000EDFFDF2A79D7FE0EDB500FE063D8EECF33
:103A300010F0EFCF11F0FF0ED8801056030E115684
:103A400059D810C0EEFF11C0EDFF010EDB50106E13
:103A5000020EE15C02E2E16AE552E16E10502DD007
:103A6000E66EFE0EDBCFE6FF73DD106E050EE15E47
:103A700010508C0EE66E000EE66E8A0EE66E000E9C
:103A8000E66E880EE66E000EE66EAFDD106E060E78
:103A9000E15E1050106E120052DDE552106E010E04
:103AA000DBCFE7FF1050E726010EE7CFDBFF120068
:103AB000D9CFE6FFE1CFD9FF1200E552E7CFD9FF1A
:103AC0001200E66EFE0EDBCFE6FF64DEE552E55245
:103AD000E552E5521200DF50E76EFA0EDBCFE9FF48
:103AE000FB0EDBCFEAFFE750E926000EEA22EF509B
:103AF000E66E1200FB0EDBCFE9FFFC0EDBCFEAFF28
:103B00001200116ADF34FE0B1136106EFB0EDB5013
:103B10001024E96EFC0EDB501120EA6E1200FD0E3F
:103B2000DBCFE9FFFE0EDBCFEAFF1200F90EDBCFA1
:103B3000E9FFFA0EDBCFEAFF1200E76E010EE7CFD6
:103B4000DBFF1200D950010FE66E000EDA20E66EA0
:103B5000030EE66E1200FC0EDBCF10F0FD0EDBCF85
:103B600011F012008E0EE926000EEA22EF50E66EEA
:103B70001200E552E750EE6EED6A120099DF000E7A
:103B8000E66EE66A060E61EF1DF092DF020EE12698
:103B90001200C3D8E00EE66E3B0EE66EFE0EDBCFE3
:103BA000E6FFA2EC1EF0E552E552E552FE0EDBCF39
:103BB000E6FF40EC21F0E552F3CF04F2F4CF05F23A
:103BC000B1D01200AAD8FE0EDBCFE6FF9EEC1EF0AD
:103BD000E552FE0EDBCFE6FFA5EC1EF0E552A2D0CB
:103BE0009CD80E0EE126010EDB6A040EA5C1DBFF98
:103BF000050EA6C1DBFF060EA7C1DBFF070EA8C19D
:103C0000DBFF080EA9C1DBFF090EAAC1DBFF0A0E0C
:103C1000ABC1DBFF0B0EACC1DBFF0C0EADC1DBFF9C
:103C20000D0EAEC1DBFF71D8010A18E0010A4EE1AA
:103C30006CD8E66E7BD8E552E750EF6E77D8010E70
:103C4000E926000EEA22010EEF6E70D8020EE92678
:103C5000000EEA22EF6ADE52030E37D0FD0EDBCFF4
:103C6000E9FFFE0EDBCFEAFFEF50E66E04C2E9FF8C
:103C700005C2EAFFE552E750EF6E0A0EDBCF10F007
:103C80000B0EDBCF11F004D011C0FAFF1050F96E0B
:103C9000FBDF020EF3CFDBFF030EF4CFDBFF04C22A
:103CA000E9FF05C2EAFF010EE926000EEA22020E34
:103CB000DBCFEFFF04C2E9FF05C2EAFFE926000EF1
:103CC000EA22030EDBCFEFFFDE52DD6E010EDB508A
:103CD00015E0DF6804010C51800B04E0DF50DF06C3
:103CE0000008F8E30CBF0AD0010EDBCFE6FFFB0EA5
:103CF000DBCFE6FF75EC1FF0E552E5520E0EE15CFE
:103D000002E2E16AE552E16E0DD0FD0EDBCFE9FF84
:103D1000FE0EDBCFEAFFEF501200D9CFE6FFE1CF76
:103D2000D9FF1200E552E7CFD9FF120004C2E9FF24
:103D300005C2EAFF12007CDB28DB12D379DBEE6AD6
:103D4000ED6A0ED37CDB21DB0BD379DBEE6AED6A07
:103D500007D3120009DB090EE126DF6A060E000117
:103D6000E75D01E2BBD06D50020B01E0B7D0010E60
:103D7000DB68F36E060EF3CFDBFFDBCF10F0010143
:103D80000051D880105401E2A9D049DBEF50800BDC
:103D900001E0A1D0010EDBCF10F041DBEE52EF507D
:103DA000D880105405E23BDBEE52010EEFCFDBFF73
:103DB000060EDB50E824040DF3CFE9FFF4CFEAFF51
:103DC000000EE926040EEA22020EE926000EEA227F
:103DD000070EEECFDBFF080EEDCFDBFF070EDBCFCC
:103DE000E9FF080EDBCFEAFFEF50F80BE842E842AC
:103DF000E842E96EEA6AD890E936EA367C0EE926AE
:103E0000010EEA22EECF10F0EFCF11F0070EDBCF5C
:103E1000E9FF080EDBCFEAFFEF50F80BE842E8427B
:103E2000E842E66E010EDB50FD0FE66E060EDB503B
:103E3000E824040DF3CFE9FFF4CFEAFF000EE926F2
:103E4000040EEA22020EE926000EEA22EECF12F05C
:103E5000EFCF13F0030E1226000E132212C0E6FF5E
:103E600013C0E6FF04D011C0FAFF1050F96EFBDF5B
:103E7000E552E552E552E552060EDBCFE6FF36DAB3
:103E8000E552E66E060EDB50E824040DF3CFE9FFA1
:103E9000F4CFEAFF000EE926040EEA22EE52E552C4
:103EA000E750EF6E030EF36E060EDBCFF4FFF35018
:103EB000F45C0BE2D6DAB3DAEF50400B400A01E0D3
:103EC000010E106EACDA68DA01D0CBDA880E106E13
:103ED000A6DA1050EF12060EDB2A4FD7090EE15C6E
:103EE00002E2E16AE552E16E3BD23EDA060EE126DD
:103EF000FE0EDB502BDA5EDA040EEECFDBFFD9507C
:103F0000010FE96EDACFEAFFEF500F0BE76E050EF7
:103F1000E7CFDBFFFD0EDBCF10F010C0E6FF5DDA70
:103F2000E552E7CF10F0FD0FD880105406E255DAC5
:103F3000FD0FE76EFD0EE7CFDBFFFE0EDB5001014C
:103F40001F0BF36EF346F346F346070EA415F3106A
:103F5000A46FA491A493A4955CDA7CDAA4C1EFFFCA
:103F600086DA78DA010EE926000EEA22E552E750F9
:103F7000EF6E4FDA6FDAFDD9EF6A79DAEE52E55279
:103F8000E750EF6E030EF36E050E39DA0BE275DAC9
:103F900040DAEF50400B400A01E0010E106E39DAB2
:103FA000FBD901D06ADA880E106E33DA1050EF12A6
:103FB000060EE15C02E2E16AE552E16ED1D14DDA32
:103FC000140EDF5C11E2DF502FDA0CE0DF50BED9B7
:103FD000FE0EDBCFEFFFDF50B9D9EF9A37DAD5D934
:103FE000DF5003D0DF2AECD7FF0EE552B9D1BCD9A0
:103FF000FB0EDB5019DA0CE046DAFE0EDBCFEFFFEA
:1040000042DAEF9A40DAB5D9C0D9FB0EDB5001D0C5
:10401000FF0EA6D122DA140EDF5C11E217DAEECF22
:1040200010F0EFCF11F0FD0EDB50101806E1FE0E80
:10403000DB50111802E1010E03D0DF2AECD7000E8D
:10404000E5528ED10ADA140EDF5C08E2DF507ED929
:10405000EF8AFCD9EE6AED6ADF2AF5D7EA0EF66E32
:10406000080EF76E0800F5CF00F1E55279D17CD942
:10407000080EE126E7DF610EDF6EDE52640EDD6EB4
:104080006D0EC2D9690EF36E030EF3CFDBFF6E0E19
:10409000F36E040EF3CFDBFFA6D95EEC0CF0F3CF8A
:1040A00001F1F4CF02F190D9F3CF03F1F4CF04F191
:1040B000E66A4CEC0AF0E552700EDF6EDE526E0ED0
:1040C000DD6E700EA1D9030EDB6A040EDB6A8BD99C
:1040D00063EC0CF0F3CF1DF1F4CF1EF175D9F3CFE3
:1040E0001FF1F4CF20F171EC2CF0070EE66E53ECCB
:1040F00022F0E552080EE15C02E2E16AE552E16E6F
:104100002FD132D9020EE126140EF36EFE0E77D9AE
:104110004CE2FE0EDB5088D948E1FE0EDB50040D68
:10412000F3CFE9FFF4CFEAFF010EE926010EEA2200
:10413000EF8AFE0EDB50040DF3CFE9FFF4CFEAFF68
:10414000010EE926010EEA22020EE926000EEA22FD
:10415000EECFE6FFEFCFE6FF53EC0FF0E552E5526E
:10416000F3CFDEFFF4CFDDFFDECF10F0DDCF11F0B7
:10417000FE0EDBCFE6FF04D011C0FAFF1050F96E3F
:10418000FBDFE552FE0EDB50040DF3CFE9FFF4CF69
:10419000EAFF010EE926010EEA22020EE926000ED0
:1041A000EA22EE6AED6A010E01D0000E106E020ED8
:1041B000E15C02E2E16AE552E16E1050D1D0D4D860
:1041C000030EE126010E20D9140EF36E020E17D94C
:1041D0004DE2020EDB5028D946E1020EDB50040D01
:1041E000F3CFE9FFF4CFEAFF010EE926010EEA2240
:1041F000EF8A020EDB50040DF3CFE9FFF4CFEAFFA4
:10420000010EE926010EEA22020EE926000EEA223C
:10421000EECFE6FFEFCFE6FF53EC0FF0E552E552AD
:10422000F3CFDEFFF4CFDDFFDECF10F0DDCF11F0F6
:10423000020EDBCFE6FF04D011C0FAFF1050F96E7A
:10424000FBDFE552020EDB50040DF3CFE9FFF4CFA4
:10425000EAFF010EE926010EEA22020EE926000E0F
:10426000EA22EE6AED6A020EDB2AAED7010E106E6C
:10427000030EE15C02E2E16AE552E16E105070D09B
:1042800073D8050EE126FE0EDB5060D8EECFDFFFBF
:1042900091D8D9CFE9FFDACFEAFFEF500F0BE76EE5
:1042A000040EE7CFDBFFFE0EDB5007E1730E106E4E
:1042B000040E10C0F3FFF46E12D0040EDB50E8249D
:1042C000010F3AD856D8EECF10F0EFCF11F0030E11
:1042D0001026000E112210C0F3FF11C0F4FF050ECE
:1042E000E15C02E2E16AE552E16E3AD0D9CFE6FF45
:1042F000400E36D0D9CFE6FF400E32D035D8020E70
:10430000E126010EDB6ADF6A140EDF5C08E2DF5093
:104310008BD803E1010EDFCFDBFFDF2AF5D7010EDB
:10432000DB50116AF36E11C0F4FF020EE15C02E291
:10433000E16AE552E16E14D0040DF3CFE9FFF4CF4A
:10434000EAFF000EE926040EEA221200040DF3CF64
:10435000E9FFF4CFEAFF010EE926010EEA2212007E
:10436000E552E7CFD9FF1200D9CFE6FFE1CFD9FF61
:104370001200020EE926000EEA221200FE0EEA6A80
:10438000DB34FE0BEA36E96E1200FC0EDBCFEEFFEB
:10439000FD0EDBCFEDFF12001050010BF36EF34664
:1043A000F346F346F346F346F346BF0EEF14F3101D
:1043B000EF6E1200010EEECFDBFF020EEECFDBFF41
:1043C000030EEECFDBFF1200D9CFE6FFDACFE6FF18
:1043D00041EC0EF0E552E5521200050EDBCFE6FF90
:1043E00089DFE5521200050EDB6A060EDB6A070E56
:1043F000DB6A1200EE50EFCFEAFFE96E1200DBCF6E
:10440000F4FFF350F45C1200F36E020EF3CFDBFF07
:104410001200050EDB50E824010F9CEF21F0060E80
:10442000DB50E8249CEF21F091DFEF50200B1200CD
:104430009BDFA4DF540EE926010EEA22120094DF6E
:104440009DDF7C0EE926010EEA221200DF507EDF9E
:10445000B9EF21F08EDFFAEF21F086DFE652DF6A56
:104460001200400E106EDBDF1050EF161200FD0E32
:10447000DB50030FE66E09EF22F0400E106EC9DF2D
:104480001050EF161200FB0EDB50A6EF21F0EED914
:10449000E652DF6A060EDF5C04E20EDAEF6ADF2A1C
:1044A000F9D7E552E8D1E2D9080EE126FE0EDBCFBE
:1044B000AFF0CA0EE66E470EE66EAFC0E6FFA2ECA6
:1044C0001EF00BDAAFC0E6FF40EC21F0E552F3CF6F
:1044D000B0F0F4CFB1F063EC0CF0F3CFB8F0F4CF60
:1044E000B9F0CFEC26F0D3DF700EDF6EDE526F0E28
:1044F000DD6E720EF36E020EF3CFDBFF740EF36E01
:10450000030EF3CFDBFF040EDB6A050EDB6A060E3B
:10451000DB6A070EDB6A010EA1D9020E9FD9030EDA
:104520009DD9040E9BD9050E99D9060E97D9B6D9F7
:104530003AEC08F0D2D9E552080EE15C02E2E16AF9
:10454000E552E16E98D192D9FE0EDBCFE6FF9EECEC
:104550001EF0E552FE0EDBCFE6FFA5EC1EF0E552A5
:10456000D00EE66E460EE66ED2EC08F0E552E5524D
:1045700082D17CD9050EE126DF6ADF6A090EDF5C95
:1045800040E282D90A0EF626000EF7220900010E3B
:10459000F5CFDBFF0A00020EF5CFDBFF75D9080E61
:1045A000F626000EF7220900030EF5CFDBFF0A0006
:1045B000040EF5CFDBFFFD0EDBCF10F0FE0EDBCFE0
:1045C00011F0010EDBCF12F0020EDBCF13F0105012
:1045D000125C1150135813E3030EDBCF14F0040EDA
:1045E000DBCF15F0FD0EDBCF16F0FE0EDBCF17F0A4
:1045F0001450165C1550175802E3DF5003D0DF2A21
:10460000BDD7000E106E050EE15C02E2E16AE552D4
:10461000E16E105030D12AD9040EE126FD0EDBCF19
:10462000E6FFFE0EDBCFE6FF41EC0EF0E552E55271
:10463000020EF3CFDBFF030EF4CFDBFFD950020FE6
:10464000E96EDACFEAFFFF0EEE1801E1ED5031E03E
:10465000FC0EDBCFE6FF020EDBCFE6FF030EDBCF67
:10466000E6FFB8C0E6FFF7EC1FF0E552E552E55271
:10467000E552E76EFC0EE7CFDBFF020EDBCFE6FF75
:10468000030EDBCFE6FF4CEC0FF0E552E552F3CF23
:10469000DEFFF4CFDDFFDECF10F0DDCF11F0FC0E3A
:1046A000DBCFE6FF04D011C0FAFF1050F96EFBDF3C
:1046B000E552040EE15C02E2E16AE552E16EDBD014
:1046C000D5D8FE0EDBCFE6FF81EC20F0E552D3D04B
:1046D000CDD80A0EE126DF6A060EDF5C6AE2DF5003
:1046E0000A0DF3CFE9FFF4CFEAFFA50EE926010E8C
:1046F000EA22060EE926000EEA22EECF12F0EFCFF4
:1047000013F004D013C0FAFF1250F96EFBDFF3CFA1
:1047100010F0F4CF11F0F3CFE6FFF4CFE6FF29DF7E
:10472000E552E552E76E010EE7CFDBFFDF50EA6AA4
:10473000B20FE96E000EEA22EF50F36E010EDB506D
:10474000F35C35E0DF28E66EBBDFE552010EDB509F
:10475000BAD80800020E7CD8010E91D8030E78D882
:10476000020E8DD8040E74D8030E89D8050E70D8A9
:10477000040E85D8060E6CD8050E81D8070E68D8B1
:10478000060E7DD8080E64D8070E79D8090EF5CF2D
:10479000DBFFDF28E66ED950020FE66E000EDA204E
:1047A000E66E39DF9AD888D8010EDBCFEFFFDF2A1B
:1047B00093D774D89EEC08F090D8E5520A0EE15CCD
:1047C00002E2E16AE552E16E56D050D8020EE126CF
:1047D000010EDB6A5CD8EF5025E159D8EF50E66E48
:1047E00066D8E552E750EF6E52D8010EE926000E6A
:1047F000EA22EF50E66E5BD8010EE926000EEA22AF
:10480000E552E750EF6E53D8020EE926000EEA2279
:10481000EF684DD8030EE926000EEA22EF68DE525B
:10482000040EDD6E010EDB500CE004010CBF09D05C
:10483000010EDBCFE6FFAFC0E6FF75EC1FF0E552DF
:10484000E552020EE15C02E2E16AE552E16E13D04C
:10485000F5CFDBFF010EDB5063EF24F0E66ED9CF1E
:10486000E6FFDACFE6FFD7DE6DEF24F0D9CFE6FF23
:10487000E1CFD9FF1200E552E7CFD9FF1200F626AB
:10488000000EF72208001200DF5063EF24F0FD0E47
:10489000DBCFE9FFFE0EDBCFEAFF1200D00EE66EA3
:1048A000460EE66E200EE66E4E0EE66E1200B0C0AC
:1048B000E9FFB1C0EAFF1200DF50EA6AB20FE96E09
:1048C000000EEA2212000C0DF3CFF6FFF4CFF7FF33
:1048D000F00EF626260EF7221200E552E552E552BA
:1048E0001200D9CFE6FFE1CFD9FF800EE66E490E68
:1048F000E66EFE0EDBCFE6FFA2EC1EF0E552E552BF
:10490000E552FE0EDBCFE6FF40EC21F0E552F3CF9F
:1049100002F2F4CF03F2FE0EDB040A0DF3CFE9FF3F
:10492000F4CFEAFFA50EE926010EEA22080EE926D9
:10493000000EEA22EECF10F0EFCF11F0010EE66E7E
:1049400004D011C0FAFF1050F96EFBDFE552E552BA
:10495000E7CFD9FF12001200D9CFE6FFE1CFD9FF90
:10496000FE0EDBCFE6FF9EEC1EF0E552FE0EDBCF27
:10497000E6FFA5EC1EF0E552E552E7CFD9FF1200A5
:10498000D9CFE6FFE1CFD9FF0E0EE126010EDB6A9B
:10499000040EA5C1DBFF050EA6C1DBFF060EA7C1F5
:1049A000DBFF070EA8C1DBFF080EA9C1DBFF090E64
:1049B000AAC1DBFF0A0EABC1DBFF0B0EACC1DBFFF4
:1049C0000C0EADC1DBFF0D0EAEC1DBFF74D8010ACA
:1049D00018E0010A4EE16FD8E66E75D8E552E7504F
:1049E000EF6E71D8010EE926000EEA22010EEF6E7D
:1049F0006AD8020EE926000EEA22EF6ADE52030EA2
:104A000037D0FD0EDBCFE9FFFE0EDBCFEAFFEF5024
:104A1000E66E02C2E9FF03C2EAFFE552E750EF6E1D
:104A20000A0EDBCF10F00B0EDBCF11F004D011C05B
:104A3000FAFF1050F96EFBDF020EF3CFDBFF030E1F
:104A4000F4CFDBFF02C2E9FF03C2EAFF010EE92651
:104A5000000EEA22020EDBCFEFFF02C2E9FF03C223
:104A6000EAFFE926000EEA22030EDBCFEFFFDE525B
:104A7000DD6E010EDB5015E0DF6804010C51800B88
:104A800004E0DF50DF060008F8E30CBF0AD0010E97
:104A9000DBCFE6FFFB0EDBCFE6FF75EC1FF0E55248
:104AA000E5520E0EE15C02E2E16AE552E16EE5528A
:104AB000E7CFD9FF1200FD0EDBCFE9FFFE0EDBCF03
:104AC000EAFFEF50120002C2E9FF03C2EAFF120040
:104AD000EBD9E8B09282E8A09292BFD1F0D9C29807
:104AE000C296C284C282C250020B02E0C6D9FBE366
:104AF0009FD902E2E16AE552E16EAFD1DCD9EEDF87
:104B0000B0D902E0010E01D0000ECAD902E2E16A7A
:104B1000E552E16E1050A1D1C7D9E8B08082E8A07B
:104B200080929BD1C5D9C29AC298C296C294C282C1
:104B3000C250020B02E0A1D9FBE37AD902E2E16A9A
:104B4000E552E16E8AD1B0D9E8B09286E8A092969B
:104B500084D1B5D9C298C286C284C282C250020B27
:104B600002E08BD9FBE364D902E2E16AE552E16E2F
:104B700074D1A1D9EEDF75D902E0010E01D0000E8B
:104B80008FD902E2E16AE552E16E105066D18CD90C
:104B9000E8B08086E8A0809660D18AD9C29AC2988F
:104BA000C286C294C282C250020B02E066D9FBE305
:104BB0003FD902E2E16AE552E16E4FD175D9E8B022
:104BC0009682E8A0969249D17AD9C288C286C294C8
:104BD000C282C250020B02E050D9FBE329D902E2A3
:104BE000E16AE552E16E39D166D9EEDF3AD902E0E9
:104BF000010E01D0000E54D902E2E16AE552E16EE5
:104C000010502BD151D9E8B08482E8A0849225D1EC
:104C10004FD9C29AC288C286C284C282C250020BD5
:104C200002E02BD9FBE304D902E2E16AE552E16E2E
:104C300014D13AD9E8B0928AE8A0929A0ED13FD91D
:104C4000C288C296C294C282C250020B02E015D939
:104C5000FBE3EED802E2E16AE552E16EFED02BD929
:104C6000EEDFFFD802E0010E01D0000E19D902E2FA
:104C7000E16AE552E16E1050F0D016D9E8B0808AB2
:104C8000E8A0809AEAD014D9C29AC288C296C28497
:104C9000C282C250020B02E0F0D8FBE3C9D802E2A4
:104CA000E16AE552E16ED9D0FFD8E8B09382E8A07E
:104CB0009392D3D0CDD8E8D8C28AC298C286C29483
:104CC000C282C250020B02E0D8D8FBE3B1D802E2A4
:104CD000E16AE552E16EC1D0EED8ECDFC2D802E065
:104CE000010E01D0000EDCD802E2E16AE552E16E6D
:104CF0001050B3D0D9D8E8B08182E8A08192ADD06D
:104D0000D7D8C28AC288C296C294C282C250020B4D
:104D100002E0B3D8FBE38CD802E2E16AE552E16E2F
:104D20009CD0C2D8E8B09386E8A0939696D0C0D81D
:104D3000C28AC298C296C284C282C250020B02E0EA
:104D40009CD8FBE375D802E2E16AE552E16E85D0BA
:104D5000B2D8DE6ADD6AEBDF84D802E0010E01D052
:104D6000000E9ED802E2E16AE552E16E105075D065
:104D70009BD8E8B08186E8A081966FD099D8C28A86
:104D8000C298C296C294C282C250020B02E075D889
:104D9000FBE34ED802E2E16AE552E16E5ED058D8FC
:104DA000E652CF0EC1140009C16EF00EC114000905
:104DB000C16EC09EC70EC0143809C06EF80EC01474
:104DC0000409C06E836A9568DF6A060EDF5C1DE227
:104DD000DF500A0DF3CFE9FFF4CFEAFFA50EE92675
:104DE000010EEA22080EE926000EEA22EECF10F0AC
:104DF000EFCF11F0010EE66E04D011C0FAFF105093
:104E0000F96EFBDFE552DF2AE0D7E55226D020D845
:104E1000FE0EDB040A0DF3CF10F0F4CF11F0A50E57
:104E20001026010E112210C0F3FF11C0F4FF15D09F
:104E3000C350DF6E010EC4CFDBFFDECF10F0DDCF3D
:104E400011F010C0F3FF11C0F4FF030EE15C12007B
:104E5000D9CFE6FFE1CFD9FF1200E552E7CFD9FF66
:104E60001200F3CFDEFFF4CFDDFFD950010FE96E62
:104E7000DACFEAFFEF50800B1200020EDBCFF3FF18
:104E8000DB06F35000081200030EE126DE6ADD6A3D
:104E9000020EDB681200030EE126020EDB68120030
:104EA000106E020EE15C1200D3DFFE0EDB5012002A
:104EB000CFDF4BEF27F0CCDF020EE1261200C8DF78
:104EC000E3DFC29A120075D8E652400EE66E4F0E2E
:104ED000E66EFE0EDBCFE6FFA2EC1EF0E552E552D9
:104EE000E5520A0EE66E4F0EE66E80EC0DF0E552CE
:104EF000E552DF6EFE0EDBCFE6FF40EC21F0E5521F
:104F0000F3CFFDF0F4CFFEF04FD0060E0001E75DC9
:104F100001E36D5012004DD8FE0EDBCFE6FF9EEC94
:104F20001EF0E552FE0EDBCFE6FFA5EC1EF0E552CB
:104F30000A0EE66E4F0EE66EA6EC0DF0E55234D08A
:104F400038D8E652DF6ADF6AFC0EDB50DF5C1AE21B
:104F5000DF50E76EFD0EDBCFE9FFFE0EDBCFEAFF91
:104F6000E750E926000EEA22EF50E66EDF5000011E
:104F7000EA6AFD25E96EFE51EA22E552E750EF6E3E
:104F8000DF2AE2D7FC0EDB50DF6EDF500CE00401BD
:104F90000CBF09D0DFCFE6FFFB0EDBCFE6FF75ECE1
:104FA0001FF0E552E55200D0E552E552E7CFD9FFB8
:104FB0001200D9CFE6FFE1CFD9FF1200D9CFE6FF2B
:104FC000E1CFD9FF2C0EE66E500EE66EFE0EDBCF63
:104FD000E6FFA2EC1EF0E552E552E552FE0EDBCFF5
:104FE000E6FF40EC21F0E552F3CFFBF0F4CFFCF00C
:104FF000E552E7CFD9FF1200060E0001E75D01E39D
:105000006D501200D9CFE6FFE1CFD9FFFE0EDBCF06
:10501000E6FF9EEC1EF0E552FE0EDBCFE6FFA5ECB0
:105020001EF0E552E552E7CFD9FF1200D9CFE6FFD7
:10503000E1CFD9FF050EE126020EDB6A030EF36E07
:10504000030EF3CFDBFF040EDB6AFD0EDBCFE9FFBF
:10505000FE0EDBCFEAFFEF50FF0A4EE0FC0A22E033
:10506000010A01E04BD0FD0EDBCFE9FFFE0EDBCFE6
:10507000EAFFEF50E66EFBC0E9FFFCC0EAFFE55235
:10508000E750EF6EFBC0E9FFFCC0EAFF010EE92626
:10509000000EEA22160EEF6E020EF36E020EF3CF32
:1050A000DBFF2DD0FD0EDBCFE9FFFE0EDBCFEAFFED
:1050B000EF50E66EFBC0E9FFFCC0EAFFE552E750A7
:1050C000EF6ED950030FE66E000EDA20E66EE4ECC8
:1050D0002BF0E552E552FBC0E9FFFCC0EAFF010EF0
:1050E000E926000EEA22030EDBCFEFFF020EF36E7D
:1050F000020EF3CFDBFF03D0FF0001D000D0020E81
:10510000DB501CE0010EDB68040104010C51800B34
:1051100008E0010EDBCFF3FFDB06F350000801E2ED
:10512000F3D704010CBF0AD0020EDBCFE6FFFB0E63
:10513000DBCFE6FF75EC1FF0E552E552050EE15CB2
:1051400002E2E16AE552E16EE552E7CFD9FF1200D3
:10515000D9CFE6FFE1CFD9FFF60EE66E510EE66E2F
:10516000FE0EDBCFE6FFA2EC1EF0E552E552E55263
:10517000FE0EDBCFE6FF40EC21F0E552F3CFF9F075
:10518000F4CFFAF0FE0EDBCFE6FF07EC27F0E55296
:10519000F3CFE9FFF4CFEAFF080EE926000EEA227A
:1051A000EECF10F0EFCF11F0010EE66E04D011C07B
:1051B000FAFF1050F96EFBDFE552E552E7CFD9FF59
:1051C0001200060E0001E75D01E36D501200D9CF19
:1051D000E6FFE1CFD9FFFE0EDBCFE6FF9EEC1EF02F
:1051E000E552FE0EDBCFE6FFA5EC1EF0E552E552E0
:1051F000E7CFD9FF1200D9CFE6FFE1CFD9FF020EEA
:10520000E126010EDB6AFD0EDBCFE9FFFE0EDBCFF0
:10521000EAFFEF50FF0A5EE0FE0A29E0010A01E022
:105220005BD0FD0EDBCFE9FFFE0EDBCFEAFFEF50D8
:10523000E66EF9C0E9FFFAC0EAFFE552E750EF6E0B
:10524000F9C0E9FFFAC0EAFF010EE926000EEA22E2
:10525000010EEF6EF9C0E9FFFAC0EAFF020EE9267F
:10526000000EEA22EF6ADE52030EDD6E36D0FD0E2E
:10527000DBCFE9FFFE0EDBCFEAFFEF50E66EF9C0B1
:10528000E9FFFAC0EAFFE552E750EF6EFB0EDBCF15
:10529000E6FF07EC27F0E552F3CFE9FFF4CFEAFF92
:1052A000EECF10F0EFCF11F004D011C0FAFF105084
:1052B000F96EFBDFE66EF9C0E9FFFAC0EAFF010E06
:1052C000E926000EEA22E552E750EF6EDE52020EAA
:1052D000DD6E03D0FF0001D000D0010EDB5018E0DE
:1052E000DF68040104010C51800B05E0DF50DF068C
:1052F000000801E2F6D704010CBF0AD0010EDBCF93
:10530000E6FFFB0EDBCFE6FF75EC1FF0E552E55242
:10531000020EE15C02E2E16AE552E16EE552E7CF9E
:10532000D9FF1200D9CFE6FFE1CFD9FFCA0EE66E52
:10533000530EE66EFE0EDBCFE6FFA2EC1EF0E5524A
:10534000E552E552FE0EDBCFE6FF40EC21F0E552E0
:10535000F3CFF7F0F4CFF8F0FE0EDBCFE6FF07EC6B
:1053600027F0E552F3CFE9FFF4CFEAFF080EE92674
:10537000000EEA22EECF10F0EFCF11F0010EE66E34
:1053800004D011C0FAFF1050F96EFBDFE552E55270
:10539000E7CFD9FF1200060E0001E75D01E36D5073
:1053A0001200D9CFE6FFE1CFD9FFFE0EDBCFE6FF3B
:1053B0009EEC1EF0E552FE0EDBCFE6FFA5EC1EF0E4
:1053C000E552E552E7CFD9FF1200D9CFE6FFE1CF92
:1053D000D9FF040EE126030EDB6AFD0EDBCFE9FFE9
:1053E000FE0EDBCFEAFFEF50FF0A76E0FE0A2BE06D
:1053F000010A01E073D0FD0EDBCFE9FFFE0EDBCF2B
:10540000EAFFEF50E66EF7C0E9FFF8C0EAFFE552A9
:10541000E750EF6EF7C0E9FFF8C0EAFF010EE9269A
:10542000000EEA22010EEF6EF7C0E9FFF8C0EAFFB6
:10543000020EE926000EEA22EF6A030EF36E030E57
:10544000F3CFDBFF4CD0FD0EDBCFE9FFFE0EDBCF51
:10545000EAFFEF50E66EF7C0E9FFF8C0EAFFE55259
:10546000E750EF6EFB0EDBCFE6FF07EC27F0E552CF
:10547000F3CFE9FFF4CFEAFF020EE926000EEA229D
:10548000EECF10F0EFCF11F004D011C0FAFF1050A2
:10549000F96EFBDFDE52F3CFDEFFF4CFDDFFDD522E
:1054A000F7C0E9FFF8C0EAFF010EE926000EEA2284
:1054B000010EDBCFEFFFF7C0E9FFF8C0EAFF020EF5
:1054C000E926000EEA22020EDBCFEFFF030EF36E99
:1054D000030EF3CFDBFF03D0FF0001D000D0030E9B
:1054E000DB5018E0DF68040104010C51800B05E07B
:1054F000DF50DF06000801E2F6D704010CBF0AD036
:10550000030EDBCFE6FFFB0EDBCFE6FF75EC1FF0F3
:10551000E552E552040EE15C02E2E16AE552E16E19
:10552000E552E7CFD9FF1200D9CFE6FFE1CFD9FF8F
:10553000CE0EE66E550EE66EFE0EDBCFE6FFA2EC5B
:105540001EF0E552E552E552FE0EDBCFE6FF40ECE1
:1055500021F0E552F3CFF5F0F4CFF6F0FE0EDBCFFD
:10556000E6FF07EC27F0E552F3CFE9FFF4CFEAFFBF
:10557000080EE926000EEA22EECF10F0EFCF11F070
:10558000010EE66E04D011C0FAFF1050F96EFBDF79
:10559000E552E552E7CFD9FF1200060E0001E75DA4
:1055A00001E36D501200D9CFE6FFE1CFD9FFFE0E27
:1055B000DBCFE6FF9EEC1EF0E552FE0EDBCFE6FFF2
:1055C000A5EC1EF0E552E552E7CFD9FF1200D9CF86
:1055D000E6FFE1CFD9FF040EE126030EDB6AFD0EE4
:1055E000DBCFE9FFFE0EDBCFEAFFEF50FF0A76E0EC
:1055F000FE0A2BE0010A01E073D0FD0EDBCFE9FFCC
:10560000FE0EDBCFEAFFEF50E66EF5C0E9FFF6C015
:10561000EAFFE552E750EF6EF5C0E9FFF6C0EAFF9A
:10562000010EE926000EEA22010EEF6EF5C0E9FF39
:10563000F6C0EAFF020EE926000EEA22EF6A030E28
:10564000F36E030EF3CFDBFF4CD0FD0EDBCFE9FF93
:10565000FE0EDBCFEAFFEF50E66EF5C0E9FFF6C0C5
:10566000EAFFE552E750EF6EFB0EDBCFE6FF07ECFB
:1056700027F0E552F3CFE9FFF4CFEAFF020EE92667
:10568000000EEA22EECF10F0EFCF11F004D011C0DF
:10569000FAFF1050F96EFBDFDE52F3CFDEFFF4CFDE
:1056A000DDFFDD52F5C0E9FFF6C0EAFF010EE92695
:1056B000000EEA22010EDBCFEFFFF5C0E9FFF6C0D6
:1056C000EAFF020EE926000EEA22020EDBCFEFFF10
:1056D000030EF36E030EF3CFDBFF03D0FF0001D008
:1056E00000D0030EDB5018E0DF68040104010C5108
:1056F000800B05E0DF50DF06000801E2F6D7040169
:105700000CBF0AD0030EDBCFE6FFFB0EDBCFE6FFBC
:1057100075EC1FF0E552E552040EE15C02E2E16A2D
:10572000E552E16EE552E7CFD9FF1200000EE66EBA
:10573000E66A200EE66EF2C1E6FF40EF2EF0A3DA35
:10574000F2C1E6FF7CDA2C0EE66E570E17EF2EF054
:10575000A1DAF2C1E6FF73DA3E0EE66E570E17EFDE
:105760002EF0000EE66EE66A200EE66EEEC1E6FF53
:1057700087DA500EE66E570E17EF2EF084DAEEC180
:10578000E6FF5DDA620EE66E570E17EF2EF082DA54
:10579000EEC1E6FF54DA7C0EE66E570E17EF2EF0E0
:1057A000010EE66EEEC1E6FF33EC1CF0E552E55269
:1057B000010EE66EF2C1E6FF33EC1CF0E552E55255
:1057C0008E0EE66E570E3ED256DA060EE126040E17
:1057D000DB6A050EDB6A2A0EDF6EDE52010EDD6E1D
:1057E000D9CFE6FFDACFE6FF020EE66EE66EEEC137
:1057F000E6FF57DAFD0EDBCFE6FF61DA2BDA58DA87
:10580000106E060EE15C02E2E16AE552E16E1050B4
:105810002ED2D9CFE6FF2BD22EDA080EE126060EC5
:10582000DB6A070EDB6A060EDBCF10F0070EDBCF5C
:1058300011F0D890115004E6020E105C000E1158C1
:105840002BE2000EE66EE66A010EE66EE66A06C21E
:10585000E6FF27DAFFD9D9CFE6FFDACFE6FF28DA6D
:1058600002010651062B106E116AE850DF180EE196
:105870001150DE52DD180AE10751072BEA6AF80FD2
:10588000E96E010EEA22DFCFEFFF06D0060EDB2A1B
:10589000070EC9E3DB2AC7D7020E0201075D0EE13E
:1058A0000101F851EE6FEF6BF06BF16BF951F26F94
:1058B000F36B010EF46FF56B73DF0CD00751106EB4
:1058C000116AFD0E101802E1115004E0180EE66E88
:1058D000580EADD9080EE15C02E2E16AE552E16ED4
:1058E000C6D1180EE66E580EADD1C5D9420EE66E81
:1058F000590EE66EE4D9A2EC1EF0E552E552E552EF
:10590000DED940EC21F0E552F3CFF6F1F4CFF7F118
:10591000AED1060E0001E75D01E36D501200ABD978
:10592000CED99EEC1EF0E552CAD9A5EC1EF0E55288
:10593000E20EE66E580EE66ED2EC08F0E552E55245
:1059400096D1D9CFE6FFE1CFD9FF0D0EE126010EAA
:10595000DB6AFD0EDBCFE9FFFE0EDBCFEAFFEF5087
:10596000020A01E12AD1030A2DE0FE0A29E0FF0A1A
:1059700001E037D1FD0EDBCFE9FFFE0EDBCFEAFF02
:10598000EF50E66EF6C1E9FFF7C1EAFFE552E750D6
:10599000EF6EF6C1E9FFF7C1EAFF010EE926000E3E
:1059A000EA22010EEF6EF6C1E9FFF7C1EAFF020E2F
:1059B000E926000EEA22EF6ADE52030EDD6E12D1F6
:1059C000FF0010D1FD0EDBCFE9FFFE0EDBCFEAFFBB
:1059D000EF50E66EF6C1E9FFF7C1EAFFE552E75086
:1059E000EF6EFD0EDBCFE9FFFE0EDBCFEAFF010E0F
:1059F000E926000EEA22020EEFCFDBFFFD0EDBCF21
:105A0000E9FFFE0EDBCFEAFF020EE926000EEA22D6
:105A1000060EEFCFDBFFFD0EDBCFE9FFFE0EDBCF87
:105A2000EAFF030EE926000EEA22040EEFCFDBFFA9
:105A3000060EDB50E66ED950090FE96EDACFEAFFA9
:105A4000E552E750EE6EED6A090EDBCF12F00A0E5A
:105A5000DBCF13F012C013F0126A040EDB5000010A
:105A60001210106E13C011F0090E10C0DBFF0A0EE9
:105A700011C0DBFFFD0EDBCFE9FFFE0EDBCFEAFF3F
:105A8000040EE926000EEA22030EEFCFDBFFFD0E27
:105A9000DBCFE9FFFE0EDBCFEAFF050EE926000EA5
:105AA000EA22070EEFCFDBFFFD0EDBCFE9FFFE0E94
:105AB000DBCFEAFF060EE926000EEA22050EEFCF45
:105AC000DBFF070EDB50E66ED9500B0FE96EDACF25
:105AD000EAFFE552E750EE6EED6A0B0EDBCF12F0F7
:105AE0000C0EDBCF13F012C013F0126A050EDB5060
:105AF00000011210106E13C011F00B0E10C0DBFF6E
:105B00000C0E11C0DBFF020EDB0410E1E66A090E89
:105B1000DBCFE6FF0A0EDBCFE6FFEEC1E6FF41EC8E
:105B20001CF0E552E552E552E55217D0E66A090E3F
:105B3000DBCF10F00A0EDBCF11F0106C111E000E3F
:105B4000112210C0E6FF11C0E6FFEEC1E6FF41ECF6
:105B50001CF0E552E552E552E552030EDB0411E17B
:105B6000010EE66E0B0EDBCFE6FF0C0EDBCFE6FF81
:105B7000F2C1E6FF41EC1CF0E552E552E552E55278
:105B800018D0010EE66E0B0EDBCF10F00C0EDBCF43
:105B900011F0106C111E000E112210C0E6FF11C092
:105BA000E6FFF2C1E6FF41EC1CF0E552E552E5529A
:105BB000E552DE52010EDD6E15D0F2DDFD0EDBCFBB
:105BC000E9FFFE0EDBCFEAFFEF50E66EF6C1E9FF1C
:105BD000F7C1EAFFE552E750EF6EDE52010EDD6ECF
:105BE00001D000D0010EDB5018E0DF680401040191
:105BF0000C51800B05E0DF50DF06000801E2F6D70C
:105C000004010CBF0AD0010EDBCFE6FFFB0EDBCF99
:105C1000E6FF75EC1FF0E552E5520D0EE15C02E285
:105C2000E16AE552E16EE552E7CFD9FF1200E66E78
:105C3000880EE66E130EE66E9EEC08F044D041EC42
:105C40001CF041D0E66ED00EE66E070EE66E3AEC22
:105C500008F039D0D950040FE66E000EDA20E66E57
:105C6000D950020FE66E000EDA20E66E1200E55201
:105C7000E7CFD9FF1200D9CFE6FFE1CFD9FF12005D
:105C8000CAEC1BF020D0010EE66EA80EE66EFD0EEB
:105C9000E66E1200010EE66E580EE66E020EE66E1D
:105CA0001200A8EC1AF0106E050EE15E1050120002
:105CB000F5EC1AF0106E060EE15E10501200FE0EAA
:105CC000DBCFE6FF1200E552E552E552E552120045
:105CD000D9CFE6FFE1CFD9FF760EE66E5D0EE66E18
:105CE000FE0EDBCFE6FFA2EC1EF0E552E552E552D8
:105CF000FE0EDBCFE6FF40EC21F0E552F3CFEFF0F4
:105D0000F4CFF0F0FE0EDBCFE6FF07EC27F0E55214
:105D1000F3CFE9FFF4CFEAFF080EE926000EEA22EE
:105D2000EECF10F0EFCF11F0010EE66E04D011C0EF
:105D3000FAFF1050F96EFBDFE552E552E7CFD9FFCD
:105D40001200060E0001E75D01E36D501200D9CF8D
:105D5000E6FFE1CFD9FFFE0EDBCFE6FF9EEC1EF0A3
:105D6000E552FE0EDBCFE6FFA5EC1EF0E552E55254
:105D7000E7CFD9FF1200D9CFE6FFE1CFD9FF040E5C
:105D8000E126030EDB6AFD0EDBCFE9FFFE0EDBCF63
:105D9000EAFFEF50FF0A76E0FE0A2BE0010A01E07D
:105DA00073D0FD0EDBCFE9FFFE0EDBCFEAFFEF5035
:105DB000E66EEFC0E9FFF0C0EAFFE552E750EF6E94
:105DC000EFC0E9FFF0C0EAFF010EE926000EEA226B
:105DD000010EEF6EEFC0E9FFF0C0EAFF020EE92608
:105DE000000EEA22EF6A030EF36E030EF3CFDBFF21
:105DF0004CD0FD0EDBCFE9FFFE0EDBCFEAFFEF500C
:105E0000E66EEFC0E9FFF0C0EAFFE552E750EF6E43
:105E1000FB0EDBCFE6FF07EC27F0E552F3CFE9FFFF
:105E2000F4CFEAFF020EE926000EEA22EECF10F0D0
:105E3000EFCF11F004D011C0FAFF1050F96EFBDF64
:105E4000DE52F3CFDEFFF4CFDDFFDD52EFC0E9FF1E
:105E5000F0C0EAFF010EE926000EEA22010EDBCFB8
:105E6000EFFFEFC0E9FFF0C0EAFF020EE926000EE7
:105E7000EA22020EDBCFEFFF030EF36E030EF3CF29
:105E8000DBFF03D0FF0001D000D0030EDB5018E091
:105E9000DF68040104010C51800B05E0DF50DF06D0
:105EA000000801E2F6D704010CBF0AD0030EDBCFD5
:105EB000E6FFFB0EDBCFE6FF75EC1FF0E552E55287
:105EC000040EE15C02E2E16AE552E16EE552E7CFE1
:105ED000D9FF1200D9CFE6FFE1CFD9FF7A0EE66EE7
:105EE0005F0EE66EFE0EDBCFE6FFA2EC1EF0E55283
:105EF000E552E552FE0EDBCFE6FF40EC21F0E55225
:105F0000F3CFEDF0F4CFEEF0FE0EDBCFE6FF07ECC3
:105F100027F0E552F3CFE9FFF4CFEAFF080EE926B8
:105F2000000EEA22EECF10F0EFCF11F0010EE66E78
:105F300004D011C0FAFF1050F96EFBDFE552E552B4
:105F4000E7CFD9FF1200060E0001E75D01E36D50B7
:105F50001200D9CFE6FFE1CFD9FFFE0EDBCFE6FF7F
:105F60009EEC1EF0E552FE0EDBCFE6FFA5EC1EF028
:105F7000E552E552E7CFD9FF1200D9CFE6FFE1CFD6
:105F8000D9FF040EE126030EDB6AFD0EDBCFE9FF2D
:105F9000FE0EDBCFEAFFEF50FF0A76E0FE0A2BE0B1
:105FA000010A01E073D0FD0EDBCFE9FFFE0EDBCF6F
:105FB000EAFFEF50E66EEDC0E9FFEEC0EAFFE55202
:105FC000E750EF6EEDC0E9FFEEC0EAFF010EE926F3
:105FD000000EEA22010EEF6EEDC0E9FFEEC0EAFF0F
:105FE000020EE926000EEA22EF6A030EF36E030E9C
:105FF000F3CFDBFF4CD0FD0EDBCFE9FFFE0EDBCF96
:10600000EAFFEF50E66EEDC0E9FFEEC0EAFFE552B1
:10601000E750EF6EFB0EDBCFE6FF07EC27F0E55213
:10602000F3CFE9FFF4CFEAFF020EE926000EEA22E1
:10603000EECF10F0EFCF11F004D011C0FAFF1050E6
:10604000F96EFBDFDE52F3CFDEFFF4CFDDFFDD5272
:10605000EDC0E9FFEEC0EAFF010EE926000EEA22DC
:10606000010EDBCFEFFFEDC0E9FFEEC0EAFF020E4D
:10607000E926000EEA22020EDBCFEFFF030EF36EDD
:10608000030EF3CFDBFF03D0FF0001D000D0030EDF
:10609000DB5018E0DF68040104010C51800B05E0BF
:1060A000DF50DF06000801E2F6D704010CBF0AD07A
:1060B000030EDBCFE6FFFB0EDBCFE6FF75EC1FF038
:1060C000E552E552040EE15C02E2E16AE552E16E5E
:1060D000E552E7CFD9FF1200D9CFE6FFE1CFD9FFD4
:1060E0007E0EE66E610EE66EFE0EDBCFE6FFA2ECE4
:1060F0001EF0E552E552E552FE0EDBCFE6FF40EC26
:1061000021F0E552F3CFEBF0F4CFECF0FE0EDBCF55
:10611000E6FF07EC27F0E552F3CFE9FFF4CFEAFF03
:10612000080EE926000EEA22EECF10F0EFCF11F0B4
:10613000010EE66E04D011C0FAFF1050F96EFBDFBD
:10614000E552E552E7CFD9FF1200060E0001E75DE8
:1061500001E36D501200D9CFE6FFE1CFD9FFFE0E6B
:10616000DBCFE6FF9EEC1EF0E552FE0EDBCFE6FF36
:10617000A5EC1EF0E552E552E7CFD9FF1200D9CFCA
:10618000E6FFE1CFD9FF040EE126030EDB6AFD0E28
:10619000DBCFE9FFFE0EDBCFEAFFEF50FF0A76E030
:1061A000FE0A2BE0010A01E073D0FD0EDBCFE9FF10
:1061B000FE0EDBCFEAFFEF50E66EEBC0E9FFECC06E
:1061C000EAFFE552E750EF6EEBC0E9FFECC0EAFFF3
:1061D000010EE926000EEA22010EEF6EEBC0E9FF88
:1061E000ECC0EAFF020EE926000EEA22EF6A030E77
:1061F000F36E030EF3CFDBFF4CD0FD0EDBCFE9FFD8
:10620000FE0EDBCFEAFFEF50E66EEBC0E9FFECC01D
:10621000EAFFE552E750EF6EFB0EDBCFE6FF07EC3F
:1062200027F0E552F3CFE9FFF4CFEAFF020EE926AB
:10623000000EEA22EECF10F0EFCF11F004D011C023
:10624000FAFF1050F96EFBDFDE52F3CFDEFFF4CF22
:10625000DDFFDD52EBC0E9FFECC0EAFF010EE926ED
:10626000000EEA22010EDBCFEFFFEBC0E9FFECC02E
:10627000EAFF020EE926000EEA22020EDBCFEFFF54
:10628000030EF36E030EF3CFDBFF03D0FF0001D04C
:1062900000D0030EDB5018E0DF68040104010C514C
:1062A000800B05E0DF50DF06000801E2F6D70401AD
:1062B0000CBF0AD0030EDBCFE6FFFB0EDBCFE6FF01
:1062C00075EC1FF0E552E552040EE15C02E2E16A72
:1062D000E552E16EE552E7CFD9FF1200D9CFE6FFD4
:1062E000E1CFD9FFF60EE66E630EE66EFE0EDBCF53
:1062F000E6FFA2EC1EF0E552E552E552FE0EDBCFC2
:10630000E6FF40EC21F0E552F3CFF1F0F4CFF2F0EC
:10631000FE0EDBCFE6FF07EC27F0E552F3CFE9FFF7
:10632000F4CFEAFF080EE926000EEA22EECF10F0C5
:10633000EFCF11F0E66A04D011C0FAFF1050F96EE9
:10634000FBDFE552E552E7CFD9FF1200D9CFE6FFD8
:10635000060E0001E75D02E36D50020BE552E7CF48
:10636000D9FF1200D9CFE6FFE1CFD9FFFE0EDBCF78
:10637000E6FF07EC27F0E552F3CFE9FFF4CFEAFFA1
:10638000040EE926000EEA22EECF10F0EFCF11F056
:10639000E66A04D011C0FAFF1050F96EFBDFE55237
:1063A000FE0EDBCFE6FF07EC27F0E552F3CFE9FF67
:1063B000F4CFEAFF080EE926000EEA22EECF10F035
:1063C000EFCF11F0010EE66E04D011C0FAFF1050AD
:1063D000F96EFBDFE552FE0EDBCFE6FF9EEC1EF012
:1063E000E552FE0EDBCFE6FFA5EC1EF0E552E552CE
:1063F000E7CFD9FF1200D9CFE6FFE1CFD9FF020ED8
:10640000E126010EDB6AFD0EDBCFE9FFFE0EDBCFDE
:10641000EAFFEF50FF0A01E1D0D0FD0A01E17DD093
:10642000030A29E0010A01E0CAD0FD0EDBCFE9FF33
:10643000FE0EDBCFEAFFEF50E66EF1C0E9FFF2C0DF
:10644000EAFFE552E750EF6EF1C0E9FFF2C0EAFF64
:10645000010EE926000EEA22010EEF6EF1C0E9FFFF
:10646000F2C0EAFF020EE926000EEA22EF6ADE52CF
:10647000040EDD6EA5D0FD0EDBCFE9FFFE0EDBCFF7
:10648000EAFFEF50E66EF1C0E9FFF2C0EAFFE55225
:10649000E750EF6EF1C0E9FFF2C0EAFF010EE92616
:1064A000000EEA22010EEF6EFB0EDBCFE6FF07ECDB
:1064B00027F0E552F3CFE9FFF4CFEAFF040EE92617
:1064C000000EEA22EECF10F0EFCF11F0010EE66ED3
:1064D00004D011C0FAFF1050F96EFBDFE552FB0E3D
:1064E000DBCFE6FF07EC27F0E552F3CFE9FFF4CF6F
:1064F000EAFF080EE926000EEA22EECF10F0EFCFF9
:1065000011F0E66A04D011C0FAFF1050F96EFBDFFB
:10651000E552DE52020EDD6E53D0FD0EDBCFE9FFF9
:10652000FE0EDBCFEAFFEF50E66EF1C0E9FFF2C0EE
:10653000EAFFE552E750EF6EF1C0E9FFF2C0EAFF73
:10654000010EE926000EEA22EF6AFB0EDBCFE6FF22
:1065500007EC27F0E552F3CFE9FFF4CFEAFF040E92
:10656000E926000EEA22EECF10F0EFCF11F0E66A36
:1065700004D011C0FAFF1050F96EFBDFE552FB0E9C
:10658000DBCFE6FF07EC27F0E552F3CFE9FFF4CFCE
:10659000EAFF080EE926000EEA22EECF10F0EFCF58
:1065A00011F0E66A04D011C0FAFF1050F96EFBDF5B
:1065B000E552DE52020EDD6E03D0FF0001D000D0A6
:1065C000010EDB5018E0DF68040104010C51800B60
:1065D00005E0DF50DF06000801E2F6D704010CBF3A
:1065E0000AD0010EDBCFE6FFFB0EDBCFE6FF75EC3A
:1065F0001FF0E552E552020EE15C02E2E16AE5526B
:10660000E16EE552E7CFD9FF1200E8D8580EE66EEA
:10661000660EE66EFE0EDBCFE6FFA2EC1EF0E55244
:10662000E552E552FE0EDBCFE6FF40EC21F0E552ED
:10663000F3CFF3F0F4CFF4F0CBD01200CFD8FE0EAE
:10664000DBCFE6FF9EEC1EF0E552FE0EDBCFE6FF51
:10665000A5EC1EF0E552BCD0C1D8040EE126010E17
:10666000DB6AD3D8EF50030A51E00B0A4AE00F0A65
:1066700045E0010A3FE0020A2CE0010A1EE0040A9C
:1066800015E0030A0EE0020A62E1ADD89BD8020EC3
:10669000EF6EC2D8E926000EEA22EF6ADE52030E40
:1066A00055D0B0D822E08AD8FEE11FD0ABD802E0A6
:1066B00085D8FEE1F35095101BD0A4D802E07ED817
:1066C000FEE1F3508310836E74D80FE077D8FEE1BB
:1066D0000CD098D802E072D8FEE1F350F31C83147A
:1066E000836E67D802E06AD8FEE1F350F31C95147C
:1066F000956E09D078D87FD8836E04D057D8956826
:1067000002D054D8956ADE52010E20D042D8020E33
:10671000DBCF10F04ED802E051D8FEE1F3508314E5
:1067200010C0E7FFE75204E0E8427F0BE706FCE118
:10673000E66E48D8E552E750EF6E3BD802E03ED80F
:10674000FEE1F3509510956EDE52020EDD6E010EE5
:10675000DB5015E0DF6804010C51800B04E0DF50D2
:10676000DF060008F8E30CBF0AD0010EDBCFE6FF1E
:10677000FB0EDBCFE6FF75EC1FF0E552E552040E91
:10678000E15C02E2E16AE552E16EE552E7CFD9FF52
:10679000120029D830D8E66ED950020FE96EDACF50
:1067A000EAFFE552E750EE6EED6A12001CD8836AEC
:1067B0001200010EF36E020EDB501200D890F33679
:1067C000E806120029D8010EE926000EEA2212007E
:1067D000836A9568E552E7CFD9FF1200D9CFE6FF6B
:1067E000E1CFD9FF120011D8EF50E66E15D8E5526F
:1067F000E750EF6E120009D8010EE926000EEA22DA
:10680000EF501200C6DFD9EF33F0FD0EDBCFE9FF0A
:10681000FE0EDBCFEAFF1200F3C0E9FFF4C0EAFF8F
:02682000120064
:020000040030CA
:0100000024DB
:010001000CF2
:010002003FBE
:010003001EDE
:010005008377
:010006008178
:010008000FE8
:01000900C036
:01000A000FE6
:01000B00E014
:01000C000FE4
:01000D0040B2
:00000001FF
