:020000040000FA
:060000003FEF14F01200B6
:0608C0003FEF14F01200EE
:0608C800F1EF0CF012003C
:0208D80012000C
:0108EA00030A
:0408EC001E0E716EFD
:1008F0000401400E096F300E0A6F040E0B6F880E54
:10090000086F700E0E6F040E0F6F400E0C6F1E0EF0
:10091000726E400E116FB00E126F040E136F880EC0
:10092000106FF00E166F040E176F400E146F1E0E30
:10093000736E400E196F300E1A6F050E1B6F800E0E
:10094000186F700E1E6F050E1F6F400E1C6F120089
:060AEA00120100020000F1
:100AF0000008D8040C0000000102030109023C00B8
:100B000001010080FA09040000060000000007054A
:100B100001024000FF070581024000FF07050202B5
:100B20004000FF070582024000FF07050301400067
:100B3000060705830140000604030904320341004F
:100B400067007500690072007200650020004600B1
:100B5000650072006E0061006E00640065007A003E
:100B60002000470072006F007300730079002A03B1
:100B7000550053004200340061006C006C002000FE
:100B800028004300290032003000300037002000E8
:100B9000460049004E00470012033000300030008C
:0A0BA0003000300030003000320059
:040CEA00FC0AFC0AFA
:060D2A00380B3C0B6E0BC0
:020D3000980B1E
:060DAA000600FF28000016
:100DB0000802000002000000FD28000006020000FA
:100DC00002000000FC2800000A02000001000000F0
:100DD000C0280000A50100003C000000BA28000067
:100DE000E000000006000000B82800000402000037
:040DF00002000000FD
:0C0DF400BDD8E652DF6A050EDF5C05E2A8
:100E0000ADD8EE6AED6ADF2AF8D70101EB6BE55247
:100E1000B4D0B7D8050EDF5C13E2010EDB5010E151
:100E20009DD8EE50ED100AE1DE52010EDD6E96D82F
:100E3000FD0EDBCFEEFFFE0EDBCFEDFFDF2AEAD7A4
:100E4000010EDB5002E1000E15D00101EB51EB2B3E
:100E500000090FE10C0EE66E0F0EE66E9AEC0CF038
:100E6000E552E552F294F28AEDC1D6FFECC1D7FF0C
:100E7000D58E010E106E020EE15C02E2E16AE552CF
:100E8000E16E10507AD07DD8050EDF5C18E2010EBD
:100E9000DB5015E163D8EECF10F0EFCF11F0FD0E6F
:100EA000DB5010180AE1FE0EDB50111806E1DE528D
:100EB000010EDD6E53D8EE6AED6ADF2AE5D7010E2A
:100EC000DB5002E1000E0FD00101EB070BE1D59ED4
:100ED000F294F29A0C0EE66E0F0EE66EC4EC0CF075
:100EE000E552E552010E106E020EE15C02E2E16A8B
:100EF000E552E16E105041D03BD8020ED56EFE0E89
:100F0000DBCFEDF1FD0EDBCFECF137D031D8E6527F
:100F1000DF6AF2A421D0F294EDC1D6FFECC1D7FF75
:100F2000050EDF5C19E21AD8EE50ED1013E0EA6A04
:100F3000DF34FE0BEA36E96EE10EE926010EEA2205
:100F4000EECF10F0EFCF11F004D011C0FAFF105027
:100F5000F96EFBDFDF2AE4D7E5520FD0EA6ADF340F
:100F6000FE0BEA36E96EE10EE926010EEA221200D6
:100F7000D9CFE6FFE1CFD9FF1200E552E7CFD9FF85
:100F80001200F6DF020EE126DF6A010EDB6A1200B4
:100F9000CAD9FE0EDB2ADB500A0802E1FE0EDB6A2C
:100FA000FE0EDB50C5D1BFD9FE0EDB5005E10A0EA7
:100FB000F36EFE0EF3CFDBFFFE0EDB06DB50B8D187
:100FC00002010951085D01E0000C010CF9DF000984
:100FD00003E0F36AF46A120002010851CED910C08E
:100FE000F3FF11C0F4FF120008C2E6FFD1DFE552A3
:100FF0000201086F120097D9030EE12609C2E6FF2D
:10100000C7DFE552DF6E02010951B7D9010E10C0EA
:10101000DBFF020E11C0DBFF0851DF5C03E1F36A66
:10102000F46A0CD0DFCF09F2010EDBCF10F0020E14
:10103000DBCF11F010C0F3FF11C0F4FF030EE15C31
:1010400002E2E16AE552E16E73D16DD9E652DF6AE0
:101050000A0EDF5C09E2DF501ED9EE6AED6ADF504E
:101060001AD995D9DF2AF4D7070ED56EF00EE66EA1
:10107000110EE66E9AEC0CF0E552E552E55258D1AD
:1010800052D90C0EE126D59E9BDF000928E1D750EE
:10109000156E146AD6501410126E15C013F0FF0EA0
:1010A000D8801256135602010851F5D81250EE5C42
:1010B000106E1350EE58116E020E10C0DBFF030EBF
:1010C00011C0DBFF47D9116E1FD90EE2040E08C212
:1010D000DBFFDB500201095D02E09CD9FAD7FD0E6F
:1010E000DBCFDEFFDBCFDDFFE0D802E1000E23D057
:1010F000FDD8040EDB500201085D04E082D902E253
:1011000061D9F7D7040EDB50085D13E1F294F28A3F
:10111000A7D9FF0ED8801056115610C0DEFF11C09F
:10112000DDFF9ED911C010F0116A1050D76EDF504C
:10113000D66ED58E010E106E0C0EE15C02E2E16AF5
:10114000E552E16E1050F4D0EED80C0EE12602010B
:101150000851A1D820D9FED8D7D80EE2040E08C273
:10116000DBFFDB500201095D02E054D9FAD7FD0E26
:10117000DBCFDEFFDBCFDDFF98D802E1000E0FD022
:10118000B5D8050EDB500201085D08E0040EDB5007
:10119000085D04E036D902E215D9F3D7010E106ECE
:1011A0000C0EE15C02E2E16AE552E16E1050C0D043
:1011B000BAD8E65208C2DFFF02010951DF5C15E030
:1011C000DF5069D839D9F4D8FD0EDB50101807E18B
:1011D000FE0EDB50111803E1DF505DD8D8D8DFCF09
:1011E000E6FFD6DEE552DF6EE7D7010EE552A0D06E
:1011F0009AD8080EE126F2A447D0D59EF294D2D810
:10120000DCD81AD9060EEECFDBFF070EEDCFDBFFE1
:1012100018D90CE0060EDBCF10F0070EDBCF11F073
:1012200004D011C0FAFF1050F96EFBDFC6D8B3D856
:10123000DBDEB8D8D9CFE9FFDACFEAFFEE50ED1008
:1012400023E0BBD895D8020EDB50125C106E030E63
:10125000DB501358116EFF0ED88010561156040E35
:1012600010C0DBFF050E11C0DBFF040EDBCF10F05A
:10127000050EDBCF11F011C010F01150D76E040E27
:10128000DB50D66EF294D58E080EE15C02E2E16A84
:10129000E552E16E4DD0040DF3CFE9FFF4CFEAFF44
:1012A000600EE926000EEA221200040E09C2DBFFDE
:1012B000BAD8A1DE060EF3CFDBFF070EF4CFDBFFBB
:1012C00021EF0AF0080EDBCFEEFF090EDBCFEEFFB9
:1012D0000A0EDBCFEEFF0B0EDBCFEEFF050EDB5071
:1012E000E76E040EE7CFDBFF13EF0AF0B2D8DECFD4
:1012F000EEFFDDCFEDFFADD89FD8FB0EDBCFEEFFCD
:10130000FC0EDBCFEDFF120010C0DEFFDD6EA8D8B3
:10131000020EDBCF12F0030EDBCF13F01250105C85
:10132000135011581200D9CFE6FFE1CFD9FF1200B8
:10133000E552E7CFD9FF12001050EE5E1150ED5A82
:10134000040EDBCFE6FF24DEE552E76E040EE7CFA6
:10135000DBFF1200FD0EDBCF12F0FE0EDBCF13F031
:10136000020EDB501224106E030EDB50132012000D
:10137000EECF12F0EFCF13F01200040DF3CF10F008
:10138000F4CF11F0600E1026000E1122120054D876
:10139000EE6AED6A1200020EEECFDBFF030EEDCF18
:1013A000DBFF120013DEF3CFDEFFF4CFDDFF120010
:1013B000EECF10F0EFCF11F01200DECFE9FFDDCF5E
:1013C000EAFF120056D8080EEECFDBFF090EEECF73
:1013D000DBFF0A0EEECFDBFF0B0EEECFDBFF45D8B7
:1013E000EECF10F0EECF11F0C3DF43D810C0EEFF08
:1013F00011C0EEFF12C0EEFF13C0EEFF36D862EF51
:1014000009F033D8D5DF35D8B3DF1250105C135054
:1014100011581200020EDBCF10F0030EDBCF11F0DB
:1014200024D89CEF09F0DBCFE6FFBDDDE552E76E87
:10143000050EE7CFDBFF1200020EE926000EEA22BE
:101440001200D950060FE96EDACFEAFFEE50ED1028
:101450001200060EDBCFE9FF070EDBCFEAFF12001A
:10146000DECF10F0DDCF11F01200040EDB504BEF99
:1014700009F0050EDB504BEF09F006DAE652DF68A3
:10148000A650020B04E0DF50DF060008F9E3E55246
:10149000E4D1F3DF110EE66E090EE66EE66AB5ECF6
:1014A00013F0F7D1F1D9FE0EDBCFFCF1FA0EE66EA8
:1014B000140EE66EFCC1E6FFA2EC1EF0E552E5520A
:1014C000E552FCC1E6FF40EC21F0E552F3CFFAF122
:1014D000F4CFFBF1C2D1D9CFE6FFBFD16D960101A8
:1014E000FD6BFE6B0101FD07000EFE5B0101FD516E
:1014F000FE1101E0F7D7FF001200C6D9170EE12652
:10150000DE52110EDD6EF36E020EF3CFDBFF030E23
:10151000DB6A040EDB6ADF6A8ED9EF50FF0A01E155
:101520001CD1F40A01E1EED0010A01E1E4D0030A82
:1015300001E1DFD00F0A01E1A8D0030A01E197D051
:10154000010A01E192D0070A01E108D1010A01E193
:1015500002D1050A01E185D0060A73E0010A09E01B
:10156000FE0A01E0FDD062D9FE0EEF6E9BD9060E99
:10157000EED061D9030EE926000EEA228ED9E9CF1A
:10158000E6FFEACFE6FF48EC0EF0E552E5520D0E1D
:10159000F3CFDBFF0E0EF4CFDBFFD9500D0FE96E5A
:1015A000DACFEAFFFF0EEE1801E1ED5045E0FD0E47
:1015B000DBCFE9FFFE0EDBCFEAFFEE52010EEFCFED
:1015C000DBFF0D0EDBCFE6FF0E0EDBCFE6FF010EDD
:1015D000DBCFE6FFDFEC1FF0E552E552E552E76EA8
:1015E000130EE7CFDBFF0D0EDBCFE6FF0E0EDBCFDA
:1015F000E6FF53EC0FF0E552E552110EF3CFDBFF9F
:10160000120EF4CFDBFF110EDBCF10F0120EDBCF8A
:1016100011F0130EDBCFE6FF04D011C0FAFF10501B
:10162000F96EFBDFE552FAC1E9FFFBC1EAFFEE52BA
:10163000130EDBCFEFFF02D035D9EF68F7D8EF6A92
:101640008AD033D9DBCFE6FF81EC20F0E552E76E9C
:10165000140EE7CFDBFF26D9DBCFEFFFE7D8010E73
:1016600076D0E4D8070EEF6E79D0030E78D0BBECBD
:101670000EF0E76E030EE7CFDBFFD8D8050EEF6E56
:1016800011D9030EDBCFEFFF66D0D0D8060EEF6E78
:10169000D2D8EE52040EEFCFDBFFD950050FE66E25
:1016A000000EDA20E66E040EDBCFE6FFF8EC0EF05B
:1016B000E552E552E552160EDB6A080EF36E160E81
:1016C000DBCFF4FFF350F45C12E2D950050F126E39
:1016D000DACF13F0160EDB501224E96E000EDA207A
:1016E000EA6EE9D8160EBDD8160EDB2AE6D7090E2B
:1016F00036D0CFDE32D09AD80A0EEF6E7EEC21F0D3
:10170000F35021D093D80B0EEF6ECFD8140E106E7D
:101710000E6E130EDBCF09F04DEC14F0130E05C066
:10172000DBFF90D8EF50200B14E1130E8BD8020E84
:10173000E926000EEA22EECFE6FFEFCFE6FFD6EC79
:101740000EF0E552E552E66EADD8E552E750EF6E89
:1017500002D0A8D8EF68020E02D0C0DE010EDF6E04
:10176000DF500FE0160EDB6804010C51800B07E020
:10177000160EDBCFF3FFDB06F3500008F5E30CAFEA
:101780007AD8170EE15C02E2E16AE552E16E65D0BB
:101790007BD8020EE1264AD8EF6E010EDB6AFC0E02
:1017A000DB50F36E010EDBCFF4FFF350F45C0EE27E
:1017B000010EDB50E76E3FD8E750E926000EEA2223
:1017C0007AD8010E4ED8010EDB2AE9D7FC0EDB28B1
:1017D000DF6E04010CAF4FD8020EE15C02E2E16A59
:1017E000E552E16E3AD00201010E076F12000201CC
:1017F000075102E0076B01D071DEEE0EE66E170EA8
:10180000E66EDC0EE66EE668A4EC08F0E55241D028
:101810000201010E076FEE0EE66E170EE66EB80EB1
:10182000E66EE66840EC08F0E55233D0FAC1E9FF15
:10183000FBC1EAFF1200FD0EDBCFE9FFFE0EDBCF9E
:10184000EAFF1200DB50040DF3CFE9FFF4CFEAFF0B
:10185000010EE926010EEA221200E552E7CFD9FF78
:101860001200DB50E924E96E000EEA20EA6EE55230
:10187000E750EF6E1200DFCFE6FFFCC1E6FF75EC2C
:101880001FF0E552E5521200D9CFE6FFE1CFD9FFB4
:101890001200E552E552E5521200E9CF10F0EACF0E
:1018A00011F01200C3DFEE521200C5DFEE52130E2C
:1018B000EFCFDBFF1200EF50E66EF4DF4DEF0CF0E0
:1018C0000ED802E2E16AE55220D009D802E2E16ACC
:1018D000E5521BD004D802E2E16AE55216D0D9CF16
:1018E000E6FFE1CFD9FF020EE126DF80DF92DF9431
:1018F000DF96DF98DF9ADECF10F0DDCF11F010C059
:10190000F3FF11C0F4FFE15C1200E16EE552E7CF96
:10191000D9FF1200E4D8050EDF5C05E2CCD8EE6AF0
:10192000ED6ADF2AF8D70001B96BE552E552E7CF3F
:10193000D9FF1200CAD8050EDF5C13E2010EDB509E
:1019400010E1B9D8EE50ED100AE1DE52010EDD6E65
:10195000B2D8FD0EDBCFEEFFFE0EDBCFEDFFDF2AB0
:10196000EAD7010EDB5002E1000E07D00001B951A9
:10197000B92B000901E1F28E010E106E020EE15C3E
:1019800002E2E16AE552B2D0A0D8050EDF5C18E2AF
:10199000010EDB5015E18FD8EECF10F0EFCF11F034
:1019A000FD0EDB5010180AE1FE0EDB50111806E1A7
:1019B000DE52010EDD6E7FD8EE6AED6ADF2AE5D7D2
:1019C000010EDB5002E1000E05D00001B90701E174
:1019D000F29E010E106E020EE15C02E2E16AE55237
:1019E00085D0DACFE4FFE2CFDAFFE9CFE4FFEACF38
:1019F000E4FFF6CFE4FFF7CFE4FFF5CFE4FFF3CF4A
:101A0000E4FFF4CFE4FFFACFE4FF00EE00F0100EA5
:101A1000E80403E3EECFE4FFFBD700EE10F00E0E78
:101A2000E80403E3EECFE4FFFBD7E65258D8050EF7
:101A3000DF5C19E240D8EE50ED1013E0EA6ADF34C3
:101A4000FE0BEA36E96EAF0EE926000EEA22EECF73
:101A50001EF0EFCF1FF004D01FC0FAFF1E50F96E2A
:101A6000FBDFDF2AE4D7E552E552E7CFD9FFE552A5
:101A700000EE1DF00E0EE80403E3E5CFEDFFFBD70B
:101A800000EE0FF0100EE80403E3E5CFEDFFFBD707
:101A9000E5CFFAFFE5CFF4FFE5CFF3FFE5CFF5FFA4
:101AA000E5CFF7FFE5CFF6FFE5CFEAFFE5CFE9FFAA
:101AB000E5CFDAFF1100EA6ADF34FE0BEA36E96EA1
:101AC000AF0EE926000EEA221200D9CFE6FFE1CFE1
:101AD000D9FF020EE126DF6A010EDB6A1200D9CFC0
:101AE000E6FFE1CFD9FFE652DF6A1200E16E105047
:101AF000E552E7CFD9FF120092D8050EDF5C05E270
:101B000076D8EE6AED6ADF2AF8D7E55284D079D824
:101B1000050EDF5C13E2010EDB5010E168D8EE50D9
:101B2000ED100AE1DE52010EDD6E61D8FD0EDBCF55
:101B3000EEFFFE0EDBCFEDFFDF2AEAD7010EDB5012
:101B400002E1000E01D0010E106E020EE15C02E215
:101B5000E16AE552E16E10505ED053D8050EDF5CAD
:101B600018E2010EDB5015E142D8EECF10F0EFCFB6
:101B700011F0FD0EDB5010180AE1FE0EDB501118BB
:101B800006E1DE52010EDD6E32D8EE6AED6ADF2A22
:101B9000E5D7010EDB5002E1000E01D0010E106E00
:101BA000020EE15C02E2E16AE552E16E105033D0D0
:101BB00036D8050EDF5C19E21AD8EE50ED1013E0AE
:101BC000EA6ADF34FE0BEA36E96EC40EE926000E3F
:101BD000EA22EECF10F0EFCF11F004D011C0FAFFDF
:101BE0001050F96EFBDFDF2AE4D7E55214D0EA6A21
:101BF000DF34FE0BEA36E96EC40EE926000EEA2257
:101C00001200D9CFE6FFE1CFD9FF020EE126DF6A4D
:101C1000010EDB6A1200E552E7CFD9FF1200D9CFDF
:101C2000E6FFE1CFD9FFE652DF6A1200D9CFE6FF27
:101C300053D18CD9030EE126DF6ADE52010EDD6E30
:101C4000020EDB6ADF6A080EDF5C17E2020EDB5071
:101C500014E18AD9EF5002E07ED905E1010EF36E5E
:101C6000020EF3CFDBFF80D9EFCF10F074D9105CF8
:101C700002E0010EDB6ADF2AE6D7010EDB50106EB0
:101C8000030EE15C02E2E16AE552E16E105024D1FC
:101C90005DD90D0E55D90C0EDB6A49D910BE1168FD
:101CA0000001101C01E1111C5DE0D9CFE9FFDACF82
:101CB000EAFF020EEECFDBFF030EEDCFDBFF0C0ED3
:101CC000DB6A080EF36E0C0EDBCFF4FFF350F45C0E
:101CD0002BE2020EDBCFF6FF030EDBCFF7FF040E85
:101CE000F626000EF722F6CF12F0F7CF13F00C0E07
:101CF000DB501224F66E000E1320F76E0800F5502C
:101D0000E66ED950040F106EDACF11F00C0EDB50D6
:101D10000F011024E96E000EDA20EA6EE552E7505A
:101D2000EF6E0C0EDB2ACDD7FD0EDBCFE6FFFE0EED
:101D3000DBCFE6FFD950040FE66E000EDA20E66E28
:101D400078DFE552E552E552E552000909E0DECFC1
:101D500010F0DDCF11F010C0F3FF11C0F4FF04D07C
:101D6000CCD89BD7F368F46A0D0EE15C02E2E16A1D
:101D7000E552E16EB1D0EAD8030EE2D8020EDB6A7A
:101D8000D6D810BE1168101C01E1111C04E0B5D8B2
:101D9000020EDB2AF5D7020EDB50106E030EE15C5B
:101DA00002E2E16AE552E16E105096D0CFD8020E01
:101DB000C7D8FD0EDBCF12F0FE0EDBCF13F0DE50E6
:101DC000125C106EDD501358116E0C0E0D6E0E6A03
:101DD00010C008F011C009F0DCEC13F00850106ED0
:101DE000020EE15C02E2E16AE552E16E105074D04D
:101DF000ADD8050EE126AB0EF36E010EF3CFDBFF7F
:101E0000330EF36E020EF3CFDBFFFE0EDB500C0D34
:101E1000F350E76E010EDBCF10F0020EDBCF11F0B6
:101E2000E7501026000E1122010E10C0DBFF020E3B
:101E300011C0DBFF010EDBCF08F0020EDBCF09F093
:101E4000030E08C0DBFF040E09C0DBFFDF6A080ECB
:101E5000DF5C22E2030EDBCFF6FF040EDBCFF7FFE1
:101E6000F626000EF722F6CF10F0F7CF11F0DF5074
:101E70001024F66E000E1120F76E0800F550E66E85
:101E8000DF50E76EFC0EDBCFE9FFFD0E1ED8E552FA
:101E9000E750EF6EDF2ADBD7050EE15C02E2E16A74
:101EA000E552E16E19D01CD835D802E2E16AE5525C
:101EB000E16E12D015D8020EF626000EF7222AD8AF
:101EC00002E2E16AE552E16E07D0DBCFEAFFE750BC
:101ED000E926000EEA221200E552E7CFD9FF1200F0
:101EE00035D8020EE126FD0EDBCFDEFFDBCFDDFFB6
:101EF000DECFF6FFDDCFF7FF1200DECF10F0DDCF33
:101F000011F00C0E1026000E112210C0DEFF11C0C1
:101F1000DDFF12000900F5CF10F00800F5CF11F039
:101F200010C0F3FF11C0F4FF020EE15C1200DECF1F
:101F3000F6FFDDCFF7FF0800F5CF10F0116A1200B1
:101F4000E126AB0EDE6E330EDD6E1200D9CFE6FF5A
:101F5000E1CFD9FF1200DF50E76EFB0EDBCFE9FFC8
:101F6000FC0EB3DFEF501200DF50E76EFD0EDBCF4B
:101F7000E9FFFE0E65EF0FF0D9CFE6FFE1CFD9FF05
:101F8000020EE126DE6ADD6ADECF10F0DDCF11F051
:101F9000FD0EDBCF12F0FE0EDBCF13F01150131845
:101FA000E8AE02D0133404D01250105C1350115814
:101FB0000AE2FA0EE66E02EC14F0E552DF2A010E98
:101FC000E3E3DB2AE1D7020EE15C02E2E16AE552DB
:101FD000E16EE552E7CFD9FF120006D822D8D8EC3F
:101FE0000DF0AAEC1EF0FAD792689368CF0E941009
:101FF000946E9568966880EC1AF0F00EC114C16E6C
:10200000C280140E6F6E0001E66B0001E76B0001E9
:10201000E86B8AEC0CF025EC08F07CEC0DF037EF67
:1020200020F079EC12F06FBE02D095EC12F01200A5
:1020300004012051600BE842E842E842E842E842ED
:10204000000901E012002151070A40E00B0A3EE0BE
:10205000070A33E0010A23E00B0A1FE0020A1DE031
:10206000030A19E0080A10E0010A0CE00F0A08E070
:10207000030A01E0120012D90001040EE66F1200FB
:1020800067EF10F09EEF10F009D90001E80EDA6F4B
:10209000000EDB6F0CD0B9EF10F0EBEF10F002D9AF
:1020A0000001DA6FDB6BE90EDA27000EDB2300019B
:1020B000E7930001010EDE6F1200F4D8EA6AE90F1F
:1020C000E96E000EEA2222C4EFFF12001200800E19
:1020D0000401205D32E12351030A1FE0010A0AE0F6
:1020E000030A29E1DBD80001EA0EDA6F0A0EDB6F82
:1020F000120E1ED0ADD8EA0EF6260C0EBBD8020E7C
:102100000001F76ADA25F66EDB51F7220900F5CFF8
:10211000DEF00A00F5CFDFF00ED09AD82A0EF626B0
:102120000D0EA8D8DAC0F6FFDBC0F7FF0800F550A7
:102130000001DE6FDF6B0001E7831200AFD80F0EE6
:10214000E66E710EE66E0F0E9DD8010EE66EE90E7C
:10215000E66E000E97D822C4E8F00401225104E193
:102160000001050EE66F12000001060EE66F76EF25
:1021700004F00401286B296B040120511F0B020A93
:102180000FE0030A0BE0010A18E188D80401288156
:102190000001E7A112D0040128830FD07FD80DD011
:1021A0004BD801E0010E5DD8DCC0E9FFEA6EEF50CC
:1021B000040B03E00401010E286F0001D9050AE1B8
:1021C0000001280EDA6F040EDB6F0001E7930001B7
:1021D000020EDE6F1200040122050EE120511F0BDA
:1021E00000090AE15BD8030E0401215D03E100014F
:1021F000E78102D00001E791040122511CE1205146
:102200001F0B020818E124510F0B000914E014D829
:1022100001E0010E26D8030E0401215D04E1840EC5
:1022200038D8EF6E120024AF03D033D8EF6A120013
:10223000880E2FD8EF6E120035D80F0B080DF35013
:10224000116A000F106E040E11222451800B12002F
:1022500025D804012251F66EF76AD890F636F73683
:102260001200040DF35000011024DC6F000E112049
:10227000DD6F1200F7220900F5CFDAF00A00F5CF82
:10228000DBF01200E66E1BEC13F0E552E552E5526E
:102290001200DCC0E9FFDDC0EAFF12000001010E00
:1022A000D96F1200FBDF0401245112006C500BE1C6
:1022B000040100513C0BE842E8420D0802E168EFDE
:1022C00011F077EF11F0040E6C5C01E11FD81200E1
:1022D000D9CFE6FFE1CFD9FFE6520001D86BD96B29
:1022E000DE6BDF6B18EC10F099D8E552F6D0020ED9
:1022F0000001D85D09E168D8040100BD02D0C80E14
:1023000001D0880E006F120047EF12F0040E00019A
:10231000E65D09E122C46EFF6E50000802E2050E80
:1023200001D0030EE66F0001D80509E10AD80401C7
:1023300004BD02D0C80E01D0880E046F120047EF12
:1023400012F0C4D80001080EDE5D000EDF5905E270
:10235000DEC0DEFFDFC0DDFF03D0080EDE6EDD6A0B
:10236000040104930491010EDB500413DFCF05F444
:10237000000EDB500001DE5F010EDB50DF5B280E3C
:10238000DC6F040EDD6F0001E7A30CD098D815E0D8
:10239000DAC0F6FFDBC0F7FF0800F55080D8F6E2A0
:1023A000DB06F4D78CD809E0DAC0E9FFDBC0EAFF2E
:1023B000EF5075D8F7E2DB06F5D7020EE15C02E2DA
:1023C000E16AE552E16E89D081D8030E040100155F
:1023D000E76E010EE7CFDBFF01C4DFFFDE50000137
:1023E000DE27DD50DF23280EDA6F040EDB6F67D89F
:1023F0000EE0DAC0E9FFDBC0EAFFEF50DCC0E9FF26
:10240000DDC0EAFFEF6E6DD8F2E2DB06F0D7020E18
:10241000E15C02E2E16AE552E16E5FD00001D95170
:1024200005E145D8840E006F04011DD0040120AFE2
:102430001CD00001DE510401265D0001DF510401C2
:10244000275904E226C4DEF027C4DFF07ADF00015A
:10245000010ED86F2CD8800E006F0401280E066F75
:10246000040E076FC80E046F10D00001020ED86F63
:102470000401056BC80E046F0401080E016F280EDD
:10248000026F040E036FC80E006F6D9812000001FA
:10249000D86B0DD8880E006F0401046B1200DCC0ED
:1024A000E9FFDDC0EAFFEF6E000171EF12F00401F9
:1024B000080E016F200E026F040E036F1200D9CFB9
:1024C000E9FFDACFEAFFEE50ED101200D9CFE6FFB8
:1024D000E1CFD9FF020EE1261200E552E7CFD9FF86
:1024E0001200DC2B000EDD23DA2BDB23DF06010ECE
:1024F00012006DA60CD80001E60508E16DBA06D001
:10250000686A696A69806988020EE66F12006D6AFE
:10251000696A6D860001010EE66F12006D6A696AD4
:102520000001E66B12008EEF12F00001E65101E1AE
:1025300012006850040B04E06950040B01E038D825
:102540006DB212006850010B04E06950010B01E00C
:1025500050D86850100B04E06950100B01E024D8EB
:102560006850400B04E06950400B01E037D86850D8
:10257000200B04E06950200B01E032D86850020BB8
:1025800004E06950020B01E032D8030E0001E65D61
:1025900001E212006850080B06E06950080B03E0E6
:1025A00056EC11F068961200698468986D821200EA
:1025B0006D926994689412000001E7A10ED0F8DFD3
:1025C0006D840001080EFE6F070EFF6FFE07000E00
:1025D000FF5BFE51FF11FAE16D941200689C12003E
:1025E00070A003D047EC12F07090689A12006892C5
:1025F00012006A6A686A9F0E6B6E7B0E696E6E6A65
:102600000F0EE66E710EE66E0F0EE66E14D8E552F2
:10261000E552E552160E706E68A602D06896FCD799
:102620006D9847EC12F00001E7910001E86B0001A2
:10263000030EE66F1200D9CFE6FFE1CFD9FFFD0E02
:10264000DBCFE9FFFE0EDBCFEAFFFC0EDB5004E040
:10265000EE6AFC0EDB06F9D7E552E7CFD9FF120090
:10266000AA0EF66E0D0EF76E000EF86E0001090050
:10267000F550D36F0900F550D46F03E1D36701D053
:102680003DD00900F550CE6F0900F550CF6F09001D
:10269000F550D06F09000900F550E96E0900F550BA
:1026A000EA6E090009000900F550D16F0900F550E4
:1026B000D26F09000900F6CFD5F0F7CFD6F0F8CFEA
:1026C000D7F0CEC0F6FFCFC0F7FFD0C0F8FF0001B3
:1026D000D15302E1D25307E00900F550EE6ED10765
:1026E000F8E2D207F9D7D5C0F6FFD6C0F7FFD7C0BA
:0E26F000F8FF0001D307000ED45BBFD7120025
:0226FE00706FFB
:102700007274000000000000FF006C6967687400CC
:102710000000301EF423627574746F6E0000E77958
:10272000BC866772657900000000A1E6DCEA646996
:102730007374616E63007392CE9E6770696F000060
:10274000000000FFFFFF766F6C74000000009A60CD
:10275000EF6C7265730000000000DA4AE8556C65A2
:0A276000640000000000D505170713
:06276A00D9CFE6FFDACF33
:10277000E6FFE1CFD9FFE2CFDAFFFF0EE76EFC0EF6
:10278000DBCF10F0E75010161050A96EFB0EDB5097
:10279000A86EA69EA69CA684F29E550EA76EAA0EB3
:1027A000A76EA682A6B2FED7F28EA694E552E5CF1A
:0827B000DAFFE7CFD9FF1200A8
:0827B800006A0EAEE5EF13F01C
:1027C0000D6C0E1EE86A0E22001E09AEEDEF13F02E
:1027D000086C091EE86A0922001E19EC14F009BEF3
:1027E000FDEF13F000AE000C086C091EE86A092228
:1027F000046C051EE86A0522000C00BEF4EF13F01D
:042800000188FF0C40
:0C280400FF0EE350216EEF0E01D0F30E2A
:10281000E76EE72E09EF14F00C0E206EE76AE72E44
:102820000FEF14F0202E0EEF14F0212E07EF14F00E
:02283000120094
:0E283200056A046A100EE76ED8900836093663
:10284000043605360D50045C0E50055805E30D5056
:0E285000045E0E50055A082AE72EF0D712003B
:02285E00000E6A
:10286000F36E00EE00F0080E01D81200EA6002D00C
:0E287000EE6AFCD7F350E9601200EE6AFCD766
:02287E0013EE57
:1028800000F023EE00F0F86A019C30EC13F05BECF2
:0A28900014F0EDEC0FF0FBD712007E
:06289A00056A080EE76E5E
:1028A000D890093605360E50055C02E3056E092AFC
:0628B000E72EF7D712002D
:0228B60012000E
:0228B80000001E
:0628BA0040404040404098
:1028C000EC4ACC4A084B144BC04A624B424B7E4BFD
:1028D0008A4B364BD84BB84BF44B004CAC4B4E4C60
:1028E0002E4C6A4C764C224CC84CA44CE44CF04C18
:0C28F000984C404D1E4D604D6C4D124D3B
:0128FC0000DB
:0228FD003201A6
:0128FF0000D8
:0129000000D6
:0533AB00A414D614611A
:1033B000646D696E000000923BC43B6770696F00EA
:1033C000000000A6444C45706E700000000000E84C
:1033D000485E49706F727400000000B64E064F6C74
:1033E0006261636B000000F04F3850627574696170
:1033F00000000084510252627574746F6E000058B0
:1034000053D65364697374616E63005C55DA556713
:10341000726579000000001E5952596D6F746F7209
:103420007300008C5E0A5F6C69676874000000902E
:10343000600E617265730000000000946212637692
:103440006F6C7400000000986420656C6564000077
:0F345000000000266758676861636B700000001A
:04349C0009DBFD0E3D
:1034A000DBCF10F0FE0EDBCF11F0113404E2105030
:1034B0000008000E115402E3000E01D0010EFDD2EF
:1034C000F7DAFE0EDB50000802E2010E01D0FF0E1B
:1034D000F4D2EEDAFD0EDB50136E126AFE0EDB50F4
:1034E0001224106E000E132010C0F3FFF46EE5D20C
:1034F000DFDAFE0EDBCF11F011C010F01150DDD27B
:10350000AC6AAC9CAC9AAC98AC96AC84AB6AAB8E13
:10351000AB9CAB98B86AB886040EAF6EF28EF28C94
:10352000948E1200AB98949CAC8A1200948CAC9A46
:10353000AB880001AE6B1200AB98AC9A1200B8DAFF
:10354000ACA2FED7FE0EDB50AD6EFE0EDB50B5D248
:103550001CDB010EDB6AE6DFE668F1DFE552E668B8
:10356000EEDFE552FE0EDBCFE6FF96DAFD0EDB5016
:10357000020FE66E91DAFC0EDBCFE6FF8DDADF6A32
:10358000FD0EDB50DF5C04E2A6DA86DADF2AF8D72C
:10359000010EDB1CE66ED3DFE552ACA2FED7C6DF20
:1035A000020EE15C02E2E16AE552E16E86D2EDDAFA
:1035B000980EDE6E3A0EDD6E9E50200B0BE1DFCFD3
:1035C00010F0DF06010EDBCF11F001E2DB06105038
:1035D0001110F2E19E9AAE50106E020EE15C02E212
:1035E000E16AE552E16E105068D262DA050EE1261A
:1035F000010EF36E040EF3CFDBFF030EDB6ADF6A0E
:103600000001AE6B030EDB504CE1DF504AE1040ECB
:10361000DB50050A2FE0010A1EE0070A0BE0020A50
:1036200005E0030A03E0010EDF6EECD7C0DFFF0800
:103630001CE01ED0BCDFE66E72DA9BDA70DAEECFE9
:1036400010F0EFCF11F0113404E21050FE08000E1C
:1036500011540EE30AD0ABDF70DA200EF36E010EC8
:10366000DBCFF4FFF350F45C03E2040EDB2ACAD78D
:10367000DF2AC8D79CDFE66E0001AE51EA6A8E0FE2
:10368000E96E000EEA22E552E750EF6EAE2B010E16
:10369000DB50AE5DB7E3010EF36E030EF3CFDBFF3D
:1036A000B1D74ADFDF5007E03ADAEE68ED6822DA98
:1036B000EE68ED681FD000018E51E66E1BDA59DA14
:1036C000010EDB50040A07E0070A14E18F51E66E91
:1036D0002DDA4FDA12D090C0E6FF8FC0E6FFF9DE98
:1036E000E552E552F4CF11F021DAF3CFEEFF11C02D
:1036F000EDFF03D01BDAEE68ED68010ED880DF54D1
:10370000106E050EE15C02E2E16AE552E16E1050D6
:10371000D4D1CED9110EE126FD0EDB500EDADF6AD0
:10372000FC0EDB50DF5C12E2D6D9D950010F106ECF
:10373000DACF11F0DF280F011024E96E000EDA2035
:10374000EA6EE552E750EF6EDF2AEAD7FBD9FC0EAE
:10375000DB2886D9110EE15C02E2E16AE552E16EF6
:103760001050ABD112DAFD0EDB50DF6EFC0EDB50D9
:10377000E4D9D9CFE6FFDACFE6FF020EE66E70D9C4
:10378000020EE15C02E2E16AE552E16E105095D171
:10379000F5D993D18DD9110EE126DF6AFD0EDB50EC
:1037A000060A32E00E0A30E0060A2EE0100A2CE08B
:1037B0003E0A2AE0020A28E0120A26E0330A22E042
:1037C000070A20E0010A1EE00E0A1CE0070A1AE0C0
:1037D000010A18E01D0A16E0010A14E0030A12E0CB
:1037E000010A10E00B0A0EE0010A0CE0030A0AE0ED
:1037F000010A08E0070A06E0010A04E0310A02E0D3
:10380000030A04E1010E01D0020EDF6EFD0EDB5053
:1038100094D9FF0EE76EFB0EDBCF10F0FC0EE750E5
:103820001016116A020E10C0DBFFDF50010810E213
:10383000FB0EDBCF10F0FC0EDBCF11F0000E1016EC
:10384000FF0E111611C010F0116A030E10C0DBFF3D
:1038500079D9DF2805D9110EE15C02E2E16AE5526F
:10386000E16E10502AD18AD9FD0EDB5004E0000E23
:10387000E66EE66A03D0E668030EE66E080E21D90E
:103880001CD116D9FD0EDBCF11F00001800E1114F2
:1038900002E0FB0EDB70FC0EDBCF12F0FD0EDBCF87
:1038A00013F0800E131406E056D9106C111E000E92
:1038B000112201D050D9FC0E10C0DBFFFD0E11C04B
:1038C000DBFFFB0EDB50106E116A0A0ED89010362B
:1038D0001136E806FBE1D950FC0FE96EFF0EDA2045
:1038E000EA6E1050EE121150ED12FC0EDBCFE6FF27
:1038F000FD0EDBCFE6FF200EE4D8DFD046D9060E62
:10390000E66E240EE66EFD0EDBCFE6FF2BDFE55202
:10391000E552E55212D9DF6A030EDF5C01E383D082
:10392000010E0001156A8C25146E8D511522DF5091
:10393000E8240F011424E96E000E1520EA6E12D956
:10394000DF50E8240001EA6A8C25E96E8D51EA22F5
:1039500009D9BFDDE552E552F3CF12F0F4CF13F0F1
:10396000D0D8F3CFEEFF13C0EDFFDF50000859E2CF
:10397000176ADF34FE0B1736166EFB0EDB5016246B
:10398000E96EFC0EDB501720EA6EEECF14F0EFCF9D
:1039900015F0FF0E1416030E151614C0E6FF15C021
:1039A000E6FFFE0EDBCFE6FF1D6ADF34FE0B1D36A1
:1039B0001C6EFB0EDB501C24E96EFC0EDB501D2040
:1039C000EA6EEECF1AF0EFCF1BF01B3404E21A5070
:1039D000FF08030E1B5402E3000E01D0010EE55256
:1039E000E718E66E6DDDE552E552E7CF15F0E552DA
:1039F000E7CF14F0186E196A18BE19680001185044
:103A00001402F3CF12F0F4CF13F01502F350132683
:103A100019501402F350132674D812C0EEFF13C0CD
:103A2000EDFFDF2A79D7FE0EDB500FE063D8EECF33
:103A300010F0EFCF11F0FF0ED8801056030E115684
:103A400059D810C0EEFF11C0EDFF010EDB50106E13
:103A5000020EE15C02E2E16AE552E16E10502DD007
:103A6000E66EFE0EDBCFE6FF73DD106E050EE15E47
:103A700010508C0EE66E000EE66E8A0EE66E000E9C
:103A8000E66E880EE66E000EE66EAFDD106E060E78
:103A9000E15E1050106E120052DDE552106E010E04
:103AA000DBCFE7FF1050E726010EE7CFDBFF120068
:103AB000D9CFE6FFE1CFD9FF1200E552E7CFD9FF1A
:103AC0001200E66EFE0EDBCFE6FF64DEE552E55245
:103AD000E552E5521200DF50E76EFA0EDBCFE9FF48
:103AE000FB0EDBCFEAFFE750E926000EEA22EF509B
:103AF000E66E1200FB0EDBCFE9FFFC0EDBCFEAFF28
:103B00001200116ADF34FE0B1136106EFB0EDB5013
:103B10001024E96EFC0EDB501120EA6E1200FD0E3F
:103B2000DBCFE9FFFE0EDBCFEAFF1200F90EDBCFA1
:103B3000E9FFFA0EDBCFEAFF1200E76E010EE7CFD6
:103B4000DBFF1200D950010FE66E000EDA20E66EA0
:103B5000030EE66E1200FC0EDBCF10F0FD0EDBCF85
:103B600011F012008E0EE926000EEA22EF50E66EEA
:103B70001200E552E750EE6EED6A120099DF000E7A
:103B8000E66EE66A060E61EF1DF092DF020EE12698
:103B90001200C3D8E00EE66E3B0EE66EFE0EDBCFE3
:103BA000E6FFA2EC1EF0E552E552E552FE0EDBCF39
:103BB000E6FF40EC21F0E552F3CF02F2F4CF03F23E
:103BC000B1D01200AAD8FE0EDBCFE6FF9EEC1EF0AD
:103BD000E552FE0EDBCFE6FFA5EC1EF0E552A2D0CB
:103BE0009CD80E0EE126010EDB6A040EA5C1DBFF98
:103BF000050EA6C1DBFF060EA7C1DBFF070EA8C19D
:103C0000DBFF080EA9C1DBFF090EAAC1DBFF0A0E0C
:103C1000ABC1DBFF0B0EACC1DBFF0C0EADC1DBFF9C
:103C20000D0EAEC1DBFF71D8010A18E0010A4EE1AA
:103C30006CD8E66E7BD8E552E750EF6E77D8010E70
:103C4000E926000EEA22010EEF6E70D8020EE92678
:103C5000000EEA22EF6ADE52030E37D0FD0EDBCFF4
:103C6000E9FFFE0EDBCFEAFFEF50E66E02C2E9FF8E
:103C700003C2EAFFE552E750EF6E0A0EDBCF10F009
:103C80000B0EDBCF11F004D011C0FAFF1050F96E0B
:103C9000FBDF020EF3CFDBFF030EF4CFDBFF02C22C
:103CA000E9FF03C2EAFF010EE926000EEA22020E36
:103CB000DBCFEFFF02C2E9FF03C2EAFFE926000EF5
:103CC000EA22030EDBCFEFFFDE52DD6E010EDB508A
:103CD00015E0DF6804010C51800B04E0DF50DF06C3
:103CE0000008F8E30CBF0AD0010EDBCFE6FFFB0EA5
:103CF000DBCFE6FF75EC1FF0E552E5520E0EE15CFE
:103D000002E2E16AE552E16E0DD0FD0EDBCFE9FF84
:103D1000FE0EDBCFEAFFEF501200D9CFE6FFE1CF76
:103D2000D9FF1200E552E7CFD9FF120002C2E9FF26
:103D300003C2EAFF12007CDB28DB12D379DBEE6AD8
:103D4000ED6A0ED37CDB21DB0BD379DBEE6AED6A07
:103D500007D3120009DB090EE126DF6A060E000117
:103D6000E65D01E2BBD06D50020B01E0B7D0010E61
:103D7000DB68F36E060EF3CFDBFFDBCF10F0010143
:103D80000051D880105401E2A9D049DBEF50800BDC
:103D900001E0A1D0010EDBCF10F041DBEE52EF507D
:103DA000D880105405E23BDBEE52010EEFCFDBFF73
:103DB000060EDB50E824040DF3CFE9FFF4CFEAFF51
:103DC000000EE926040EEA22020EE926000EEA227F
:103DD000070EEECFDBFF080EEDCFDBFF070EDBCFCC
:103DE000E9FF080EDBCFEAFFEF50F80BE842E842AC
:103DF000E842E96EEA6AD890E936EA367C0EE926AE
:103E0000010EEA22EECF10F0EFCF11F0070EDBCF5C
:103E1000E9FF080EDBCFEAFFEF50F80BE842E8427B
:103E2000E842E66E010EDB50FD0FE66E060EDB503B
:103E3000E824040DF3CFE9FFF4CFEAFF000EE926F2
:103E4000040EEA22020EE926000EEA22EECF12F05C
:103E5000EFCF13F0030E1226000E132212C0E6FF5E
:103E600013C0E6FF04D011C0FAFF1050F96EFBDF5B
:103E7000E552E552E552E552060EDBCFE6FF36DAB3
:103E8000E552E66E060EDB50E824040DF3CFE9FFA1
:103E9000F4CFEAFF000EE926040EEA22EE52E552C4
:103EA000E750EF6E030EF36E060EDBCFF4FFF35018
:103EB000F45C0BE2D6DAB3DAEF50400B400A01E0D3
:103EC000010E106EACDA68DA01D0CBDA880E106E13
:103ED000A6DA1050EF12060EDB2A4FD7090EE15C6E
:103EE00002E2E16AE552E16E3BD23EDA060EE126DD
:103EF000FE0EDB502BDA5EDA040EEECFDBFFD9507C
:103F0000010FE96EDACFEAFFEF500F0BE76E050EF7
:103F1000E7CFDBFFFD0EDBCF10F010C0E6FF5DDA70
:103F2000E552E7CF10F0FD0FD880105406E255DAC5
:103F3000FD0FE76EFD0EE7CFDBFFFE0EDB5001014C
:103F40001F0BF36EF346F346F346070EA415F3106A
:103F5000A46FA491A493A4955CDA7CDAA4C1EFFFCA
:103F600086DA78DA010EE926000EEA22E552E750F9
:103F7000EF6E4FDA6FDAFDD9EF6A79DAEE52E55279
:103F8000E750EF6E030EF36E050E39DA0BE275DAC9
:103F900040DAEF50400B400A01E0010E106E39DAB2
:103FA000FBD901D06ADA880E106E33DA1050EF12A6
:103FB000060EE15C02E2E16AE552E16ED1D14DDA32
:103FC000140EDF5C11E2DF502FDA0CE0DF50BED9B7
:103FD000FE0EDBCFEFFFDF50B9D9EF9A37DAD5D934
:103FE000DF5003D0DF2AECD7FF0EE552B9D1BCD9A0
:103FF000FB0EDB5019DA0CE046DAFE0EDBCFEFFFEA
:1040000042DAEF9A40DAB5D9C0D9FB0EDB5001D0C5
:10401000FF0EA6D122DA140EDF5C11E217DAEECF22
:1040200010F0EFCF11F0FD0EDB50101806E1FE0E80
:10403000DB50111802E1010E03D0DF2AECD7000E8D
:10404000E5528ED10ADA140EDF5C08E2DF507ED929
:10405000EF8AFCD9EE6AED6ADF2AF5D7EA0EF66E32
:10406000080EF76E0800F5CF00F1E55279D17CD942
:10407000080EE126E7DF610EDF6EDE52640EDD6EB4
:104080006D0EC2D9690EF36E030EF3CFDBFF6E0E19
:10409000F36E040EF3CFDBFFA6D965EC0CF0F3CF83
:1040A00001F1F4CF02F190D9F3CF03F1F4CF04F191
:1040B000E66A52EC0AF0E552700EDF6EDE526E0ECA
:1040C000DD6E700EA1D9030EDB6A040EDB6A8BD99C
:1040D0006AEC0CF0F3CF1DF1F4CF1EF175D9F3CFDC
:1040E0001FF1F4CF20F18BEC2CF0070EE66E53ECB1
:1040F00022F0E552080EE15C02E2E16AE552E16E6F
:104100002FD132D9020EE126140EF36EFE0E77D9AE
:104110004CE2FE0EDB5088D948E1FE0EDB50040D68
:10412000F3CFE9FFF4CFEAFF010EE926010EEA2200
:10413000EF8AFE0EDB50040DF3CFE9FFF4CFEAFF68
:10414000010EE926010EEA22020EE926000EEA22FD
:10415000EECFE6FFEFCFE6FF5AEC0FF0E552E55267
:10416000F3CFDEFFF4CFDDFFDECF10F0DDCF11F0B7
:10417000FE0EDBCFE6FF04D011C0FAFF1050F96E3F
:10418000FBDFE552FE0EDB50040DF3CFE9FFF4CF69
:10419000EAFF010EE926010EEA22020EE926000ED0
:1041A000EA22EE6AED6A010E01D0000E106E020ED8
:1041B000E15C02E2E16AE552E16E1050D1D0D4D860
:1041C000030EE126010E20D9140EF36E020E17D94C
:1041D0004DE2020EDB5028D946E1020EDB50040D01
:1041E000F3CFE9FFF4CFEAFF010EE926010EEA2240
:1041F000EF8A020EDB50040DF3CFE9FFF4CFEAFFA4
:10420000010EE926010EEA22020EE926000EEA223C
:10421000EECFE6FFEFCFE6FF5AEC0FF0E552E552A6
:10422000F3CFDEFFF4CFDDFFDECF10F0DDCF11F0F6
:10423000020EDBCFE6FF04D011C0FAFF1050F96E7A
:10424000FBDFE552020EDB50040DF3CFE9FFF4CFA4
:10425000EAFF010EE926010EEA22020EE926000E0F
:10426000EA22EE6AED6A020EDB2AAED7010E106E6C
:10427000030EE15C02E2E16AE552E16E105070D09B
:1042800073D8050EE126FE0EDB5060D8EECFDFFFBF
:1042900091D8D9CFE9FFDACFEAFFEF500F0BE76EE5
:1042A000040EE7CFDBFFFE0EDB5007E1730E106E4E
:1042B000040E10C0F3FFF46E12D0040EDB50E8249D
:1042C000010F3AD856D8EECF10F0EFCF11F0030E11
:1042D0001026000E112210C0F3FF11C0F4FF050ECE
:1042E000E15C02E2E16AE552E16E3AD0D9CFE6FF45
:1042F000400E36D0D9CFE6FF400E32D035D8020E70
:10430000E126010EDB6ADF6A140EDF5C08E2DF5093
:104310008BD803E1010EDFCFDBFFDF2AF5D7010EDB
:10432000DB50116AF36E11C0F4FF020EE15C02E291
:10433000E16AE552E16E14D0040DF3CFE9FFF4CF4A
:10434000EAFF000EE926040EEA221200040DF3CF64
:10435000E9FFF4CFEAFF010EE926010EEA2212007E
:10436000E552E7CFD9FF1200D9CFE6FFE1CFD9FF61
:104370001200020EE926000EEA221200FE0EEA6A80
:10438000DB34FE0BEA36E96E1200FC0EDBCFEEFFEB
:10439000FD0EDBCFEDFF12001050010BF36EF34664
:1043A000F346F346F346F346F346BF0EEF14F3101D
:1043B000EF6E1200010EEECFDBFF020EEECFDBFF41
:1043C000030EEECFDBFF1200D9CFE6FFDACFE6FF18
:1043D00048EC0EF0E552E5521200050EDBCFE6FF89
:1043E00089DFE5521200050EDB6A060EDB6A070E56
:1043F000DB6A1200EE50EFCFEAFFE96E1200DBCF6E
:10440000F4FFF350F45C1200F36E020EF3CFDBFF07
:104410001200050EDB50E824010F9CEF21F0060E80
:10442000DB50E8249CEF21F091DFEF50200B1200CD
:104430009BDFA4DF540EE926010EEA22120094DF6E
:104440009DDF7C0EE926010EEA221200DF507EDF9E
:10445000B9EF21F08EDFFAEF21F086DFE652DF6A56
:104460001200400E106EDBDF1050EF161200FD0E32
:10447000DB50030FE66E09EF22F0400E106EC9DF2D
:104480001050EF161200FB0EDB50A6EF21F0F1D911
:10449000E652DF6A060EDF5C04E211DAEF6ADF2A19
:1044A000F9D7E552EBD1E5D9080EE12602010A5110
:1044B00046E1FE0EDBCF0AF2D00EE66E470EE66E48
:1044C0000AC2E6FFA2EC1EF00BDA0AC2E6FF40ECDD
:1044D00021F0E552F3CFBAF0F4CFBBF06AEC0CF068
:1044E000F3CFC2F0F4CFC3F0C7EC26F0D0DF700EEC
:1044F000DF6EDE526F0EDD6E720EF36E020EF3CFC4
:10450000DBFF740EF36E030EF3CFDBFF040EDB6AEA
:10451000050EDB6A060EDB6A070EDB6A010EA1D907
:10452000020E9FD9030E9DD9040E9BD9050E99D971
:10453000060E97D9B6D940EC08F0D2D9E552080E4C
:10454000E15C02E2E16AE552E16E98D192D9FE0E99
:10455000DBCFE6FF9EEC1EF0E552FE0EDBCFE6FF62
:10456000A5EC1EF0E552D60EE66E460EE66ED8ECD1
:1045700008F0E552E55282D17CD9050EE126DF6ACA
:10458000DF6A090EDF5C40E282D90A0EF626000ED1
:10459000F7220900010EF5CFDBFF0A00020EF5CF6E
:1045A000DBFF75D9080EF626000EF7220900030E70
:1045B000F5CFDBFF0A00040EF5CFDBFFFD0EDBCFEE
:1045C00010F0FE0EDBCF11F0010EDBCF12F0020E69
:1045D000DBCF13F01050125C1150135813E3030E8D
:1045E000DBCF14F0040EDBCF15F0FD0EDBCF16F0A1
:1045F000FE0EDBCF17F01450165C1550175802E36F
:10460000DF5003D0DF2ABDD7000E106E050EE15C2F
:1046100002E2E16AE552E16E105030D12AD9040E6F
:10462000E126FD0EDBCFE6FFFE0EDBCFE6FF48EC1A
:104630000EF0E552E552020EF3CFDBFF030EF4CF8E
:10464000DBFFD950020FE96EDACFEAFFFF0EEE185A
:1046500001E1ED5031E0FC0EDBCFE6FF020EDBCFD7
:10466000E6FF030EDBCFE6FFC2C0E6FFF7EC1FF06C
:10467000E552E552E552E552E76EFC0EE7CFDBFF6F
:10468000020EDBCFE6FF030EDBCFE6FF53EC0FF0AD
:10469000E552E552F3CFDEFFF4CFDDFFDECF10F0C1
:1046A000DDCF11F0FC0EDBCFE6FF04D011C0FAFF26
:1046B0001050F96EFBDFE552040EE15C02E2E16AA4
:1046C000E552E16EDBD0D5D8FE0EDBCFE6FF81EC04
:1046D00020F0E552D3D0CDD80A0EE126DF6A060ECF
:1046E000DF5C6AE2DF500A0DF3CFE9FFF4CFEAFFA7
:1046F000A50EE926010EEA22060EE926000EEA22A0
:10470000EECF12F0EFCF13F004D013C0FAFF125027
:10471000F96EFBDFF3CF10F0F4CF11F0F3CFE6FF2B
:10472000F4CFE6FF29DFE552E552E76E010EE7CF51
:10473000DBFFDF50EA6ABC0FE96E000EEA22EF50A1
:10474000F36E010EDB50F35C35E0DF28E66EBBDF75
:10475000E552010EDB50BAD80800020E7CD8010EDB
:1047600091D8030E78D8020E8DD8040E74D8030E9B
:1047700089D8050E70D8040E85D8060E6CD8050EA3
:1047800081D8070E68D8060E7DD8080E64D8070EAB
:1047900079D8090EF5CFDBFFDF28E66ED950020F7E
:1047A000E66E000EDA20E66E39DF9AD888D8010E60
:1047B000DBCFEFFFDF2A93D774D8A4EC08F090D8B2
:1047C000E5520A0EE15C02E2E16AE552E16E56D082
:1047D00050D8020EE126010EDB6A5CD8EF5025E1CD
:1047E00059D8EF50E66E66D8E552E750EF6E52D8D2
:1047F000010EE926000EEA22EF50E66E5BD8010EAC
:10480000E926000EEA22E552E750EF6E53D8020E79
:10481000E926000EEA22EF684DD8030EE926000EC5
:10482000EA22EF68DE52040EDD6E010EDB500CE072
:1048300004010CBF09D0010EDBCFE6FF0AC2E6FF80
:1048400075EC1FF0E552E552020EE15C02E2E16A0E
:10485000E552E16E13D0F5CFDBFF010EDB5066EFC2
:1048600024F0E66ED9CFE6FFDACFE6FFD7DE70EFB1
:1048700024F0D9CFE6FFE1CFD9FF1200E552E7CF10
:10488000D9FF1200F626000EF72208001200DF50B2
:1048900066EF24F0FD0EDBCFE9FFFE0EDBCFEAFF73
:1048A0001200D60EE66E460EE66E200EE66E4E0E38
:1048B000E66E1200BAC0E9FFBBC0EAFF1200DF508B
:1048C000EA6ABC0FE96E000EEA2212000C0DF3CF6B
:1048D000F6FFF4CFF7FFFE0EF626260EF7221200A3
:1048E000E552E552E5521200D9CFE6FFE1CFD9FFFC
:1048F000860EE66E490EE66EFE0EDBCFE6FFA2ECFC
:104900001EF0E552E552E552FE0EDBCFE6FF40EC2D
:1049100021F0E552F3CF00F2F4CF01F2FE0EDB04FA
:104920000A0DF3CFE9FFF4CFEAFFA50EE926010E49
:10493000EA22080EE926000EEA22EECF10F0EFCFB1
:1049400011F0010EE66E04D011C0FAFF1050F96E9E
:10495000FBDFE552E552E7CFD9FF12001200D9CFB5
:10496000E6FFE1CFD9FFFE0EDBCFE6FF9EEC1EF0A7
:10497000E552FE0EDBCFE6FFA5EC1EF0E552E55258
:10498000E7CFD9FF1200D9CFE6FFE1CFD9FF0E0E56
:10499000E126010EDB6A040EA5C1DBFF050EA6C1F0
:1049A000DBFF060EA7C1DBFF070EA8C1DBFF080E69
:1049B000A9C1DBFF090EAAC1DBFF0A0EABC1DBFFF9
:1049C0000B0EACC1DBFF0C0EADC1DBFF0D0EAEC19B
:1049D000DBFF69D8010A18E0010A43E164D8E66EFA
:1049E0006AD8E552E750EF6E66D8010EE926000E50
:1049F000EA22010EEF6E5FD8020EE926000EEA22CF
:104A0000EF6ADE52030E2CD0FD0EDBCFE9FFFE0E67
:104A1000DBCFEAFFEF50E66E00C2E9FF01C2EAFF1A
:104A2000E552E750EF6E0A0EDBCF10F00B0EDBCF36
:104A300011F004D011C0FAFF1050F96EFBDF020E26
:104A4000F3CFDBFF030EF4CFDBFF00C2E9FF01C2AF
:104A5000EAFF010EE926000EEA22EF68DE52020E9E
:104A6000DD6E010EDB5015E0DF6804010C51800B98
:104A700004E0DF50DF060008F8E30CBF0AD0010EA7
:104A8000DBCFE6FFFB0EDBCFE6FF75EC1FF0E55258
:104A9000E5520E0EE15C02E2E16AE552E16EE5529A
:104AA000E7CFD9FF1200FD0EDBCFE9FFFE0EDBCF13
:104AB000EAFFEF50120000C2E9FF01C2EAFF120054
:104AC000EBD9E8B09282E8A09292BFD1F0D9C29817
:104AD000C296C284C282C250020B02E0C6D9FBE376
:104AE0009FD902E2E16AE552E16EAFD1DCD9EEDF97
:104AF000B0D902E0010E01D0000ECAD902E2E16A8B
:104B0000E552E16E1050A1D1C7D9E8B08082E8A08B
:104B100080929BD1C5D9C29AC298C296C294C282D1
:104B2000C250020B02E0A1D9FBE37AD902E2E16AAA
:104B3000E552E16E8AD1B0D9E8B09286E8A09296AB
:104B400084D1B5D9C298C286C284C282C250020B37
:104B500002E08BD9FBE364D902E2E16AE552E16E3F
:104B600074D1A1D9EEDF75D902E0010E01D0000E9B
:104B70008FD902E2E16AE552E16E105066D18CD91C
:104B8000E8B08086E8A0809660D18AD9C29AC2989F
:104B9000C286C294C282C250020B02E066D9FBE315
:104BA0003FD902E2E16AE552E16E4FD175D9E8B032
:104BB0009682E8A0969249D17AD9C288C286C294D8
:104BC000C282C250020B02E050D9FBE329D902E2B3
:104BD000E16AE552E16E39D166D9EEDF3AD902E0F9
:104BE000010E01D0000E54D902E2E16AE552E16EF5
:104BF00010502BD151D9E8B08482E8A0849225D1FD
:104C00004FD9C29AC288C286C284C282C250020BE5
:104C100002E02BD9FBE304D902E2E16AE552E16E3E
:104C200014D13AD9E8B0928AE8A0929A0ED13FD92D
:104C3000C288C296C294C282C250020B02E015D949
:104C4000FBE3EED802E2E16AE552E16EFED02BD939
:104C5000EEDFFFD802E0010E01D0000E19D902E20A
:104C6000E16AE552E16E1050F0D016D9E8B0808AC2
:104C7000E8A0809AEAD014D9C29AC288C296C284A7
:104C8000C282C250020B02E0F0D8FBE3C9D802E2B4
:104C9000E16AE552E16ED9D0FFD8E8B09382E8A08E
:104CA0009392D3D0CDD8E8D8C28AC298C286C29493
:104CB000C282C250020B02E0D8D8FBE3B1D802E2B4
:104CC000E16AE552E16EC1D0EED8ECDFC2D802E075
:104CD000010E01D0000EDCD802E2E16AE552E16E7D
:104CE0001050B3D0D9D8E8B08182E8A08192ADD07D
:104CF000D7D8C28AC288C296C294C282C250020B5E
:104D000002E0B3D8FBE38CD802E2E16AE552E16E3F
:104D10009CD0C2D8E8B09386E8A0939696D0C0D82D
:104D2000C28AC298C296C284C282C250020B02E0FA
:104D30009CD8FBE375D802E2E16AE552E16E85D0CA
:104D4000B2D8DE6ADD6AEBDF84D802E0010E01D062
:104D5000000E9ED802E2E16AE552E16E105075D075
:104D60009BD8E8B08186E8A081966FD099D8C28A96
:104D7000C298C296C294C282C250020B02E075D899
:104D8000FBE34ED802E2E16AE552E16E5ED058D80C
:104D9000E652CF0EC1140009C16EF00EC114000915
:104DA000C16EC09EC70EC0143809C06EF80EC01484
:104DB0000409C06E836A9568DF6A060EDF5C1DE237
:104DC000DF500A0DF3CFE9FFF4CFEAFFA50EE92685
:104DD000010EEA22080EE926000EEA22EECF10F0BC
:104DE000EFCF11F0010EE66E04D011C0FAFF1050A3
:104DF000F96EFBDFE552DF2AE0D7E55226D020D856
:104E0000FE0EDB040A0DF3CF10F0F4CF11F0A50E67
:104E10001026010E112210C0F3FF11C0F4FF15D0AF
:104E2000C350DF6E010EC4CFDBFFDECF10F0DDCF4D
:104E300011F010C0F3FF11C0F4FF030EE15C12008B
:104E4000D9CFE6FFE1CFD9FF1200E552E7CFD9FF76
:104E50001200F3CFDEFFF4CFDDFFD950010FE96E72
:104E6000DACFEAFFEF50800B1200020EDBCFF3FF28
:104E7000DB06F35000081200030EE126DE6ADD6A4D
:104E8000020EDB681200030EE126020EDB68120040
:104E9000106E020EE15C1200D3DFFE0EDB5012003A
:104EA000CFDF43EF27F0CCDF020EE1261200C8DF90
:104EB000E3DFC29A120092D8E652300EE66E4F0E31
:104EC000E66EFE0EDBCFE6FFA2EC1EF0E552E552E9
:104ED000E552FA0EE66E4E0EE66E87EC0DF0E552E8
:104EE000E552DF6EFE0EDBCFE6FF40EC21F0E5522F
:104EF000F3CFFCF0F4CFFDF06CD0060E0001E65DC0
:104F000001E36D5012006AD8FE0EDBCFE6FF9EEC87
:104F10001EF0E552FE0EDBCFE6FFA5EC1EF0E552DB
:104F2000FA0EE66E4E0EE66EADEC0DF0E55251D087
:104F300055D8E652DF6A46D8EF50010A17E0010A59
:104F400032E140D8EF50E66E4ED8E552E750EF6EB2
:104F50004AD8010EE926000EEA22020EEF6E43D86F
:104F6000E926000EEA22EF6A030E1CD0DF6AFC0E6F
:104F7000DB50DF5C15E2DF50E76E24D8E750E9260E
:104F8000000EEA22EF50E66EDF500001EA6AFC25CF
:104F9000E96EFD51EA22E552E750EF6EDF2AE7D7CE
:104FA000FC0EDB50DF6EDF500CE004010CBF09D0BB
:104FB000DFCFE6FFFB0EDBCFE6FF75EC1FF0E5521F
:104FC000E55207D0FD0EDBCFE9FFFE0EDBCFEAFF97
:104FD0001200E552E552E7CFD9FF1200D9CFE6FF24
:104FE000E1CFD9FF1200FCC0E9FFFDC0EAFF1200CB
:104FF000D9CFE6FFE1CFD9FF600EE66E500EE66E28
:10500000FE0EDBCFE6FFA2EC1EF0E552E552E552C4
:10501000FE0EDBCFE6FF40EC21F0E552F3CFFAF0D5
:10502000F4CFFBF0E552E7CFD9FF1200060E0001E6
:10503000E65D01E36D501200D9CFE6FFE1CFD9FF65
:10504000FE0EDBCFE6FF9EEC1EF0E552FE0EDBCF40
:10505000E6FFA5EC1EF0E552E552E7CFD9FF1200BE
:10506000D9CFE6FFE1CFD9FF050EE126020EDB6ABC
:10507000030EF36E030EF3CFDBFF040EDB6AFD0EAF
:10508000DBCFE9FFFE0EDBCFEAFFEF50FF0A4EE079
:10509000FC0A22E0010A01E04BD0FD0EDBCFE9FF64
:1050A000FE0EDBCFEAFFEF50E66EFAC0E9FFFBC071
:1050B000EAFFE552E750EF6EFAC0E9FFFBC0EAFFF6
:1050C000010EE926000EEA22160EEF6E020EF36EB6
:1050D000020EF3CFDBFF2DD0FD0EDBCFE9FFFE0E7E
:1050E000DBCFEAFFEF50E66EFAC0E9FFFBC0EAFF54
:1050F000E552E750EF6ED950030FE66E000EDA204E
:10510000E66EFEEC2BF0E552E552FAC0E9FFFBC07B
:10511000EAFF010EE926000EEA22030EDBCFEFFFC5
:10512000020EF36E020EF3CFDBFF03D0FF0001D0BF
:1051300000D0020EDB501CE0010EDB68040104010C
:105140000C51800B08E0010EDBCFF3FFDB06F350C0
:10515000000801E2F3D704010CBF0AD0020EDBCF36
:10516000E6FFFB0EDBCFE6FF75EC1FF0E552E552E4
:10517000050EE15C02E2E16AE552E16EE552E7CF3D
:10518000D9FF1200D9CFE6FFE1CFD9FF2A0EE66E94
:10519000520EE66EFE0EDBCFE6FFA2EC1EF0E552ED
:1051A000E552E552FE0EDBCFE6FF40EC21F0E55282
:1051B000F3CFF8F0F4CFF9F0FE0EDBCFE6FFFFEC13
:1051C00026F0E552F3CFE9FFF4CFEAFF080EE92617
:1051D000000EEA22EECF10F0EFCF11F0010EE66ED6
:1051E00004D011C0FAFF1050F96EFBDFE552E55212
:1051F000E7CFD9FF1200060E0001E65D01E36D5016
:105200001200D9CFE6FFE1CFD9FFFE0EDBCFE6FFDC
:105210009EEC1EF0E552FE0EDBCFE6FFA5EC1EF085
:10522000E552E552E7CFD9FF1200D9CFE6FFE1CF33
:10523000D9FF020EE126010EDB6AFD0EDBCFE9FF8E
:10524000FE0EDBCFEAFFEF50FF0A5EE0FE0A29E028
:10525000010A01E05BD0FD0EDBCFE9FFFE0EDBCFE4
:10526000EAFFEF50E66EF8C0E9FFF9C0EAFFE55249
:10527000E750EF6EF8C0E9FFF9C0EAFF010EE9263A
:10528000000EEA22010EEF6EF8C0E9FFF9C0EAFF56
:10529000020EE926000EEA22EF6ADE52030EDD6EF0
:1052A00036D0FD0EDBCFE9FFFE0EDBCFEAFFEF507D
:1052B000E66EF8C0E9FFF9C0EAFFE552E750EF6E8D
:1052C000FB0EDBCFE6FFFFEC26F0E552F3CFE9FF64
:1052D000F4CFEAFFEECF10F0EFCF11F004D011C001
:1052E000FAFF1050F96EFBDFE66EF8C0E9FFF9C077
:1052F000EAFF010EE926000EEA22E552E750EF6EC2
:10530000DE52020EDD6E03D0FF0001D000D0010E90
:10531000DB5018E0DF68040104010C51800B05E04C
:10532000DF50DF06000801E2F6D704010CBF0AD007
:10533000010EDBCFE6FFFB0EDBCFE6FF75EC1FF0C7
:10534000E552E552020EE15C02E2E16AE552E16EED
:10535000E552E7CFD9FF1200D9CFE6FFE1CFD9FF61
:10536000FE0EE66E530EE66EFE0EDBCFE6FFA2ECFF
:105370001EF0E552E552E552FE0EDBCFE6FF40ECB3
:1053800021F0E552F3CFF6F0F4CFF7F0FE0EDBCFCD
:10539000E6FFFFEC26F0E552F3CFE9FFF4CFEAFF9A
:1053A000080EE926000EEA22EECF10F0EFCF11F042
:1053B000010EE66E04D011C0FAFF1050F96EFBDF4B
:1053C000E552E552E7CFD9FF1200060E0001E65D77
:1053D00001E36D501200D9CFE6FFE1CFD9FFFE0EF9
:1053E000DBCFE6FF9EEC1EF0E552FE0EDBCFE6FFC4
:1053F000A5EC1EF0E552E552E7CFD9FF1200D9CF58
:10540000E6FFE1CFD9FF040EE126030EDB6AFD0EB5
:10541000DBCFE9FFFE0EDBCFEAFFEF50FF0A76E0BD
:10542000FE0A2BE0010A01E073D0FD0EDBCFE9FF9D
:10543000FE0EDBCFEAFFEF50E66EF6C0E9FFF7C0E5
:10544000EAFFE552E750EF6EF6C0E9FFF7C0EAFF6A
:10545000010EE926000EEA22010EEF6EF6C0E9FF0A
:10546000F7C0EAFF020EE926000EEA22EF6A030EF9
:10547000F36E030EF3CFDBFF4CD0FD0EDBCFE9FF65
:10548000FE0EDBCFEAFFEF50E66EF6C0E9FFF7C095
:10549000EAFFE552E750EF6EFB0EDBCFE6FFFFECD5
:1054A00026F0E552F3CFE9FFF4CFEAFF020EE9263A
:1054B000000EEA22EECF10F0EFCF11F004D011C0B1
:1054C000FAFF1050F96EFBDFDE52F3CFDEFFF4CFB0
:1054D000DDFFDD52F6C0E9FFF7C0EAFF010EE92665
:1054E000000EEA22010EDBCFEFFFF6C0E9FFF7C0A6
:1054F000EAFF020EE926000EEA22020EDBCFEFFFE2
:10550000030EF36E030EF3CFDBFF03D0FF0001D0D9
:1055100000D0030EDB5018E0DF68040104010C51D9
:10552000800B05E0DF50DF06000801E2F6D704013A
:105530000CBF0AD0030EDBCFE6FFFB0EDBCFE6FF8E
:1055400075EC1FF0E552E552040EE15C02E2E16AFF
:10555000E552E16EE552E7CFD9FF1200D9CFE6FF61
:10556000E1CFD9FF020EE66E560EE66EFE0EDBCFE1
:10557000E6FFA2EC1EF0E552E552E552FE0EDBCF4F
:10558000E6FF40EC21F0E552F3CFF4F0F4CFF5F074
:10559000FE0EDBCFE6FFFFEC26F0E552F3CFE9FF8E
:1055A000F4CFEAFF080EE926000EEA22EECF10F053
:1055B000EFCF11F0010EE66E04D011C0FAFF1050CB
:1055C000F96EFBDFE552E552E7CFD9FF1200060E78
:1055D0000001E65D01E36D501200D9CFE6FFE1CF97
:1055E000D9FFFE0EDBCFE6FF9EEC1EF0E552FE0E6D
:1055F000DBCFE6FFA5EC1EF0E552E552E7CFD9FF81
:105600001200D9CFE6FFE1CFD9FF040EE126030E49
:10561000DB6AFD0EDBCFE9FFFE0EDBCFEAFFEF50CA
:10562000FF0A76E0FE0A2BE0010A01E073D0FD0ECE
:10563000DBCFE9FFFE0EDBCFEAFFEF50E66EF4C0F2
:10564000E9FFF5C0EAFFE552E750EF6EF4C0E9FF6D
:10565000F5C0EAFF010EE926000EEA22010EEF6E08
:10566000F4C0E9FFF5C0EAFF020EE926000EEA22C7
:10567000EF6A030EF36E030EF3CFDBFF4CD0FD0E8B
:10568000DBCFE9FFFE0EDBCFEAFFEF50E66EF4C0A2
:10569000E9FFF5C0EAFFE552E750EF6EFB0EDBCF06
:1056A000E6FFFFEC26F0E552F3CFE9FFF4CFEAFF87
:1056B000020EE926000EEA22EECF10F0EFCF11F035
:1056C00004D011C0FAFF1050F96EFBDFDE52F3CFA9
:1056D000DEFFF4CFDDFFDD52F4C0E9FFF5C0EAFFE5
:1056E000010EE926000EEA22010EDBCFEFFFF4C027
:1056F000E9FFF5C0EAFF020EE926000EEA22020EDB
:10570000DBCFEFFF030EF36E030EF3CFDBFF03D00F
:10571000FF0001D000D0030EDB5018E0DF68040169
:1057200004010C51800B05E0DF50DF06000801E2A8
:10573000F6D704010CBF0AD0030EDBCFE6FFFB0E49
:10574000DBCFE6FF75EC1FF0E552E552040EE15C9D
:1057500002E2E16AE552E16EE552E7CFD9FF1200BD
:10576000000EE66EE66A200EE66EF2C1E6FF1EEF60
:105770002FF067DBF2C1E6FF40DB600EE66E570EEE
:10578000F5EF2EF065DBF2C1E6FF37DB720EE66E59
:10579000570EF5EF2EF0000EE66EE66A200EE66E6E
:1057A000EEC1E6FF4BDB840EE66E570EF5EF2EF0F2
:1057B00048DBEEC1E6FF21DB960EE66E570EF5EFF5
:1057C0002EF046DBEEC1E6FF18DBB00EE66E570E9C
:1057D000F5EF2EF0010EE66EEEC1E6FF33EC1CF0A5
:1057E000E552E552010EE66EF2C1E6FF33EC1CF025
:1057F000E552E552C20EE66E570E02D31ADB060ED4
:10580000E126040EDB6A050EDB6A2A0EDF6EDE522D
:10581000010EDD6ED9CFE6FFDACFE6FF020EE66EAF
:10582000E66EEEC1E6FF1BDBFD0EDBCFE6FF25DB00
:10583000EFDA1CDB106E060EE15C02E2E16AE55273
:10584000E16E1050F2D2D9CFE6FFEFD2F2DA080EB5
:10585000E126060EDB6A070EDB6A060EDBCF10F0D0
:10586000070EDBCF11F0D890115004E6020E105C49
:10587000000E11582BE2000EE66EE66A010EE66E8F
:10588000E66A04C2E6FFEBDAC3DAD9CFE6FFDACF85
:10589000E6FFECDA02010451042B106E116AE850A5
:1058A000DF180EE11150DE52DD180AE10551052B1B
:1058B000EA6AF80FE96E010EEA22DFCFEFFF06D0A9
:1058C000060EDB2A070EC9E3DB2AC7D7020E020148
:1058D000055D0EE10101F851EE6FEF6BF06BF16BBE
:1058E000F951F26FF36B010EF46FF56B73DF0CD0AF
:1058F0000551106E116AFD0E101802E1115004E0FE
:105900004C0EE66E580E71DA080EE15C02E2E16AB6
:10591000E552E16E8AD24C0EE66E580E71D289DAEB
:10592000760EE66E590EE66EA8DAA2EC1EF0E5528F
:10593000E552E552A2DA40EC21F0E552F3CFF6F160
:10594000F4CFF7F172D2060E0001E65D01E36D506F
:1059500012006FDA92DA9EEC1EF0E5528EDAA5ECB8
:105960001EF0E552160EE66E590EE66ED8EC08F003
:10597000E552E5525AD2D9CFE6FFE1CFD9FF0E0E5C
:10598000E126010EDB6AFD0EDBCFE9FFFE0EDBCF69
:10599000EAFFEF50030A01E1EED1020A01E1F0D083
:1059A000030A2DE0FD0A29E0FF0A01E0F8D1FD0E0F
:1059B000DBCFE9FFFE0EDBCFEAFFEF50E66EF6C16C
:1059C000E9FFF7C1EAFFE552E750EF6EF6C1E9FFE4
:1059D000F7C1EAFF010EE926000EEA22010EEF6E82
:1059E000F6C1E9FFF7C1EAFF020EE926000EEA223E
:1059F000EF6ADE52030EDD6ED3D1FF00D1D1FD0E72
:105A0000DBCFE9FFFE0EDBCFEAFFEF50E66EF6C11B
:105A1000E9FFF7C1EAFFE552E750EF6EFD0EDBCF7D
:105A2000E9FFFE0EDBCFEAFF010EE926000EEA22B7
:105A3000090EEFCFDBFFFD0EDBCFE9FFFE0EDBCF64
:105A4000EAFF020EE926000EEA22020EEFCFDBFF8C
:105A5000FD0EDBCFE9FFFE0EDBCFEAFF030EE926EA
:105A6000000EEA22060EEFCFDBFFFD0EDBCFE9FFD3
:105A7000FE0EDBCFEAFF040EE926000EEA22040E3A
:105A8000EFCFDBFF060EDB50E66ED9500A0FE96E52
:105A9000DACFEAFFE552E750EE6EED6A0A0EDBCF91
:105AA00012F00B0EDBCF13F012C013F0126A040ECB
:105AB000DB5000011210106E13C011F00A0E10C05E
:105AC000DBFF0B0E11C0DBFF090EDB502BE1020EDA
:105AD000DB0410E1E66A0A0EDBCFE6FF0B0EDBCF3C
:105AE000E6FFEEC1E6FF41EC1CF0E552E552E5525F
:105AF000E55217D0E66A0A0EDBCF10F00B0EDBCFB3
:105B000011F0106C111E000E112210C0E6FF11C022
:105B1000E6FFEEC1E6FF41EC1CF0E552E552E5522E
:105B2000E5522AD0020EDB0410E1E66A0A0EDBCF52
:105B3000E6FF0B0EDBCFE6FFF2C1E6FF41EC1CF007
:105B4000E552E552E552E55217D0E66A0A0EDBCF80
:105B500010F00B0EDBCF11F0106C111E000E112295
:105B600010C0E6FF11C0E6FFF2C1E6FF41EC1CF0F9
:105B7000E552E552E552E552DE52010EDD6E10D1DE
:105B8000FD0EDBCFE9FFFE0EDBCFEAFFEF50E66E46
:105B9000F6C1E9FFF7C1EAFFE552E750EF6EFD0EEF
:105BA000DBCFE9FFFE0EDBCFEAFF010EE926000E98
:105BB000EA22020EEFCFDBFFFD0EDBCFE9FFFE0E88
:105BC000DBCFEAFF020EE926000EEA22060EEFCF37
:105BD000DBFFFD0EDBCFE9FFFE0EDBCFEAFF030E9E
:105BE000E926000EEA22040EEFCFDBFF060EDB50A3
:105BF000E66ED9500A0FE96EDACFEAFFE552E750B8
:105C0000EE6EED6A0A0EDBCF12F00B0EDBCF13F057
:105C100012C013F0126A040EDB5000011210106E55
:105C200013C011F00A0E10C0DBFF0B0E11C0DBFF1A
:105C3000FD0EDBCFE9FFFE0EDBCFEAFF040EE92607
:105C4000000EEA22030EEFCFDBFFFD0EDBCFE9FFF4
:105C5000FE0EDBCFEAFF050EE926000EEA22070E54
:105C6000EFCFDBFFFD0EDBCFE9FFFE0EDBCFEAFF60
:105C7000060EE926000EEA22050EEFCFDBFF070E27
:105C8000DB50E66ED9500C0FE96EDACFEAFFE55231
:105C9000E750EE6EED6A0C0EDBCF12F00D0EDBCF8F
:105CA00013F012C013F0126A050EDB50000112103F
:105CB000106E13C011F00C0E10C0DBFF0D0E11C0E2
:105CC000DBFF020EDB0410E1E66A0A0EDBCFE6FF23
:105CD0000B0EDBCFE6FFEEC1E6FF41EC1CF0E55218
:105CE000E552E552E55217D0E66A0A0EDBCF10F016
:105CF0000B0EDBCF11F0106C111E000E112210C024
:105D0000E6FF11C0E6FFEEC1E6FF41EC1CF0E552F4
:105D1000E552E552E552030EDB0411E1010EE66E99
:105D20000C0EDBCFE6FF0D0EDBCFE6FFF2C1E6FF88
:105D300041EC1CF0E552E552E552E55218D0010E57
:105D4000E66E0C0EDBCF10F00D0EDBCF11F0106CF9
:105D5000111E000E112210C0E6FF11C0E6FFF2C1B5
:105D6000E6FF41EC1CF0E552E552E552E552DE5209
:105D7000010EDD6E15D02EDDFD0EDBCFE9FFFE0E30
:105D8000DBCFEAFFEF50E66EF6C1E9FFF7C1EAFFAD
:105D9000E552E750EF6EDE52010EDD6E01D000D00D
:105DA000010EDB5018E0DF68040104010C51800B88
:105DB00005E0DF50DF06000801E2F6D704010CBF62
:105DC0000AD0010EDBCFE6FFFB0EDBCFE6FF75EC62
:105DD0001FF0E552E5520E0EE15C02E2E16AE55287
:105DE000E16EE552E7CFD9FF1200E66E880EE66E4F
:105DF000130EE66EA4EC08F044D041EC1CF041D048
:105E0000E66ED00EE66E070EE66E40EC08F039D076
:105E1000D950040FE66E000EDA20E66ED950020F5C
:105E2000E66E000EDA20E66E1200E552E7CFD9FFEB
:105E30001200D9CFE6FFE1CFD9FF1200CAEC1BF068
:105E400020D0010EE66EA80EE66EFD0EE66E120084
:105E5000010EE66E580EE66E020EE66E1200A8EC1B
:105E60001AF0106E050EE15E10501200F5EC1AF0FB
:105E7000106E060EE15E10501200FE0EDBCFE6FF44
:105E80001200E552E552E552E5521200D9CFE6FF85
:105E9000E1CFD9FF320EE66E5F0EE66EFE0EDBCF6F
:105EA000E6FFA2EC1EF0E552E552E552FE0EDBCF16
:105EB000E6FF40EC21F0E552F3CFEEF0F4CFEFF047
:105EC000FE0EDBCFE6FFFFEC26F0E552F3CFE9FF55
:105ED000F4CFEAFF080EE926000EEA22EECF10F01A
:105EE000EFCF11F0010EE66E04D011C0FAFF105092
:105EF000F96EFBDFE552E552E7CFD9FF1200060E3F
:105F00000001E65D01E36D501200D9CFE6FFE1CF5D
:105F1000D9FFFE0EDBCFE6FF9EEC1EF0E552FE0E33
:105F2000DBCFE6FFA5EC1EF0E552E552E7CFD9FF47
:105F30001200D9CFE6FFE1CFD9FF040EE126030E10
:105F4000DB6AFD0EDBCFE9FFFE0EDBCFEAFFEF5091
:105F5000FF0A76E0FE0A2BE0010A01E073D0FD0E95
:105F6000DBCFE9FFFE0EDBCFEAFFEF50E66EEEC0BF
:105F7000E9FFEFC0EAFFE552E750EF6EEEC0E9FF40
:105F8000EFC0EAFF010EE926000EEA22010EEF6ED5
:105F9000EEC0E9FFEFC0EAFF020EE926000EEA229A
:105FA000EF6A030EF36E030EF3CFDBFF4CD0FD0E52
:105FB000DBCFE9FFFE0EDBCFEAFFEF50E66EEEC06F
:105FC000E9FFEFC0EAFFE552E750EF6EFB0EDBCFD3
:105FD000E6FFFFEC26F0E552F3CFE9FFF4CFEAFF4E
:105FE000020EE926000EEA22EECF10F0EFCF11F0FC
:105FF00004D011C0FAFF1050F96EFBDFDE52F3CF70
:10600000DEFFF4CFDDFFDD52EEC0E9FFEFC0EAFFB7
:10601000010EE926000EEA22010EDBCFEFFFEEC0F3
:10602000E9FFEFC0EAFF020EE926000EEA22020EA7
:10603000DBCFEFFF030EF36E030EF3CFDBFF03D0D6
:10604000FF0001D000D0030EDB5018E0DF68040130
:1060500004010C51800B05E0DF50DF06000801E26F
:10606000F6D704010CBF0AD0030EDBCFE6FFFB0E10
:10607000DBCFE6FF75EC1FF0E552E552040EE15C64
:1060800002E2E16AE552E16EE552E7CFD9FF120084
:10609000D9CFE6FFE1CFD9FF360EE66E610EE66E90
:1060A000FE0EDBCFE6FFA2EC1EF0E552E552E55214
:1060B000FE0EDBCFE6FF40EC21F0E552F3CFECF033
:1060C000F4CFEDF0FE0EDBCFE6FFFFEC26F0E5525D
:1060D000F3CFE9FFF4CFEAFF080EE926000EEA222B
:1060E000EECF10F0EFCF11F0010EE66E04D011C02C
:1060F000FAFF1050F96EFBDFE552E552E7CFD9FF0A
:106100001200060E0001E65D01E36D501200D9CFCA
:10611000E6FFE1CFD9FFFE0EDBCFE6FF9EEC1EF0DF
:10612000E552FE0EDBCFE6FFA5EC1EF0E552E55290
:10613000E7CFD9FF1200D9CFE6FFE1CFD9FF040E98
:10614000E126030EDB6AFD0EDBCFE9FFFE0EDBCF9F
:10615000EAFFEF50FF0A76E0FE0A2BE0010A01E0B9
:1061600073D0FD0EDBCFE9FFFE0EDBCFEAFFEF5071
:10617000E66EECC0E9FFEDC0EAFFE552E750EF6ED6
:10618000ECC0E9FFEDC0EAFF010EE926000EEA22AD
:10619000010EEF6EECC0E9FFEDC0EAFF020EE9264A
:1061A000000EEA22EF6A030EF36E030EF3CFDBFF5D
:1061B0004CD0FD0EDBCFE9FFFE0EDBCFEAFFEF5048
:1061C000E66EECC0E9FFEDC0EAFFE552E750EF6E86
:1061D000FB0EDBCFE6FFFFEC26F0E552F3CFE9FF45
:1061E000F4CFEAFF020EE926000EEA22EECF10F00D
:1061F000EFCF11F004D011C0FAFF1050F96EFBDFA1
:10620000DE52F3CFDEFFF4CFDDFFDD52ECC0E9FF5D
:10621000EDC0EAFF010EE926000EEA22010EDBCFF7
:10622000EFFFECC0E9FFEDC0EAFF020EE926000E29
:10623000EA22020EDBCFEFFF030EF36E030EF3CF65
:10624000DBFF03D0FF0001D000D0030EDB5018E0CD
:10625000DF68040104010C51800B05E0DF50DF060C
:10626000000801E2F6D704010CBF0AD0030EDBCF11
:10627000E6FFFB0EDBCFE6FF75EC1FF0E552E552C3
:10628000040EE15C02E2E16AE552E16EE552E7CF1D
:10629000D9FF1200D9CFE6FFE1CFD9FF3A0EE66E63
:1062A000630EE66EFE0EDBCFE6FFA2EC1EF0E552BB
:1062B000E552E552FE0EDBCFE6FF40EC21F0E55261
:1062C000F3CFEAF0F4CFEBF0FE0EDBCFE6FFFFEC0E
:1062D00026F0E552F3CFE9FFF4CFEAFF080EE926F6
:1062E000000EEA22EECF10F0EFCF11F0010EE66EB5
:1062F00004D011C0FAFF1050F96EFBDFE552E552F1
:10630000E7CFD9FF1200060E0001E65D01E36D50F4
:106310001200D9CFE6FFE1CFD9FFFE0EDBCFE6FFBB
:106320009EEC1EF0E552FE0EDBCFE6FFA5EC1EF064
:10633000E552E552E7CFD9FF1200D9CFE6FFE1CF12
:10634000D9FF040EE126030EDB6AFD0EDBCFE9FF69
:10635000FE0EDBCFEAFFEF50FF0A76E0FE0A2BE0ED
:10636000010A01E073D0FD0EDBCFE9FFFE0EDBCFAB
:10637000EAFFEF50E66EEAC0E9FFEBC0EAFFE55244
:10638000E750EF6EEAC0E9FFEBC0EAFF010EE92635
:10639000000EEA22010EEF6EEAC0E9FFEBC0EAFF51
:1063A000020EE926000EEA22EF6A030EF36E030ED8
:1063B000F3CFDBFF4CD0FD0EDBCFE9FFFE0EDBCFD2
:1063C000EAFFEF50E66EEAC0E9FFEBC0EAFFE552F4
:1063D000E750EF6EFB0EDBCFE6FFFFEC26F0E55259
:1063E000F3CFE9FFF4CFEAFF020EE926000EEA221E
:1063F000EECF10F0EFCF11F004D011C0FAFF105023
:10640000F96EFBDFDE52F3CFDEFFF4CFDDFFDD52AE
:10641000EAC0E9FFEBC0EAFF010EE926000EEA221E
:10642000010EDBCFEFFFEAC0E9FFEBC0EAFF020E8F
:10643000E926000EEA22020EDBCFEFFF030EF36E19
:10644000030EF3CFDBFF03D0FF0001D000D0030E1B
:10645000DB5018E0DF68040104010C51800B05E0FB
:10646000DF50DF06000801E2F6D704010CBF0AD0B6
:10647000030EDBCFE6FFFB0EDBCFE6FF75EC1FF074
:10648000E552E552040EE15C02E2E16AE552E16E9A
:10649000E552E7CFD9FF1200D9CFE6FFE1CFD9FF10
:1064A000B20EE66E650EE66EFE0EDBCFE6FFA2ECE8
:1064B0001EF0E552E552E552FE0EDBCFE6FF40EC62
:1064C00021F0E552F3CFF0F0F4CFF1F0FE0EDBCF88
:1064D000E6FFFFEC26F0E552F3CFE9FFF4CFEAFF49
:1064E000080EE926000EEA22EECF10F0EFCF11F0F1
:1064F000E66A04D011C0FAFF1050F96EFBDFE552D6
:10650000E552E7CFD9FF1200D9CFE6FF060E000112
:10651000E65D02E36D50020BE552E7CFD9FF1200B2
:10652000D9CFE6FFE1CFD9FFFE0EDBCFE6FFFFECD0
:1065300026F0E552F3CFE9FFF4CFEAFF040EE92697
:10654000000EEA22EECF10F0EFCF11F0E66A04D091
:1065500011C0FAFF1050F96EFBDFE552FE0EDBCFE3
:10656000E6FFFFEC26F0E552F3CFE9FFF4CFEAFFB8
:10657000080EE926000EEA22EECF10F0EFCF11F060
:10658000010EE66E04D011C0FAFF1050F96EFBDF69
:10659000E552FE0EDBCFE6FF9EEC1EF0E552FE0E4E
:1065A000DBCFE6FFA5EC1EF0E552E552E7CFD9FFC1
:1065B0001200D9CFE6FFE1CFD9FF020EE126010E8E
:1065C000DB6AFD0EDBCFE9FFFE0EDBCFEAFFEF500B
:1065D000FF0A01E180D0FE0A29E0010A01E07DD036
:1065E000FD0EDBCFE9FFFE0EDBCFEAFFEF50E66EDC
:1065F000F0C0E9FFF1C0EAFFE552E750EF6EF0C0EE
:10660000E9FFF1C0EAFF010EE926000EEA22010EC1
:10661000EF6EF0C0E9FFF1C0EAFF020EE926000EBE
:10662000EA22EF6ADE52040EDD6E58D0FD0EDBCF9B
:10663000E9FFFE0EDBCFEAFFEF50E66EF0C0E9FFA8
:10664000F1C0EAFFE552E750EF6EFD0EDBCFE9FF48
:10665000FE0EDBCFEAFF010EE926000EEA22EF0470
:106660001CE1FB0EDBCFE6FFFFEC26F0E552F3CF9B
:10667000E9FFF4CFEAFF040EE926000EEA22EECF8E
:1066800010F0EFCF11F0010EE66E04D011C0FAFF4A
:106690001050F96EFBDFE5521AD0FB0EDBCFE6FFA0
:1066A000FFEC26F0E552F3CFE9FFF4CFEAFF040E4A
:1066B000E926000EEA22EECF10F0EFCF11F0E66AE5
:1066C00004D011C0FAFF1050F96EFBDFE552DE5224
:1066D000020EDD6E03D0FF0001D000D0010EDB50B2
:1066E00018E0DF68040104010C51800B05E0DF5065
:1066F000DF06000801E2F6D704010CBF0AD0010E44
:10670000DBCFE6FFFB0EDBCFE6FF75EC1FF0E552BB
:10671000E552020EE15C02E2E16AE552E16EE55209
:10672000E7CFD9FF1200F2D8740EE66E670EE66E60
:10673000FE0EDBCFE6FFA2EC1EF0E552E552E5527D
:10674000FE0EDBCFE6FF40EC21F0E552F3CFF2F096
:10675000F4CFF3F0D5D01200D9D8FE0EDBCFE6FF90
:106760009EEC1EF0E552FE0EDBCFE6FFA5EC1EF020
:10677000E552C6D0CBD8040EE126010EDB6ACBD899
:10678000EF50020A50E0040A48E0030A42E0010A1E
:106790003AE0070A1EE0020A0EE0010A66E187D825
:1067A000A8D8020EEF6EC2D8E926000EEA22EF6AE0
:1067B000DE52030E59D0B6D805E18FD81FE09CD821
:1067C000FEE11CD08AD802E097D8FEE1F350951084
:1067D00018D0A8D807E181D802E08ED8FEE1F350A6
:1067E000831007D07AD802E087D8FEE1F350F31C7B
:1067F0008314836E72D802E07FD8FEE1F350F31C5D
:106800009514956E0DD053D886D895D8EF50836ED9
:1068100006D04DD8836A956803D049D8836A956AB3
:10682000DE52010E21D043D84AD8020EDBCF10F041
:1068300054D802E061D8FEE1F350831410C0E7FFA2
:10684000E75204E0E8427F0BE706FCE1E66E51D830
:10685000E552E750EF6E41D802E04ED8FEE1F3502A
:106860009510956EDE52020EDD6E010EDB5015E0C6
:10687000DF6804010C51800B04E0DF50DF060008E4
:10688000F8E30CBF0AD0010EDBCFE6FFFB0EDBCF37
:10689000E6FF75EC1FF0E552E552040EE15C02E202
:1068A000E16AE552E16EE552E7CFD9FF120033D835
:1068B000EF50E66E3BD8E552E750EF6E12002BD852
:1068C0003AD8EF50E66ED950020FE96EDACFEAFF00
:1068D000E552E750EE6EED6A1200010EF36E020E05
:1068E000DB50120018D8020EE926000EEA22EF044F
:1068F00012001CD89BEF34F0D890F336E806120053
:10690000836A9568E552E7CFD9FF1200D9CFE6FF39
:10691000E1CFD9FF1200FD0EDBCFE9FFFE0EDBCF8A
:10692000EAFF1200C4DFCBDF72EF34F0F2C0E9FF00
:10693000F3C0EAFF1200010EE926000EEA2212005F
:020000040030CA
:0100000024DB
:010001000CF2
:010002003FBE
:010003001EDE
:010005008377
:010006008178
:010008000FE8
:01000900C036
:01000A000FE6
:01000B00E014
:01000C000FE4
:01000D0040B2
:00000001FF
