:100000000C9402010C9421010C9421010C94210107
:100010000C9421010C9421010C9421010C942101D8
:100020000C9421010C9421010C9421010C942101C8
:100030000C9421010C9421010C9421010C942101B8
:100040000C9421010C9421010C9421010C942101A8
:100050000C9421010C9421010C9421010C94400179
:100060000C9421010C9421010C9421010C94210188
:100070000C9421010C9421010C9421010C94210178
:100080000C9421010C9421010C9421010C94210168
:100090000C9421010C9421010C9421010C94210158
:1000A0000C9421010C9421010C9421010C94210148
:1000B0000C9421010C9421010C9421010C94210138
:1000C0000C9421010C9421010C9421010C94210128
:1000D0000C9421010C9421010C9421010C94210118
:1000E0000C94210100002100240027002A002D008B
:1000F0003000330001010000040107010A01000083
:100100002200250028002B002E00310034000201BF
:100110000000050108010B0100002000230026005B
:1001200029002C002F00320000010000030106010D
:10013000090105050505070508080808020202026D
:100140000A0A080804040404010101010101010173
:100150000303030303030303040707070C0C0C0C3E
:100160000C0C0C0C02020202060606060606060627
:100170000B0B0B0B0B0B0B0B0102102020080810B4
:100180002040102040800201020108040201010207
:1001900004081020408080402010080402018004E0
:1001A000020180402010080402010804020101023B
:1001B0000408102040800102040810204080000044
:1001C000090A02080B0C0D070603040100000000D9
:1001D000000000000000000000000000000000001F
:1001E00000000000000000000000100F0E000000E2
:1001F00000000000000000000000000000000000FF
:100200000000000011241FBECFEFD1E2DEBFCDBF42
:1002100012E0A0E0B2E0E2E2F6E000E00BBF02C0D4
:1002200007900D92A230B107D9F712E0A2E0B2E038
:1002300001C01D92AB30B107E1F70E9408030C9496
:100240000F030C9400008091000261E00E94AA025A
:1002500008958091000261E00E94CE0268EE73E092
:1002600080E090E00E94AE018091000260E00E9478
:10027000CE0268EE73E080E090E00E94AE01089547
:100280001F920F920FB60F9211242F933F938F93CB
:100290009F93AF93BF938091060290910702A09124
:1002A0000802B091090230910A020196A11DB11D08
:1002B000232F2D5F2D3720F02D570196A11DB11D45
:1002C00020930A028093060290930702A0930802EB
:1002D000B09309028091020290910302A09104025E
:1002E000B09105020196A11DB11D80930202909369
:1002F0000302A0930402B0930502BF91AF919F91B6
:100300008F913F912F910F900FBE0F901F901895D6
:100310009FB7F894209102023091030240910402A9
:100320005091050286B5A89B06C08F3F21F02F5F34
:100330003F4F4F4F5F4F9FBF542F432F322F2227E6
:10034000280F311D411D511D82E0220F331F441F14
:10035000551F8A95D1F7B901CA010895EF92FF920E
:100360000F931F93CF93DF937B018C010E94880131
:10037000EB010FC00E9488016C1B7D0B83E0683E7F
:10038000780738F00894E108F10801091109C8510B
:10039000DC4FE114F1040105110561F7DF91CF9104
:1003A0001F910F91FF90EF900895789484B582602B
:1003B00084BD84B5816084BD85B5826085BD85B509
:1003C000816085BDEEE6F0E0808181608083E1E8B8
:1003D000F0E01082808182608083808181608083F0
:1003E000E0E8F0E0808181608083E1EBF0E08081F3
:1003F00084608083E0EBF0E0808181608083E1E9CC
:10040000F0E0808182608083808181608083E0E988
:10041000F0E0808181608083E1EAF0E080818260A9
:100420008083808181608083E0EAF0E08081816068
:100430008083E1E2F1E0808182608083808181605D
:100440008083E0E2F1E0808181608083EAE7F0E090
:1004500080818460808380818260808380818160EC
:1004600080838081806880831092C10008958930E4
:1004700009F448C08A30A0F4843049F1853040F452
:10048000823071F18330F8F4813009F062C025C008
:10049000873071F1883090F5863009F05AC024C059
:1004A0008D3009F441C08E3028F48B30A9F18C30A6
:1004B000B8F52CC08F3009F441C08F30D8F18031AD
:1004C00009F047C041C0809180008F7703C08091C0
:1004D00080008F7D80938000089584B58F7702C05F
:1004E00084B58F7D84BD08958091B0008F7703C05F
:1004F0008091B0008F7D8093B0000895809190002E
:100500008F7707C0809190008F7D03C0809190000D
:10051000877F8093900008958091A0008F7707C017
:100520008091A0008F7D03C08091A000877F809381
:10053000A0000895809120018F7703C08091200151
:100540008F7D80932001089580912001877F809383
:100550002001089590E0FC01E858FE4F2491FC0131
:10056000EE5CFE4FE491EE23C1F0F0E0EE0FFF1FD2
:10057000EC51FF4F85919491DC01662341F49FB7C4
:10058000F8948C91209582238C939FBF08959FB7F8
:10059000F8948C91822B8C939FBF08950F931F9397
:1005A000DF93CF930F92CDB7DEB7282F30E0F9015C
:1005B000E254FE4F8491F901E858FE4F14912E5CED
:1005C0003E4FF90104910023E9F0882321F069836B
:1005D0000E9437026981E02FF0E0EE0FFF1FE2502A
:1005E000FF4F85919491DC01662331F49FB7F89415
:1005F0008C911095812304C09FB7F8948C91812B26
:100600008C939FBF0F90CF91DF911F910F91089511
:100610000E94D5010E9423010E942901FDCFF89478
:02062000FFCF0A
:020622000D00C9
:00000001FF
